{
  "transactions": [
    {
      "hash": "0x05d242ccbfc73cb4157d900f73d5b2ee0e4a075c9878fe797c8fc09e180dc443",
      "transactionType": "CREATE",
      "contractName": "DigitalEuro",
      "contractAddress": "0x5aE69a270f061d8435100938b2Cef210D1f8348F",
      "function": null,
      "arguments": [
        "Digital Euro",
        "DEUR"
      ],
      "transaction": {
        "from": "0xe30f5d336931186dd86b5c9426fd4493c34a5c5d",
        "gas": "0xfd09b",
        "value": "0x0",
        "input": "0x608060405234801561000f575f5ffd5b50604051610ef8380380610ef883398101604081905261002e916101d5565b8181600361003c83826102be565b50600461004982826102be565b5061005891505f90503361008b565b506100837f9f2df0fed2c77648de5860a4cc508cd0818c85b8b8a1ab4ceeef8d981c8956a63361008b565b505050610378565b5f8281526005602090815260408083206001600160a01b038516845290915281205460ff1661012f575f8381526005602090815260408083206001600160a01b03861684529091529020805460ff191660011790556100e73390565b6001600160a01b0316826001600160a01b0316847f2f8788117e7eff1d82e926ec794901d17c78024a50270940304540a733656f0d60405160405180910390a4506001610132565b505f5b92915050565b634e487b7160e01b5f52604160045260245ffd5b5f82601f83011261015b575f5ffd5b81516001600160401b0381111561017457610174610138565b604051601f8201601f19908116603f011681016001600160401b03811182821017156101a2576101a2610138565b6040528181528382016020018510156101b9575f5ffd5b8160208501602083015e5f918101602001919091529392505050565b5f5f604083850312156101e6575f5ffd5b82516001600160401b038111156101fb575f5ffd5b6102078582860161014c565b602085015190935090506001600160401b03811115610224575f5ffd5b6102308582860161014c565b9150509250929050565b600181811c9082168061024e57607f821691505b60208210810361026c57634e487b7160e01b5f52602260045260245ffd5b50919050565b601f8211156102b957805f5260205f20601f840160051c810160208510156102975750805b601f840160051c820191505b818110156102b6575f81556001016102a3565b50505b505050565b81516001600160401b038111156102d7576102d7610138565b6102eb816102e5845461023a565b84610272565b6020601f82116001811461031d575f83156103065750848201515b5f19600385901b1c1916600184901b1784556102b6565b5f84815260208120601f198516915b8281101561034c578785015182556020948501946001909201910161032c565b508482101561036957868401515f19600387901b60f8161c191681555b50505050600190811b01905550565b610b73806103855f395ff3fe608060405234801561000f575f5ffd5b5060043610610111575f3560e01c806340c10f191161009e578063a217fddf1161006e578063a217fddf14610239578063a9059cbb14610240578063d539139314610253578063d547741f1461027a578063dd62ed3e1461028d575f5ffd5b806340c10f19146101e357806370a08231146101f657806391d148541461021e57806395d89b4114610231575f5ffd5b806323b872dd116100e457806323b872dd14610177578063248a9ca31461018a5780632f2ff15d146101ac578063313ce567146101c157806336568abe146101d0575f5ffd5b806301ffc9a71461011557806306fdde031461013d578063095ea7b31461015257806318160ddd14610165575b5f5ffd5b610128610123366004610984565b6102c5565b60405190151581526020015b60405180910390f35b6101456102fb565b60405161013491906109b2565b610128610160366004610a02565b61038b565b6002545b604051908152602001610134565b610128610185366004610a2a565b6103a2565b610169610198366004610a64565b5f9081526005602052604090206001015490565b6101bf6101ba366004610a7b565b6103c5565b005b60405160068152602001610134565b6101bf6101de366004610a7b565b6103ef565b6101bf6101f1366004610a02565b610427565b610169610204366004610aa5565b6001600160a01b03165f9081526020819052604090205490565b61012861022c366004610a7b565b6104c3565b6101456104ed565b6101695f81565b61012861024e366004610a02565b6104fc565b6101697f9f2df0fed2c77648de5860a4cc508cd0818c85b8b8a1ab4ceeef8d981c8956a681565b6101bf610288366004610a7b565b610509565b61016961029b366004610abe565b6001600160a01b039182165f90815260016020908152604080832093909416825291909152205490565b5f6001600160e01b03198216637965db0b60e01b14806102f557506301ffc9a760e01b6001600160e01b03198316145b92915050565b60606003805461030a90610ae6565b80601f016020809104026020016040519081016040528092919081815260200182805461033690610ae6565b80156103815780601f1061035857610100808354040283529160200191610381565b820191905f5260205f20905b81548152906001019060200180831161036457829003601f168201915b5050505050905090565b5f3361039881858561052d565b5060019392505050565b5f336103af85828561053a565b6103ba8585856105b5565b506001949350505050565b5f828152600560205260409020600101546103df81610612565b6103e9838361061f565b50505050565b6001600160a01b03811633146104185760405163334bd91960e11b815260040160405180910390fd5b61042282826106b0565b505050565b7f9f2df0fed2c77648de5860a4cc508cd0818c85b8b8a1ab4ceeef8d981c8956a661045181610612565b815f036104715760405163210753df60e01b815260040160405180910390fd5b61047b838361071b565b826001600160a01b03167f3f2c9d57c068687834f0de942a9babb9e5acab57d516d3480a3c16ee165a4273836040516104b691815260200190565b60405180910390a2505050565b5f9182526005602090815260408084206001600160a01b0393909316845291905290205460ff1690565b60606004805461030a90610ae6565b5f336103988185856105b5565b5f8281526005602052604090206001015461052381610612565b6103e983836106b0565b6104228383836001610753565b6001600160a01b038381165f908152600160209081526040808320938616835292905220545f198110156103e957818110156105a757604051637dc7a0d960e11b81526001600160a01b038416600482015260248101829052604481018390526064015b60405180910390fd5b6103e984848484035f610753565b6001600160a01b0383166105de57604051634b637e8f60e11b81525f600482015260240161059e565b6001600160a01b0382166106075760405163ec442f0560e01b81525f600482015260240161059e565b610422838383610825565b61061c813361094b565b50565b5f61062a83836104c3565b6106a9575f8381526005602090815260408083206001600160a01b03861684529091529020805460ff191660011790556106613390565b6001600160a01b0316826001600160a01b0316847f2f8788117e7eff1d82e926ec794901d17c78024a50270940304540a733656f0d60405160405180910390a45060016102f5565b505f6102f5565b5f6106bb83836104c3565b156106a9575f8381526005602090815260408083206001600160a01b0386168085529252808320805460ff1916905551339286917ff6391f5c32d9c69d2a47ea670b442974b53935d1edc7fd64eb21e047a839171b9190a45060016102f5565b6001600160a01b0382166107445760405163ec442f0560e01b81525f600482015260240161059e565b61074f5f8383610825565b5050565b6001600160a01b03841661077c5760405163e602df0560e01b81525f600482015260240161059e565b6001600160a01b0383166107a557604051634a1406b160e11b81525f600482015260240161059e565b6001600160a01b038085165f90815260016020908152604080832093871683529290522082905580156103e957826001600160a01b0316846001600160a01b03167f8c5be1e5ebec7d5bd14f71427d1e84f3dd0314c0f7b2291e5b200ac8c7c3b9258460405161081791815260200190565b60405180910390a350505050565b6001600160a01b03831661084f578060025f8282546108449190610b1e565b909155506108bf9050565b6001600160a01b0383165f90815260208190526040902054818110156108a15760405163391434e360e21b81526001600160a01b0385166004820152602481018290526044810183905260640161059e565b6001600160a01b0384165f9081526020819052604090209082900390555b6001600160a01b0382166108db576002805482900390556108f9565b6001600160a01b0382165f9081526020819052604090208054820190555b816001600160a01b0316836001600160a01b03167fddf252ad1be2c89b69c2b068fc378daa952ba7f163c4a11628f55a4df523b3ef8360405161093e91815260200190565b60405180910390a3505050565b61095582826104c3565b61074f5760405163e2517d3f60e01b81526001600160a01b03821660048201526024810183905260440161059e565b5f60208284031215610994575f5ffd5b81356001600160e01b0319811681146109ab575f5ffd5b9392505050565b602081525f82518060208401528060208501604085015e5f604082850101526040601f19601f83011684010191505092915050565b80356001600160a01b03811681146109fd575f5ffd5b919050565b5f5f60408385031215610a13575f5ffd5b610a1c836109e7565b946020939093013593505050565b5f5f5f60608486031215610a3c575f5ffd5b610a45846109e7565b9250610a53602085016109e7565b929592945050506040919091013590565b5f60208284031215610a74575f5ffd5b5035919050565b5f5f60408385031215610a8c575f5ffd5b82359150610a9c602084016109e7565b90509250929050565b5f60208284031215610ab5575f5ffd5b6109ab826109e7565b5f5f60408385031215610acf575f5ffd5b610ad8836109e7565b9150610a9c602084016109e7565b600181811c90821680610afa57607f821691505b602082108103610b1857634e487b7160e01b5f52602260045260245ffd5b50919050565b808201808211156102f557634e487b7160e01b5f52601160045260245ffdfea2646970667358221220160d8d1a37de4948c2337fa4a42dd362e917a011991410010613432f4582aa0264736f6c634300081e003300000000000000000000000000000000000000000000000000000000000000400000000000000000000000000000000000000000000000000000000000000080000000000000000000000000000000000000000000000000000000000000000c4469676974616c204575726f000000000000000000000000000000000000000000000000000000000000000000000000000000000000000000000000000000044445555200000000000000000000000000000000000000000000000000000000",
        "nonce": "0xeb",
        "chainId": "0xaa36a7"
      },
      "additionalContracts": [],
      "isFixedGasLimit": false
    },
    {
      "hash": "0x5686d08359b0ad9740e51c260e47ebd56a85502278d5991f0ca03330f65dbf8e",
      "transactionType": "CREATE",
      "contractName": "FinancialAssets",
      "contractAddress": "0xbC7Ebadd93107D39A3379D9C600f428eb9765f0c",
      "function": null,
      "arguments": [
        "https://amethyst-accessible-lemming-653.mypinata.cloud/ipfs/bafybeid42im5sn3kgswi5fgemsql66pp4s75gr62idcwsoxkutqk3odbvy/{id}.json"
      ],
      "transaction": {
        "from": "0xe30f5d336931186dd86b5c9426fd4493c34a5c5d",
        "gas": "0x256755",
        "value": "0x0",
        "input": "0x608060405234801561000f575f5ffd5b506040516120c43803806120c483398101604081905261002e91610146565b8061003881610075565b506100435f33610085565b5061006e7f0b84ee281e5cf521a9ad54a86fafe78946b157177e231bd8ae785af4d3b3620f33610085565b5050610334565b6002610081828261027a565b5050565b5f8281526003602090815260408083206001600160a01b038516845290915281205460ff16610129575f8381526003602090815260408083206001600160a01b03861684529091529020805460ff191660011790556100e13390565b6001600160a01b0316826001600160a01b0316847f2f8788117e7eff1d82e926ec794901d17c78024a50270940304540a733656f0d60405160405180910390a450600161012c565b505f5b92915050565b634e487b7160e01b5f52604160045260245ffd5b5f60208284031215610156575f5ffd5b81516001600160401b0381111561016b575f5ffd5b8201601f8101841361017b575f5ffd5b80516001600160401b0381111561019457610194610132565b604051601f8201601f19908116603f011681016001600160401b03811182821017156101c2576101c2610132565b6040528181528282016020018610156101d9575f5ffd5b8160208401602083015e5f91810160200191909152949350505050565b600181811c9082168061020a57607f821691505b60208210810361022857634e487b7160e01b5f52602260045260245ffd5b50919050565b601f82111561027557805f5260205f20601f840160051c810160208510156102535750805b601f840160051c820191505b81811015610272575f815560010161025f565b50505b505050565b81516001600160401b0381111561029357610293610132565b6102a7816102a184546101f6565b8461022e565b6020601f8211600181146102d9575f83156102c25750848201515b5f19600385901b1c1916600184901b178455610272565b5f84815260208120601f198516915b8281101561030857878501518255602094850194600190920191016102e8565b508482101561032557868401515f19600387901b60f8161c191681555b50505050600190811b01905550565b611d83806103415f395ff3fe608060405234801561000f575f5ffd5b50600436106101a0575f3560e01c80634e1273f4116100f3578063a22cb46511610093578063d547741f1161006e578063d547741f146103b8578063e2dc3666146103cb578063e985e9c5146103de578063f242432a146103f1575f5ffd5b8063a22cb46514610373578063bd85b03914610386578063d351cfdc146103a5575f5ffd5b80636b36d613116100ce5780636b36d6131461033e5780636f9759811461034657806391d1485414610359578063a217fddf1461036c575f5ffd5b80634e1273f4146102ea5780634f558e791461030a578063518e2bdd1461032b575f5ffd5b80631e77ceda1161015e5780632eb2c2d6116101395780632eb2c2d61461029d5780632f2ff15d146102b05780632f83a6bc146102c357806336568abe146102d7575f5ffd5b80631e77ceda1461023d578063248a9ca31461026857806324fc099b1461028a575f5ffd5b8062fdd58e146101a457806301ffc9a7146101ca5780630e89341c146101ed57806318160ddd1461020d57806319a8413f146102155780631b2ef1ca1461022a575b5f5ffd5b6101b76101b2366004611518565b610404565b6040519081526020015b60405180910390f35b6101dd6101d8366004611555565b61042b565b60405190151581526020016101c1565b6102006101fb366004611577565b610435565b6040516101c191906115bc565b6005546101b7565b610228610223366004611683565b6104c7565b005b6102286102383660046116ee565b6105bb565b600654610250906001600160a01b031681565b6040516001600160a01b0390911681526020016101c1565b6101b7610276366004611577565b5f9081526003602052604090206001015490565b610200610298366004611577565b6106c5565b6102286102ab36600461179a565b6106e1565b6102286102be366004611846565b61074d565b6101b75f516020611d2e5f395f51905f5281565b6102286102e5366004611846565b610777565b6102fd6102f8366004611870565b6107af565b6040516101c1919061196b565b6101dd610318366004611577565b5f90815260046020526040902054151590565b6101dd610339366004611577565b610879565b6009546101b7565b610200610354366004611577565b61089a565b6101dd610367366004611846565b6108b6565b6101b75f81565b61022861038136600461197d565b6108e0565b6101b7610394366004611577565b5f9081526004602052604090205490565b6102286103b33660046119b6565b6108ef565b6102286103c6366004611846565b610aab565b6102286103d9366004611a03565b610acf565b6101dd6103ec366004611a1c565b610b51565b6102286103ff366004611a44565b610b7e565b5f818152602081815260408083206001600160a01b03861684529091529020545b92915050565b5f61042582610bdd565b60606002805461044490611a97565b80601f016020809104026020016040519081016040528092919081815260200182805461047090611a97565b80156104bb5780601f10610492576101008083540402835291602001916104bb565b820191905f5260205f20905b81548152906001019060200180831161049e57829003601f168201915b50505050509050919050565b5f516020611d2e5f395f51905f526104de81610c01565b82515f036104ff5760405163e9a0784160e01b815260040160405180910390fd5b5f848152600760205260409020805461051790611a97565b15905061053757604051630ad9430b60e01b815260040160405180910390fd5b5f84815260076020526040902061054e8482611b13565b505f8481526008602052604090206105668382611b13565b5060098054905f61057683611be1565b9190505550837fb6d0fdd4aa7871e97002ee6e98a7078316273461e22e2f1be3715a9d247e766d84846040516105ad929190611bf9565b60405180910390a250505050565b5f516020611d2e5f395f51905f526105d281610c01565b6006546001600160a01b03166105fa576040516248999560e01b815260040160405180910390fd5b815f0361061a5760405163160703d760e01b815260040160405180910390fd5b5f838152600760205260409020805461063290611a97565b90505f036106535760405163d2b4e6a160e01b815260040160405180910390fd5b60065460408051602081019091525f815261067b916001600160a01b03169085908590610c0e565b6006546040518381526001600160a01b039091169084907fcd6742d5e809eafe3ac91950822ad9d9f4cec48faad935421642d893db7d0993906020015b60405180910390a3505050565b5f81815260076020526040902080546060919061044490611a97565b336001600160a01b038616811480159061070257506107008682610b51565b155b156107385760405163711bec9160e11b81526001600160a01b038083166004830152871660248201526044015b60405180910390fd5b6107458686868686610c69565b505050505050565b5f8281526003602052604090206001015461076781610c01565b6107718383610cce565b50505050565b6001600160a01b03811633146107a05760405163334bd91960e11b815260040160405180910390fd5b6107aa8282610d5f565b505050565b606081518351146107e05781518351604051635b05999160e01b81526004810192909252602482015260440161072f565b5f83516001600160401b038111156107fa576107fa6115ce565b604051908082528060200260200182016040528015610823578160200160208202803683370190505b5090505f5b84518110156108715760208082028601015161084c90602080840287010151610404565b82828151811061085e5761085e611c26565b6020908102919091010152600101610828565b509392505050565b5f818152600760205260408120805461089190611a97565b15159392505050565b5f81815260086020526040902080546060919061044490611a97565b5f9182526003602090815260408084206001600160a01b0393909316845291905290205460ff1690565b6108eb338383610dca565b5050565b5f516020611d2e5f395f51905f5261090681610c01565b6006546001600160a01b031661092e576040516248999560e01b815260040160405180910390fd5b81518351146109505760405163160703d760e01b815260040160405180910390fd5b5f5b83518110156109f25760075f85838151811061097057610970611c26565b602002602001015181526020019081526020015f20805461099090611a97565b90505f036109b15760405163d2b4e6a160e01b815260040160405180910390fd5b8281815181106109c3576109c3611c26565b60200260200101515f036109ea5760405163160703d760e01b815260040160405180910390fd5b600101610952565b5060065460408051602081019091525f8152610a1b916001600160a01b03169085908590610e56565b5f5b83518110156107715760065484516001600160a01b0390911690859083908110610a4957610a49611c26565b60200260200101517fcd6742d5e809eafe3ac91950822ad9d9f4cec48faad935421642d893db7d0993858481518110610a8457610a84611c26565b6020026020010151604051610a9b91815260200190565b60405180910390a3600101610a1d565b5f82815260036020526040902060010154610ac581610c01565b6107718383610d5f565b5f610ad981610c01565b6001600160a01b038216610aff576040516261a68760e41b815260040160405180910390fd5b600680546001600160a01b038481166001600160a01b0319831681179093556040519116919082907f2683c02722e9e01707eb234ac654f5eca143b1307d1789be28369d0f846f9e48905f90a3505050565b6001600160a01b039182165f90815260016020908152604080832093909416825291909152205460ff1690565b336001600160a01b0386168114801590610b9f5750610b9d8682610b51565b155b15610bd05760405163711bec9160e11b81526001600160a01b0380831660048301528716602482015260440161072f565b6107458686868686610e8c565b5f6001600160e01b03198216637965db0b60e01b1480610425575061042582610f18565b610c0b8133610f67565b50565b6001600160a01b038416610c3757604051632bfa23e760e11b81525f600482015260240161072f565b604080516001808252602082018690528183019081526060820185905260808201909252906107455f87848487610fa0565b6001600160a01b038416610c9257604051632bfa23e760e11b81525f600482015260240161072f565b6001600160a01b038516610cba57604051626a0d4560e21b81525f600482015260240161072f565b610cc78585858585610fa0565b5050505050565b5f610cd983836108b6565b610d58575f8381526003602090815260408083206001600160a01b03861684529091529020805460ff19166001179055610d103390565b6001600160a01b0316826001600160a01b0316847f2f8788117e7eff1d82e926ec794901d17c78024a50270940304540a733656f0d60405160405180910390a4506001610425565b505f610425565b5f610d6a83836108b6565b15610d58575f8381526003602090815260408083206001600160a01b0386168085529252808320805460ff1916905551339286917ff6391f5c32d9c69d2a47ea670b442974b53935d1edc7fd64eb21e047a839171b9190a4506001610425565b6001600160a01b038216610df25760405162ced3e160e81b81525f600482015260240161072f565b6001600160a01b038381165f81815260016020908152604080832094871680845294825291829020805460ff191686151590811790915591519182527f17307eab39ab6107e8899845ad3d59bd9653f200f220920489ca2b5937696c3191016106b8565b6001600160a01b038416610e7f57604051632bfa23e760e11b81525f600482015260240161072f565b6107715f85858585610fa0565b6001600160a01b038416610eb557604051632bfa23e760e11b81525f600482015260240161072f565b6001600160a01b038516610edd57604051626a0d4560e21b81525f600482015260240161072f565b60408051600180825260208201869052818301908152606082018590526080820190925290610f0f8787848487610fa0565b50505050505050565b5f6001600160e01b03198216636cdb3d1360e11b1480610f4857506001600160e01b031982166303a24d0760e21b145b8061042557506301ffc9a760e01b6001600160e01b0319831614610425565b610f7182826108b6565b6108eb5760405163e2517d3f60e01b81526001600160a01b03821660048201526024810183905260440161072f565b610fac85858585610ff3565b6001600160a01b03841615610cc75782513390600103610fe55760208481015190840151610fde838989858589610fff565b5050610745565b610745818787878787611120565b61077184848484611207565b6001600160a01b0384163b156107455760405163f23a6e6160e01b81526001600160a01b0385169063f23a6e61906110439089908990889088908890600401611c3a565b6020604051808303815f875af192505050801561107d575060408051601f3d908101601f1916820190925261107a91810190611c7e565b60015b6110e4573d8080156110aa576040519150601f19603f3d011682016040523d82523d5f602084013e6110af565b606091505b5080515f036110dc57604051632bfa23e760e11b81526001600160a01b038616600482015260240161072f565b805160208201fd5b6001600160e01b0319811663f23a6e6160e01b14610f0f57604051632bfa23e760e11b81526001600160a01b038616600482015260240161072f565b6001600160a01b0384163b156107455760405163bc197c8160e01b81526001600160a01b0385169063bc197c81906111649089908990889088908890600401611c99565b6020604051808303815f875af192505050801561119e575060408051601f3d908101601f1916820190925261119b91810190611c7e565b60015b6111cb573d8080156110aa576040519150601f19603f3d011682016040523d82523d5f602084013e6110af565b6001600160e01b0319811663bc197c8160e01b14610f0f57604051632bfa23e760e11b81526001600160a01b038616600482015260240161072f565b611213848484846112ee565b6001600160a01b038416611290575f805b83518110156112775760208181028481018201519086018201515f90815260049092526040822080549192839261125c908490611cf6565b9091555061126c90508184611cf6565b925050600101611224565b508060055f8282546112899190611cf6565b9091555050505b6001600160a01b038316610771575f805b83518110156112dd5760208181028481018201519086018201515f908152600490925260409091208054829003905591909101906001016112a1565b506005805491909103905550505050565b805182511461131d5781518151604051635b05999160e01b81526004810192909252602482015260440161072f565b335f5b835181101561141f576020818102858101820151908501909101516001600160a01b038816156113d1575f828152602081815260408083206001600160a01b038c168452909152902054818110156113ab576040516303dee4c560e01b81526001600160a01b038a16600482015260248101829052604481018390526064810184905260840161072f565b5f838152602081815260408083206001600160a01b038d16845290915290209082900390555b6001600160a01b03871615611415575f828152602081815260408083206001600160a01b038b1684529091528120805483929061140f908490611cf6565b90915550505b5050600101611320565b50825160010361149f5760208301515f906020840151909150856001600160a01b0316876001600160a01b0316846001600160a01b03167fc3d58168c5ae7397731d063d5bbf3d657854427343f4c083240f7aacaa2d0f628585604051611490929190918252602082015260400190565b60405180910390a45050610cc7565b836001600160a01b0316856001600160a01b0316826001600160a01b03167f4a39dc06d4c0dbc64b70af90fd698a233a518aa5d07e595d983b8c0526c8f7fb86866040516114ee929190611d09565b60405180910390a45050505050565b80356001600160a01b0381168114611513575f5ffd5b919050565b5f5f60408385031215611529575f5ffd5b611532836114fd565b946020939093013593505050565b6001600160e01b031981168114610c0b575f5ffd5b5f60208284031215611565575f5ffd5b813561157081611540565b9392505050565b5f60208284031215611587575f5ffd5b5035919050565b5f81518084528060208401602086015e5f602082860101526020601f19601f83011685010191505092915050565b602081525f611570602083018461158e565b634e487b7160e01b5f52604160045260245ffd5b604051601f8201601f191681016001600160401b038111828210171561160a5761160a6115ce565b604052919050565b5f82601f830112611621575f5ffd5b8135602083015f5f6001600160401b03841115611640576116406115ce565b50601f8301601f1916602001611655816115e2565b915050828152858383011115611669575f5ffd5b828260208301375f92810160200192909252509392505050565b5f5f5f60608486031215611695575f5ffd5b8335925060208401356001600160401b038111156116b1575f5ffd5b6116bd86828701611612565b92505060408401356001600160401b038111156116d8575f5ffd5b6116e486828701611612565b9150509250925092565b5f5f604083850312156116ff575f5ffd5b50508035926020909101359150565b5f6001600160401b03821115611726576117266115ce565b5060051b60200190565b5f82601f83011261173f575f5ffd5b813561175261174d8261170e565b6115e2565b8082825260208201915060208360051b860101925085831115611773575f5ffd5b602085015b83811015611790578035835260209283019201611778565b5095945050505050565b5f5f5f5f5f60a086880312156117ae575f5ffd5b6117b7866114fd565b94506117c5602087016114fd565b935060408601356001600160401b038111156117df575f5ffd5b6117eb88828901611730565b93505060608601356001600160401b03811115611806575f5ffd5b61181288828901611730565b92505060808601356001600160401b0381111561182d575f5ffd5b61183988828901611612565b9150509295509295909350565b5f5f60408385031215611857575f5ffd5b82359150611867602084016114fd565b90509250929050565b5f5f60408385031215611881575f5ffd5b82356001600160401b03811115611896575f5ffd5b8301601f810185136118a6575f5ffd5b80356118b461174d8261170e565b8082825260208201915060208360051b8501019250878311156118d5575f5ffd5b6020840193505b828410156118fe576118ed846114fd565b8252602093840193909101906118dc565b945050505060208301356001600160401b0381111561191b575f5ffd5b61192785828601611730565b9150509250929050565b5f8151808452602084019350602083015f5b82811015611961578151865260209586019590910190600101611943565b5093949350505050565b602081525f6115706020830184611931565b5f5f6040838503121561198e575f5ffd5b611997836114fd565b9150602083013580151581146119ab575f5ffd5b809150509250929050565b5f5f604083850312156119c7575f5ffd5b82356001600160401b038111156119dc575f5ffd5b6119e885828601611730565b92505060208301356001600160401b0381111561191b575f5ffd5b5f60208284031215611a13575f5ffd5b611570826114fd565b5f5f60408385031215611a2d575f5ffd5b611a36836114fd565b9150611867602084016114fd565b5f5f5f5f5f60a08688031215611a58575f5ffd5b611a61866114fd565b9450611a6f602087016114fd565b9350604086013592506060860135915060808601356001600160401b0381111561182d575f5ffd5b600181811c90821680611aab57607f821691505b602082108103611ac957634e487b7160e01b5f52602260045260245ffd5b50919050565b601f8211156107aa57805f5260205f20601f840160051c81016020851015611af45750805b601f840160051c820191505b81811015610cc7575f8155600101611b00565b81516001600160401b03811115611b2c57611b2c6115ce565b611b4081611b3a8454611a97565b84611acf565b6020601f821160018114611b72575f8315611b5b5750848201515b5f19600385901b1c1916600184901b178455610cc7565b5f84815260208120601f198516915b82811015611ba15787850151825560209485019460019092019101611b81565b5084821015611bbe57868401515f19600387901b60f8161c191681555b50505050600190811b01905550565b634e487b7160e01b5f52601160045260245ffd5b5f60018201611bf257611bf2611bcd565b5060010190565b604081525f611c0b604083018561158e565b8281036020840152611c1d818561158e565b95945050505050565b634e487b7160e01b5f52603260045260245ffd5b6001600160a01b03868116825285166020820152604081018490526060810183905260a0608082018190525f90611c739083018461158e565b979650505050505050565b5f60208284031215611c8e575f5ffd5b815161157081611540565b6001600160a01b0386811682528516602082015260a0604082018190525f90611cc490830186611931565b8281036060840152611cd68186611931565b90508281036080840152611cea818561158e565b98975050505050505050565b8082018082111561042557610425611bcd565b604081525f611d1b6040830185611931565b8281036020840152611c1d818561193156fe0b84ee281e5cf521a9ad54a86fafe78946b157177e231bd8ae785af4d3b3620fa264697066735822122095be4a64ad04f43e433fbcfc7c453ec7b52abb66874679720e4b0fec65beb55464736f6c634300081e00330000000000000000000000000000000000000000000000000000000000000020000000000000000000000000000000000000000000000000000000000000008168747470733a2f2f616d6574687973742d61636365737369626c652d6c656d6d696e672d3635332e6d7970696e6174612e636c6f75642f697066732f62616679626569643432696d35736e336b67737769356667656d73716c36367070347337356772363269646377736f786b7574716b336f646276792f7b69647d2e6a736f6e00000000000000000000000000000000000000000000000000000000000000",
        "nonce": "0xec",
        "chainId": "0xaa36a7"
      },
      "additionalContracts": [],
      "isFixedGasLimit": false
    },
    {
      "hash": "0x607dca021aa12b1ce205094b9a7011bcf86b1ce81a76604c0791df02f86c2b41",
      "transactionType": "CREATE",
      "contractName": "PrimaryMarket",
      "contractAddress": "0x7Bf3823D764bD3e2681A71Ff703837b508CAa8b3",
      "function": null,
      "arguments": [
        "0x5aE69a270f061d8435100938b2Cef210D1f8348F",
        "0xbC7Ebadd93107D39A3379D9C600f428eb9765f0c"
      ],
      "transaction": {
        "from": "0xe30f5d336931186dd86b5c9426fd4493c34a5c5d",
        "gas": "0x13235d",
        "value": "0x0",
        "input": "0x60c060405234801561000f575f5ffd5b506040516110c93803806110c983398101604081905261002e916101be565b60017f9b779b17422d0df92223018b32b4d1fa46e071723d6817e2486d003becc55f00556001600160a01b038216158061006f57506001600160a01b038116155b1561008d576040516367cb2c1d60e11b815260040160405180910390fd5b6001600160a01b03828116608052811660a05260018054610100600160a81b031916336101008102919091179091556100c7905f906100fa565b506100f27f0b84ee281e5cf521a9ad54a86fafe78946b157177e231bd8ae785af4d3b3620f336100fa565b5050506101ef565b5f828152602081815260408083206001600160a01b038516845290915281205460ff1661019a575f838152602081815260408083206001600160a01b03861684529091529020805460ff191660011790556101523390565b6001600160a01b0316826001600160a01b0316847f2f8788117e7eff1d82e926ec794901d17c78024a50270940304540a733656f0d60405160405180910390a450600161019d565b505f5b92915050565b80516001600160a01b03811681146101b9575f5ffd5b919050565b5f5f604083850312156101cf575f5ffd5b6101d8836101a3565b91506101e6602084016101a3565b90509250929050565b60805160a051610ea46102255f395f81816102fe015281816104c6015261063301525f81816101ea01526104060152610ea45ff3fe608060405234801561000f575f5ffd5b5060043610610132575f3560e01c80638051522d116100b4578063b9c1868511610079578063b9c1868514610296578063bc197c81146102ae578063c0aab765146102e6578063cfeeafdb146102f9578063d547741f14610320578063f23a6e6114610333575f5ffd5b80638051522d1461024e5780638456cb591461026157806391d14854146102695780639e635bd61461027c578063a217fddf1461028f575f5ffd5b806336568abe116100fa57806336568abe146101ca5780633f4ba83a146101dd5780635885a895146101e55780635c975abb146102245780635e694cf51461022f575f5ffd5b806301ffc9a71461013657806309b69e8d1461015e578063248a9ca3146101735780632f2ff15d146101a35780632f83a6bc146101b6575b5f5ffd5b610149610144366004610afe565b610352565b60405190151581526020015b60405180910390f35b61017161016c366004610b2c565b610362565b005b610195610181366004610b4c565b5f9081526020819052604090206001015490565b604051908152602001610155565b6101716101b1366004610b7e565b610592565b6101955f516020610e4f5f395f51905f5281565b6101716101d8366004610b7e565b6105bc565b6101716105f4565b61020c7f000000000000000000000000000000000000000000000000000000000000000081565b6040516001600160a01b039091168152602001610155565b60015460ff16610149565b61019561023d366004610b4c565b5f9081526002602052604090205490565b61019561025c366004610b4c565b610616565b6101716106a3565b610149610277366004610b7e565b6106c2565b61017161028a366004610ba8565b6106ea565b6101955f81565b60015461020c9061010090046001600160a01b031681565b6102cd6102bc366004610cf2565b63bc197c8160e01b95945050505050565b6040516001600160e01b03199091168152602001610155565b6101716102f4366004610b2c565b610775565b61020c7f000000000000000000000000000000000000000000000000000000000000000081565b61017161032e366004610b7e565b6107fd565b6102cd610341366004610da1565b63f23a6e6160e01b95945050505050565b5f61035c82610821565b92915050565b61036a610845565b61037261086b565b805f0361039257604051632b71967360e01b815260040160405180910390fd5b5f82815260026020526040812054908190036103c15760405163069019f760e51b815260040160405180910390fd5b5f6103cc8383610df5565b6001546040516323b872dd60e01b81523360048201526101009091046001600160a01b039081166024830152604482018390529192505f917f000000000000000000000000000000000000000000000000000000000000000016906323b872dd906064016020604051808303815f875af115801561044c573d5f5f3e3d5ffd5b505050506040513d601f19601f820116820180604052508101906104709190610e18565b90508061049057604051633861795760e01b815260040160405180910390fd5b604051637921219560e11b8152306004820152336024820152604481018690526064810185905260a060848201525f60a48201527f00000000000000000000000000000000000000000000000000000000000000006001600160a01b03169063f242432a9060c4015f604051808303815f87803b15801561050f575f5ffd5b505af1158015610521573d5f5f3e3d5ffd5b505060408051878152602081018690528893503392507f751dfd922ff4b6048a31e74f71bfe6c58ee9135146d587bf908e12cfa525ae0b910160405180910390a350505061058e60017f9b779b17422d0df92223018b32b4d1fa46e071723d6817e2486d003becc55f0055565b5050565b5f828152602081905260409020600101546105ac81610899565b6105b683836108a3565b50505050565b6001600160a01b03811633146105e55760405163334bd91960e11b815260040160405180910390fd5b6105ef8282610932565b505050565b5f516020610e4f5f395f51905f5261060b81610899565b61061361099b565b50565b604051627eeac760e11b8152306004820152602481018290525f907f00000000000000000000000000000000000000000000000000000000000000006001600160a01b03169062fdd58e90604401602060405180830381865afa15801561067f573d5f5f3e3d5ffd5b505050506040513d601f19601f8201168201806040525081019061035c9190610e37565b5f516020610e4f5f395f51905f526106ba81610899565b6106136109ed565b5f918252602082815260408084206001600160a01b0393909316845291905290205460ff1690565b5f6106f481610899565b6001600160a01b03821661071b576040516367cb2c1d60e11b815260040160405180910390fd5b600180546001600160a01b03848116610100818102610100600160a81b031985161790945560405193909204169182907fb1ffc11b80176a035d4da15837c3326eb97da052c521f011e6bc8c9b9a8a5791905f90a3505050565b5f516020610e4f5f395f51905f5261078c81610899565b815f036107ac5760405163bec5275d60e01b815260040160405180910390fd5b5f83815260026020526040908190208390555183907f288e01eadd84f87ff852e67e784d6fe5181f8d088c2f1690e5c263289cad8a45906107f09085815260200190565b60405180910390a2505050565b5f8281526020819052604090206001015461081781610899565b6105b68383610932565b5f6001600160e01b03198216630271189760e51b148061035c575061035c82610a28565b60015460ff16156108695760405163d93c066560e01b815260040160405180910390fd5b565b610873610a5c565b60027f9b779b17422d0df92223018b32b4d1fa46e071723d6817e2486d003becc55f0055565b6106138133610a9e565b5f6108ae83836106c2565b61092b575f838152602081815260408083206001600160a01b03861684529091529020805460ff191660011790556108e33390565b6001600160a01b0316826001600160a01b0316847f2f8788117e7eff1d82e926ec794901d17c78024a50270940304540a733656f0d60405160405180910390a450600161035c565b505f61035c565b5f61093d83836106c2565b1561092b575f838152602081815260408083206001600160a01b0386168085529252808320805460ff1916905551339286917ff6391f5c32d9c69d2a47ea670b442974b53935d1edc7fd64eb21e047a839171b9190a450600161035c565b6109a3610adb565b6001805460ff191690557f5db9ee0a495bf2e6ff9c91a7834c1ba4fdd244a5e8aa4e537bd38aeae4b073aa335b6040516001600160a01b03909116815260200160405180910390a1565b6109f5610845565b6001805460ff1916811790557f62e78cea01bee320cd4e420270b5ea74000d11b0c9f74754ebdbfc544b05a258336109d0565b5f6001600160e01b03198216637965db0b60e01b148061035c57506301ffc9a760e01b6001600160e01b031983161461035c565b7f9b779b17422d0df92223018b32b4d1fa46e071723d6817e2486d003becc55f005460020361086957604051633ee5aeb560e01b815260040160405180910390fd5b610aa882826106c2565b61058e5760405163e2517d3f60e01b81526001600160a01b03821660048201526024810183905260440160405180910390fd5b60015460ff1661086957604051638dfc202b60e01b815260040160405180910390fd5b5f60208284031215610b0e575f5ffd5b81356001600160e01b031981168114610b25575f5ffd5b9392505050565b5f5f60408385031215610b3d575f5ffd5b50508035926020909101359150565b5f60208284031215610b5c575f5ffd5b5035919050565b80356001600160a01b0381168114610b79575f5ffd5b919050565b5f5f60408385031215610b8f575f5ffd5b82359150610b9f60208401610b63565b90509250929050565b5f60208284031215610bb8575f5ffd5b610b2582610b63565b634e487b7160e01b5f52604160045260245ffd5b604051601f8201601f1916810167ffffffffffffffff81118282101715610bfe57610bfe610bc1565b604052919050565b5f82601f830112610c15575f5ffd5b813567ffffffffffffffff811115610c2f57610c2f610bc1565b8060051b610c3f60208201610bd5565b91825260208185018101929081019086841115610c5a575f5ffd5b6020860192505b83831015610c7c578235825260209283019290910190610c61565b9695505050505050565b5f82601f830112610c95575f5ffd5b813567ffffffffffffffff811115610caf57610caf610bc1565b610cc2601f8201601f1916602001610bd5565b818152846020838601011115610cd6575f5ffd5b816020850160208301375f918101602001919091529392505050565b5f5f5f5f5f60a08688031215610d06575f5ffd5b610d0f86610b63565b9450610d1d60208701610b63565b9350604086013567ffffffffffffffff811115610d38575f5ffd5b610d4488828901610c06565b935050606086013567ffffffffffffffff811115610d60575f5ffd5b610d6c88828901610c06565b925050608086013567ffffffffffffffff811115610d88575f5ffd5b610d9488828901610c86565b9150509295509295909350565b5f5f5f5f5f60a08688031215610db5575f5ffd5b610dbe86610b63565b9450610dcc60208701610b63565b93506040860135925060608601359150608086013567ffffffffffffffff811115610d88575f5ffd5b808202811582820484141761035c57634e487b7160e01b5f52601160045260245ffd5b5f60208284031215610e28575f5ffd5b81518015158114610b25575f5ffd5b5f60208284031215610e47575f5ffd5b505191905056fe0b84ee281e5cf521a9ad54a86fafe78946b157177e231bd8ae785af4d3b3620fa2646970667358221220182792c7878bc1f0c946ad6473a259ddb92cdd76118a33743c0e6bdf4d2d3c4064736f6c634300081e0033000000000000000000000000e9206e696b27dd635c4f653fc75737978feff0640000000000000000000000007d8b68532ace03a27f0ca7711589a8f4c9f8f2bc",
        "nonce": "0xed",
        "chainId": "0xaa36a7"
      },
      "additionalContracts": [],
      "isFixedGasLimit": false
    },
    {
      "hash": "0x629a40774ad5a5d477e72c6e795775f843bae51a66ceab95b45f68a3bbae17e7",
      "transactionType": "CREATE",
      "contractName": "SecondaryMarket",
      "contractAddress": "0x8B86642180149a22c2e06647342f8E250BE5F23B",
      "function": null,
      "arguments": [
        "0x5aE69a270f061d8435100938b2Cef210D1f8348F",
        "0xbC7Ebadd93107D39A3379D9C600f428eb9765f0c"
      ],
      "transaction": {
        "from": "0xe30f5d336931186dd86b5c9426fd4493c34a5c5d",
        "gas": "0x18163d",
        "value": "0x0",
        "input": "0x60c060405234801561000f575f5ffd5b506040516115f83803806115f883398101604081905261002e91610176565b60017f9b779b17422d0df92223018b32b4d1fa46e071723d6817e2486d003becc55f00556001600160a01b038216158061006f57506001600160a01b038116155b1561008d57604051631c4998f160e01b815260040160405180910390fd5b6001600160a01b03808316608052811660a0526100aa5f336100b2565b5050506101a7565b5f828152602081815260408083206001600160a01b038516845290915281205460ff16610152575f838152602081815260408083206001600160a01b03861684529091529020805460ff1916600117905561010a3390565b6001600160a01b0316826001600160a01b0316847f2f8788117e7eff1d82e926ec794901d17c78024a50270940304540a733656f0d60405160405180910390a4506001610155565b505f5b92915050565b80516001600160a01b0381168114610171575f5ffd5b919050565b5f5f60408385031215610187575f5ffd5b6101908361015b565b915061019e6020840161015b565b90509250929050565b60805160a0516114066101f25f395f818161033b0152818161080101528181610a120152610c4e01525f8181610257015281816105be01528181610667015261075b01526114065ff3fe608060405234801561000f575f5ffd5b5060043610610132575f3560e01c80635c975abb116100b4578063a217fddf11610079578063a217fddf146102e4578063b03053b6146102eb578063bc197c81146102fe578063cfeeafdb14610336578063d547741f1461035d578063f23a6e6114610370575f5ffd5b80635c975abb1461029157806378e30c911461029c5780638456cb59146102c157806387ed92d7146102c957806391d14854146102d1575f5ffd5b80632f2ff15d116100fa5780632f2ff15d14610211578063305a67a81461022457806336568abe146102375780633f4ba83a1461024a5780635885a89514610252575f5ffd5b806301ffc9a7146101365780631030f05f1461015e578063107a274a146101b9578063248a9ca3146101cc57806326fbd1d6146101fc575b5f5ffd5b610149610144366004610fed565b61038f565b60405190151581526020015b60405180910390f35b61017161016c366004611014565b61039f565b604051610155919081516001600160a01b0316815260208083015190820152604080830151908201526060808301519082015260809182015115159181019190915260a00190565b6101716101c7366004611014565b61044b565b6101ee6101da366004611014565b5f9081526020819052604090206001015490565b604051908152602001610155565b61020f61020a36600461102b565b6104dc565b005b61020f61021f366004611066565b610927565b61020f610232366004611014565b610951565b61020f610245366004611066565b610ad1565b61020f610b09565b6102797f000000000000000000000000000000000000000000000000000000000000000081565b6040516001600160a01b039091168152602001610155565b60015460ff16610149565b6101496102aa366004611014565b5f9081526002602052604090206004015460ff1690565b61020f610b1b565b6003546101ee565b6101496102df366004611066565b610b2d565b6101ee5f81565b6101ee6102f9366004611090565b610b55565b61031d61030c3660046111ea565b63bc197c8160e01b95945050505050565b6040516001600160e01b03199091168152602001610155565b6102797f000000000000000000000000000000000000000000000000000000000000000081565b61020f61036b366004611066565b610d12565b61031d61037e366004611299565b63f23a6e6160e01b95945050505050565b5f61039982610d36565b92915050565b6103d76040518060a001604052805f6001600160a01b031681526020015f81526020015f81526020015f81526020015f151581525090565b5f82815260026020818152604092839020835160a08101855281546001600160a01b031681526001820154928101929092529182015492810192909252600381015460608301526004015460ff161515608082018190526103995760405163324cf4ef60e21b815260040160405180910390fd5b6104836040518060a001604052805f6001600160a01b031681526020015f81526020015f81526020015f81526020015f151581525090565b505f90815260026020818152604092839020835160a08101855281546001600160a01b031681526001820154928101929092529182015492810192909252600381015460608301526004015460ff161515608082015290565b6104e4610d5a565b6104ec610d80565b805f0361050c5760405163247efccf60e11b815260040160405180910390fd5b5f82815260026020526040902080546001600160a01b03166105415760405163e9891b5360e01b815260040160405180910390fd5b600481015460ff166105665760405163324cf4ef60e21b815260040160405180910390fd5b818160020154101561058b576040516327dc8bc160e21b815260040160405180910390fd5b5f82826003015461059c9190611301565b6040516370a0823160e01b81523360048201529091505f906001600160a01b037f000000000000000000000000000000000000000000000000000000000000000016906370a0823190602401602060405180830381865afa158015610603573d5f5f3e3d5ffd5b505050506040513d601f19601f820116820180604052508101906106279190611318565b90508181101561064a57604051630e33fdd960e21b815260040160405180910390fd5b604051636eb1769f60e11b81523360048201523060248201525f907f00000000000000000000000000000000000000000000000000000000000000006001600160a01b03169063dd62ed3e90604401602060405180830381865afa1580156106b4573d5f5f3e3d5ffd5b505050506040513d601f19601f820116820180604052508101906106d89190611318565b9050828110156106fb576040516303be262160e41b815260040160405180910390fd5b84846002015f82825461070e919061132f565b909155505060028401545f0361072b5760048401805460ff191690555b83546040516323b872dd60e01b81523360048201526001600160a01b039182166024820152604481018590525f917f000000000000000000000000000000000000000000000000000000000000000016906323b872dd906064016020604051808303815f875af11580156107a1573d5f5f3e3d5ffd5b505050506040513d601f19601f820116820180604052508101906107c59190611342565b9050806107e557604051632db4922f60e21b815260040160405180910390fd5b6001850154604051637921219560e11b81526001600160a01b037f0000000000000000000000000000000000000000000000000000000000000000169163f242432a9161083b9130913391908c90600401611361565b5f604051808303815f87803b158015610852575f5ffd5b505af1158015610864573d5f5f3e3d5ffd5b50508654600188015460408051918252602082018b905281018890526001600160a01b03909116925033915089907fb3556955a489fb1ff1cf2ce48ea54f262b9cb31e1e22a13f66142172e71cb52f9060600160405180910390a460028501541561090857867f66bcde9f7aec9b81719a4fdec54cbafbf6c834d1f2f989d9cd2134dab8d0c0de86600201546040516108ff91815260200190565b60405180910390a25b505050505061092360015f5160206113b15f395f51905f5255565b5050565b5f8281526020819052604090206001015461094181610d9b565b61094b8383610da5565b50505050565b610959610d80565b5f81815260026020526040902080546001600160a01b031661098e5760405163e9891b5360e01b815260040160405180910390fd5b80546001600160a01b031633146109b857604051630f41436b60e21b815260040160405180910390fd5b600481015460ff166109dd5760405163324cf4ef60e21b815260040160405180910390fd5b60018101546002820180546004808501805460ff191690555f909255604051637921219560e11b815290916001600160a01b037f0000000000000000000000000000000000000000000000000000000000000000169163f242432a91610a4b91309133918891889101611361565b5f604051808303815f87803b158015610a62575f5ffd5b505af1158015610a74573d5f5f3e3d5ffd5b505060408051858152602081018590523393508792507f587f221a465f70749f0226b8dd00e01725d2fc0a7cb46475c600f1a81f1849c3910160405180910390a3505050610ace60015f5160206113b15f395f51905f5255565b50565b6001600160a01b0381163314610afa5760405163334bd91960e11b815260040160405180910390fd5b610b048282610e34565b505050565b5f610b1381610d9b565b610ace610e9d565b5f610b2581610d9b565b610ace610eef565b5f918252602082815260408084206001600160a01b0393909316845291905290205460ff1690565b5f610b5e610d5a565b610b66610d80565b825f03610b865760405163247efccf60e11b815260040160405180910390fd5b815f03610ba65760405163c992dc8f60e01b815260040160405180910390fd5b60038054905f610bb583611398565b909155506040805160a081018252338082526020808301898152838501898152606085018981526001608087018181525f8a8152600296879052899020975188546001600160a01b0319166001600160a01b039182161789559451918801919091559151938601939093559151600385015590516004938401805460ff19169115159190911790559251637921219560e11b81529394507f00000000000000000000000000000000000000000000000000000000000000009092169263f242432a92610c8992909130918a918a9101611361565b5f604051808303815f87803b158015610ca0575f5ffd5b505af1158015610cb2573d5f5f3e3d5ffd5b5050604080518681526020810186905287935033925084917fa3941cfa07eecf2734875ab71cea0e47395be644da6e17b039a7e29efba74ef9910160405180910390a4610d0b60015f5160206113b15f395f51905f5255565b9392505050565b5f82815260208190526040902060010154610d2c81610d9b565b61094b8383610e34565b5f6001600160e01b03198216630271189760e51b1480610399575061039982610f2a565b60015460ff1615610d7e5760405163d93c066560e01b815260040160405180910390fd5b565b610d88610f5e565b60025f5160206113b15f395f51905f5255565b610ace8133610f8d565b5f610db08383610b2d565b610e2d575f838152602081815260408083206001600160a01b03861684529091529020805460ff19166001179055610de53390565b6001600160a01b0316826001600160a01b0316847f2f8788117e7eff1d82e926ec794901d17c78024a50270940304540a733656f0d60405160405180910390a4506001610399565b505f610399565b5f610e3f8383610b2d565b15610e2d575f838152602081815260408083206001600160a01b0386168085529252808320805460ff1916905551339286917ff6391f5c32d9c69d2a47ea670b442974b53935d1edc7fd64eb21e047a839171b9190a4506001610399565b610ea5610fca565b6001805460ff191690557f5db9ee0a495bf2e6ff9c91a7834c1ba4fdd244a5e8aa4e537bd38aeae4b073aa335b6040516001600160a01b03909116815260200160405180910390a1565b610ef7610d5a565b6001805460ff1916811790557f62e78cea01bee320cd4e420270b5ea74000d11b0c9f74754ebdbfc544b05a25833610ed2565b5f6001600160e01b03198216637965db0b60e01b148061039957506301ffc9a760e01b6001600160e01b0319831614610399565b5f5160206113b15f395f51905f5254600203610d7e57604051633ee5aeb560e01b815260040160405180910390fd5b610f978282610b2d565b6109235760405163e2517d3f60e01b81526001600160a01b03821660048201526024810183905260440160405180910390fd5b60015460ff16610d7e57604051638dfc202b60e01b815260040160405180910390fd5b5f60208284031215610ffd575f5ffd5b81356001600160e01b031981168114610d0b575f5ffd5b5f60208284031215611024575f5ffd5b5035919050565b5f5f6040838503121561103c575f5ffd5b50508035926020909101359150565b80356001600160a01b0381168114611061575f5ffd5b919050565b5f5f60408385031215611077575f5ffd5b823591506110876020840161104b565b90509250929050565b5f5f5f606084860312156110a2575f5ffd5b505081359360208301359350604090920135919050565b634e487b7160e01b5f52604160045260245ffd5b604051601f8201601f1916810167ffffffffffffffff811182821017156110f6576110f66110b9565b604052919050565b5f82601f83011261110d575f5ffd5b813567ffffffffffffffff811115611127576111276110b9565b8060051b611137602082016110cd565b91825260208185018101929081019086841115611152575f5ffd5b6020860192505b83831015611174578235825260209283019290910190611159565b9695505050505050565b5f82601f83011261118d575f5ffd5b813567ffffffffffffffff8111156111a7576111a76110b9565b6111ba601f8201601f19166020016110cd565b8181528460208386010111156111ce575f5ffd5b816020850160208301375f918101602001919091529392505050565b5f5f5f5f5f60a086880312156111fe575f5ffd5b6112078661104b565b94506112156020870161104b565b9350604086013567ffffffffffffffff811115611230575f5ffd5b61123c888289016110fe565b935050606086013567ffffffffffffffff811115611258575f5ffd5b611264888289016110fe565b925050608086013567ffffffffffffffff811115611280575f5ffd5b61128c8882890161117e565b9150509295509295909350565b5f5f5f5f5f60a086880312156112ad575f5ffd5b6112b68661104b565b94506112c46020870161104b565b93506040860135925060608601359150608086013567ffffffffffffffff811115611280575f5ffd5b634e487b7160e01b5f52601160045260245ffd5b8082028115828204841417610399576103996112ed565b5f60208284031215611328575f5ffd5b5051919050565b81810381811115610399576103996112ed565b5f60208284031215611352575f5ffd5b81518015158114610d0b575f5ffd5b6001600160a01b0394851681529290931660208301526040820152606081019190915260a0608082018190525f9082015260c00190565b5f600182016113a9576113a96112ed565b506001019056fe9b779b17422d0df92223018b32b4d1fa46e071723d6817e2486d003becc55f00a26469706673582212205c4637a7bc68a3fc7c1373ba9c55e48d60f37e2c76a1682827688a58fe35ffee64736f6c634300081e0033000000000000000000000000e9206e696b27dd635c4f653fc75737978feff0640000000000000000000000007d8b68532ace03a27f0ca7711589a8f4c9f8f2bc",
        "nonce": "0xee",
        "chainId": "0xaa36a7"
      },
      "additionalContracts": [],
      "isFixedGasLimit": false
    },
    {
      "hash": "0xd44e92c9dde495bbf6bc9dd61a387cbf21b88989415f0416e5e752bee5a4a519",
      "transactionType": "CALL",
      "contractName": "FinancialAssets",
      "contractAddress": "0xbC7Ebadd93107D39A3379D9C600f428eb9765f0c",
      "function": "setPrimaryMarket(address)",
      "arguments": [
        "0x7Bf3823D764bD3e2681A71Ff703837b508CAa8b3"
      ],
      "transaction": {
        "from": "0xe30f5d336931186dd86b5c9426fd4493c34a5c5d",
        "to": "0xbC7Ebadd93107D39A3379D9C600f428eb9765f0c",
        "gas": "0x111c4",
        "value": "0x0",
        "input": "0xe2dc3666000000000000000000000000c58869d25d0d82248620db1eeda58a421cc0ee0e",
        "nonce": "0xef",
        "chainId": "0xaa36a7"
      },
      "additionalContracts": [],
      "isFixedGasLimit": false
    },
    {
      "hash": "0x001b21462b75a84169503239a841bac4db2d73e596fc159ebabc635ee217e294",
      "transactionType": "CALL",
      "contractName": "FinancialAssets",
      "contractAddress": "0xbC7Ebadd93107D39A3379D9C600f428eb9765f0c",
      "function": "createAssetType(uint256,string,string)",
      "arguments": [
        "0",
        "Nexus Technology Fund",
        "TECH"
      ],
      "transaction": {
        "from": "0xe30f5d336931186dd86b5c9426fd4493c34a5c5d",
        "to": "0xbC7Ebadd93107D39A3379D9C600f428eb9765f0c",
        "gas": "0x209b7",
        "value": "0x0",
        "input": "0x19a8413f0000000000000000000000000000000000000000000000000000000000000000000000000000000000000000000000000000000000000000000000000000006000000000000000000000000000000000000000000000000000000000000000a000000000000000000000000000000000000000000000000000000000000000154e6578757320546563686e6f6c6f67792046756e64000000000000000000000000000000000000000000000000000000000000000000000000000000000000045445434800000000000000000000000000000000000000000000000000000000",
        "nonce": "0xf0",
        "chainId": "0xaa36a7"
      },
      "additionalContracts": [],
      "isFixedGasLimit": false
    },
    {
      "hash": "0x13fff6e9e72a6f2695eeaddb3f575e1ac1c50bfd064ff8518e64f7df252ddf9b",
      "transactionType": "CALL",
      "contractName": "FinancialAssets",
      "contractAddress": "0xbC7Ebadd93107D39A3379D9C600f428eb9765f0c",
      "function": "createAssetType(uint256,string,string)",
      "arguments": [
        "1",
        "Goldstone Precious Metals Fund",
        "GOLD"
      ],
      "transaction": {
        "from": "0xe30f5d336931186dd86b5c9426fd4493c34a5c5d",
        "to": "0xbC7Ebadd93107D39A3379D9C600f428eb9765f0c",
        "gas": "0x1c766",
        "value": "0x0",
        "input": "0x19a8413f0000000000000000000000000000000000000000000000000000000000000001000000000000000000000000000000000000000000000000000000000000006000000000000000000000000000000000000000000000000000000000000000a0000000000000000000000000000000000000000000000000000000000000001e476f6c6473746f6e652050726563696f7573204d6574616c732046756e6400000000000000000000000000000000000000000000000000000000000000000004474f4c4400000000000000000000000000000000000000000000000000000000",
        "nonce": "0xf1",
        "chainId": "0xaa36a7"
      },
      "additionalContracts": [],
      "isFixedGasLimit": false
    },
    {
      "hash": "0x8ddfd94bfd7084d3591677488ef864c3f9dd9d0375406af7f0c6a0f5053268d0",
      "transactionType": "CALL",
      "contractName": "FinancialAssets",
      "contractAddress": "0xbC7Ebadd93107D39A3379D9C600f428eb9765f0c",
      "function": "createAssetType(uint256,string,string)",
      "arguments": [
        "2",
        "Apex Real Estate Capital Fund",
        "REAL"
      ],
      "transaction": {
        "from": "0xe30f5d336931186dd86b5c9426fd4493c34a5c5d",
        "to": "0xbC7Ebadd93107D39A3379D9C600f428eb9765f0c",
        "gas": "0x1ae09",
        "value": "0x0",
        "input": "0x19a8413f0000000000000000000000000000000000000000000000000000000000000002000000000000000000000000000000000000000000000000000000000000006000000000000000000000000000000000000000000000000000000000000000a0000000000000000000000000000000000000000000000000000000000000001d41706578205265616c20457374617465204361706974616c2046756e6400000000000000000000000000000000000000000000000000000000000000000000045245414c00000000000000000000000000000000000000000000000000000000",
        "nonce": "0xf2",
        "chainId": "0xaa36a7"
      },
      "additionalContracts": [],
      "isFixedGasLimit": false
    },
    {
      "hash": "0xa91fcc3b86777dcbb970bb5f4cfcd6632c2c84d9a48b7fba92d73d459a235cef",
      "transactionType": "CALL",
      "contractName": "FinancialAssets",
      "contractAddress": "0xbC7Ebadd93107D39A3379D9C600f428eb9765f0c",
      "function": "createAssetType(uint256,string,string)",
      "arguments": [
        "3",
        "Green Future Sustainable Energy Fund",
        "GREEN"
      ],
      "transaction": {
        "from": "0xe30f5d336931186dd86b5c9426fd4493c34a5c5d",
        "to": "0xbC7Ebadd93107D39A3379D9C600f428eb9765f0c",
        "gas": "0x2c7b1",
        "value": "0x0",
        "input": "0x19a8413f0000000000000000000000000000000000000000000000000000000000000003000000000000000000000000000000000000000000000000000000000000006000000000000000000000000000000000000000000000000000000000000000c00000000000000000000000000000000000000000000000000000000000000024477265656e20467574757265205375737461696e61626c6520456e657267792046756e64000000000000000000000000000000000000000000000000000000000000000000000000000000000000000000000000000000000000000000000005475245454e000000000000000000000000000000000000000000000000000000",
        "nonce": "0xf3",
        "chainId": "0xaa36a7"
      },
      "additionalContracts": [],
      "isFixedGasLimit": false
    },
    {
      "hash": "0x92598963a5f9bf6e2947b6e04e3fe2a931907294d1e152100473bc2dde952731",
      "transactionType": "CALL",
      "contractName": "FinancialAssets",
      "contractAddress": "0xbC7Ebadd93107D39A3379D9C600f428eb9765f0c",
      "function": "createAssetType(uint256,string,string)",
      "arguments": [
        "4",
        "MediCare Healthcare & Biotech Fund",
        "HEALTH"
      ],
      "transaction": {
        "from": "0xe30f5d336931186dd86b5c9426fd4493c34a5c5d",
        "to": "0xbC7Ebadd93107D39A3379D9C600f428eb9765f0c",
        "gas": "0x2a017",
        "value": "0x0",
        "input": "0x19a8413f0000000000000000000000000000000000000000000000000000000000000004000000000000000000000000000000000000000000000000000000000000006000000000000000000000000000000000000000000000000000000000000000c000000000000000000000000000000000000000000000000000000000000000224d65646943617265204865616c74686361726520262042696f746563682046756e6400000000000000000000000000000000000000000000000000000000000000000000000000000000000000000000000000000000000000000000000000064845414c54480000000000000000000000000000000000000000000000000000",
        "nonce": "0xf4",
        "chainId": "0xaa36a7"
      },
      "additionalContracts": [],
      "isFixedGasLimit": false
    },
    {
      "hash": "0xf2a6fc630b4b7a2cf1b603a1dd99ad07eb6a5442fa71db4e3f6812b326cb0dbb",
      "transactionType": "CALL",
      "contractName": "FinancialAssets",
      "contractAddress": "0xbC7Ebadd93107D39A3379D9C600f428eb9765f0c",
      "function": "mint(uint256,uint256)",
      "arguments": [
        "0",
        "1000"
      ],
      "transaction": {
        "from": "0xe30f5d336931186dd86b5c9426fd4493c34a5c5d",
        "to": "0xbC7Ebadd93107D39A3379D9C600f428eb9765f0c",
        "gas": "0x23ab4",
        "value": "0x0",
        "input": "0x1b2ef1ca000000000000000000000000000000000000000000000000000000000000000000000000000000000000000000000000000000000000000000000000000003e8",
        "nonce": "0xf5",
        "chainId": "0xaa36a7"
      },
      "additionalContracts": [],
      "isFixedGasLimit": false
    },
    {
      "hash": "0x0ab0d3b777c98eded46f901c3ba9c44293c035879e10a6f58ad901c8aa5a186a",
      "transactionType": "CALL",
      "contractName": "FinancialAssets",
      "contractAddress": "0xbC7Ebadd93107D39A3379D9C600f428eb9765f0c",
      "function": "mint(uint256,uint256)",
      "arguments": [
        "1",
        "500"
      ],
      "transaction": {
        "from": "0xe30f5d336931186dd86b5c9426fd4493c34a5c5d",
        "to": "0xbC7Ebadd93107D39A3379D9C600f428eb9765f0c",
        "gas": "0x1de81",
        "value": "0x0",
        "input": "0x1b2ef1ca000000000000000000000000000000000000000000000000000000000000000100000000000000000000000000000000000000000000000000000000000001f4",
        "nonce": "0xf6",
        "chainId": "0xaa36a7"
      },
      "additionalContracts": [],
      "isFixedGasLimit": false
    },
    {
      "hash": "0xf0c0eaa57f08c285833ecd5cf50127d211ae7decc7ae86f03b4b53d74d82b44a",
      "transactionType": "CALL",
      "contractName": "FinancialAssets",
      "contractAddress": "0xbC7Ebadd93107D39A3379D9C600f428eb9765f0c",
      "function": "mint(uint256,uint256)",
      "arguments": [
        "2",
        "750"
      ],
      "transaction": {
        "from": "0xe30f5d336931186dd86b5c9426fd4493c34a5c5d",
        "to": "0xbC7Ebadd93107D39A3379D9C600f428eb9765f0c",
        "gas": "0x1de81",
        "value": "0x0",
        "input": "0x1b2ef1ca000000000000000000000000000000000000000000000000000000000000000200000000000000000000000000000000000000000000000000000000000002ee",
        "nonce": "0xf7",
        "chainId": "0xaa36a7"
      },
      "additionalContracts": [],
      "isFixedGasLimit": false
    },
    {
      "hash": "0x05d69eb6112eb92ba6e489287879ad3dc4b1903dbbfd215edb6a26968b566828",
      "transactionType": "CALL",
      "contractName": "FinancialAssets",
      "contractAddress": "0xbC7Ebadd93107D39A3379D9C600f428eb9765f0c",
      "function": "mint(uint256,uint256)",
      "arguments": [
        "3",
        "800"
      ],
      "transaction": {
        "from": "0xe30f5d336931186dd86b5c9426fd4493c34a5c5d",
        "to": "0xbC7Ebadd93107D39A3379D9C600f428eb9765f0c",
        "gas": "0x1fa94",
        "value": "0x0",
        "input": "0x1b2ef1ca00000000000000000000000000000000000000000000000000000000000000030000000000000000000000000000000000000000000000000000000000000320",
        "nonce": "0xf8",
        "chainId": "0xaa36a7"
      },
      "additionalContracts": [],
      "isFixedGasLimit": false
    },
    {
      "hash": "0xb81226f48b8d2bb1b986dfba372cd8b79f2a848e0b0af62b20c41cfa4450dd5c",
      "transactionType": "CALL",
      "contractName": "FinancialAssets",
      "contractAddress": "0xbC7Ebadd93107D39A3379D9C600f428eb9765f0c",
      "function": "mint(uint256,uint256)",
      "arguments": [
        "4",
        "600"
      ],
      "transaction": {
        "from": "0xe30f5d336931186dd86b5c9426fd4493c34a5c5d",
        "to": "0xbC7Ebadd93107D39A3379D9C600f428eb9765f0c",
        "gas": "0x1fa94",
        "value": "0x0",
        "input": "0x1b2ef1ca00000000000000000000000000000000000000000000000000000000000000040000000000000000000000000000000000000000000000000000000000000258",
        "nonce": "0xf9",
        "chainId": "0xaa36a7"
      },
      "additionalContracts": [],
      "isFixedGasLimit": false
    },
    {
      "hash": "0x250110ada5dfdd96ea896f2a758bc9bd43da3aa3e6a48fefc44f5314c76b8fc9",
      "transactionType": "CALL",
      "contractName": "PrimaryMarket",
      "contractAddress": "0x7Bf3823D764bD3e2681A71Ff703837b508CAa8b3",
      "function": "configureAsset(uint256,uint256)",
      "arguments": [
        "0",
        "100000000"
      ],
      "transaction": {
        "from": "0xe30f5d336931186dd86b5c9426fd4493c34a5c5d",
        "to": "0x7Bf3823D764bD3e2681A71Ff703837b508CAa8b3",
        "gas": "0x10189",
        "value": "0x0",
        "input": "0xc0aab76500000000000000000000000000000000000000000000000000000000000000000000000000000000000000000000000000000000000000000000000005f5e100",
        "nonce": "0xfa",
        "chainId": "0xaa36a7"
      },
      "additionalContracts": [],
      "isFixedGasLimit": false
    },
    {
      "hash": "0xfd60cf78b0e6e8c1c688c2ff627b49039c280e6b1bedd81159bd8fda9f3af6d8",
      "transactionType": "CALL",
      "contractName": "PrimaryMarket",
      "contractAddress": "0x7Bf3823D764bD3e2681A71Ff703837b508CAa8b3",
      "function": "configureAsset(uint256,uint256)",
      "arguments": [
        "1",
        "200000000"
      ],
      "transaction": {
        "from": "0xe30f5d336931186dd86b5c9426fd4493c34a5c5d",
        "to": "0x7Bf3823D764bD3e2681A71Ff703837b508CAa8b3",
        "gas": "0x1019a",
        "value": "0x0",
        "input": "0xc0aab7650000000000000000000000000000000000000000000000000000000000000001000000000000000000000000000000000000000000000000000000000bebc200",
        "nonce": "0xfb",
        "chainId": "0xaa36a7"
      },
      "additionalContracts": [],
      "isFixedGasLimit": false
    },
    {
      "hash": "0x0356a53bdbd3581053a64d4dbc081297cd5a3dbc8e148fa3b5a12ca34c4d8b1c",
      "transactionType": "CALL",
      "contractName": "PrimaryMarket",
      "contractAddress": "0x7Bf3823D764bD3e2681A71Ff703837b508CAa8b3",
      "function": "configureAsset(uint256,uint256)",
      "arguments": [
        "2",
        "150000000"
      ],
      "transaction": {
        "from": "0xe30f5d336931186dd86b5c9426fd4493c34a5c5d",
        "to": "0x7Bf3823D764bD3e2681A71Ff703837b508CAa8b3",
        "gas": "0x101aa",
        "value": "0x0",
        "input": "0xc0aab76500000000000000000000000000000000000000000000000000000000000000020000000000000000000000000000000000000000000000000000000008f0d180",
        "nonce": "0xfc",
        "chainId": "0xaa36a7"
      },
      "additionalContracts": [],
      "isFixedGasLimit": false
    },
    {
      "hash": "0x0fe92021c38bf0457f875434ea6d1f0064f8003d3fdcbdf9ebfbb1be2c0a124f",
      "transactionType": "CALL",
      "contractName": "PrimaryMarket",
      "contractAddress": "0x7Bf3823D764bD3e2681A71Ff703837b508CAa8b3",
      "function": "configureAsset(uint256,uint256)",
      "arguments": [
        "3",
        "80000000"
      ],
      "transaction": {
        "from": "0xe30f5d336931186dd86b5c9426fd4493c34a5c5d",
        "to": "0x7Bf3823D764bD3e2681A71Ff703837b508CAa8b3",
        "gas": "0x1019a",
        "value": "0x0",
        "input": "0xc0aab76500000000000000000000000000000000000000000000000000000000000000030000000000000000000000000000000000000000000000000000000004c4b400",
        "nonce": "0xfd",
        "chainId": "0xaa36a7"
      },
      "additionalContracts": [],
      "isFixedGasLimit": false
    },
    {
      "hash": "0x896ff59eb889148276adc20f7c8e917f6c3d4c0ba6657e0021464729679a16ee",
      "transactionType": "CALL",
      "contractName": "PrimaryMarket",
      "contractAddress": "0x7Bf3823D764bD3e2681A71Ff703837b508CAa8b3",
      "function": "configureAsset(uint256,uint256)",
      "arguments": [
        "4",
        "250000000"
      ],
      "transaction": {
        "from": "0xe30f5d336931186dd86b5c9426fd4493c34a5c5d",
        "to": "0x7Bf3823D764bD3e2681A71Ff703837b508CAa8b3",
        "gas": "0x101aa",
        "value": "0x0",
        "input": "0xc0aab7650000000000000000000000000000000000000000000000000000000000000004000000000000000000000000000000000000000000000000000000000ee6b280",
        "nonce": "0xfe",
        "chainId": "0xaa36a7"
      },
      "additionalContracts": [],
      "isFixedGasLimit": false
    },
    {
      "hash": "0xe12bddbc66e718bf37d428e24900deb2f41dac4cf3319bc4074411e6d3a83be8",
      "transactionType": "CALL",
      "contractName": "DigitalEuro",
      "contractAddress": "0x5aE69a270f061d8435100938b2Cef210D1f8348F",
      "function": "mint(address,uint256)",
      "arguments": [
        "0x6Fc2Fbb2973E592EB6f932a10b3e72eeaA3113C0",
        "50000000000"
      ],
      "transaction": {
        "from": "0xe30f5d336931186dd86b5c9426fd4493c34a5c5d",
        "to": "0x5aE69a270f061d8435100938b2Cef210D1f8348F",
        "gas": "0x19cf0",
        "value": "0x0",
        "input": "0x40c10f190000000000000000000000006fc2fbb2973e592eb6f932a10b3e72eeaa3113c00000000000000000000000000000000000000000000000000000000ba43b7400",
        "nonce": "0xff",
        "chainId": "0xaa36a7"
      },
      "additionalContracts": [],
      "isFixedGasLimit": false
    },
    {
      "hash": "0xd0c7032f72e96585154cfc0a8b5ea6a3aa0d208b601ef37354ca121f8f12612e",
      "transactionType": "CALL",
      "contractName": "DigitalEuro",
      "contractAddress": "0x5aE69a270f061d8435100938b2Cef210D1f8348F",
      "function": "mint(address,uint256)",
      "arguments": [
        "0xdE4a466B7441357E1137A1a1E311bD70c1439eCB",
        "30000000000"
      ],
      "transaction": {
        "from": "0xe30f5d336931186dd86b5c9426fd4493c34a5c5d",
        "to": "0x5aE69a270f061d8435100938b2Cef210D1f8348F",
        "gas": "0x129bb",
        "value": "0x0",
        "input": "0x40c10f19000000000000000000000000de4a466b7441357e1137a1a1e311bd70c1439ecb00000000000000000000000000000000000000000000000000000006fc23ac00",
        "nonce": "0x100",
        "chainId": "0xaa36a7"
      },
      "additionalContracts": [],
      "isFixedGasLimit": false
    },
    {
      "hash": "0x1d565abeb7a2fef7f72e4d494e9f06c3f8783dd562224592b36303e97a18de95",
      "transactionType": "CALL",
      "contractName": "DigitalEuro",
      "contractAddress": "0x5aE69a270f061d8435100938b2Cef210D1f8348F",
      "function": "mint(address,uint256)",
      "arguments": [
        "0xac75578bBdd3C830B32F2De2B8E2a4fA36996082",
        "40000000000"
      ],
      "transaction": {
        "from": "0xe30f5d336931186dd86b5c9426fd4493c34a5c5d",
        "to": "0x5aE69a270f061d8435100938b2Cef210D1f8348F",
        "gas": "0x129bb",
        "value": "0x0",
        "input": "0x40c10f19000000000000000000000000ac75578bbdd3c830b32f2de2b8e2a4fa3699608200000000000000000000000000000000000000000000000000000009502f9000",
        "nonce": "0x101",
        "chainId": "0xaa36a7"
      },
      "additionalContracts": [],
      "isFixedGasLimit": false
    },
    {
      "hash": "0x3307ea2e655295f93d2aaac430918fa635094e4f68baea29172408f23c9b1b01",
      "transactionType": "CALL",
      "contractName": "DigitalEuro",
      "contractAddress": "0x5aE69a270f061d8435100938b2Cef210D1f8348F",
      "function": "approve(address,uint256)",
      "arguments": [
        "0x7Bf3823D764bD3e2681A71Ff703837b508CAa8b3",
        "30000000000"
      ],
      "transaction": {
        "from": "0x6fc2fbb2973e592eb6f932a10b3e72eeaa3113c0",
        "to": "0x5aE69a270f061d8435100938b2Cef210D1f8348F",
        "gas": "0xfa33",
        "value": "0x0",
        "input": "0x095ea7b3000000000000000000000000c58869d25d0d82248620db1eeda58a421cc0ee0e00000000000000000000000000000000000000000000000000000006fc23ac00",
        "nonce": "0x3c",
        "chainId": "0xaa36a7"
      },
      "additionalContracts": [],
      "isFixedGasLimit": false
    },
    {
      "hash": "0xbcec556a47c94addabc2e33d128386337e40dff7c878e5d2a25411237158f432",
      "transactionType": "CALL",
      "contractName": "PrimaryMarket",
      "contractAddress": "0x7Bf3823D764bD3e2681A71Ff703837b508CAa8b3",
      "function": "buyAsset(uint256,uint256)",
      "arguments": [
        "0",
        "100"
      ],
      "transaction": {
        "from": "0x6fc2fbb2973e592eb6f932a10b3e72eeaa3113c0",
        "to": "0x7Bf3823D764bD3e2681A71Ff703837b508CAa8b3",
        "gas": "0x255e6",
        "value": "0x0",
        "input": "0x09b69e8d00000000000000000000000000000000000000000000000000000000000000000000000000000000000000000000000000000000000000000000000000000064",
        "nonce": "0x3d",
        "chainId": "0xaa36a7"
      },
      "additionalContracts": [],
      "isFixedGasLimit": false
    },
    {
      "hash": "0xdfceec83866d3c3b034360530df0373ed73553eb359a3850e5e344f44f9320b4",
      "transactionType": "CALL",
      "contractName": "PrimaryMarket",
      "contractAddress": "0x7Bf3823D764bD3e2681A71Ff703837b508CAa8b3",
      "function": "buyAsset(uint256,uint256)",
      "arguments": [
        "1",
        "50"
      ],
      "transaction": {
        "from": "0x6fc2fbb2973e592eb6f932a10b3e72eeaa3113c0",
        "to": "0x7Bf3823D764bD3e2681A71Ff703837b508CAa8b3",
        "gas": "0x1f446",
        "value": "0x0",
        "input": "0x09b69e8d00000000000000000000000000000000000000000000000000000000000000010000000000000000000000000000000000000000000000000000000000000032",
        "nonce": "0x3e",
        "chainId": "0xaa36a7"
      },
      "additionalContracts": [],
      "isFixedGasLimit": false
    },
    {
      "hash": "0x9676b4b2a29ccfbe2f7cc9c47a638d9e373404bb3049273f078c75b83792e53c",
      "transactionType": "CALL",
      "contractName": "DigitalEuro",
      "contractAddress": "0x5aE69a270f061d8435100938b2Cef210D1f8348F",
      "function": "approve(address,uint256)",
      "arguments": [
        "0x7Bf3823D764bD3e2681A71Ff703837b508CAa8b3",
        "25000000000"
      ],
      "transaction": {
        "from": "0xde4a466b7441357e1137a1a1e311bd70c1439ecb",
        "to": "0x5aE69a270f061d8435100938b2Cef210D1f8348F",
        "gas": "0xfa33",
        "value": "0x0",
        "input": "0x095ea7b3000000000000000000000000c58869d25d0d82248620db1eeda58a421cc0ee0e00000000000000000000000000000000000000000000000000000005d21dba00",
        "nonce": "0x33",
        "chainId": "0xaa36a7"
      },
      "additionalContracts": [],
      "isFixedGasLimit": false
    },
    {
      "hash": "0x1eab432b473b0c8d00b85103360e0b88b0a22003bdfbc31d49099fb48e7e1196",
      "transactionType": "CALL",
      "contractName": "PrimaryMarket",
      "contractAddress": "0x7Bf3823D764bD3e2681A71Ff703837b508CAa8b3",
      "function": "buyAsset(uint256,uint256)",
      "arguments": [
        "3",
        "100"
      ],
      "transaction": {
        "from": "0xde4a466b7441357e1137a1a1e311bd70c1439ecb",
        "to": "0x7Bf3823D764bD3e2681A71Ff703837b508CAa8b3",
        "gas": "0x1f446",
        "value": "0x0",
        "input": "0x09b69e8d00000000000000000000000000000000000000000000000000000000000000030000000000000000000000000000000000000000000000000000000000000064",
        "nonce": "0x34",
        "chainId": "0xaa36a7"
      },
      "additionalContracts": [],
      "isFixedGasLimit": false
    },
    {
      "hash": "0x3000677f6633f60140516ba9d12cc4369ef90ba28cb4b7da4d5005add6821c25",
      "transactionType": "CALL",
      "contractName": "PrimaryMarket",
      "contractAddress": "0x7Bf3823D764bD3e2681A71Ff703837b508CAa8b3",
      "function": "buyAsset(uint256,uint256)",
      "arguments": [
        "2",
        "80"
      ],
      "transaction": {
        "from": "0xde4a466b7441357e1137a1a1e311bd70c1439ecb",
        "to": "0x7Bf3823D764bD3e2681A71Ff703837b508CAa8b3",
        "gas": "0x1f446",
        "value": "0x0",
        "input": "0x09b69e8d00000000000000000000000000000000000000000000000000000000000000020000000000000000000000000000000000000000000000000000000000000050",
        "nonce": "0x35",
        "chainId": "0xaa36a7"
      },
      "additionalContracts": [],
      "isFixedGasLimit": false
    },
    {
      "hash": "0x544c0509186f1580953d2ac631cc4240e33e2be6873833d5bb602d9dc2c016ab",
      "transactionType": "CALL",
      "contractName": "DigitalEuro",
      "contractAddress": "0x5aE69a270f061d8435100938b2Cef210D1f8348F",
      "function": "approve(address,uint256)",
      "arguments": [
        "0x7Bf3823D764bD3e2681A71Ff703837b508CAa8b3",
        "35000000000"
      ],
      "transaction": {
        "from": "0xac75578bbdd3c830b32f2de2b8e2a4fa36996082",
        "to": "0x5aE69a270f061d8435100938b2Cef210D1f8348F",
        "gas": "0xfa33",
        "value": "0x0",
        "input": "0x095ea7b3000000000000000000000000c58869d25d0d82248620db1eeda58a421cc0ee0e0000000000000000000000000000000000000000000000000000000826299e00",
        "nonce": "0x2a",
        "chainId": "0xaa36a7"
      },
      "additionalContracts": [],
      "isFixedGasLimit": false
    },
    {
      "hash": "0xf485d2c5ab1bccc5e06433e38681628d2762a9a319202b770cffc85012b13584",
      "transactionType": "CALL",
      "contractName": "PrimaryMarket",
      "contractAddress": "0x7Bf3823D764bD3e2681A71Ff703837b508CAa8b3",
      "function": "buyAsset(uint256,uint256)",
      "arguments": [
        "4",
        "60"
      ],
      "transaction": {
        "from": "0xac75578bbdd3c830b32f2de2b8e2a4fa36996082",
        "to": "0x7Bf3823D764bD3e2681A71Ff703837b508CAa8b3",
        "gas": "0x1f446",
        "value": "0x0",
        "input": "0x09b69e8d0000000000000000000000000000000000000000000000000000000000000004000000000000000000000000000000000000000000000000000000000000003c",
        "nonce": "0x2b",
        "chainId": "0xaa36a7"
      },
      "additionalContracts": [],
      "isFixedGasLimit": false
    },
    {
      "hash": "0xd468aee1444e7e6b2ed7d1f18dda4912d5f4a7144486634a08c78bdaee157651",
      "transactionType": "CALL",
      "contractName": "PrimaryMarket",
      "contractAddress": "0x7Bf3823D764bD3e2681A71Ff703837b508CAa8b3",
      "function": "buyAsset(uint256,uint256)",
      "arguments": [
        "1",
        "30"
      ],
      "transaction": {
        "from": "0xac75578bbdd3c830b32f2de2b8e2a4fa36996082",
        "to": "0x7Bf3823D764bD3e2681A71Ff703837b508CAa8b3",
        "gas": "0x1f446",
        "value": "0x0",
        "input": "0x09b69e8d0000000000000000000000000000000000000000000000000000000000000001000000000000000000000000000000000000000000000000000000000000001e",
        "nonce": "0x2c",
        "chainId": "0xaa36a7"
      },
      "additionalContracts": [],
      "isFixedGasLimit": false
    },
    {
      "hash": "0xec040b743285bc81e8e8f6c0c4e3b9c366adf4f92c378bac63ece8d649a9e7d0",
      "transactionType": "CALL",
      "contractName": "PrimaryMarket",
      "contractAddress": "0x7Bf3823D764bD3e2681A71Ff703837b508CAa8b3",
      "function": "buyAsset(uint256,uint256)",
      "arguments": [
        "0",
        "50"
      ],
      "transaction": {
        "from": "0xac75578bbdd3c830b32f2de2b8e2a4fa36996082",
        "to": "0x7Bf3823D764bD3e2681A71Ff703837b508CAa8b3",
        "gas": "0x1d86b",
        "value": "0x0",
        "input": "0x09b69e8d00000000000000000000000000000000000000000000000000000000000000000000000000000000000000000000000000000000000000000000000000000032",
        "nonce": "0x2d",
        "chainId": "0xaa36a7"
      },
      "additionalContracts": [],
      "isFixedGasLimit": false
    },
    {
      "hash": "0x8f9d8e63f58b9ac371281190768b32e44e38b3d28a021c26af68523be4e2239b",
      "transactionType": "CALL",
      "contractName": "FinancialAssets",
      "contractAddress": "0xbC7Ebadd93107D39A3379D9C600f428eb9765f0c",
      "function": "setApprovalForAll(address,bool)",
      "arguments": [
        "0x8B86642180149a22c2e06647342f8E250BE5F23B",
        "true"
      ],
      "transaction": {
        "from": "0x6fc2fbb2973e592eb6f932a10b3e72eeaa3113c0",
        "to": "0xbC7Ebadd93107D39A3379D9C600f428eb9765f0c",
        "gas": "0xf92f",
        "value": "0x0",
        "input": "0xa22cb465000000000000000000000000e1255febb4f293eb66a569deaba15f36871b58500000000000000000000000000000000000000000000000000000000000000001",
        "nonce": "0x3f",
        "chainId": "0xaa36a7"
      },
      "additionalContracts": [],
      "isFixedGasLimit": false
    },
    {
      "hash": "0xa917b09c71b4cf9a25d2f8d72e0959ddc5f6989586a35e281447e71cf39289a7",
      "transactionType": "CALL",
      "contractName": "FinancialAssets",
      "contractAddress": "0xbC7Ebadd93107D39A3379D9C600f428eb9765f0c",
      "function": "setApprovalForAll(address,bool)",
      "arguments": [
        "0x8B86642180149a22c2e06647342f8E250BE5F23B",
        "true"
      ],
      "transaction": {
        "from": "0xde4a466b7441357e1137a1a1e311bd70c1439ecb",
        "to": "0xbC7Ebadd93107D39A3379D9C600f428eb9765f0c",
        "gas": "0xf92f",
        "value": "0x0",
        "input": "0xa22cb465000000000000000000000000e1255febb4f293eb66a569deaba15f36871b58500000000000000000000000000000000000000000000000000000000000000001",
        "nonce": "0x36",
        "chainId": "0xaa36a7"
      },
      "additionalContracts": [],
      "isFixedGasLimit": false
    },
    {
      "hash": "0x337b849e9d100e83e6f3ab44e26f8c60e59f44348c31d1e4ce3477b2a62d9451",
      "transactionType": "CALL",
      "contractName": "SecondaryMarket",
      "contractAddress": "0x8B86642180149a22c2e06647342f8E250BE5F23B",
      "function": "createListing(uint256,uint256,uint256)",
      "arguments": [
        "0",
        "60",
        "120000000"
      ],
      "transaction": {
        "from": "0x6fc2fbb2973e592eb6f932a10b3e72eeaa3113c0",
        "to": "0x8B86642180149a22c2e06647342f8E250BE5F23B",
        "gas": "0x3d553",
        "value": "0x0",
        "input": "0xb03053b60000000000000000000000000000000000000000000000000000000000000000000000000000000000000000000000000000000000000000000000000000003c0000000000000000000000000000000000000000000000000000000007270e00",
        "nonce": "0x40",
        "chainId": "0xaa36a7"
      },
      "additionalContracts": [],
      "isFixedGasLimit": false
    },
    {
      "hash": "0xdcd06f531770ceccf6252f3818be7bd10875300a1ae0b00a3a78c74cbab76a11",
      "transactionType": "CALL",
      "contractName": "SecondaryMarket",
      "contractAddress": "0x8B86642180149a22c2e06647342f8E250BE5F23B",
      "function": "createListing(uint256,uint256,uint256)",
      "arguments": [
        "3",
        "50",
        "85000000"
      ],
      "transaction": {
        "from": "0xde4a466b7441357e1137a1a1e311bd70c1439ecb",
        "to": "0x8B86642180149a22c2e06647342f8E250BE5F23B",
        "gas": "0x3e48f",
        "value": "0x0",
        "input": "0xb03053b600000000000000000000000000000000000000000000000000000000000000030000000000000000000000000000000000000000000000000000000000000032000000000000000000000000000000000000000000000000000000000510ff40",
        "nonce": "0x37",
        "chainId": "0xaa36a7"
      },
      "additionalContracts": [],
      "isFixedGasLimit": false
    },
    {
      "hash": "0x5b0038e9a3a9305b8142bd057179d5445cdaa54695b1e250fc513d6e3763ad9b",
      "transactionType": "CALL",
      "contractName": "DigitalEuro",
      "contractAddress": "0x5aE69a270f061d8435100938b2Cef210D1f8348F",
      "function": "approve(address,uint256)",
      "arguments": [
        "0x8B86642180149a22c2e06647342f8E250BE5F23B",
        "6000000000"
      ],
      "transaction": {
        "from": "0xde4a466b7441357e1137a1a1e311bd70c1439ecb",
        "to": "0x5aE69a270f061d8435100938b2Cef210D1f8348F",
        "gas": "0xfa33",
        "value": "0x0",
        "input": "0x095ea7b3000000000000000000000000e1255febb4f293eb66a569deaba15f36871b58500000000000000000000000000000000000000000000000000000000165a0bc00",
        "nonce": "0x38",
        "chainId": "0xaa36a7"
      },
      "additionalContracts": [],
      "isFixedGasLimit": false
    },
    {
      "hash": "0x00d8c1b3a707e09e9cd5af7abd787394a927aaabe7b1a0ea39142e63a3f020c3",
      "transactionType": "CALL",
      "contractName": "SecondaryMarket",
      "contractAddress": "0x8B86642180149a22c2e06647342f8E250BE5F23B",
      "function": "executeTrade(uint256,uint256)",
      "arguments": [
        "0",
        "40"
      ],
      "transaction": {
        "from": "0xde4a466b7441357e1137a1a1e311bd70c1439ecb",
        "to": "0x8B86642180149a22c2e06647342f8E250BE5F23B",
        "gas": "0x232b6",
        "value": "0x0",
        "input": "0x26fbd1d600000000000000000000000000000000000000000000000000000000000000000000000000000000000000000000000000000000000000000000000000000028",
        "nonce": "0x39",
        "chainId": "0xaa36a7"
      },
      "additionalContracts": [],
      "isFixedGasLimit": false
    },
    {
      "hash": "0xdc32698d785596d4cad4f1e0ccf54f2bb3297eed16a7f4218e66b6648afab0b5",
      "transactionType": "CALL",
      "contractName": "DigitalEuro",
      "contractAddress": "0x5aE69a270f061d8435100938b2Cef210D1f8348F",
      "function": "approve(address,uint256)",
      "arguments": [
        "0x8B86642180149a22c2e06647342f8E250BE5F23B",
        "5000000000"
      ],
      "transaction": {
        "from": "0xac75578bbdd3c830b32f2de2b8e2a4fa36996082",
        "to": "0x5aE69a270f061d8435100938b2Cef210D1f8348F",
        "gas": "0xfa33",
        "value": "0x0",
        "input": "0x095ea7b3000000000000000000000000e1255febb4f293eb66a569deaba15f36871b5850000000000000000000000000000000000000000000000000000000012a05f200",
        "nonce": "0x2e",
        "chainId": "0xaa36a7"
      },
      "additionalContracts": [],
      "isFixedGasLimit": false
    },
    {
      "hash": "0x04cccde659358df12765e838b43a4c6cae3167879889db9bdc1a9d811bbdb0ea",
      "transactionType": "CALL",
      "contractName": "SecondaryMarket",
      "contractAddress": "0x8B86642180149a22c2e06647342f8E250BE5F23B",
      "function": "executeTrade(uint256,uint256)",
      "arguments": [
        "1",
        "30"
      ],
      "transaction": {
        "from": "0xac75578bbdd3c830b32f2de2b8e2a4fa36996082",
        "to": "0x8B86642180149a22c2e06647342f8E250BE5F23B",
        "gas": "0x253e1",
        "value": "0x0",
        "input": "0x26fbd1d60000000000000000000000000000000000000000000000000000000000000001000000000000000000000000000000000000000000000000000000000000001e",
        "nonce": "0x2f",
        "chainId": "0xaa36a7"
      },
      "additionalContracts": [],
      "isFixedGasLimit": false
    }
  ],
  "receipts": [
    {
      "status": "0x1",
      "cumulativeGasUsed": "0x17a0ca2",
      "logs": [
        {
          "address": "0x5aE69a270f061d8435100938b2Cef210D1f8348F",
          "topics": [
            "0x2f8788117e7eff1d82e926ec794901d17c78024a50270940304540a733656f0d",
            "0x0000000000000000000000000000000000000000000000000000000000000000",
            "0x000000000000000000000000e30f5d336931186dd86b5c9426fd4493c34a5c5d",
            "0x000000000000000000000000e30f5d336931186dd86b5c9426fd4493c34a5c5d"
          ],
          "data": "0x",
          "blockHash": "0x8a394436228fa2b6d2935d3177deec7d61c1cd66fdd12ed55932405ff1b5c242",
          "blockNumber": "0x9b9201",
          "blockTimestamp": "0x69845a00",
          "transactionHash": "0x05d242ccbfc73cb4157d900f73d5b2ee0e4a075c9878fe797c8fc09e180dc443",
          "transactionIndex": "0x50",
          "logIndex": "0x2de",
          "removed": false
        },
        {
          "address": "0x5aE69a270f061d8435100938b2Cef210D1f8348F",
          "topics": [
            "0x2f8788117e7eff1d82e926ec794901d17c78024a50270940304540a733656f0d",
            "0x9f2df0fed2c77648de5860a4cc508cd0818c85b8b8a1ab4ceeef8d981c8956a6",
            "0x000000000000000000000000e30f5d336931186dd86b5c9426fd4493c34a5c5d",
            "0x000000000000000000000000e30f5d336931186dd86b5c9426fd4493c34a5c5d"
          ],
          "data": "0x",
          "blockHash": "0x8a394436228fa2b6d2935d3177deec7d61c1cd66fdd12ed55932405ff1b5c242",
          "blockNumber": "0x9b9201",
          "blockTimestamp": "0x69845a00",
          "transactionHash": "0x05d242ccbfc73cb4157d900f73d5b2ee0e4a075c9878fe797c8fc09e180dc443",
          "transactionIndex": "0x50",
          "logIndex": "0x2df",
          "removed": false
        }
      ],
      "logsBloom": "0x00000004000000000000000000000000000000000000000000000040000000000000000000000000000000000000004000000000000000000000000000000000000000000000000000000000000000000000000000000000000000000000000000000000020000000000000000200800000000000000000000000000001000000000100000000000000000000000000000000000000000000000000000000000000000000000000000000000000000000000000000000000001000000000000000000000000000000000000000000100001000000000000100000000000020000000000000000000004000000000000000000000000000000000000002000000",
      "type": "0x2",
      "transactionHash": "0x05d242ccbfc73cb4157d900f73d5b2ee0e4a075c9878fe797c8fc09e180dc443",
      "transactionIndex": "0x50",
      "blockHash": "0x8a394436228fa2b6d2935d3177deec7d61c1cd66fdd12ed55932405ff1b5c242",
      "blockNumber": "0x9b9201",
      "gasUsed": "0xc2a50",
      "effectiveGasPrice": "0x3f2d18f9",
      "from": "0xe30f5d336931186dd86b5c9426fd4493c34a5c5d",
      "to": null,
      "contractAddress": "0x5aE69a270f061d8435100938b2Cef210D1f8348F"
    },
    {
      "status": "0x1",
      "cumulativeGasUsed": "0x166eb6f",
      "logs": [
        {
          "address": "0xbC7Ebadd93107D39A3379D9C600f428eb9765f0c",
          "topics": [
            "0x2f8788117e7eff1d82e926ec794901d17c78024a50270940304540a733656f0d",
            "0x0000000000000000000000000000000000000000000000000000000000000000",
            "0x000000000000000000000000e30f5d336931186dd86b5c9426fd4493c34a5c5d",
            "0x000000000000000000000000e30f5d336931186dd86b5c9426fd4493c34a5c5d"
          ],
          "data": "0x",
          "blockHash": "0xb019386653b0403cf3348cdb47ecb1eeda7fc857f5d7605a161221375d17709f",
          "blockNumber": "0x9b9202",
          "blockTimestamp": "0x69845a0c",
          "transactionHash": "0x5686d08359b0ad9740e51c260e47ebd56a85502278d5991f0ca03330f65dbf8e",
          "transactionIndex": "0x41",
          "logIndex": "0x362",
          "removed": false
        },
        {
          "address": "0xbC7Ebadd93107D39A3379D9C600f428eb9765f0c",
          "topics": [
            "0x2f8788117e7eff1d82e926ec794901d17c78024a50270940304540a733656f0d",
            "0x0b84ee281e5cf521a9ad54a86fafe78946b157177e231bd8ae785af4d3b3620f",
            "0x000000000000000000000000e30f5d336931186dd86b5c9426fd4493c34a5c5d",
            "0x000000000000000000000000e30f5d336931186dd86b5c9426fd4493c34a5c5d"
          ],
          "data": "0x",
          "blockHash": "0xb019386653b0403cf3348cdb47ecb1eeda7fc857f5d7605a161221375d17709f",
          "blockNumber": "0x9b9202",
          "blockTimestamp": "0x69845a0c",
          "transactionHash": "0x5686d08359b0ad9740e51c260e47ebd56a85502278d5991f0ca03330f65dbf8e",
          "transactionIndex": "0x41",
          "logIndex": "0x363",
          "removed": false
        }
      ],
      "logsBloom": "0x00000004000000000000000000000000000000000000000000000040000000000000000000200000000000000000000000000000000000000000000010000000000000000000000000000000000000000000000000000080000000000000000000000100020000000000000000000800000000000000000000000000000000000000100000000000000000000000000000000000000000000000000000000000000000000000000000000000000000000000000000000000001000000000000000000000000010000000040000000100000000000000000100000000000020000000000000000000000000000000000000000000000000000000000000000000",
      "type": "0x2",
      "transactionHash": "0x5686d08359b0ad9740e51c260e47ebd56a85502278d5991f0ca03330f65dbf8e",
      "transactionIndex": "0x41",
      "blockHash": "0xb019386653b0403cf3348cdb47ecb1eeda7fc857f5d7605a161221375d17709f",
      "blockNumber": "0x9b9202",
      "gasUsed": "0x1cc5a4",
      "effectiveGasPrice": "0x3ef281bd",
      "from": "0xe30f5d336931186dd86b5c9426fd4493c34a5c5d",
      "to": null,
      "contractAddress": "0xbC7Ebadd93107D39A3379D9C600f428eb9765f0c"
    },
    {
      "status": "0x1",
      "cumulativeGasUsed": "0x1b50faf",
      "logs": [
        {
          "address": "0x7Bf3823D764bD3e2681A71Ff703837b508CAa8b3",
          "topics": [
            "0x2f8788117e7eff1d82e926ec794901d17c78024a50270940304540a733656f0d",
            "0x0000000000000000000000000000000000000000000000000000000000000000",
            "0x000000000000000000000000e30f5d336931186dd86b5c9426fd4493c34a5c5d",
            "0x000000000000000000000000e30f5d336931186dd86b5c9426fd4493c34a5c5d"
          ],
          "data": "0x",
          "blockHash": "0xd4fc0f2769f921b349ae3e91634c6d69e20b666f8159c68087fd7e8b3c9c7b44",
          "blockNumber": "0x9b9203",
          "blockTimestamp": "0x69845a18",
          "transactionHash": "0x607dca021aa12b1ce205094b9a7011bcf86b1ce81a76604c0791df02f86c2b41",
          "transactionIndex": "0x57",
          "logIndex": "0x45e",
          "removed": false
        },
        {
          "address": "0x7Bf3823D764bD3e2681A71Ff703837b508CAa8b3",
          "topics": [
            "0x2f8788117e7eff1d82e926ec794901d17c78024a50270940304540a733656f0d",
            "0x0b84ee281e5cf521a9ad54a86fafe78946b157177e231bd8ae785af4d3b3620f",
            "0x000000000000000000000000e30f5d336931186dd86b5c9426fd4493c34a5c5d",
            "0x000000000000000000000000e30f5d336931186dd86b5c9426fd4493c34a5c5d"
          ],
          "data": "0x",
          "blockHash": "0xd4fc0f2769f921b349ae3e91634c6d69e20b666f8159c68087fd7e8b3c9c7b44",
          "blockNumber": "0x9b9203",
          "blockTimestamp": "0x69845a18",
          "transactionHash": "0x607dca021aa12b1ce205094b9a7011bcf86b1ce81a76604c0791df02f86c2b41",
          "transactionIndex": "0x57",
          "logIndex": "0x45f",
          "removed": false
        }
      ],
      "logsBloom": "0x00000004000000000000000000000000000000000000000000000040000000000000000000000000000000000800000000000800000000000000000010000000000000000000000000000000000000000000000000000080000000000000000000000000020000000000000000000800000000000000000000000000000000000000100000000000000000000000000000000000000000000000000000000000000000800000000000000000000000000000000000000000001000000000000000000000000000000000040000000100000000000000000100000000000020000000000000000000000000000000000000000000000000000000000000000000",
      "type": "0x2",
      "transactionHash": "0x607dca021aa12b1ce205094b9a7011bcf86b1ce81a76604c0791df02f86c2b41",
      "transactionIndex": "0x57",
      "blockHash": "0xd4fc0f2769f921b349ae3e91634c6d69e20b666f8159c68087fd7e8b3c9c7b44",
      "blockNumber": "0x9b9203",
      "gasUsed": "0xeb8be",
      "effectiveGasPrice": "0x3e508332",
      "from": "0xe30f5d336931186dd86b5c9426fd4493c34a5c5d",
      "to": null,
      "contractAddress": "0x7Bf3823D764bD3e2681A71Ff703837b508CAa8b3"
    },
    {
      "status": "0x1",
      "cumulativeGasUsed": "0x1bd5699",
      "logs": [
        {
          "address": "0x8B86642180149a22c2e06647342f8E250BE5F23B",
          "topics": [
            "0x2f8788117e7eff1d82e926ec794901d17c78024a50270940304540a733656f0d",
            "0x0000000000000000000000000000000000000000000000000000000000000000",
            "0x000000000000000000000000e30f5d336931186dd86b5c9426fd4493c34a5c5d",
            "0x000000000000000000000000e30f5d336931186dd86b5c9426fd4493c34a5c5d"
          ],
          "data": "0x",
          "blockHash": "0x4c8bfa4feaa53a88f63c71eaee74c0450378e2307bbe352f93578dc503811471",
          "blockNumber": "0x9b9204",
          "blockTimestamp": "0x69845a24",
          "transactionHash": "0x629a40774ad5a5d477e72c6e795775f843bae51a66ceab95b45f68a3bbae17e7",
          "transactionIndex": "0x69",
          "logIndex": "0x3a3",
          "removed": false
        }
      ],
      "logsBloom": "0x00000004008000000000000000000000000000200000000000000040000000000000000000000000000000000000000000000000000000000000000000000000000000000000000000000000000000000000000000000000000000000000000000000000020000000000000000000800000000000000000000000000000000000000100000000000000000000000000000000000000000000000000000000000000000000000000000000000000000000000000000000000001000000000000000000000000000000000000000000100000000000000000100000000000020000000000000000000000000000000002000000000000000000000000000000000",
      "type": "0x2",
      "transactionHash": "0x629a40774ad5a5d477e72c6e795775f843bae51a66ceab95b45f68a3bbae17e7",
      "transactionIndex": "0x69",
      "blockHash": "0x4c8bfa4feaa53a88f63c71eaee74c0450378e2307bbe352f93578dc503811471",
      "blockNumber": "0x9b9204",
      "gasUsed": "0x128743",
      "effectiveGasPrice": "0x3efc167f",
      "from": "0xe30f5d336931186dd86b5c9426fd4493c34a5c5d",
      "to": null,
      "contractAddress": "0x8B86642180149a22c2e06647342f8E250BE5F23B"
    },
    {
      "status": "0x1",
      "cumulativeGasUsed": "0xf27032",
      "logs": [
        {
          "address": "0xbC7Ebadd93107D39A3379D9C600f428eb9765f0c",
          "topics": [
            "0x2683c02722e9e01707eb234ac654f5eca143b1307d1789be28369d0f846f9e48",
            "0x0000000000000000000000000000000000000000000000000000000000000000",
            "0x000000000000000000000000c58869d25d0d82248620db1eeda58a421cc0ee0e"
          ],
          "data": "0x",
          "blockHash": "0x21362caa68a96637dcc7c99a1ff1edbf27d9c184c5763365bf47f8a355c30caf",
          "blockNumber": "0x9b9205",
          "blockTimestamp": "0x69845a30",
          "transactionHash": "0xd44e92c9dde495bbf6bc9dd61a387cbf21b88989415f0416e5e752bee5a4a519",
          "transactionIndex": "0x32",
          "logIndex": "0x220",
          "removed": false
        }
      ],
      "logsBloom": "0x00000000000000000000000000000200000000000000000000000000000020000000080000200000000000000000000000000000000000000000000000000000000000000000000000000000000000000000000000000000000000000000000000000100020000000000000000000800000000000000000000000000000000000000000000000000000000000000000000000000000000000000000000000000000200000000000000000000000000008000000000000000000000000000000000000000000010000000000000000080000000000000000000000000000020000000000000000000000000000000000000000000000000000000000000000000",
      "type": "0x2",
      "transactionHash": "0xd44e92c9dde495bbf6bc9dd61a387cbf21b88989415f0416e5e752bee5a4a519",
      "transactionIndex": "0x32",
      "blockHash": "0x21362caa68a96637dcc7c99a1ff1edbf27d9c184c5763365bf47f8a355c30caf",
      "blockNumber": "0x9b9205",
      "gasUsed": "0xbb31",
      "effectiveGasPrice": "0x4029c8ac",
      "from": "0xe30f5d336931186dd86b5c9426fd4493c34a5c5d",
      "to": "0xbC7Ebadd93107D39A3379D9C600f428eb9765f0c",
      "contractAddress": null
    },
    {
      "status": "0x1",
      "cumulativeGasUsed": "0x17f01cd",
      "logs": [
        {
          "address": "0xbC7Ebadd93107D39A3379D9C600f428eb9765f0c",
          "topics": [
            "0xb6d0fdd4aa7871e97002ee6e98a7078316273461e22e2f1be3715a9d247e766d",
            "0x0000000000000000000000000000000000000000000000000000000000000000"
          ],
          "data": "0x0000000000000000000000000000000000000000000000000000000000000040000000000000000000000000000000000000000000000000000000000000008000000000000000000000000000000000000000000000000000000000000000154e6578757320546563686e6f6c6f67792046756e64000000000000000000000000000000000000000000000000000000000000000000000000000000000000045445434800000000000000000000000000000000000000000000000000000000",
          "blockHash": "0xaafb422f57762dcc2e95c1b97c049412c46d75ed9872e5d12844f7d06d235a32",
          "blockNumber": "0x9b9206",
          "blockTimestamp": "0x69845a3c",
          "transactionHash": "0x001b21462b75a84169503239a841bac4db2d73e596fc159ebabc635ee217e294",
          "transactionIndex": "0x5c",
          "logIndex": "0x44e",
          "removed": false
        }
      ],
      "logsBloom": "0x00000000000000000000000000000000000000000000000000000000000000000000000000200000000000000000000000000000000000000000000000000000000000000000000000000000000000000000000000000000000000000000000000000100020000000000000000000800000000000000000000000000000000000000000000000000000000000000000000000000000000000000000000000000004000000000000000000000000000000000000000000010000000000000000000000000000010000000000000000000000000000000000000000000800020000000000000000000000000000000000000000000000000000000000000000000",
      "type": "0x2",
      "transactionHash": "0x001b21462b75a84169503239a841bac4db2d73e596fc159ebabc635ee217e294",
      "transactionIndex": "0x5c",
      "blockHash": "0xaafb422f57762dcc2e95c1b97c049412c46d75ed9872e5d12844f7d06d235a32",
      "blockNumber": "0x9b9206",
      "gasUsed": "0x179b7",
      "effectiveGasPrice": "0x3d8d7feb",
      "from": "0xe30f5d336931186dd86b5c9426fd4493c34a5c5d",
      "to": "0xbC7Ebadd93107D39A3379D9C600f428eb9765f0c",
      "contractAddress": null
    },
    {
      "status": "0x1",
      "cumulativeGasUsed": "0x13296f2",
      "logs": [
        {
          "address": "0xbC7Ebadd93107D39A3379D9C600f428eb9765f0c",
          "topics": [
            "0xb6d0fdd4aa7871e97002ee6e98a7078316273461e22e2f1be3715a9d247e766d",
            "0x0000000000000000000000000000000000000000000000000000000000000001"
          ],
          "data": "0x00000000000000000000000000000000000000000000000000000000000000400000000000000000000000000000000000000000000000000000000000000080000000000000000000000000000000000000000000000000000000000000001e476f6c6473746f6e652050726563696f7573204d6574616c732046756e6400000000000000000000000000000000000000000000000000000000000000000004474f4c4400000000000000000000000000000000000000000000000000000000",
          "blockHash": "0x006b5f1e56c71ee1f5ed40b28d923e766782448feb8535d5d1f1bf2d7eacb09d",
          "blockNumber": "0x9b9207",
          "blockTimestamp": "0x69845a48",
          "transactionHash": "0x13fff6e9e72a6f2695eeaddb3f575e1ac1c50bfd064ff8518e64f7df252ddf9b",
          "transactionIndex": "0x40",
          "logIndex": "0x363",
          "removed": false
        }
      ],
      "logsBloom": "0x00000000000000000000000000000000000000000000000000000000000000000000000000200000000000000000000000000000000000000000000000040000000000000000000000000000000000000000000000040000000000000000000000000100000000000000000000000000000000000000000000000000000000000000000000000000000000000000000000000000000000000000000000000000004000000000000000000000000000000000000000000010000000000000000000000000000010000000000000000000000000000000000000000000800040000000000000000000000000000000000000000000000000000000000000000000",
      "type": "0x2",
      "transactionHash": "0x13fff6e9e72a6f2695eeaddb3f575e1ac1c50bfd064ff8518e64f7df252ddf9b",
      "transactionIndex": "0x40",
      "blockHash": "0x006b5f1e56c71ee1f5ed40b28d923e766782448feb8535d5d1f1bf2d7eacb09d",
      "blockNumber": "0x9b9207",
      "gasUsed": "0x13763",
      "effectiveGasPrice": "0x3dbf569a",
      "from": "0xe30f5d336931186dd86b5c9426fd4493c34a5c5d",
      "to": "0xbC7Ebadd93107D39A3379D9C600f428eb9765f0c",
      "contractAddress": null
    },
    {
      "status": "0x1",
      "cumulativeGasUsed": "0x1d584b0",
      "logs": [
        {
          "address": "0xbC7Ebadd93107D39A3379D9C600f428eb9765f0c",
          "topics": [
            "0xb6d0fdd4aa7871e97002ee6e98a7078316273461e22e2f1be3715a9d247e766d",
            "0x0000000000000000000000000000000000000000000000000000000000000002"
          ],
          "data": "0x00000000000000000000000000000000000000000000000000000000000000400000000000000000000000000000000000000000000000000000000000000080000000000000000000000000000000000000000000000000000000000000001d41706578205265616c20457374617465204361706974616c2046756e6400000000000000000000000000000000000000000000000000000000000000000000045245414c00000000000000000000000000000000000000000000000000000000",
          "blockHash": "0x0817e0151eab645cc75ff5e42a9808be3696612e140944d7c231d85d947cb6ca",
          "blockNumber": "0x9b9208",
          "blockTimestamp": "0x69845a54",
          "transactionHash": "0x8ddfd94bfd7084d3591677488ef864c3f9dd9d0375406af7f0c6a0f5053268d0",
          "transactionIndex": "0x50",
          "logIndex": "0x3ee",
          "removed": false
        }
      ],
      "logsBloom": "0x04000000000000000000000000000000000000000000000000000000000000000000000000200000000000000000000000000000000000000000000000000000000000000000000000000000000000000000000000000000000000000000000000000100000000000000000000000000000000000000000000000000000000000000000000000000000000000000000000000000000000000000000000000000004000000000000000000100000000000000000000000010000000000000000000000000000010000000000000000000000000000000000000000000800000000000000000000000000000000000000000000000008000000000000000000000",
      "type": "0x2",
      "transactionHash": "0x8ddfd94bfd7084d3591677488ef864c3f9dd9d0375406af7f0c6a0f5053268d0",
      "transactionIndex": "0x50",
      "blockHash": "0x0817e0151eab645cc75ff5e42a9808be3696612e140944d7c231d85d947cb6ca",
      "blockNumber": "0x9b9208",
      "gasUsed": "0x13757",
      "effectiveGasPrice": "0x3d021766",
      "from": "0xe30f5d336931186dd86b5c9426fd4493c34a5c5d",
      "to": "0xbC7Ebadd93107D39A3379D9C600f428eb9765f0c",
      "contractAddress": null
    },
    {
      "status": "0x1",
      "cumulativeGasUsed": "0x2d080a6",
      "logs": [
        {
          "address": "0xbC7Ebadd93107D39A3379D9C600f428eb9765f0c",
          "topics": [
            "0xb6d0fdd4aa7871e97002ee6e98a7078316273461e22e2f1be3715a9d247e766d",
            "0x0000000000000000000000000000000000000000000000000000000000000003"
          ],
          "data": "0x000000000000000000000000000000000000000000000000000000000000004000000000000000000000000000000000000000000000000000000000000000a00000000000000000000000000000000000000000000000000000000000000024477265656e20467574757265205375737461696e61626c6520456e657267792046756e64000000000000000000000000000000000000000000000000000000000000000000000000000000000000000000000000000000000000000000000005475245454e000000000000000000000000000000000000000000000000000000",
          "blockHash": "0x1d37eb1f84dbfc1cb0ac35021c5bcc603d27fcdeb99e00b2779933fd59ef95d7",
          "blockNumber": "0x9b9209",
          "blockTimestamp": "0x69845a60",
          "transactionHash": "0xa91fcc3b86777dcbb970bb5f4cfcd6632c2c84d9a48b7fba92d73d459a235cef",
          "transactionIndex": "0x56",
          "logIndex": "0x3d5",
          "removed": false
        }
      ],
      "logsBloom": "0x00000000000000000000000000000000000000000000000000000000000000000000000000200000000000000000000000000000020000000000000000000000000000000000000000000000000000000000000000000000000000000000000000000100000000000000000000000000000000000000000000000000000000000000000000000000000000000000000000000000000000000000000000000000004000000000000000000000000000000000000000800010000000000000400000000000000010000000000000000000000000000000000000000000800000000000000000000000000000000000000000000000000000000000000000000000",
      "type": "0x2",
      "transactionHash": "0xa91fcc3b86777dcbb970bb5f4cfcd6632c2c84d9a48b7fba92d73d459a235cef",
      "transactionIndex": "0x56",
      "blockHash": "0x1d37eb1f84dbfc1cb0ac35021c5bcc603d27fcdeb99e00b2779933fd59ef95d7",
      "blockNumber": "0x9b9209",
      "gasUsed": "0x1e6a1",
      "effectiveGasPrice": "0x3e505bb7",
      "from": "0xe30f5d336931186dd86b5c9426fd4493c34a5c5d",
      "to": "0xbC7Ebadd93107D39A3379D9C600f428eb9765f0c",
      "contractAddress": null
    },
    {
      "status": "0x1",
      "cumulativeGasUsed": "0x17b32f6",
      "logs": [
        {
          "address": "0xbC7Ebadd93107D39A3379D9C600f428eb9765f0c",
          "topics": [
            "0xb6d0fdd4aa7871e97002ee6e98a7078316273461e22e2f1be3715a9d247e766d",
            "0x0000000000000000000000000000000000000000000000000000000000000004"
          ],
          "data": "0x000000000000000000000000000000000000000000000000000000000000004000000000000000000000000000000000000000000000000000000000000000a000000000000000000000000000000000000000000000000000000000000000224d65646943617265204865616c74686361726520262042696f746563682046756e6400000000000000000000000000000000000000000000000000000000000000000000000000000000000000000000000000000000000000000000000000064845414c54480000000000000000000000000000000000000000000000000000",
          "blockHash": "0x613ad5d94e7656d7e8b959e4a26aca3f67def5589a8f896e45e663cf39f95672",
          "blockNumber": "0x9b920a",
          "blockTimestamp": "0x69845a6c",
          "transactionHash": "0x92598963a5f9bf6e2947b6e04e3fe2a931907294d1e152100473bc2dde952731",
          "transactionIndex": "0x3b",
          "logIndex": "0x2c8",
          "removed": false
        }
      ],
      "logsBloom": "0x00000000000000000000000000000000000000000000000000000000000000000000000000200000000000000000000000000000000000000000000000000000000000000000000000000000000000000000000000000000000000000000000008000100000000000000000000000000000000000000000000000000000000000000000000000000000000000000000000000000000000000000000000000000004000000000000000000000000000000000000000000010002000000000000000000000000010000000000000000000000000008000000000000000800000000000000000000000000000000000000000000000000000000000000000000000",
      "type": "0x2",
      "transactionHash": "0x92598963a5f9bf6e2947b6e04e3fe2a931907294d1e152100473bc2dde952731",
      "transactionIndex": "0x3b",
      "blockHash": "0x613ad5d94e7656d7e8b959e4a26aca3f67def5589a8f896e45e663cf39f95672",
      "blockNumber": "0x9b920a",
      "gasUsed": "0x1e695",
      "effectiveGasPrice": "0x43fa8a84",
      "from": "0xe30f5d336931186dd86b5c9426fd4493c34a5c5d",
      "to": "0xbC7Ebadd93107D39A3379D9C600f428eb9765f0c",
      "contractAddress": null
    },
    {
      "status": "0x1",
      "cumulativeGasUsed": "0x134eee1",
      "logs": [
        {
          "address": "0xbC7Ebadd93107D39A3379D9C600f428eb9765f0c",
          "topics": [
            "0xc3d58168c5ae7397731d063d5bbf3d657854427343f4c083240f7aacaa2d0f62",
            "0x000000000000000000000000e30f5d336931186dd86b5c9426fd4493c34a5c5d",
            "0x0000000000000000000000000000000000000000000000000000000000000000",
            "0x000000000000000000000000c58869d25d0d82248620db1eeda58a421cc0ee0e"
          ],
          "data": "0x000000000000000000000000000000000000000000000000000000000000000000000000000000000000000000000000000000000000000000000000000003e8",
          "blockHash": "0xa1a658f7bed1e19d4ec708cc2007d24629d2388d03fe0fcfed988c9521809156",
          "blockNumber": "0x9b920b",
          "blockTimestamp": "0x69845a78",
          "transactionHash": "0xf2a6fc630b4b7a2cf1b603a1dd99ad07eb6a5442fa71db4e3f6812b326cb0dbb",
          "transactionIndex": "0x49",
          "logIndex": "0x337",
          "removed": false
        },
        {
          "address": "0xbC7Ebadd93107D39A3379D9C600f428eb9765f0c",
          "topics": [
            "0xcd6742d5e809eafe3ac91950822ad9d9f4cec48faad935421642d893db7d0993",
            "0x0000000000000000000000000000000000000000000000000000000000000000",
            "0x000000000000000000000000c58869d25d0d82248620db1eeda58a421cc0ee0e"
          ],
          "data": "0x00000000000000000000000000000000000000000000000000000000000003e8",
          "blockHash": "0xa1a658f7bed1e19d4ec708cc2007d24629d2388d03fe0fcfed988c9521809156",
          "blockNumber": "0x9b920b",
          "blockTimestamp": "0x69845a78",
          "transactionHash": "0xf2a6fc630b4b7a2cf1b603a1dd99ad07eb6a5442fa71db4e3f6812b326cb0dbb",
          "transactionIndex": "0x49",
          "logIndex": "0x338",
          "removed": false
        }
      ],
      "logsBloom": "0x00000000000000000000000000000000000000000000000000000040000000000000000000200000000000000000000000000000000000010000000000002000000000000000000000000000000000000000000000000000000000000000000000000100020000000000000000000800000000000000000000000000000000000000100000000000000000000000000010000000000000000000000000000000000200000000000000000000000000008000000000000000000000000000000000000000000010000000000000000180000000000008000000000000000020000000000000004000000000000000000000000000000000000000080000000000",
      "type": "0x2",
      "transactionHash": "0xf2a6fc630b4b7a2cf1b603a1dd99ad07eb6a5442fa71db4e3f6812b326cb0dbb",
      "transactionIndex": "0x49",
      "blockHash": "0xa1a658f7bed1e19d4ec708cc2007d24629d2388d03fe0fcfed988c9521809156",
      "blockNumber": "0x9b920b",
      "gasUsed": "0x19d2f",
      "effectiveGasPrice": "0x43db3f3b",
      "from": "0xe30f5d336931186dd86b5c9426fd4493c34a5c5d",
      "to": "0xbC7Ebadd93107D39A3379D9C600f428eb9765f0c",
      "contractAddress": null
    },
    {
      "status": "0x1",
      "cumulativeGasUsed": "0x1b96831",
      "logs": [
        {
          "address": "0xbC7Ebadd93107D39A3379D9C600f428eb9765f0c",
          "topics": [
            "0xc3d58168c5ae7397731d063d5bbf3d657854427343f4c083240f7aacaa2d0f62",
            "0x000000000000000000000000e30f5d336931186dd86b5c9426fd4493c34a5c5d",
            "0x0000000000000000000000000000000000000000000000000000000000000000",
            "0x000000000000000000000000c58869d25d0d82248620db1eeda58a421cc0ee0e"
          ],
          "data": "0x000000000000000000000000000000000000000000000000000000000000000100000000000000000000000000000000000000000000000000000000000001f4",
          "blockHash": "0xe7c1835b151bdfb95b6c3a67348835ea4fa28873a99f5354d3fe7923f9d71f05",
          "blockNumber": "0x9b920c",
          "blockTimestamp": "0x69845a84",
          "transactionHash": "0x0ab0d3b777c98eded46f901c3ba9c44293c035879e10a6f58ad901c8aa5a186a",
          "transactionIndex": "0x4d",
          "logIndex": "0x31b",
          "removed": false
        },
        {
          "address": "0xbC7Ebadd93107D39A3379D9C600f428eb9765f0c",
          "topics": [
            "0xcd6742d5e809eafe3ac91950822ad9d9f4cec48faad935421642d893db7d0993",
            "0x0000000000000000000000000000000000000000000000000000000000000001",
            "0x000000000000000000000000c58869d25d0d82248620db1eeda58a421cc0ee0e"
          ],
          "data": "0x00000000000000000000000000000000000000000000000000000000000001f4",
          "blockHash": "0xe7c1835b151bdfb95b6c3a67348835ea4fa28873a99f5354d3fe7923f9d71f05",
          "blockNumber": "0x9b920c",
          "blockTimestamp": "0x69845a84",
          "transactionHash": "0x0ab0d3b777c98eded46f901c3ba9c44293c035879e10a6f58ad901c8aa5a186a",
          "transactionIndex": "0x4d",
          "logIndex": "0x31c",
          "removed": false
        }
      ],
      "logsBloom": "0x00000000000000000000000000000000000000000000000000000040000000000000000000200000000000000000000000000000000000010000000000042000000000000000000000000000000000000000000000040000000000000000000000000100020000000000000000000800000000000000000000000000000000000000100000000000000000000000000010000000000000000000000000000000000200000000000000000000000000008000000000000000000000000000000000000000000010000000000000000180000000000008000000000000000060000000000000004000000000000000000000000000000000000000080000000000",
      "type": "0x2",
      "transactionHash": "0x0ab0d3b777c98eded46f901c3ba9c44293c035879e10a6f58ad901c8aa5a186a",
      "transactionIndex": "0x4d",
      "blockHash": "0xe7c1835b151bdfb95b6c3a67348835ea4fa28873a99f5354d3fe7923f9d71f05",
      "blockNumber": "0x9b920c",
      "gasUsed": "0x15a6f",
      "effectiveGasPrice": "0x42a75add",
      "from": "0xe30f5d336931186dd86b5c9426fd4493c34a5c5d",
      "to": "0xbC7Ebadd93107D39A3379D9C600f428eb9765f0c",
      "contractAddress": null
    },
    {
      "status": "0x1",
      "cumulativeGasUsed": "0xfb73a5",
      "logs": [
        {
          "address": "0xbC7Ebadd93107D39A3379D9C600f428eb9765f0c",
          "topics": [
            "0xc3d58168c5ae7397731d063d5bbf3d657854427343f4c083240f7aacaa2d0f62",
            "0x000000000000000000000000e30f5d336931186dd86b5c9426fd4493c34a5c5d",
            "0x0000000000000000000000000000000000000000000000000000000000000000",
            "0x000000000000000000000000c58869d25d0d82248620db1eeda58a421cc0ee0e"
          ],
          "data": "0x000000000000000000000000000000000000000000000000000000000000000200000000000000000000000000000000000000000000000000000000000002ee",
          "blockHash": "0xc0cef43f10de05a7934f60cf02d9a0b91636cb653372ac2ad833cbedcc258656",
          "blockNumber": "0x9b920d",
          "blockTimestamp": "0x69845a90",
          "transactionHash": "0xf0c0eaa57f08c285833ecd5cf50127d211ae7decc7ae86f03b4b53d74d82b44a",
          "transactionIndex": "0x36",
          "logIndex": "0x23a",
          "removed": false
        },
        {
          "address": "0xbC7Ebadd93107D39A3379D9C600f428eb9765f0c",
          "topics": [
            "0xcd6742d5e809eafe3ac91950822ad9d9f4cec48faad935421642d893db7d0993",
            "0x0000000000000000000000000000000000000000000000000000000000000002",
            "0x000000000000000000000000c58869d25d0d82248620db1eeda58a421cc0ee0e"
          ],
          "data": "0x00000000000000000000000000000000000000000000000000000000000002ee",
          "blockHash": "0xc0cef43f10de05a7934f60cf02d9a0b91636cb653372ac2ad833cbedcc258656",
          "blockNumber": "0x9b920d",
          "blockTimestamp": "0x69845a90",
          "transactionHash": "0xf0c0eaa57f08c285833ecd5cf50127d211ae7decc7ae86f03b4b53d74d82b44a",
          "transactionIndex": "0x36",
          "logIndex": "0x23b",
          "removed": false
        }
      ],
      "logsBloom": "0x04000000000000000000000000000000000000000000000000000040000000000000000000200000000000000000000000000000000000010000000000002000000000000000000000000000000000000000000000000000000000000000000000000100020000000000000000000800000000000000000000000000000000000000100000000000000000000000000010000000000000000000000000000000000200000000000000000100000000008000000000000000000000000000000000000000000010000000000000000180000000000008000000000000000020000000000000004000000000000000000000000000008000000000080000000000",
      "type": "0x2",
      "transactionHash": "0xf0c0eaa57f08c285833ecd5cf50127d211ae7decc7ae86f03b4b53d74d82b44a",
      "transactionIndex": "0x36",
      "blockHash": "0xc0cef43f10de05a7934f60cf02d9a0b91636cb653372ac2ad833cbedcc258656",
      "blockNumber": "0x9b920d",
      "gasUsed": "0x15a6f",
      "effectiveGasPrice": "0x43716cab",
      "from": "0xe30f5d336931186dd86b5c9426fd4493c34a5c5d",
      "to": "0xbC7Ebadd93107D39A3379D9C600f428eb9765f0c",
      "contractAddress": null
    },
    {
      "status": "0x1",
      "cumulativeGasUsed": "0x11a3ad2",
      "logs": [
        {
          "address": "0xbC7Ebadd93107D39A3379D9C600f428eb9765f0c",
          "topics": [
            "0xc3d58168c5ae7397731d063d5bbf3d657854427343f4c083240f7aacaa2d0f62",
            "0x000000000000000000000000e30f5d336931186dd86b5c9426fd4493c34a5c5d",
            "0x0000000000000000000000000000000000000000000000000000000000000000",
            "0x000000000000000000000000c58869d25d0d82248620db1eeda58a421cc0ee0e"
          ],
          "data": "0x00000000000000000000000000000000000000000000000000000000000000030000000000000000000000000000000000000000000000000000000000000320",
          "blockHash": "0x8f7f69be8e499b24fe00c046457d19d05f84d259c7eea326042a0c183fd1d471",
          "blockNumber": "0x9b920e",
          "blockTimestamp": "0x69845a9c",
          "transactionHash": "0x05d69eb6112eb92ba6e489287879ad3dc4b1903dbbfd215edb6a26968b566828",
          "transactionIndex": "0x32",
          "logIndex": "0x399",
          "removed": false
        },
        {
          "address": "0xbC7Ebadd93107D39A3379D9C600f428eb9765f0c",
          "topics": [
            "0xcd6742d5e809eafe3ac91950822ad9d9f4cec48faad935421642d893db7d0993",
            "0x0000000000000000000000000000000000000000000000000000000000000003",
            "0x000000000000000000000000c58869d25d0d82248620db1eeda58a421cc0ee0e"
          ],
          "data": "0x0000000000000000000000000000000000000000000000000000000000000320",
          "blockHash": "0x8f7f69be8e499b24fe00c046457d19d05f84d259c7eea326042a0c183fd1d471",
          "blockNumber": "0x9b920e",
          "blockTimestamp": "0x69845a9c",
          "transactionHash": "0x05d69eb6112eb92ba6e489287879ad3dc4b1903dbbfd215edb6a26968b566828",
          "transactionIndex": "0x32",
          "logIndex": "0x39a",
          "removed": false
        }
      ],
      "logsBloom": "0x00000000000000000000000000000000000000000000000000000040000000000000000000200000000000000000000000000000020000010000000000002000000000000000000000000000000000000000000000000000000000000000000000000100020000000000000000000800000000000000000000000000000000000000100000000000000000000000000010000000000000000000000000000000000200000000000000000000000000008000000000800000000000000000400000000000000010000000000000000180000000000008000000000000000020000000000000004000000000000000000000000000000000000000080000000000",
      "type": "0x2",
      "transactionHash": "0x05d69eb6112eb92ba6e489287879ad3dc4b1903dbbfd215edb6a26968b566828",
      "transactionIndex": "0x32",
      "blockHash": "0x8f7f69be8e499b24fe00c046457d19d05f84d259c7eea326042a0c183fd1d471",
      "blockNumber": "0x9b920e",
      "gasUsed": "0x15a61",
      "effectiveGasPrice": "0x4077f026",
      "from": "0xe30f5d336931186dd86b5c9426fd4493c34a5c5d",
      "to": "0xbC7Ebadd93107D39A3379D9C600f428eb9765f0c",
      "contractAddress": null
    },
    {
      "status": "0x1",
      "cumulativeGasUsed": "0x14e7f87",
      "logs": [
        {
          "address": "0xbC7Ebadd93107D39A3379D9C600f428eb9765f0c",
          "topics": [
            "0xc3d58168c5ae7397731d063d5bbf3d657854427343f4c083240f7aacaa2d0f62",
            "0x000000000000000000000000e30f5d336931186dd86b5c9426fd4493c34a5c5d",
            "0x0000000000000000000000000000000000000000000000000000000000000000",
            "0x000000000000000000000000c58869d25d0d82248620db1eeda58a421cc0ee0e"
          ],
          "data": "0x00000000000000000000000000000000000000000000000000000000000000040000000000000000000000000000000000000000000000000000000000000258",
          "blockHash": "0x02d6acadd0a5ddb1f931f8d65e1f32ba4bfd9e29459df86fbe24c374c5d0357e",
          "blockNumber": "0x9b920f",
          "blockTimestamp": "0x69845aa8",
          "transactionHash": "0xb81226f48b8d2bb1b986dfba372cd8b79f2a848e0b0af62b20c41cfa4450dd5c",
          "transactionIndex": "0x52",
          "logIndex": "0x2f3",
          "removed": false
        },
        {
          "address": "0xbC7Ebadd93107D39A3379D9C600f428eb9765f0c",
          "topics": [
            "0xcd6742d5e809eafe3ac91950822ad9d9f4cec48faad935421642d893db7d0993",
            "0x0000000000000000000000000000000000000000000000000000000000000004",
            "0x000000000000000000000000c58869d25d0d82248620db1eeda58a421cc0ee0e"
          ],
          "data": "0x0000000000000000000000000000000000000000000000000000000000000258",
          "blockHash": "0x02d6acadd0a5ddb1f931f8d65e1f32ba4bfd9e29459df86fbe24c374c5d0357e",
          "blockNumber": "0x9b920f",
          "blockTimestamp": "0x69845aa8",
          "transactionHash": "0xb81226f48b8d2bb1b986dfba372cd8b79f2a848e0b0af62b20c41cfa4450dd5c",
          "transactionIndex": "0x52",
          "logIndex": "0x2f4",
          "removed": false
        }
      ],
      "logsBloom": "0x00000000000000000000000000000000000000000000000000000040000000000000000000200000000000000000000000000000000000010000000000002000000000000000000000000000000000000000000000000000000000000000000008000100020000000000000000000800000000000000000000000000000000000000100000000000000000000000000010000000000000000000000000000000000200000000000000000000000000008000000000000000002000000000000000000000000010000000000000000180000000008008000000000000000020000000000000004000000000000000000000000000000000000000080000000000",
      "type": "0x2",
      "transactionHash": "0xb81226f48b8d2bb1b986dfba372cd8b79f2a848e0b0af62b20c41cfa4450dd5c",
      "transactionIndex": "0x52",
      "blockHash": "0x02d6acadd0a5ddb1f931f8d65e1f32ba4bfd9e29459df86fbe24c374c5d0357e",
      "blockNumber": "0x9b920f",
      "gasUsed": "0x15a61",
      "effectiveGasPrice": "0x3dda058f",
      "from": "0xe30f5d336931186dd86b5c9426fd4493c34a5c5d",
      "to": "0xbC7Ebadd93107D39A3379D9C600f428eb9765f0c",
      "contractAddress": null
    },
    {
      "status": "0x1",
      "cumulativeGasUsed": "0x12f368e",
      "logs": [
        {
          "address": "0x7Bf3823D764bD3e2681A71Ff703837b508CAa8b3",
          "topics": [
            "0x288e01eadd84f87ff852e67e784d6fe5181f8d088c2f1690e5c263289cad8a45",
            "0x0000000000000000000000000000000000000000000000000000000000000000"
          ],
          "data": "0x0000000000000000000000000000000000000000000000000000000005f5e100",
          "blockHash": "0xaa44914b5565724e9c4ead752de633268dc0e1ed23e3e3d9ee13f40572489397",
          "blockNumber": "0x9b9210",
          "blockTimestamp": "0x69845ab4",
          "transactionHash": "0x250110ada5dfdd96ea896f2a758bc9bd43da3aa3e6a48fefc44f5314c76b8fc9",
          "transactionIndex": "0x4d",
          "logIndex": "0x33d",
          "removed": false
        }
      ],
      "logsBloom": "0x00000000000000000000000000000000000000000000000000000000000000000000000000000000000000000800000000000800000000000000000000000000000000000000000000000000000000000000000000000000000000000000000000000000020000000000000000000800000000000000000000000000000000000000000000000000000000000040000000000000000000000000000000000000000000800000000000000000000000000000000000000000000000000000000000000040000000000000000000000000000000000000000000000000000020000000000000000020000000000000000000000000000000000000000000000000",
      "type": "0x2",
      "transactionHash": "0x250110ada5dfdd96ea896f2a758bc9bd43da3aa3e6a48fefc44f5314c76b8fc9",
      "transactionIndex": "0x4d",
      "blockHash": "0xaa44914b5565724e9c4ead752de633268dc0e1ed23e3e3d9ee13f40572489397",
      "blockNumber": "0x9b9210",
      "gasUsed": "0xba74",
      "effectiveGasPrice": "0x3cf6256c",
      "from": "0xe30f5d336931186dd86b5c9426fd4493c34a5c5d",
      "to": "0x7Bf3823D764bD3e2681A71Ff703837b508CAa8b3",
      "contractAddress": null
    },
    {
      "status": "0x1",
      "cumulativeGasUsed": "0x1327575",
      "logs": [
        {
          "address": "0x7Bf3823D764bD3e2681A71Ff703837b508CAa8b3",
          "topics": [
            "0x288e01eadd84f87ff852e67e784d6fe5181f8d088c2f1690e5c263289cad8a45",
            "0x0000000000000000000000000000000000000000000000000000000000000001"
          ],
          "data": "0x000000000000000000000000000000000000000000000000000000000bebc200",
          "blockHash": "0x5c1b74976b0160e3b26a40075dc5f59ae217c4dfabc906592db025c38d09a25a",
          "blockNumber": "0x9b9211",
          "blockTimestamp": "0x69845ac0",
          "transactionHash": "0xfd60cf78b0e6e8c1c688c2ff627b49039c280e6b1bedd81159bd8fda9f3af6d8",
          "transactionIndex": "0x43",
          "logIndex": "0x2e6",
          "removed": false
        }
      ],
      "logsBloom": "0x00000000000000000000000000000000000000000000000000000000000000000000000000000000000000000800000000000800000000000000000000040000000000000000000000000000000000000000000000040000000000000000000000000000000000000000000000000000000000000000000000000000000000000000000000000000000000000040000000000000000000000000000000000000000000800000000000000000000000000000000000000000000000000000000000000040000000000000000000000000000000000000000000000000000040000000000000000020000000000000000000000000000000000000000000000000",
      "type": "0x2",
      "transactionHash": "0xfd60cf78b0e6e8c1c688c2ff627b49039c280e6b1bedd81159bd8fda9f3af6d8",
      "transactionIndex": "0x43",
      "blockHash": "0x5c1b74976b0160e3b26a40075dc5f59ae217c4dfabc906592db025c38d09a25a",
      "blockNumber": "0x9b9211",
      "gasUsed": "0xba80",
      "effectiveGasPrice": "0x3bc35cfc",
      "from": "0xe30f5d336931186dd86b5c9426fd4493c34a5c5d",
      "to": "0x7Bf3823D764bD3e2681A71Ff703837b508CAa8b3",
      "contractAddress": null
    },
    {
      "status": "0x1",
      "cumulativeGasUsed": "0x1f3d250",
      "logs": [
        {
          "address": "0x7Bf3823D764bD3e2681A71Ff703837b508CAa8b3",
          "topics": [
            "0x288e01eadd84f87ff852e67e784d6fe5181f8d088c2f1690e5c263289cad8a45",
            "0x0000000000000000000000000000000000000000000000000000000000000002"
          ],
          "data": "0x0000000000000000000000000000000000000000000000000000000008f0d180",
          "blockHash": "0x5b3709edb502f9982835bf7dac401680659f86aca00f3446cc1cef9e01efb565",
          "blockNumber": "0x9b9212",
          "blockTimestamp": "0x69845acc",
          "transactionHash": "0x0356a53bdbd3581053a64d4dbc081297cd5a3dbc8e148fa3b5a12ca34c4d8b1c",
          "transactionIndex": "0x66",
          "logIndex": "0x3ac",
          "removed": false
        }
      ],
      "logsBloom": "0x04000000000000000000000000000000000000000000000000000000000000000000000000000000000000000800000000000800000000000000000000000000000000000000000000000000000000000000000000000000000000000000000000000000000000000000000000000000000000000000000000000000000000000000000000000000000000000040000000000000000000000000000000000000000000800000000000000100000000000000000000000000000000000000000000000040000000000000000000000000000000000000000000000000000000000000000000000020000000000000000000000000008000000000000000000000",
      "type": "0x2",
      "transactionHash": "0x0356a53bdbd3581053a64d4dbc081297cd5a3dbc8e148fa3b5a12ca34c4d8b1c",
      "transactionIndex": "0x66",
      "blockHash": "0x5b3709edb502f9982835bf7dac401680659f86aca00f3446cc1cef9e01efb565",
      "blockNumber": "0x9b9212",
      "gasUsed": "0xba8c",
      "effectiveGasPrice": "0x43209c28",
      "from": "0xe30f5d336931186dd86b5c9426fd4493c34a5c5d",
      "to": "0x7Bf3823D764bD3e2681A71Ff703837b508CAa8b3",
      "contractAddress": null
    },
    {
      "status": "0x1",
      "cumulativeGasUsed": "0x156d095",
      "logs": [
        {
          "address": "0x7Bf3823D764bD3e2681A71Ff703837b508CAa8b3",
          "topics": [
            "0x288e01eadd84f87ff852e67e784d6fe5181f8d088c2f1690e5c263289cad8a45",
            "0x0000000000000000000000000000000000000000000000000000000000000003"
          ],
          "data": "0x0000000000000000000000000000000000000000000000000000000004c4b400",
          "blockHash": "0x95a459f3192046df1bffcbd0a576051c63f9c156985346cf7128e60f041a3cd6",
          "blockNumber": "0x9b9213",
          "blockTimestamp": "0x69845ad8",
          "transactionHash": "0x0fe92021c38bf0457f875434ea6d1f0064f8003d3fdcbdf9ebfbb1be2c0a124f",
          "transactionIndex": "0x46",
          "logIndex": "0x363",
          "removed": false
        }
      ],
      "logsBloom": "0x00000000000000000000000000000000000000000000000000000000000000000000000000000000000000000800000000000800020000000000000000000000000000000000000000000000000000000000000000000000000000000000000000000000000000000000000000000000000000000000000000000000000000000000000000000000000000000040000000000000000000000000000000000000000000800000000000000000000000000000000000800000000000000000400000000040000000000000000000000000000000000000000000000000000000000000000000000020000000000000000000000000000000000000000000000000",
      "type": "0x2",
      "transactionHash": "0x0fe92021c38bf0457f875434ea6d1f0064f8003d3fdcbdf9ebfbb1be2c0a124f",
      "transactionIndex": "0x46",
      "blockHash": "0x95a459f3192046df1bffcbd0a576051c63f9c156985346cf7128e60f041a3cd6",
      "blockNumber": "0x9b9213",
      "gasUsed": "0xba80",
      "effectiveGasPrice": "0x46989947",
      "from": "0xe30f5d336931186dd86b5c9426fd4493c34a5c5d",
      "to": "0x7Bf3823D764bD3e2681A71Ff703837b508CAa8b3",
      "contractAddress": null
    },
    {
      "status": "0x1",
      "cumulativeGasUsed": "0x189f3b7",
      "logs": [
        {
          "address": "0x7Bf3823D764bD3e2681A71Ff703837b508CAa8b3",
          "topics": [
            "0x288e01eadd84f87ff852e67e784d6fe5181f8d088c2f1690e5c263289cad8a45",
            "0x0000000000000000000000000000000000000000000000000000000000000004"
          ],
          "data": "0x000000000000000000000000000000000000000000000000000000000ee6b280",
          "blockHash": "0xbfb0c9314d3cf4d8f46469ff429b0c01aae424f58cf5da83aacbae944c54b700",
          "blockNumber": "0x9b9214",
          "blockTimestamp": "0x69845ae4",
          "transactionHash": "0x896ff59eb889148276adc20f7c8e917f6c3d4c0ba6657e0021464729679a16ee",
          "transactionIndex": "0x43",
          "logIndex": "0x3bb",
          "removed": false
        }
      ],
      "logsBloom": "0x00000000000000000000000000000000000000000000000000000000000000000000000000000000000000000800000000000800000000000000000000000000000000000000000000000000000000000000000000000000000000000000000008000000000000000000000000000000000000000000000000000000000000000000000000000000000000000040000000000000000000000000000000000000000000800000000000000000000000000000000000000000002000000000000000000040000000000000000000000000000000008000000000000000000000000000000000000020000000000000000000000000000000000000000000000000",
      "type": "0x2",
      "transactionHash": "0x896ff59eb889148276adc20f7c8e917f6c3d4c0ba6657e0021464729679a16ee",
      "transactionIndex": "0x43",
      "blockHash": "0xbfb0c9314d3cf4d8f46469ff429b0c01aae424f58cf5da83aacbae944c54b700",
      "blockNumber": "0x9b9214",
      "gasUsed": "0xba8c",
      "effectiveGasPrice": "0x44c4e381",
      "from": "0xe30f5d336931186dd86b5c9426fd4493c34a5c5d",
      "to": "0x7Bf3823D764bD3e2681A71Ff703837b508CAa8b3",
      "contractAddress": null
    },
    {
      "status": "0x1",
      "cumulativeGasUsed": "0x158aa43",
      "logs": [
        {
          "address": "0x5aE69a270f061d8435100938b2Cef210D1f8348F",
          "topics": [
            "0xddf252ad1be2c89b69c2b068fc378daa952ba7f163c4a11628f55a4df523b3ef",
            "0x0000000000000000000000000000000000000000000000000000000000000000",
            "0x0000000000000000000000006fc2fbb2973e592eb6f932a10b3e72eeaa3113c0"
          ],
          "data": "0x0000000000000000000000000000000000000000000000000000000ba43b7400",
          "blockHash": "0x429694de42148bb2df38f8df807dcb36fa59973d6dedf643d4d2da6c0578bbe1",
          "blockNumber": "0x9b9215",
          "blockTimestamp": "0x69845af0",
          "transactionHash": "0xe12bddbc66e718bf37d428e24900deb2f41dac4cf3319bc4074411e6d3a83be8",
          "transactionIndex": "0x4d",
          "logIndex": "0x39a",
          "removed": false
        },
        {
          "address": "0x5aE69a270f061d8435100938b2Cef210D1f8348F",
          "topics": [
            "0x3f2c9d57c068687834f0de942a9babb9e5acab57d516d3480a3c16ee165a4273",
            "0x0000000000000000000000006fc2fbb2973e592eb6f932a10b3e72eeaa3113c0"
          ],
          "data": "0x0000000000000000000000000000000000000000000000000000000ba43b7400",
          "blockHash": "0x429694de42148bb2df38f8df807dcb36fa59973d6dedf643d4d2da6c0578bbe1",
          "blockNumber": "0x9b9215",
          "blockTimestamp": "0x69845af0",
          "transactionHash": "0xe12bddbc66e718bf37d428e24900deb2f41dac4cf3319bc4074411e6d3a83be8",
          "transactionIndex": "0x4d",
          "logIndex": "0x39b",
          "removed": false
        }
      ],
      "logsBloom": "0x00000000000000000080000000000000000000000000000000000000000000000000000000000000000000000000000000400000000000000000000000000000000000000000000000000008000000000000000000000000000000000000000000000000020000000000000000200800000000000000000000000010000000000000000000000000000000000000000100800000000000000000010000000000000000000000000000000000000000000000000000000000000000000000000000000002000000000000000000000000000000000000000000000800000020000000000000000000004000000000000000000000000000000000000002000000",
      "type": "0x2",
      "transactionHash": "0xe12bddbc66e718bf37d428e24900deb2f41dac4cf3319bc4074411e6d3a83be8",
      "transactionIndex": "0x4d",
      "blockHash": "0x429694de42148bb2df38f8df807dcb36fa59973d6dedf643d4d2da6c0578bbe1",
      "blockNumber": "0x9b9215",
      "gasUsed": "0x11a5a",
      "effectiveGasPrice": "0x444b0485",
      "from": "0xe30f5d336931186dd86b5c9426fd4493c34a5c5d",
      "to": "0x5aE69a270f061d8435100938b2Cef210D1f8348F",
      "contractAddress": null
    },
    {
      "status": "0x1",
      "cumulativeGasUsed": "0x11c3045",
      "logs": [
        {
          "address": "0x5aE69a270f061d8435100938b2Cef210D1f8348F",
          "topics": [
            "0xddf252ad1be2c89b69c2b068fc378daa952ba7f163c4a11628f55a4df523b3ef",
            "0x0000000000000000000000000000000000000000000000000000000000000000",
            "0x000000000000000000000000de4a466b7441357e1137a1a1e311bd70c1439ecb"
          ],
          "data": "0x00000000000000000000000000000000000000000000000000000006fc23ac00",
          "blockHash": "0xd9ff8b2ce31a6b9811e410ac1dd43e8c3f427fff0b59ba5bbfa06839e77d628f",
          "blockNumber": "0x9b9216",
          "blockTimestamp": "0x69845afc",
          "transactionHash": "0xd0c7032f72e96585154cfc0a8b5ea6a3aa0d208b601ef37354ca121f8f12612e",
          "transactionIndex": "0x3c",
          "logIndex": "0x2e0",
          "removed": false
        },
        {
          "address": "0x5aE69a270f061d8435100938b2Cef210D1f8348F",
          "topics": [
            "0x3f2c9d57c068687834f0de942a9babb9e5acab57d516d3480a3c16ee165a4273",
            "0x000000000000000000000000de4a466b7441357e1137a1a1e311bd70c1439ecb"
          ],
          "data": "0x00000000000000000000000000000000000000000000000000000006fc23ac00",
          "blockHash": "0xd9ff8b2ce31a6b9811e410ac1dd43e8c3f427fff0b59ba5bbfa06839e77d628f",
          "blockNumber": "0x9b9216",
          "blockTimestamp": "0x69845afc",
          "transactionHash": "0xd0c7032f72e96585154cfc0a8b5ea6a3aa0d208b601ef37354ca121f8f12612e",
          "transactionIndex": "0x3c",
          "logIndex": "0x2e1",
          "removed": false
        }
      ],
      "logsBloom": "0x00000000000000000000000000000000000000000000000000000000000000000000000000000000000000000000000000400000000100000000000000000000000000000000000000000008000000000000000000000000000000000000000000000000020000000000000000200800000000000000000000000010000000000000000000000000000000000000000100000000000000000000000000000000000000000000000000040000000000000000000000000000000400000000000000000002000000000000000000000000000000000000000000000800000020000000000000000000004000000000000000000000000000000000000002000000",
      "type": "0x2",
      "transactionHash": "0xd0c7032f72e96585154cfc0a8b5ea6a3aa0d208b601ef37354ca121f8f12612e",
      "transactionIndex": "0x3c",
      "blockHash": "0xd9ff8b2ce31a6b9811e410ac1dd43e8c3f427fff0b59ba5bbfa06839e77d628f",
      "blockNumber": "0x9b9216",
      "gasUsed": "0xd78e",
      "effectiveGasPrice": "0x43d76bc7",
      "from": "0xe30f5d336931186dd86b5c9426fd4493c34a5c5d",
      "to": "0x5aE69a270f061d8435100938b2Cef210D1f8348F",
      "contractAddress": null
    },
    {
      "status": "0x1",
      "cumulativeGasUsed": "0x13d1027",
      "logs": [
        {
          "address": "0x5aE69a270f061d8435100938b2Cef210D1f8348F",
          "topics": [
            "0xddf252ad1be2c89b69c2b068fc378daa952ba7f163c4a11628f55a4df523b3ef",
            "0x0000000000000000000000000000000000000000000000000000000000000000",
            "0x000000000000000000000000ac75578bbdd3c830b32f2de2b8e2a4fa36996082"
          ],
          "data": "0x00000000000000000000000000000000000000000000000000000009502f9000",
          "blockHash": "0x7d8c8885a9319cac7d917c67da1e973bc2e94ff270165a2ab38c65eb1cd29486",
          "blockNumber": "0x9b9217",
          "blockTimestamp": "0x69845b08",
          "transactionHash": "0x1d565abeb7a2fef7f72e4d494e9f06c3f8783dd562224592b36303e97a18de95",
          "transactionIndex": "0x55",
          "logIndex": "0x346",
          "removed": false
        },
        {
          "address": "0x5aE69a270f061d8435100938b2Cef210D1f8348F",
          "topics": [
            "0x3f2c9d57c068687834f0de942a9babb9e5acab57d516d3480a3c16ee165a4273",
            "0x000000000000000000000000ac75578bbdd3c830b32f2de2b8e2a4fa36996082"
          ],
          "data": "0x00000000000000000000000000000000000000000000000000000009502f9000",
          "blockHash": "0x7d8c8885a9319cac7d917c67da1e973bc2e94ff270165a2ab38c65eb1cd29486",
          "blockNumber": "0x9b9217",
          "blockTimestamp": "0x69845b08",
          "transactionHash": "0x1d565abeb7a2fef7f72e4d494e9f06c3f8783dd562224592b36303e97a18de95",
          "transactionIndex": "0x55",
          "logIndex": "0x347",
          "removed": false
        }
      ],
      "logsBloom": "0x00000000000000000000000000000000000000000000000000000000000000000000000000000000000000000000000000410000000000000000000000000000000000000000000000000008000000000000000000000000000000000000000000000000020000000000000000200800000000000000000000000010000000000000000000000000000000000000000100000000000000000000000000000000000000000000000000000000008000000000000000000000000000000000000000000002000000000000000000000000000000000001000000000800000020000000000000000000004000000000000000000000000000000000000002000000",
      "type": "0x2",
      "transactionHash": "0x1d565abeb7a2fef7f72e4d494e9f06c3f8783dd562224592b36303e97a18de95",
      "transactionIndex": "0x55",
      "blockHash": "0x7d8c8885a9319cac7d917c67da1e973bc2e94ff270165a2ab38c65eb1cd29486",
      "blockNumber": "0x9b9217",
      "gasUsed": "0xd78e",
      "effectiveGasPrice": "0x414b2a94",
      "from": "0xe30f5d336931186dd86b5c9426fd4493c34a5c5d",
      "to": "0x5aE69a270f061d8435100938b2Cef210D1f8348F",
      "contractAddress": null
    },
    {
      "status": "0x1",
      "cumulativeGasUsed": "0x162e027",
      "logs": [
        {
          "address": "0x5aE69a270f061d8435100938b2Cef210D1f8348F",
          "topics": [
            "0x8c5be1e5ebec7d5bd14f71427d1e84f3dd0314c0f7b2291e5b200ac8c7c3b925",
            "0x0000000000000000000000006fc2fbb2973e592eb6f932a10b3e72eeaa3113c0",
            "0x000000000000000000000000c58869d25d0d82248620db1eeda58a421cc0ee0e"
          ],
          "data": "0x00000000000000000000000000000000000000000000000000000006fc23ac00",
          "blockHash": "0xf739e9ed14423a2f0360450749ad2a0ffbedc9a2b8bed45566349dba809a69ff",
          "blockNumber": "0x9b9218",
          "blockTimestamp": "0x69845b14",
          "transactionHash": "0x3307ea2e655295f93d2aaac430918fa635094e4f68baea29172408f23c9b1b01",
          "transactionIndex": "0x5c",
          "logIndex": "0x3ad",
          "removed": false
        }
      ],
      "logsBloom": "0x00000000000000000080000000000000000000000000000000000000000000000000000000000000000000000000000000000000000000000000000000200000000000000000000000000000000000000000000000000000000000000000000000000000000000000000000000200000000000000000000000000000000000000000000000000000000000000000000000800000000000000000010000000000020200000000000000000000000000008000000000000000000000000000000000000000000000000000000000000080000000000000000000000000000000000010000000000000004000000000000000000000000000000000000002000000",
      "type": "0x2",
      "transactionHash": "0x3307ea2e655295f93d2aaac430918fa635094e4f68baea29172408f23c9b1b01",
      "transactionIndex": "0x5c",
      "blockHash": "0xf739e9ed14423a2f0360450749ad2a0ffbedc9a2b8bed45566349dba809a69ff",
      "blockNumber": "0x9b9218",
      "gasUsed": "0xb524",
      "effectiveGasPrice": "0x3fde02c9",
      "from": "0x6fc2fbb2973e592eb6f932a10b3e72eeaa3113c0",
      "to": "0x5aE69a270f061d8435100938b2Cef210D1f8348F",
      "contractAddress": null
    },
    {
      "status": "0x1",
      "cumulativeGasUsed": "0x16ba655",
      "logs": [
        {
          "address": "0x5aE69a270f061d8435100938b2Cef210D1f8348F",
          "topics": [
            "0xddf252ad1be2c89b69c2b068fc378daa952ba7f163c4a11628f55a4df523b3ef",
            "0x0000000000000000000000006fc2fbb2973e592eb6f932a10b3e72eeaa3113c0",
            "0x000000000000000000000000e30f5d336931186dd86b5c9426fd4493c34a5c5d"
          ],
          "data": "0x00000000000000000000000000000000000000000000000000000002540be400",
          "blockHash": "0x3f10ea0ae5d0212ae6c958c88a2bd68c6a39977afe6386f25e7f64c2fc28d983",
          "blockNumber": "0x9b9219",
          "blockTimestamp": "0x69845b20",
          "transactionHash": "0xbcec556a47c94addabc2e33d128386337e40dff7c878e5d2a25411237158f432",
          "transactionIndex": "0x47",
          "logIndex": "0x42d",
          "removed": false
        },
        {
          "address": "0xbC7Ebadd93107D39A3379D9C600f428eb9765f0c",
          "topics": [
            "0xc3d58168c5ae7397731d063d5bbf3d657854427343f4c083240f7aacaa2d0f62",
            "0x000000000000000000000000c58869d25d0d82248620db1eeda58a421cc0ee0e",
            "0x000000000000000000000000c58869d25d0d82248620db1eeda58a421cc0ee0e",
            "0x0000000000000000000000006fc2fbb2973e592eb6f932a10b3e72eeaa3113c0"
          ],
          "data": "0x00000000000000000000000000000000000000000000000000000000000000000000000000000000000000000000000000000000000000000000000000000064",
          "blockHash": "0x3f10ea0ae5d0212ae6c958c88a2bd68c6a39977afe6386f25e7f64c2fc28d983",
          "blockNumber": "0x9b9219",
          "blockTimestamp": "0x69845b20",
          "transactionHash": "0xbcec556a47c94addabc2e33d128386337e40dff7c878e5d2a25411237158f432",
          "transactionIndex": "0x47",
          "logIndex": "0x42e",
          "removed": false
        },
        {
          "address": "0x7Bf3823D764bD3e2681A71Ff703837b508CAa8b3",
          "topics": [
            "0x751dfd922ff4b6048a31e74f71bfe6c58ee9135146d587bf908e12cfa525ae0b",
            "0x0000000000000000000000006fc2fbb2973e592eb6f932a10b3e72eeaa3113c0",
            "0x0000000000000000000000000000000000000000000000000000000000000000"
          ],
          "data": "0x000000000000000000000000000000000000000000000000000000000000006400000000000000000000000000000000000000000000000000000002540be400",
          "blockHash": "0x3f10ea0ae5d0212ae6c958c88a2bd68c6a39977afe6386f25e7f64c2fc28d983",
          "blockNumber": "0x9b9219",
          "blockTimestamp": "0x69845b20",
          "transactionHash": "0xbcec556a47c94addabc2e33d128386337e40dff7c878e5d2a25411237158f432",
          "transactionIndex": "0x47",
          "logIndex": "0x42f",
          "removed": false
        }
      ],
      "logsBloom": "0x00000000000000000080000004000000000000000000000000000040000000000000000000200000000000000800000000000800000000000000000200002000000000000000000000000008000000000000000000000000000000000000000000000100020000000000000000200800000000000000000000000010000000000000100000000000000000000000000000800000000000000000010000000000000200800000000000000000000000008000000000000000000000000000000000000002000010000000000000000180000000001008000000000000000020000000000000000000004000000000000000000000000000000000080002000000",
      "type": "0x2",
      "transactionHash": "0xbcec556a47c94addabc2e33d128386337e40dff7c878e5d2a25411237158f432",
      "transactionIndex": "0x47",
      "blockHash": "0x3f10ea0ae5d0212ae6c958c88a2bd68c6a39977afe6386f25e7f64c2fc28d983",
      "blockNumber": "0x9b9219",
      "gasUsed": "0x198d2",
      "effectiveGasPrice": "0x3f45950d",
      "from": "0x6fc2fbb2973e592eb6f932a10b3e72eeaa3113c0",
      "to": "0x7Bf3823D764bD3e2681A71Ff703837b508CAa8b3",
      "contractAddress": null
    },
    {
      "status": "0x1",
      "cumulativeGasUsed": "0xbc676f",
      "logs": [
        {
          "address": "0x5aE69a270f061d8435100938b2Cef210D1f8348F",
          "topics": [
            "0xddf252ad1be2c89b69c2b068fc378daa952ba7f163c4a11628f55a4df523b3ef",
            "0x0000000000000000000000006fc2fbb2973e592eb6f932a10b3e72eeaa3113c0",
            "0x000000000000000000000000e30f5d336931186dd86b5c9426fd4493c34a5c5d"
          ],
          "data": "0x00000000000000000000000000000000000000000000000000000002540be400",
          "blockHash": "0x45fdf0cd94fcc077b2ff4d6a993a9ba6e9f406829b8bcce4aa75ea2e82c40a9a",
          "blockNumber": "0x9b921a",
          "blockTimestamp": "0x69845b2c",
          "transactionHash": "0xdfceec83866d3c3b034360530df0373ed73553eb359a3850e5e344f44f9320b4",
          "transactionIndex": "0x38",
          "logIndex": "0x1d1",
          "removed": false
        },
        {
          "address": "0xbC7Ebadd93107D39A3379D9C600f428eb9765f0c",
          "topics": [
            "0xc3d58168c5ae7397731d063d5bbf3d657854427343f4c083240f7aacaa2d0f62",
            "0x000000000000000000000000c58869d25d0d82248620db1eeda58a421cc0ee0e",
            "0x000000000000000000000000c58869d25d0d82248620db1eeda58a421cc0ee0e",
            "0x0000000000000000000000006fc2fbb2973e592eb6f932a10b3e72eeaa3113c0"
          ],
          "data": "0x00000000000000000000000000000000000000000000000000000000000000010000000000000000000000000000000000000000000000000000000000000032",
          "blockHash": "0x45fdf0cd94fcc077b2ff4d6a993a9ba6e9f406829b8bcce4aa75ea2e82c40a9a",
          "blockNumber": "0x9b921a",
          "blockTimestamp": "0x69845b2c",
          "transactionHash": "0xdfceec83866d3c3b034360530df0373ed73553eb359a3850e5e344f44f9320b4",
          "transactionIndex": "0x38",
          "logIndex": "0x1d2",
          "removed": false
        },
        {
          "address": "0x7Bf3823D764bD3e2681A71Ff703837b508CAa8b3",
          "topics": [
            "0x751dfd922ff4b6048a31e74f71bfe6c58ee9135146d587bf908e12cfa525ae0b",
            "0x0000000000000000000000006fc2fbb2973e592eb6f932a10b3e72eeaa3113c0",
            "0x0000000000000000000000000000000000000000000000000000000000000001"
          ],
          "data": "0x000000000000000000000000000000000000000000000000000000000000003200000000000000000000000000000000000000000000000000000002540be400",
          "blockHash": "0x45fdf0cd94fcc077b2ff4d6a993a9ba6e9f406829b8bcce4aa75ea2e82c40a9a",
          "blockNumber": "0x9b921a",
          "blockTimestamp": "0x69845b2c",
          "transactionHash": "0xdfceec83866d3c3b034360530df0373ed73553eb359a3850e5e344f44f9320b4",
          "transactionIndex": "0x38",
          "logIndex": "0x1d3",
          "removed": false
        }
      ],
      "logsBloom": "0x00000000000000000080000004000000000000000000000000000040000000000000000000200000000000000800000000000800000000000000000200042000000000000000000000000008000000000000000000040000000000000000000000000100000000000000000000200000000000000000000000000010000000000000100000000000000000000000000000800000000000000000010000000000000200800000000000000000000000008000000000000000000000000000000000000002000010000000000000000180000000001008000000000000000040000000000000000000004000000000000000000000000000000000080002000000",
      "type": "0x2",
      "transactionHash": "0xdfceec83866d3c3b034360530df0373ed73553eb359a3850e5e344f44f9320b4",
      "transactionIndex": "0x38",
      "blockHash": "0x45fdf0cd94fcc077b2ff4d6a993a9ba6e9f406829b8bcce4aa75ea2e82c40a9a",
      "blockNumber": "0x9b921a",
      "gasUsed": "0x15612",
      "effectiveGasPrice": "0x3e7d2f76",
      "from": "0x6fc2fbb2973e592eb6f932a10b3e72eeaa3113c0",
      "to": "0x7Bf3823D764bD3e2681A71Ff703837b508CAa8b3",
      "contractAddress": null
    },
    {
      "status": "0x1",
      "cumulativeGasUsed": "0x378e900",
      "logs": [
        {
          "address": "0x5aE69a270f061d8435100938b2Cef210D1f8348F",
          "topics": [
            "0x8c5be1e5ebec7d5bd14f71427d1e84f3dd0314c0f7b2291e5b200ac8c7c3b925",
            "0x000000000000000000000000de4a466b7441357e1137a1a1e311bd70c1439ecb",
            "0x000000000000000000000000c58869d25d0d82248620db1eeda58a421cc0ee0e"
          ],
          "data": "0x00000000000000000000000000000000000000000000000000000005d21dba00",
          "blockHash": "0x86f617c541146f8d7816efb9bcce1589dd4ad67bd9f8f80097d9b589dd82e461",
          "blockNumber": "0x9b921b",
          "blockTimestamp": "0x69845b38",
          "transactionHash": "0x9676b4b2a29ccfbe2f7cc9c47a638d9e373404bb3049273f078c75b83792e53c",
          "transactionIndex": "0x63",
          "logIndex": "0x91",
          "removed": false
        }
      ],
      "logsBloom": "0x00000000000000000000000000000000000000000000000000000000000000000000000000000000000000000000000000000000000100000000000000200000000000000000000000000000000000000000000000000000000000000000000000000000000000000000000000200000000000000000000000000000000000000000000000000000000000000000000000000000000000000000000000000000020200000000000000040000000000008000000000000000000400000000000000000000000000000000000000000080000000000000000000000000000000000010000000000000004000000000000000000000000000000000000002000000",
      "type": "0x2",
      "transactionHash": "0x9676b4b2a29ccfbe2f7cc9c47a638d9e373404bb3049273f078c75b83792e53c",
      "transactionIndex": "0x63",
      "blockHash": "0x86f617c541146f8d7816efb9bcce1589dd4ad67bd9f8f80097d9b589dd82e461",
      "blockNumber": "0x9b921b",
      "gasUsed": "0xb524",
      "effectiveGasPrice": "0x3a7d6379",
      "from": "0xde4a466b7441357e1137a1a1e311bd70c1439ecb",
      "to": "0x5aE69a270f061d8435100938b2Cef210D1f8348F",
      "contractAddress": null
    },
    {
      "status": "0x1",
      "cumulativeGasUsed": "0x72cfa8",
      "logs": [
        {
          "address": "0x5aE69a270f061d8435100938b2Cef210D1f8348F",
          "topics": [
            "0xddf252ad1be2c89b69c2b068fc378daa952ba7f163c4a11628f55a4df523b3ef",
            "0x000000000000000000000000de4a466b7441357e1137a1a1e311bd70c1439ecb",
            "0x000000000000000000000000e30f5d336931186dd86b5c9426fd4493c34a5c5d"
          ],
          "data": "0x00000000000000000000000000000000000000000000000000000001dcd65000",
          "blockHash": "0xf2580f10edb0f87be7188abc0688b778c0035f1bc1839405a09097abf1a397e0",
          "blockNumber": "0x9b921c",
          "blockTimestamp": "0x69845b44",
          "transactionHash": "0x1eab432b473b0c8d00b85103360e0b88b0a22003bdfbc31d49099fb48e7e1196",
          "transactionIndex": "0x36",
          "logIndex": "0x3e",
          "removed": false
        },
        {
          "address": "0xbC7Ebadd93107D39A3379D9C600f428eb9765f0c",
          "topics": [
            "0xc3d58168c5ae7397731d063d5bbf3d657854427343f4c083240f7aacaa2d0f62",
            "0x000000000000000000000000c58869d25d0d82248620db1eeda58a421cc0ee0e",
            "0x000000000000000000000000c58869d25d0d82248620db1eeda58a421cc0ee0e",
            "0x000000000000000000000000de4a466b7441357e1137a1a1e311bd70c1439ecb"
          ],
          "data": "0x00000000000000000000000000000000000000000000000000000000000000030000000000000000000000000000000000000000000000000000000000000064",
          "blockHash": "0xf2580f10edb0f87be7188abc0688b778c0035f1bc1839405a09097abf1a397e0",
          "blockNumber": "0x9b921c",
          "blockTimestamp": "0x69845b44",
          "transactionHash": "0x1eab432b473b0c8d00b85103360e0b88b0a22003bdfbc31d49099fb48e7e1196",
          "transactionIndex": "0x36",
          "logIndex": "0x3f",
          "removed": false
        },
        {
          "address": "0x7Bf3823D764bD3e2681A71Ff703837b508CAa8b3",
          "topics": [
            "0x751dfd922ff4b6048a31e74f71bfe6c58ee9135146d587bf908e12cfa525ae0b",
            "0x000000000000000000000000de4a466b7441357e1137a1a1e311bd70c1439ecb",
            "0x0000000000000000000000000000000000000000000000000000000000000003"
          ],
          "data": "0x000000000000000000000000000000000000000000000000000000000000006400000000000000000000000000000000000000000000000000000001dcd65000",
          "blockHash": "0xf2580f10edb0f87be7188abc0688b778c0035f1bc1839405a09097abf1a397e0",
          "blockNumber": "0x9b921c",
          "blockTimestamp": "0x69845b44",
          "transactionHash": "0x1eab432b473b0c8d00b85103360e0b88b0a22003bdfbc31d49099fb48e7e1196",
          "transactionIndex": "0x36",
          "logIndex": "0x40",
          "removed": false
        }
      ],
      "logsBloom": "0x00000000000000000000000004000000000000000000000000000040000000000000000000200000000000000800000000000800020100000000000200002000000000000000000000000008000000000000000000000000000000000000000000000100000000000000000000200000000000000000000000000010000000000000100000000000000000000000000000000000000000000000000000000000000200800000000000040000000000008000000000800000000400000000400000000002000010000000000000000180000000001008000000000000000000000000000000000000004000000000000000000000000000000000080002000000",
      "type": "0x2",
      "transactionHash": "0x1eab432b473b0c8d00b85103360e0b88b0a22003bdfbc31d49099fb48e7e1196",
      "transactionIndex": "0x36",
      "blockHash": "0xf2580f10edb0f87be7188abc0688b778c0035f1bc1839405a09097abf1a397e0",
      "blockNumber": "0x9b921c",
      "gasUsed": "0x15612",
      "effectiveGasPrice": "0x41b1e57e",
      "from": "0xde4a466b7441357e1137a1a1e311bd70c1439ecb",
      "to": "0x7Bf3823D764bD3e2681A71Ff703837b508CAa8b3",
      "contractAddress": null
    },
    {
      "status": "0x1",
      "cumulativeGasUsed": "0x5d75d1",
      "logs": [
        {
          "address": "0x5aE69a270f061d8435100938b2Cef210D1f8348F",
          "topics": [
            "0xddf252ad1be2c89b69c2b068fc378daa952ba7f163c4a11628f55a4df523b3ef",
            "0x000000000000000000000000de4a466b7441357e1137a1a1e311bd70c1439ecb",
            "0x000000000000000000000000e30f5d336931186dd86b5c9426fd4493c34a5c5d"
          ],
          "data": "0x00000000000000000000000000000000000000000000000000000002cb417800",
          "blockHash": "0x56fd4693ab7061dfe766ff786eb3825fbc5875e7ed15f66ff30b0c8fcbab9dba",
          "blockNumber": "0x9b921d",
          "blockTimestamp": "0x69845b50",
          "transactionHash": "0x3000677f6633f60140516ba9d12cc4369ef90ba28cb4b7da4d5005add6821c25",
          "transactionIndex": "0x3f",
          "logIndex": "0x5d",
          "removed": false
        },
        {
          "address": "0xbC7Ebadd93107D39A3379D9C600f428eb9765f0c",
          "topics": [
            "0xc3d58168c5ae7397731d063d5bbf3d657854427343f4c083240f7aacaa2d0f62",
            "0x000000000000000000000000c58869d25d0d82248620db1eeda58a421cc0ee0e",
            "0x000000000000000000000000c58869d25d0d82248620db1eeda58a421cc0ee0e",
            "0x000000000000000000000000de4a466b7441357e1137a1a1e311bd70c1439ecb"
          ],
          "data": "0x00000000000000000000000000000000000000000000000000000000000000020000000000000000000000000000000000000000000000000000000000000050",
          "blockHash": "0x56fd4693ab7061dfe766ff786eb3825fbc5875e7ed15f66ff30b0c8fcbab9dba",
          "blockNumber": "0x9b921d",
          "blockTimestamp": "0x69845b50",
          "transactionHash": "0x3000677f6633f60140516ba9d12cc4369ef90ba28cb4b7da4d5005add6821c25",
          "transactionIndex": "0x3f",
          "logIndex": "0x5e",
          "removed": false
        },
        {
          "address": "0x7Bf3823D764bD3e2681A71Ff703837b508CAa8b3",
          "topics": [
            "0x751dfd922ff4b6048a31e74f71bfe6c58ee9135146d587bf908e12cfa525ae0b",
            "0x000000000000000000000000de4a466b7441357e1137a1a1e311bd70c1439ecb",
            "0x0000000000000000000000000000000000000000000000000000000000000002"
          ],
          "data": "0x000000000000000000000000000000000000000000000000000000000000005000000000000000000000000000000000000000000000000000000002cb417800",
          "blockHash": "0x56fd4693ab7061dfe766ff786eb3825fbc5875e7ed15f66ff30b0c8fcbab9dba",
          "blockNumber": "0x9b921d",
          "blockTimestamp": "0x69845b50",
          "transactionHash": "0x3000677f6633f60140516ba9d12cc4369ef90ba28cb4b7da4d5005add6821c25",
          "transactionIndex": "0x3f",
          "logIndex": "0x5f",
          "removed": false
        }
      ],
      "logsBloom": "0x04000000000000000000000004000000000000000000000000000040000000000000000000200000000000000800000000000800000100000000000200002000000000000000000000000008000000000000000000000000000000000000000000000100000000000000000000200000000000000000000000000010000000000000100000000000000000000000000000000000000000000000000000000000000200800000000000040100000000008000000000000000000400000000000000000002000010000000000000000180000000001008000000000000000000000000000000000000004000000000000000000000008000000000080002000000",
      "type": "0x2",
      "transactionHash": "0x3000677f6633f60140516ba9d12cc4369ef90ba28cb4b7da4d5005add6821c25",
      "transactionIndex": "0x3f",
      "blockHash": "0x56fd4693ab7061dfe766ff786eb3825fbc5875e7ed15f66ff30b0c8fcbab9dba",
      "blockNumber": "0x9b921d",
      "gasUsed": "0x15612",
      "effectiveGasPrice": "0x3cafd13b",
      "from": "0xde4a466b7441357e1137a1a1e311bd70c1439ecb",
      "to": "0x7Bf3823D764bD3e2681A71Ff703837b508CAa8b3",
      "contractAddress": null
    },
    {
      "status": "0x1",
      "cumulativeGasUsed": "0xb0722e",
      "logs": [
        {
          "address": "0x5aE69a270f061d8435100938b2Cef210D1f8348F",
          "topics": [
            "0x8c5be1e5ebec7d5bd14f71427d1e84f3dd0314c0f7b2291e5b200ac8c7c3b925",
            "0x000000000000000000000000ac75578bbdd3c830b32f2de2b8e2a4fa36996082",
            "0x000000000000000000000000c58869d25d0d82248620db1eeda58a421cc0ee0e"
          ],
          "data": "0x0000000000000000000000000000000000000000000000000000000826299e00",
          "blockHash": "0xaaeda777881d93ef203cd515db9f29b8952aacb4d878abeba12d8b5c910b9568",
          "blockNumber": "0x9b921f",
          "blockTimestamp": "0x69845b68",
          "transactionHash": "0x544c0509186f1580953d2ac631cc4240e33e2be6873833d5bb602d9dc2c016ab",
          "transactionIndex": "0x38",
          "logIndex": "0x72",
          "removed": false
        }
      ],
      "logsBloom": "0x00000000000000000000000000000000000000000000000000000000000000000000000000000000000000000000000000010000000000000000000000200000000000000000000000000000000000000000000000000000000000000000000000000000000000000000000000200000000000000000000000000000000000000000000000000000000000000000000000000000000000000000000000000000020200000000000000000000008000008000000000000000000000000000000000000000000000000000000000000080000000000001000000000000000000000010000000000000004000000000000000000000000000000000000002000000",
      "type": "0x2",
      "transactionHash": "0x544c0509186f1580953d2ac631cc4240e33e2be6873833d5bb602d9dc2c016ab",
      "transactionIndex": "0x38",
      "blockHash": "0xaaeda777881d93ef203cd515db9f29b8952aacb4d878abeba12d8b5c910b9568",
      "blockNumber": "0x9b921f",
      "gasUsed": "0xb524",
      "effectiveGasPrice": "0x3e38e28b",
      "from": "0xac75578bbdd3c830b32f2de2b8e2a4fa36996082",
      "to": "0x5aE69a270f061d8435100938b2Cef210D1f8348F",
      "contractAddress": null
    },
    {
      "status": "0x1",
      "cumulativeGasUsed": "0x3746445",
      "logs": [
        {
          "address": "0x5aE69a270f061d8435100938b2Cef210D1f8348F",
          "topics": [
            "0xddf252ad1be2c89b69c2b068fc378daa952ba7f163c4a11628f55a4df523b3ef",
            "0x000000000000000000000000ac75578bbdd3c830b32f2de2b8e2a4fa36996082",
            "0x000000000000000000000000e30f5d336931186dd86b5c9426fd4493c34a5c5d"
          ],
          "data": "0x000000000000000000000000000000000000000000000000000000037e11d600",
          "blockHash": "0xc1dc15aa10999c3de30ba5638edc43c71bbb9388aa1149ca421ee670b76729cb",
          "blockNumber": "0x9b9220",
          "blockTimestamp": "0x69845b74",
          "transactionHash": "0xf485d2c5ab1bccc5e06433e38681628d2762a9a319202b770cffc85012b13584",
          "transactionIndex": "0x52",
          "logIndex": "0x88",
          "removed": false
        },
        {
          "address": "0xbC7Ebadd93107D39A3379D9C600f428eb9765f0c",
          "topics": [
            "0xc3d58168c5ae7397731d063d5bbf3d657854427343f4c083240f7aacaa2d0f62",
            "0x000000000000000000000000c58869d25d0d82248620db1eeda58a421cc0ee0e",
            "0x000000000000000000000000c58869d25d0d82248620db1eeda58a421cc0ee0e",
            "0x000000000000000000000000ac75578bbdd3c830b32f2de2b8e2a4fa36996082"
          ],
          "data": "0x0000000000000000000000000000000000000000000000000000000000000004000000000000000000000000000000000000000000000000000000000000003c",
          "blockHash": "0xc1dc15aa10999c3de30ba5638edc43c71bbb9388aa1149ca421ee670b76729cb",
          "blockNumber": "0x9b9220",
          "blockTimestamp": "0x69845b74",
          "transactionHash": "0xf485d2c5ab1bccc5e06433e38681628d2762a9a319202b770cffc85012b13584",
          "transactionIndex": "0x52",
          "logIndex": "0x89",
          "removed": false
        },
        {
          "address": "0x7Bf3823D764bD3e2681A71Ff703837b508CAa8b3",
          "topics": [
            "0x751dfd922ff4b6048a31e74f71bfe6c58ee9135146d587bf908e12cfa525ae0b",
            "0x000000000000000000000000ac75578bbdd3c830b32f2de2b8e2a4fa36996082",
            "0x0000000000000000000000000000000000000000000000000000000000000004"
          ],
          "data": "0x000000000000000000000000000000000000000000000000000000000000003c000000000000000000000000000000000000000000000000000000037e11d600",
          "blockHash": "0xc1dc15aa10999c3de30ba5638edc43c71bbb9388aa1149ca421ee670b76729cb",
          "blockNumber": "0x9b9220",
          "blockTimestamp": "0x69845b74",
          "transactionHash": "0xf485d2c5ab1bccc5e06433e38681628d2762a9a319202b770cffc85012b13584",
          "transactionIndex": "0x52",
          "logIndex": "0x8a",
          "removed": false
        }
      ],
      "logsBloom": "0x00000000000000000000000004000000000000000000000000000040000000000000000000200000000000000800000000010800000000000000000200002000000000000000000000000008000000000000000000000000000000000000000008000100000000000000000000200000000000000000000000000010000000000000100000000000000000000000000000000000000000000000000000000000000200800000000000000000008000008000000000000000002000000000000000000002000010000000000000000180000000009009000000000000000000000000000000000000004000000000000000000000000000000000080002000000",
      "type": "0x2",
      "transactionHash": "0xf485d2c5ab1bccc5e06433e38681628d2762a9a319202b770cffc85012b13584",
      "transactionIndex": "0x52",
      "blockHash": "0xc1dc15aa10999c3de30ba5638edc43c71bbb9388aa1149ca421ee670b76729cb",
      "blockNumber": "0x9b9220",
      "gasUsed": "0x15612",
      "effectiveGasPrice": "0x3b39f015",
      "from": "0xac75578bbdd3c830b32f2de2b8e2a4fa36996082",
      "to": "0x7Bf3823D764bD3e2681A71Ff703837b508CAa8b3",
      "contractAddress": null
    },
    {
      "status": "0x1",
      "cumulativeGasUsed": "0x8ae780",
      "logs": [
        {
          "address": "0x5aE69a270f061d8435100938b2Cef210D1f8348F",
          "topics": [
            "0xddf252ad1be2c89b69c2b068fc378daa952ba7f163c4a11628f55a4df523b3ef",
            "0x000000000000000000000000ac75578bbdd3c830b32f2de2b8e2a4fa36996082",
            "0x000000000000000000000000e30f5d336931186dd86b5c9426fd4493c34a5c5d"
          ],
          "data": "0x0000000000000000000000000000000000000000000000000000000165a0bc00",
          "blockHash": "0x93bd2aa496f83d7a7eab74339d9ee86fb97781adf25aa7c751b450095c5d965c",
          "blockNumber": "0x9b9221",
          "blockTimestamp": "0x69845b80",
          "transactionHash": "0xd468aee1444e7e6b2ed7d1f18dda4912d5f4a7144486634a08c78bdaee157651",
          "transactionIndex": "0x46",
          "logIndex": "0x7e",
          "removed": false
        },
        {
          "address": "0xbC7Ebadd93107D39A3379D9C600f428eb9765f0c",
          "topics": [
            "0xc3d58168c5ae7397731d063d5bbf3d657854427343f4c083240f7aacaa2d0f62",
            "0x000000000000000000000000c58869d25d0d82248620db1eeda58a421cc0ee0e",
            "0x000000000000000000000000c58869d25d0d82248620db1eeda58a421cc0ee0e",
            "0x000000000000000000000000ac75578bbdd3c830b32f2de2b8e2a4fa36996082"
          ],
          "data": "0x0000000000000000000000000000000000000000000000000000000000000001000000000000000000000000000000000000000000000000000000000000001e",
          "blockHash": "0x93bd2aa496f83d7a7eab74339d9ee86fb97781adf25aa7c751b450095c5d965c",
          "blockNumber": "0x9b9221",
          "blockTimestamp": "0x69845b80",
          "transactionHash": "0xd468aee1444e7e6b2ed7d1f18dda4912d5f4a7144486634a08c78bdaee157651",
          "transactionIndex": "0x46",
          "logIndex": "0x7f",
          "removed": false
        },
        {
          "address": "0x7Bf3823D764bD3e2681A71Ff703837b508CAa8b3",
          "topics": [
            "0x751dfd922ff4b6048a31e74f71bfe6c58ee9135146d587bf908e12cfa525ae0b",
            "0x000000000000000000000000ac75578bbdd3c830b32f2de2b8e2a4fa36996082",
            "0x0000000000000000000000000000000000000000000000000000000000000001"
          ],
          "data": "0x000000000000000000000000000000000000000000000000000000000000001e0000000000000000000000000000000000000000000000000000000165a0bc00",
          "blockHash": "0x93bd2aa496f83d7a7eab74339d9ee86fb97781adf25aa7c751b450095c5d965c",
          "blockNumber": "0x9b9221",
          "blockTimestamp": "0x69845b80",
          "transactionHash": "0xd468aee1444e7e6b2ed7d1f18dda4912d5f4a7144486634a08c78bdaee157651",
          "transactionIndex": "0x46",
          "logIndex": "0x80",
          "removed": false
        }
      ],
      "logsBloom": "0x00000000000000000000000004000000000000000000000000000040000000000000000000200000000000000800000000010800000000000000000200042000000000000000000000000008000000000000000000040000000000000000000000000100000000000000000000200000000000000000000000000010000000000000100000000000000000000000000000000000000000000000000000000000000200800000000000000000008000008000000000000000000000000000000000000002000010000000000000000180000000001009000000000000000040000000000000000000004000000000000000000000000000000000080002000000",
      "type": "0x2",
      "transactionHash": "0xd468aee1444e7e6b2ed7d1f18dda4912d5f4a7144486634a08c78bdaee157651",
      "transactionIndex": "0x46",
      "blockHash": "0x93bd2aa496f83d7a7eab74339d9ee86fb97781adf25aa7c751b450095c5d965c",
      "blockNumber": "0x9b9221",
      "gasUsed": "0x15612",
      "effectiveGasPrice": "0x428611fe",
      "from": "0xac75578bbdd3c830b32f2de2b8e2a4fa36996082",
      "to": "0x7Bf3823D764bD3e2681A71Ff703837b508CAa8b3",
      "contractAddress": null
    },
    {
      "status": "0x1",
      "cumulativeGasUsed": "0x615d90",
      "logs": [
        {
          "address": "0x5aE69a270f061d8435100938b2Cef210D1f8348F",
          "topics": [
            "0xddf252ad1be2c89b69c2b068fc378daa952ba7f163c4a11628f55a4df523b3ef",
            "0x000000000000000000000000ac75578bbdd3c830b32f2de2b8e2a4fa36996082",
            "0x000000000000000000000000e30f5d336931186dd86b5c9426fd4493c34a5c5d"
          ],
          "data": "0x000000000000000000000000000000000000000000000000000000012a05f200",
          "blockHash": "0xa0e645d626c8c052d41ffbe30c4b7b96417044a49be83dc776669f4eda611fab",
          "blockNumber": "0x9b9222",
          "blockTimestamp": "0x69845b8c",
          "transactionHash": "0xec040b743285bc81e8e8f6c0c4e3b9c366adf4f92c378bac63ece8d649a9e7d0",
          "transactionIndex": "0x3b",
          "logIndex": "0x41",
          "removed": false
        },
        {
          "address": "0xbC7Ebadd93107D39A3379D9C600f428eb9765f0c",
          "topics": [
            "0xc3d58168c5ae7397731d063d5bbf3d657854427343f4c083240f7aacaa2d0f62",
            "0x000000000000000000000000c58869d25d0d82248620db1eeda58a421cc0ee0e",
            "0x000000000000000000000000c58869d25d0d82248620db1eeda58a421cc0ee0e",
            "0x000000000000000000000000ac75578bbdd3c830b32f2de2b8e2a4fa36996082"
          ],
          "data": "0x00000000000000000000000000000000000000000000000000000000000000000000000000000000000000000000000000000000000000000000000000000032",
          "blockHash": "0xa0e645d626c8c052d41ffbe30c4b7b96417044a49be83dc776669f4eda611fab",
          "blockNumber": "0x9b9222",
          "blockTimestamp": "0x69845b8c",
          "transactionHash": "0xec040b743285bc81e8e8f6c0c4e3b9c366adf4f92c378bac63ece8d649a9e7d0",
          "transactionIndex": "0x3b",
          "logIndex": "0x42",
          "removed": false
        },
        {
          "address": "0x7Bf3823D764bD3e2681A71Ff703837b508CAa8b3",
          "topics": [
            "0x751dfd922ff4b6048a31e74f71bfe6c58ee9135146d587bf908e12cfa525ae0b",
            "0x000000000000000000000000ac75578bbdd3c830b32f2de2b8e2a4fa36996082",
            "0x0000000000000000000000000000000000000000000000000000000000000000"
          ],
          "data": "0x0000000000000000000000000000000000000000000000000000000000000032000000000000000000000000000000000000000000000000000000012a05f200",
          "blockHash": "0xa0e645d626c8c052d41ffbe30c4b7b96417044a49be83dc776669f4eda611fab",
          "blockNumber": "0x9b9222",
          "blockTimestamp": "0x69845b8c",
          "transactionHash": "0xec040b743285bc81e8e8f6c0c4e3b9c366adf4f92c378bac63ece8d649a9e7d0",
          "transactionIndex": "0x3b",
          "logIndex": "0x43",
          "removed": false
        }
      ],
      "logsBloom": "0x00000000000000000000000004000000000000000000000000000040000000000000000000200000000000000800000000010800000000000000000200002000000000000000000000000008000000000000000000000000000000000000000000000100020000000000000000200800000000000000000000000010000000000000100000000000000000000000000000000000000000000000000000000000000200800000000000000000008000008000000000000000000000000000000000000002000010000000000000000180000000001009000000000000000020000000000000000000004000000000000000000000000000000000080002000000",
      "type": "0x2",
      "transactionHash": "0xec040b743285bc81e8e8f6c0c4e3b9c366adf4f92c378bac63ece8d649a9e7d0",
      "transactionIndex": "0x3b",
      "blockHash": "0xa0e645d626c8c052d41ffbe30c4b7b96417044a49be83dc776669f4eda611fab",
      "blockNumber": "0x9b9222",
      "gasUsed": "0x15606",
      "effectiveGasPrice": "0x3f74af10",
      "from": "0xac75578bbdd3c830b32f2de2b8e2a4fa36996082",
      "to": "0x7Bf3823D764bD3e2681A71Ff703837b508CAa8b3",
      "contractAddress": null
    },
    {
      "status": "0x1",
      "cumulativeGasUsed": "0x23cb6f8",
      "logs": [
        {
          "address": "0xbC7Ebadd93107D39A3379D9C600f428eb9765f0c",
          "topics": [
            "0x17307eab39ab6107e8899845ad3d59bd9653f200f220920489ca2b5937696c31",
            "0x0000000000000000000000006fc2fbb2973e592eb6f932a10b3e72eeaa3113c0",
            "0x000000000000000000000000e1255febb4f293eb66a569deaba15f36871b5850"
          ],
          "data": "0x0000000000000000000000000000000000000000000000000000000000000001",
          "blockHash": "0x66692533e8902e9158810890adbc920dec455260779e37ce25cff4ca35ac0e39",
          "blockNumber": "0x9b9223",
          "blockTimestamp": "0x69845b98",
          "transactionHash": "0x8f9d8e63f58b9ac371281190768b32e44e38b3d28a021c26af68523be4e2239b",
          "transactionIndex": "0x45",
          "logIndex": "0x6b",
          "removed": false
        }
      ],
      "logsBloom": "0x00000000000000000080000000000000000000000000000000000000000000000000000000200000000000000000000000000000000000000000000000000000000000000000000000008000000000000000000000000000000000000000000002000100000000000000000000000000000000000000000000000000000000000000000000000000000000000000000000800000000000000000010000000000000000000000000000000000000000000002000000000040000000000000000000000000000010000000000000000000000000000000000000000000000000000000200800000000000000000000000000000000000000000000000000000000",
      "type": "0x2",
      "transactionHash": "0x8f9d8e63f58b9ac371281190768b32e44e38b3d28a021c26af68523be4e2239b",
      "transactionIndex": "0x45",
      "blockHash": "0x66692533e8902e9158810890adbc920dec455260779e37ce25cff4ca35ac0e39",
      "blockNumber": "0x9b9223",
      "gasUsed": "0xb468",
      "effectiveGasPrice": "0x39e19242",
      "from": "0x6fc2fbb2973e592eb6f932a10b3e72eeaa3113c0",
      "to": "0xbC7Ebadd93107D39A3379D9C600f428eb9765f0c",
      "contractAddress": null
    },
    {
      "status": "0x1",
      "cumulativeGasUsed": "0xa7b21d",
      "logs": [
        {
          "address": "0xbC7Ebadd93107D39A3379D9C600f428eb9765f0c",
          "topics": [
            "0x17307eab39ab6107e8899845ad3d59bd9653f200f220920489ca2b5937696c31",
            "0x000000000000000000000000de4a466b7441357e1137a1a1e311bd70c1439ecb",
            "0x000000000000000000000000e1255febb4f293eb66a569deaba15f36871b5850"
          ],
          "data": "0x0000000000000000000000000000000000000000000000000000000000000001",
          "blockHash": "0x90ecf68b520422bb80965981e2674017847dff06f5213ba944409873b62e8dc7",
          "blockNumber": "0x9b9224",
          "blockTimestamp": "0x69845ba4",
          "transactionHash": "0xa917b09c71b4cf9a25d2f8d72e0959ddc5f6989586a35e281447e71cf39289a7",
          "transactionIndex": "0x3e",
          "logIndex": "0x54",
          "removed": false
        }
      ],
      "logsBloom": "0x00000000000000000000000000000000000000000000000000000000000000000000000000200000000000000000000000000000000100000000000000000000000000000000000000008000000000000000000000000000000000000000000002000100000000000000000000000000000000000000000000000000000000000000000000000000000000000000000000000000000000000000000000000000000000000000000000040000000000000002000000000040000400000000000000000000000010000000000000000000000000000000000000000000000000000000200800000000000000000000000000000000000000000000000000000000",
      "type": "0x2",
      "transactionHash": "0xa917b09c71b4cf9a25d2f8d72e0959ddc5f6989586a35e281447e71cf39289a7",
      "transactionIndex": "0x3e",
      "blockHash": "0x90ecf68b520422bb80965981e2674017847dff06f5213ba944409873b62e8dc7",
      "blockNumber": "0x9b9224",
      "gasUsed": "0xb468",
      "effectiveGasPrice": "0x3c1381fe",
      "from": "0xde4a466b7441357e1137a1a1e311bd70c1439ecb",
      "to": "0xbC7Ebadd93107D39A3379D9C600f428eb9765f0c",
      "contractAddress": null
    },
    {
      "status": "0x1",
      "cumulativeGasUsed": "0xd01f66",
      "logs": [
        {
          "address": "0xbC7Ebadd93107D39A3379D9C600f428eb9765f0c",
          "topics": [
            "0xc3d58168c5ae7397731d063d5bbf3d657854427343f4c083240f7aacaa2d0f62",
            "0x000000000000000000000000e1255febb4f293eb66a569deaba15f36871b5850",
            "0x0000000000000000000000006fc2fbb2973e592eb6f932a10b3e72eeaa3113c0",
            "0x000000000000000000000000e1255febb4f293eb66a569deaba15f36871b5850"
          ],
          "data": "0x0000000000000000000000000000000000000000000000000000000000000000000000000000000000000000000000000000000000000000000000000000003c",
          "blockHash": "0xc7994b8a2fac54cab06d77fd21793f3e6d52c023e1d46ca8703bedaa0db9761b",
          "blockNumber": "0x9b9225",
          "blockTimestamp": "0x69845bb0",
          "transactionHash": "0x337b849e9d100e83e6f3ab44e26f8c60e59f44348c31d1e4ce3477b2a62d9451",
          "transactionIndex": "0x42",
          "logIndex": "0x7f",
          "removed": false
        },
        {
          "address": "0x8B86642180149a22c2e06647342f8E250BE5F23B",
          "topics": [
            "0xa3941cfa07eecf2734875ab71cea0e47395be644da6e17b039a7e29efba74ef9",
            "0x0000000000000000000000000000000000000000000000000000000000000000",
            "0x0000000000000000000000006fc2fbb2973e592eb6f932a10b3e72eeaa3113c0",
            "0x0000000000000000000000000000000000000000000000000000000000000000"
          ],
          "data": "0x000000000000000000000000000000000000000000000000000000000000003c0000000000000000000000000000000000000000000000000000000007270e00",
          "blockHash": "0xc7994b8a2fac54cab06d77fd21793f3e6d52c023e1d46ca8703bedaa0db9761b",
          "blockNumber": "0x9b9225",
          "blockTimestamp": "0x69845bb0",
          "transactionHash": "0x337b849e9d100e83e6f3ab44e26f8c60e59f44348c31d1e4ce3477b2a62d9451",
          "transactionIndex": "0x42",
          "logIndex": "0x80",
          "removed": false
        }
      ],
      "logsBloom": "0x00000000008000008080000000000000000000200000000000000000000000000000000000240000000000000000000000000000000000000000000000002000000000000000000000008000000000000000000000000000000000000000000000000100020000000000000000000800000000000000000000000000000000000000000000000000000000000000000000800000000000000000010000000000000000000000000000000000000000000002000000000040000000000000000000000000000010000000000000000000000000000008000000000000000020000000000000000000000000000000002000000000000000000000080004000000",
      "type": "0x2",
      "transactionHash": "0x337b849e9d100e83e6f3ab44e26f8c60e59f44348c31d1e4ce3477b2a62d9451",
      "transactionIndex": "0x42",
      "blockHash": "0xc7994b8a2fac54cab06d77fd21793f3e6d52c023e1d46ca8703bedaa0db9761b",
      "blockNumber": "0x9b9225",
      "gasUsed": "0x2c677",
      "effectiveGasPrice": "0x4360bce3",
      "from": "0x6fc2fbb2973e592eb6f932a10b3e72eeaa3113c0",
      "to": "0x8B86642180149a22c2e06647342f8E250BE5F23B",
      "contractAddress": null
    },
    {
      "status": "0x1",
      "cumulativeGasUsed": "0x727d0c",
      "logs": [
        {
          "address": "0xbC7Ebadd93107D39A3379D9C600f428eb9765f0c",
          "topics": [
            "0xc3d58168c5ae7397731d063d5bbf3d657854427343f4c083240f7aacaa2d0f62",
            "0x000000000000000000000000e1255febb4f293eb66a569deaba15f36871b5850",
            "0x000000000000000000000000de4a466b7441357e1137a1a1e311bd70c1439ecb",
            "0x000000000000000000000000e1255febb4f293eb66a569deaba15f36871b5850"
          ],
          "data": "0x00000000000000000000000000000000000000000000000000000000000000030000000000000000000000000000000000000000000000000000000000000032",
          "blockHash": "0xa0e1e0b28b2b0106b80c55b43d391eafafb6e2b94b8a9bd6072089f8c86c7090",
          "blockNumber": "0x9b9226",
          "blockTimestamp": "0x69845bbc",
          "transactionHash": "0xdcd06f531770ceccf6252f3818be7bd10875300a1ae0b00a3a78c74cbab76a11",
          "transactionIndex": "0x34",
          "logIndex": "0x7d",
          "removed": false
        },
        {
          "address": "0x8B86642180149a22c2e06647342f8E250BE5F23B",
          "topics": [
            "0xa3941cfa07eecf2734875ab71cea0e47395be644da6e17b039a7e29efba74ef9",
            "0x0000000000000000000000000000000000000000000000000000000000000001",
            "0x000000000000000000000000de4a466b7441357e1137a1a1e311bd70c1439ecb",
            "0x0000000000000000000000000000000000000000000000000000000000000003"
          ],
          "data": "0x0000000000000000000000000000000000000000000000000000000000000032000000000000000000000000000000000000000000000000000000000510ff40",
          "blockHash": "0xa0e1e0b28b2b0106b80c55b43d391eafafb6e2b94b8a9bd6072089f8c86c7090",
          "blockNumber": "0x9b9226",
          "blockTimestamp": "0x69845bbc",
          "transactionHash": "0xdcd06f531770ceccf6252f3818be7bd10875300a1ae0b00a3a78c74cbab76a11",
          "transactionIndex": "0x34",
          "logIndex": "0x7e",
          "removed": false
        }
      ],
      "logsBloom": "0x00000000008000008000000000000000000000200000000000000000000000000000000000240000000000000000000000000000020100000000000000042000000000000000000000008000000000000000000000040000000000000000000000000100000000000000000000000000000000000000000000000000000000000000000000000000000000000000000000000000000000000000000000000000000000000000000000040000000000000002000000800040000400000000400000000000000010000000000000000000000000000008000000000000000040000000000000000000000000000000002000000000000000000000080004000000",
      "type": "0x2",
      "transactionHash": "0xdcd06f531770ceccf6252f3818be7bd10875300a1ae0b00a3a78c74cbab76a11",
      "transactionIndex": "0x34",
      "blockHash": "0xa0e1e0b28b2b0106b80c55b43d391eafafb6e2b94b8a9bd6072089f8c86c7090",
      "blockNumber": "0x9b9226",
      "gasUsed": "0x2d17f",
      "effectiveGasPrice": "0x4192544b",
      "from": "0xde4a466b7441357e1137a1a1e311bd70c1439ecb",
      "to": "0x8B86642180149a22c2e06647342f8E250BE5F23B",
      "contractAddress": null
    },
    {
      "status": "0x1",
      "cumulativeGasUsed": "0x66bc2b",
      "logs": [
        {
          "address": "0x5aE69a270f061d8435100938b2Cef210D1f8348F",
          "topics": [
            "0x8c5be1e5ebec7d5bd14f71427d1e84f3dd0314c0f7b2291e5b200ac8c7c3b925",
            "0x000000000000000000000000de4a466b7441357e1137a1a1e311bd70c1439ecb",
            "0x000000000000000000000000e1255febb4f293eb66a569deaba15f36871b5850"
          ],
          "data": "0x0000000000000000000000000000000000000000000000000000000165a0bc00",
          "blockHash": "0x7728934af516edb962d6d0d2c74bb33cd0450d8a4bbef0afa722f8bfd2bcf1f6",
          "blockNumber": "0x9b9227",
          "blockTimestamp": "0x69845bc8",
          "transactionHash": "0x5b0038e9a3a9305b8142bd057179d5445cdaa54695b1e250fc513d6e3763ad9b",
          "transactionIndex": "0x37",
          "logIndex": "0x47",
          "removed": false
        }
      ],
      "logsBloom": "0x00000000000000000000000000000000000000000000000000000000000000000000000000000000000000000000000000000000000100000000000000200000000000000000000000008000000000000000000000000000000000000000000000000000000000000000000000200000000000000000000000000000000000000000000000000000000000000000000000000000000000000000000000000000020000000000000000040000000000000002000000000040000400000000000000000000000000000000000000000000000000000000000000000000000000000010000000000000004000000000000000000000000000000000000002000000",
      "type": "0x2",
      "transactionHash": "0x5b0038e9a3a9305b8142bd057179d5445cdaa54695b1e250fc513d6e3763ad9b",
      "transactionIndex": "0x37",
      "blockHash": "0x7728934af516edb962d6d0d2c74bb33cd0450d8a4bbef0afa722f8bfd2bcf1f6",
      "blockNumber": "0x9b9227",
      "gasUsed": "0xb524",
      "effectiveGasPrice": "0x3e67fa34",
      "from": "0xde4a466b7441357e1137a1a1e311bd70c1439ecb",
      "to": "0x5aE69a270f061d8435100938b2Cef210D1f8348F",
      "contractAddress": null
    },
    {
      "status": "0x1",
      "cumulativeGasUsed": "0x3906e7f",
      "logs": [
        {
          "address": "0x5aE69a270f061d8435100938b2Cef210D1f8348F",
          "topics": [
            "0xddf252ad1be2c89b69c2b068fc378daa952ba7f163c4a11628f55a4df523b3ef",
            "0x000000000000000000000000de4a466b7441357e1137a1a1e311bd70c1439ecb",
            "0x0000000000000000000000006fc2fbb2973e592eb6f932a10b3e72eeaa3113c0"
          ],
          "data": "0x000000000000000000000000000000000000000000000000000000011e1a3000",
          "blockHash": "0x1608dc6901eef990c8c40b451981fe3ae5ec89a7aac8360132abf54cee5c9200",
          "blockNumber": "0x9b9228",
          "blockTimestamp": "0x69845bd4",
          "transactionHash": "0x00d8c1b3a707e09e9cd5af7abd787394a927aaabe7b1a0ea39142e63a3f020c3",
          "transactionIndex": "0x47",
          "logIndex": "0x53",
          "removed": false
        },
        {
          "address": "0xbC7Ebadd93107D39A3379D9C600f428eb9765f0c",
          "topics": [
            "0xc3d58168c5ae7397731d063d5bbf3d657854427343f4c083240f7aacaa2d0f62",
            "0x000000000000000000000000e1255febb4f293eb66a569deaba15f36871b5850",
            "0x000000000000000000000000e1255febb4f293eb66a569deaba15f36871b5850",
            "0x000000000000000000000000de4a466b7441357e1137a1a1e311bd70c1439ecb"
          ],
          "data": "0x00000000000000000000000000000000000000000000000000000000000000000000000000000000000000000000000000000000000000000000000000000028",
          "blockHash": "0x1608dc6901eef990c8c40b451981fe3ae5ec89a7aac8360132abf54cee5c9200",
          "blockNumber": "0x9b9228",
          "blockTimestamp": "0x69845bd4",
          "transactionHash": "0x00d8c1b3a707e09e9cd5af7abd787394a927aaabe7b1a0ea39142e63a3f020c3",
          "transactionIndex": "0x47",
          "logIndex": "0x54",
          "removed": false
        },
        {
          "address": "0x8B86642180149a22c2e06647342f8E250BE5F23B",
          "topics": [
            "0xb3556955a489fb1ff1cf2ce48ea54f262b9cb31e1e22a13f66142172e71cb52f",
            "0x0000000000000000000000000000000000000000000000000000000000000000",
            "0x000000000000000000000000de4a466b7441357e1137a1a1e311bd70c1439ecb",
            "0x0000000000000000000000006fc2fbb2973e592eb6f932a10b3e72eeaa3113c0"
          ],
          "data": "0x00000000000000000000000000000000000000000000000000000000000000000000000000000000000000000000000000000000000000000000000000000028000000000000000000000000000000000000000000000000000000011e1a3000",
          "blockHash": "0x1608dc6901eef990c8c40b451981fe3ae5ec89a7aac8360132abf54cee5c9200",
          "blockNumber": "0x9b9228",
          "blockTimestamp": "0x69845bd4",
          "transactionHash": "0x00d8c1b3a707e09e9cd5af7abd787394a927aaabe7b1a0ea39142e63a3f020c3",
          "transactionIndex": "0x47",
          "logIndex": "0x55",
          "removed": false
        },
        {
          "address": "0x8B86642180149a22c2e06647342f8E250BE5F23B",
          "topics": [
            "0x66bcde9f7aec9b81719a4fdec54cbafbf6c834d1f2f989d9cd2134dab8d0c0de",
            "0x0000000000000000000000000000000000000000000000000000000000000000"
          ],
          "data": "0x0000000000000000000000000000000000000000000000000000000000000014",
          "blockHash": "0x1608dc6901eef990c8c40b451981fe3ae5ec89a7aac8360132abf54cee5c9200",
          "blockNumber": "0x9b9228",
          "blockTimestamp": "0x69845bd4",
          "transactionHash": "0x00d8c1b3a707e09e9cd5af7abd787394a927aaabe7b1a0ea39142e63a3f020c3",
          "transactionIndex": "0x47",
          "logIndex": "0x56",
          "removed": false
        }
      ],
      "logsBloom": "0x00000000008000000080000000000000010000200000100000000000000000000000000000200000000000000000000000000001000100000000000000002000000000000000000000008008000000000000000000000000000000000000000000000100020000000000000000200800000000000000400000000010000000000000000000000000000000000000000000800000000000000000010000000000000000000000000000040000000000200002000000000040000400000000000000000002000010000000000000000000000000000008000000000000000020000000000000400000004000000000002000000000000000000000080002000000",
      "type": "0x2",
      "transactionHash": "0x00d8c1b3a707e09e9cd5af7abd787394a927aaabe7b1a0ea39142e63a3f020c3",
      "transactionIndex": "0x47",
      "blockHash": "0x1608dc6901eef990c8c40b451981fe3ae5ec89a7aac8360132abf54cee5c9200",
      "blockNumber": "0x9b9228",
      "gasUsed": "0x19765",
      "effectiveGasPrice": "0x3ae2b0ed",
      "from": "0xde4a466b7441357e1137a1a1e311bd70c1439ecb",
      "to": "0x8B86642180149a22c2e06647342f8E250BE5F23B",
      "contractAddress": null
    },
    {
      "status": "0x1",
      "cumulativeGasUsed": "0x5e2efd",
      "logs": [
        {
          "address": "0x5aE69a270f061d8435100938b2Cef210D1f8348F",
          "topics": [
            "0x8c5be1e5ebec7d5bd14f71427d1e84f3dd0314c0f7b2291e5b200ac8c7c3b925",
            "0x000000000000000000000000ac75578bbdd3c830b32f2de2b8e2a4fa36996082",
            "0x000000000000000000000000e1255febb4f293eb66a569deaba15f36871b5850"
          ],
          "data": "0x000000000000000000000000000000000000000000000000000000012a05f200",
          "blockHash": "0xe9e5ddbfa44c656fd8db164918ff15cb6429f9c8bb45f717bc5c799701c37472",
          "blockNumber": "0x9b9229",
          "blockTimestamp": "0x69845be0",
          "transactionHash": "0xdc32698d785596d4cad4f1e0ccf54f2bb3297eed16a7f4218e66b6648afab0b5",
          "transactionIndex": "0x43",
          "logIndex": "0x5b",
          "removed": false
        }
      ],
      "logsBloom": "0x00000000000000000000000000000000000000000000000000000000000000000000000000000000000000000000000000010000000000000000000000200000000000000000000000008000000000000000000000000000000000000000000000000000000000000000000000200000000000000000000000000000000000000000000000000000000000000000000000000000000000000000000000000000020000000000000000000000008000000002000000000040000000000000000000000000000000000000000000000000000000000001000000000000000000000010000000000000004000000000000000000000000000000000000002000000",
      "type": "0x2",
      "transactionHash": "0xdc32698d785596d4cad4f1e0ccf54f2bb3297eed16a7f4218e66b6648afab0b5",
      "transactionIndex": "0x43",
      "blockHash": "0xe9e5ddbfa44c656fd8db164918ff15cb6429f9c8bb45f717bc5c799701c37472",
      "blockNumber": "0x9b9229",
      "gasUsed": "0xb524",
      "effectiveGasPrice": "0x42244d95",
      "from": "0xac75578bbdd3c830b32f2de2b8e2a4fa36996082",
      "to": "0x5aE69a270f061d8435100938b2Cef210D1f8348F",
      "contractAddress": null
    },
    {
      "status": "0x1",
      "cumulativeGasUsed": "0x2289272",
      "logs": [
        {
          "address": "0x5aE69a270f061d8435100938b2Cef210D1f8348F",
          "topics": [
            "0xddf252ad1be2c89b69c2b068fc378daa952ba7f163c4a11628f55a4df523b3ef",
            "0x000000000000000000000000ac75578bbdd3c830b32f2de2b8e2a4fa36996082",
            "0x000000000000000000000000de4a466b7441357e1137a1a1e311bd70c1439ecb"
          ],
          "data": "0x0000000000000000000000000000000000000000000000000000000097fde980",
          "blockHash": "0xb39a0c580e381d9935dfe623931f5db36071c20bdbd7e6abd53d794378daf20c",
          "blockNumber": "0x9b922a",
          "blockTimestamp": "0x69845bf8",
          "transactionHash": "0x04cccde659358df12765e838b43a4c6cae3167879889db9bdc1a9d811bbdb0ea",
          "transactionIndex": "0x6e",
          "logIndex": "0x4fd",
          "removed": false
        },
        {
          "address": "0xbC7Ebadd93107D39A3379D9C600f428eb9765f0c",
          "topics": [
            "0xc3d58168c5ae7397731d063d5bbf3d657854427343f4c083240f7aacaa2d0f62",
            "0x000000000000000000000000e1255febb4f293eb66a569deaba15f36871b5850",
            "0x000000000000000000000000e1255febb4f293eb66a569deaba15f36871b5850",
            "0x000000000000000000000000ac75578bbdd3c830b32f2de2b8e2a4fa36996082"
          ],
          "data": "0x0000000000000000000000000000000000000000000000000000000000000003000000000000000000000000000000000000000000000000000000000000001e",
          "blockHash": "0xb39a0c580e381d9935dfe623931f5db36071c20bdbd7e6abd53d794378daf20c",
          "blockNumber": "0x9b922a",
          "blockTimestamp": "0x69845bf8",
          "transactionHash": "0x04cccde659358df12765e838b43a4c6cae3167879889db9bdc1a9d811bbdb0ea",
          "transactionIndex": "0x6e",
          "logIndex": "0x4fe",
          "removed": false
        },
        {
          "address": "0x8B86642180149a22c2e06647342f8E250BE5F23B",
          "topics": [
            "0xb3556955a489fb1ff1cf2ce48ea54f262b9cb31e1e22a13f66142172e71cb52f",
            "0x0000000000000000000000000000000000000000000000000000000000000001",
            "0x000000000000000000000000ac75578bbdd3c830b32f2de2b8e2a4fa36996082",
            "0x000000000000000000000000de4a466b7441357e1137a1a1e311bd70c1439ecb"
          ],
          "data": "0x0000000000000000000000000000000000000000000000000000000000000003000000000000000000000000000000000000000000000000000000000000001e0000000000000000000000000000000000000000000000000000000097fde980",
          "blockHash": "0xb39a0c580e381d9935dfe623931f5db36071c20bdbd7e6abd53d794378daf20c",
          "blockNumber": "0x9b922a",
          "blockTimestamp": "0x69845bf8",
          "transactionHash": "0x04cccde659358df12765e838b43a4c6cae3167879889db9bdc1a9d811bbdb0ea",
          "transactionIndex": "0x6e",
          "logIndex": "0x4ff",
          "removed": false
        },
        {
          "address": "0x8B86642180149a22c2e06647342f8E250BE5F23B",
          "topics": [
            "0x66bcde9f7aec9b81719a4fdec54cbafbf6c834d1f2f989d9cd2134dab8d0c0de",
            "0x0000000000000000000000000000000000000000000000000000000000000001"
          ],
          "data": "0x0000000000000000000000000000000000000000000000000000000000000014",
          "blockHash": "0xb39a0c580e381d9935dfe623931f5db36071c20bdbd7e6abd53d794378daf20c",
          "blockNumber": "0x9b922a",
          "blockTimestamp": "0x69845bf8",
          "transactionHash": "0x04cccde659358df12765e838b43a4c6cae3167879889db9bdc1a9d811bbdb0ea",
          "transactionIndex": "0x6e",
          "logIndex": "0x500",
          "removed": false
        }
      ],
      "logsBloom": "0x00000000008000000000000000000000010000200000100000000000000000000000000000200000000000000000000000010001000100000000000000042000000000000000000000008008000000000000000000040000000000000000000000000100000000000000000000200000000000000000400000000010000000000000000000000000000000000000000000000000000000000000000000000000000000000000000000040000008000200002000000000040000400000000000000000002000010000000000000000000000000000009000000000000000040000000000000400000004000000000002000000000000000000000080002000000",
      "type": "0x2",
      "transactionHash": "0x04cccde659358df12765e838b43a4c6cae3167879889db9bdc1a9d811bbdb0ea",
      "transactionIndex": "0x6e",
      "blockHash": "0xb39a0c580e381d9935dfe623931f5db36071c20bdbd7e6abd53d794378daf20c",
      "blockNumber": "0x9b922a",
      "gasUsed": "0x19771",
      "effectiveGasPrice": "0x3e1ba244",
      "from": "0xac75578bbdd3c830b32f2de2b8e2a4fa36996082",
      "to": "0x8B86642180149a22c2e06647342f8E250BE5F23B",
      "contractAddress": null
    }
  ],
  "libraries": [],
  "pending": [],
  "returns": {},
  "timestamp": 1770282030338,
  "chain": 11155111,
  "commit": "cbe1a58"
}