{
  "transactions": [
    {
      "hash": "0xe8116cc586f00090cfcd81a6eadf0746fe71dbd861f3594cd9e4e109e18aead5",
      "transactionType": "CREATE",
      "contractName": "DigitalEuro",
      "contractAddress": "0x2cf8f433e60a0586c3f228d13038ee9f219c6188",
      "function": null,
      "arguments": [
        "Digital Euro",
        "DEUR"
      ],
      "transaction": {
        "from": "0xe30f5d336931186dd86b5c9426fd4493c34a5c5d",
        "gas": "0xfd09b",
        "value": "0x0",
        "input": "0x608060405234801561000f575f5ffd5b50604051610ef8380380610ef883398101604081905261002e916101d5565b8181600361003c83826102be565b50600461004982826102be565b5061005891505f90503361008b565b506100837f9f2df0fed2c77648de5860a4cc508cd0818c85b8b8a1ab4ceeef8d981c8956a63361008b565b505050610378565b5f8281526005602090815260408083206001600160a01b038516845290915281205460ff1661012f575f8381526005602090815260408083206001600160a01b03861684529091529020805460ff191660011790556100e73390565b6001600160a01b0316826001600160a01b0316847f2f8788117e7eff1d82e926ec794901d17c78024a50270940304540a733656f0d60405160405180910390a4506001610132565b505f5b92915050565b634e487b7160e01b5f52604160045260245ffd5b5f82601f83011261015b575f5ffd5b81516001600160401b0381111561017457610174610138565b604051601f8201601f19908116603f011681016001600160401b03811182821017156101a2576101a2610138565b6040528181528382016020018510156101b9575f5ffd5b8160208501602083015e5f918101602001919091529392505050565b5f5f604083850312156101e6575f5ffd5b82516001600160401b038111156101fb575f5ffd5b6102078582860161014c565b602085015190935090506001600160401b03811115610224575f5ffd5b6102308582860161014c565b9150509250929050565b600181811c9082168061024e57607f821691505b60208210810361026c57634e487b7160e01b5f52602260045260245ffd5b50919050565b601f8211156102b957805f5260205f20601f840160051c810160208510156102975750805b601f840160051c820191505b818110156102b6575f81556001016102a3565b50505b505050565b81516001600160401b038111156102d7576102d7610138565b6102eb816102e5845461023a565b84610272565b6020601f82116001811461031d575f83156103065750848201515b5f19600385901b1c1916600184901b1784556102b6565b5f84815260208120601f198516915b8281101561034c578785015182556020948501946001909201910161032c565b508482101561036957868401515f19600387901b60f8161c191681555b50505050600190811b01905550565b610b73806103855f395ff3fe608060405234801561000f575f5ffd5b5060043610610111575f3560e01c806340c10f191161009e578063a217fddf1161006e578063a217fddf14610239578063a9059cbb14610240578063d539139314610253578063d547741f1461027a578063dd62ed3e1461028d575f5ffd5b806340c10f19146101e357806370a08231146101f657806391d148541461021e57806395d89b4114610231575f5ffd5b806323b872dd116100e457806323b872dd14610177578063248a9ca31461018a5780632f2ff15d146101ac578063313ce567146101c157806336568abe146101d0575f5ffd5b806301ffc9a71461011557806306fdde031461013d578063095ea7b31461015257806318160ddd14610165575b5f5ffd5b610128610123366004610984565b6102c5565b60405190151581526020015b60405180910390f35b6101456102fb565b60405161013491906109b2565b610128610160366004610a02565b61038b565b6002545b604051908152602001610134565b610128610185366004610a2a565b6103a2565b610169610198366004610a64565b5f9081526005602052604090206001015490565b6101bf6101ba366004610a7b565b6103c5565b005b60405160068152602001610134565b6101bf6101de366004610a7b565b6103ef565b6101bf6101f1366004610a02565b610427565b610169610204366004610aa5565b6001600160a01b03165f9081526020819052604090205490565b61012861022c366004610a7b565b6104c3565b6101456104ed565b6101695f81565b61012861024e366004610a02565b6104fc565b6101697f9f2df0fed2c77648de5860a4cc508cd0818c85b8b8a1ab4ceeef8d981c8956a681565b6101bf610288366004610a7b565b610509565b61016961029b366004610abe565b6001600160a01b039182165f90815260016020908152604080832093909416825291909152205490565b5f6001600160e01b03198216637965db0b60e01b14806102f557506301ffc9a760e01b6001600160e01b03198316145b92915050565b60606003805461030a90610ae6565b80601f016020809104026020016040519081016040528092919081815260200182805461033690610ae6565b80156103815780601f1061035857610100808354040283529160200191610381565b820191905f5260205f20905b81548152906001019060200180831161036457829003601f168201915b5050505050905090565b5f3361039881858561052d565b5060019392505050565b5f336103af85828561053a565b6103ba8585856105b5565b506001949350505050565b5f828152600560205260409020600101546103df81610612565b6103e9838361061f565b50505050565b6001600160a01b03811633146104185760405163334bd91960e11b815260040160405180910390fd5b61042282826106b0565b505050565b7f9f2df0fed2c77648de5860a4cc508cd0818c85b8b8a1ab4ceeef8d981c8956a661045181610612565b815f036104715760405163210753df60e01b815260040160405180910390fd5b61047b838361071b565b826001600160a01b03167f3f2c9d57c068687834f0de942a9babb9e5acab57d516d3480a3c16ee165a4273836040516104b691815260200190565b60405180910390a2505050565b5f9182526005602090815260408084206001600160a01b0393909316845291905290205460ff1690565b60606004805461030a90610ae6565b5f336103988185856105b5565b5f8281526005602052604090206001015461052381610612565b6103e983836106b0565b6104228383836001610753565b6001600160a01b038381165f908152600160209081526040808320938616835292905220545f198110156103e957818110156105a757604051637dc7a0d960e11b81526001600160a01b038416600482015260248101829052604481018390526064015b60405180910390fd5b6103e984848484035f610753565b6001600160a01b0383166105de57604051634b637e8f60e11b81525f600482015260240161059e565b6001600160a01b0382166106075760405163ec442f0560e01b81525f600482015260240161059e565b610422838383610825565b61061c813361094b565b50565b5f61062a83836104c3565b6106a9575f8381526005602090815260408083206001600160a01b03861684529091529020805460ff191660011790556106613390565b6001600160a01b0316826001600160a01b0316847f2f8788117e7eff1d82e926ec794901d17c78024a50270940304540a733656f0d60405160405180910390a45060016102f5565b505f6102f5565b5f6106bb83836104c3565b156106a9575f8381526005602090815260408083206001600160a01b0386168085529252808320805460ff1916905551339286917ff6391f5c32d9c69d2a47ea670b442974b53935d1edc7fd64eb21e047a839171b9190a45060016102f5565b6001600160a01b0382166107445760405163ec442f0560e01b81525f600482015260240161059e565b61074f5f8383610825565b5050565b6001600160a01b03841661077c5760405163e602df0560e01b81525f600482015260240161059e565b6001600160a01b0383166107a557604051634a1406b160e11b81525f600482015260240161059e565b6001600160a01b038085165f90815260016020908152604080832093871683529290522082905580156103e957826001600160a01b0316846001600160a01b03167f8c5be1e5ebec7d5bd14f71427d1e84f3dd0314c0f7b2291e5b200ac8c7c3b9258460405161081791815260200190565b60405180910390a350505050565b6001600160a01b03831661084f578060025f8282546108449190610b1e565b909155506108bf9050565b6001600160a01b0383165f90815260208190526040902054818110156108a15760405163391434e360e21b81526001600160a01b0385166004820152602481018290526044810183905260640161059e565b6001600160a01b0384165f9081526020819052604090209082900390555b6001600160a01b0382166108db576002805482900390556108f9565b6001600160a01b0382165f9081526020819052604090208054820190555b816001600160a01b0316836001600160a01b03167fddf252ad1be2c89b69c2b068fc378daa952ba7f163c4a11628f55a4df523b3ef8360405161093e91815260200190565b60405180910390a3505050565b61095582826104c3565b61074f5760405163e2517d3f60e01b81526001600160a01b03821660048201526024810183905260440161059e565b5f60208284031215610994575f5ffd5b81356001600160e01b0319811681146109ab575f5ffd5b9392505050565b602081525f82518060208401528060208501604085015e5f604082850101526040601f19601f83011684010191505092915050565b80356001600160a01b03811681146109fd575f5ffd5b919050565b5f5f60408385031215610a13575f5ffd5b610a1c836109e7565b946020939093013593505050565b5f5f5f60608486031215610a3c575f5ffd5b610a45846109e7565b9250610a53602085016109e7565b929592945050506040919091013590565b5f60208284031215610a74575f5ffd5b5035919050565b5f5f60408385031215610a8c575f5ffd5b82359150610a9c602084016109e7565b90509250929050565b5f60208284031215610ab5575f5ffd5b6109ab826109e7565b5f5f60408385031215610acf575f5ffd5b610ad8836109e7565b9150610a9c602084016109e7565b600181811c90821680610afa57607f821691505b602082108103610b1857634e487b7160e01b5f52602260045260245ffd5b50919050565b808201808211156102f557634e487b7160e01b5f52601160045260245ffdfea2646970667358221220160d8d1a37de4948c2337fa4a42dd362e917a011991410010613432f4582aa0264736f6c634300081e003300000000000000000000000000000000000000000000000000000000000000400000000000000000000000000000000000000000000000000000000000000080000000000000000000000000000000000000000000000000000000000000000c4469676974616c204575726f000000000000000000000000000000000000000000000000000000000000000000000000000000000000000000000000000000044445555200000000000000000000000000000000000000000000000000000000",
        "nonce": "0x72",
        "chainId": "0xaa36a7"
      },
      "additionalContracts": [],
      "isFixedGasLimit": false
    },
    {
      "hash": "0xc211d1c991d5eb9137daf721c112c2d5c9bcdabdbc2b936798f130aff85d6ee2",
      "transactionType": "CREATE",
      "contractName": "FinancialAssets",
      "contractAddress": "0x3eb95efcdc5b021d64f96739c81e43d45d222c38",
      "function": null,
      "arguments": [
        "https://amethyst-accessible-lemming-653.mypinata.cloud/ipfs/bafybeignpqpasdhwfe4h5zj3vyfnezmeid3aq36g7h4jt6nktadcihisna/{id}.json"
      ],
      "transaction": {
        "from": "0xe30f5d336931186dd86b5c9426fd4493c34a5c5d",
        "gas": "0x247fb3",
        "value": "0x0",
        "input": "0x608060405234801561000f575f5ffd5b50604051611ff1380380611ff183398101604081905261002e91610146565b8061003881610075565b506100435f33610085565b5061006e7f0b84ee281e5cf521a9ad54a86fafe78946b157177e231bd8ae785af4d3b3620f33610085565b5050610334565b6002610081828261027a565b5050565b5f8281526003602090815260408083206001600160a01b038516845290915281205460ff16610129575f8381526003602090815260408083206001600160a01b03861684529091529020805460ff191660011790556100e13390565b6001600160a01b0316826001600160a01b0316847f2f8788117e7eff1d82e926ec794901d17c78024a50270940304540a733656f0d60405160405180910390a450600161012c565b505f5b92915050565b634e487b7160e01b5f52604160045260245ffd5b5f60208284031215610156575f5ffd5b81516001600160401b0381111561016b575f5ffd5b8201601f8101841361017b575f5ffd5b80516001600160401b0381111561019457610194610132565b604051601f8201601f19908116603f011681016001600160401b03811182821017156101c2576101c2610132565b6040528181528282016020018610156101d9575f5ffd5b8160208401602083015e5f91810160200191909152949350505050565b600181811c9082168061020a57607f821691505b60208210810361022857634e487b7160e01b5f52602260045260245ffd5b50919050565b601f82111561027557805f5260205f20601f840160051c810160208510156102535750805b601f840160051c820191505b81811015610272575f815560010161025f565b50505b505050565b81516001600160401b0381111561029357610293610132565b6102a7816102a184546101f6565b8461022e565b6020601f8211600181146102d9575f83156102c25750848201515b5f19600385901b1c1916600184901b178455610272565b5f84815260208120601f198516915b8281101561030857878501518255602094850194600190920191016102e8565b508482101561032557868401515f19600387901b60f8161c191681555b50505050600190811b01905550565b611cb0806103415f395ff3fe608060405234801561000f575f5ffd5b50600436106101a0575f3560e01c80634e1273f4116100f3578063a22cb46511610093578063d547741f1161006e578063d547741f146103b8578063e2dc3666146103cb578063e985e9c5146103de578063f242432a146103f1575f5ffd5b8063a22cb46514610373578063bd85b03914610386578063d351cfdc146103a5575f5ffd5b80636b36d613116100ce5780636b36d6131461033e5780636f9759811461034657806391d1485414610359578063a217fddf1461036c575f5ffd5b80634e1273f4146102ea5780634f558e791461030a578063518e2bdd1461032b575f5ffd5b80631e77ceda1161015e5780632eb2c2d6116101395780632eb2c2d61461029d5780632f2ff15d146102b05780632f83a6bc146102c357806336568abe146102d7575f5ffd5b80631e77ceda1461023d578063248a9ca31461026857806324fc099b1461028a575f5ffd5b8062fdd58e146101a457806301ffc9a7146101ca5780630e89341c146101ed57806318160ddd1461020d57806319a8413f146102155780631b2ef1ca1461022a575b5f5ffd5b6101b76101b2366004611445565b610404565b6040519081526020015b60405180910390f35b6101dd6101d8366004611482565b61042b565b60405190151581526020016101c1565b6102006101fb3660046114a4565b610435565b6040516101c191906114e9565b6005546101b7565b6102286102233660046115b0565b6104c7565b005b61022861023836600461161b565b61059a565b600654610250906001600160a01b031681565b6040516001600160a01b0390911681526020016101c1565b6101b76102763660046114a4565b5f9081526003602052604090206001015490565b6102006102983660046114a4565b6106a4565b6102286102ab3660046116c7565b6106c0565b6102286102be366004611773565b61072c565b6101b75f516020611c5b5f395f51905f5281565b6102286102e5366004611773565b610756565b6102fd6102f836600461179d565b61078e565b6040516101c19190611898565b6101dd6103183660046114a4565b5f90815260046020526040902054151590565b6101dd6103393660046114a4565b610858565b6009546101b7565b6102006103543660046114a4565b610879565b6101dd610367366004611773565b610895565b6101b75f81565b6102286103813660046118aa565b6108bf565b6101b76103943660046114a4565b5f9081526004602052604090205490565b6102286103b33660046118e3565b6108ce565b6102286103c6366004611773565b6109d8565b6102286103d9366004611930565b6109fc565b6101dd6103ec366004611949565b610a7e565b6102286103ff366004611971565b610aab565b5f818152602081815260408083206001600160a01b03861684529091529020545b92915050565b5f61042582610b0a565b606060028054610444906119c4565b80601f0160208091040260200160405190810160405280929190818152602001828054610470906119c4565b80156104bb5780601f10610492576101008083540402835291602001916104bb565b820191905f5260205f20905b81548152906001019060200180831161049e57829003601f168201915b50505050509050919050565b5f516020611c5b5f395f51905f526104de81610b2e565b5f84815260076020526040902080546104f6906119c4565b15905061051657604051630ad9430b60e01b815260040160405180910390fd5b5f84815260076020526040902061052d8482611a40565b505f8481526008602052604090206105458382611a40565b5060098054905f61055583611b0e565b9190505550837fb6d0fdd4aa7871e97002ee6e98a7078316273461e22e2f1be3715a9d247e766d848460405161058c929190611b26565b60405180910390a250505050565b5f516020611c5b5f395f51905f526105b181610b2e565b6006546001600160a01b03166105d9576040516248999560e01b815260040160405180910390fd5b815f036105f95760405163160703d760e01b815260040160405180910390fd5b5f8381526007602052604090208054610611906119c4565b90505f036106325760405163d2b4e6a160e01b815260040160405180910390fd5b60065460408051602081019091525f815261065a916001600160a01b03169085908590610b3b565b6006546040518381526001600160a01b039091169084907fcd6742d5e809eafe3ac91950822ad9d9f4cec48faad935421642d893db7d0993906020015b60405180910390a3505050565b5f818152600760205260409020805460609190610444906119c4565b336001600160a01b03861681148015906106e157506106df8682610a7e565b155b156107175760405163711bec9160e11b81526001600160a01b038083166004830152871660248201526044015b60405180910390fd5b6107248686868686610b96565b505050505050565b5f8281526003602052604090206001015461074681610b2e565b6107508383610bfb565b50505050565b6001600160a01b038116331461077f5760405163334bd91960e11b815260040160405180910390fd5b6107898282610c8c565b505050565b606081518351146107bf5781518351604051635b05999160e01b81526004810192909252602482015260440161070e565b5f83516001600160401b038111156107d9576107d96114fb565b604051908082528060200260200182016040528015610802578160200160208202803683370190505b5090505f5b84518110156108505760208082028601015161082b90602080840287010151610404565b82828151811061083d5761083d611b53565b6020908102919091010152600101610807565b509392505050565b5f8181526007602052604081208054610870906119c4565b15159392505050565b5f818152600860205260409020805460609190610444906119c4565b5f9182526003602090815260408084206001600160a01b0393909316845291905290205460ff1690565b6108ca338383610cf7565b5050565b5f516020611c5b5f395f51905f526108e581610b2e565b6006546001600160a01b031661090d576040516248999560e01b815260040160405180910390fd5b5f5b83518110156109af5760075f85838151811061092d5761092d611b53565b602002602001015181526020019081526020015f20805461094d906119c4565b90505f0361096e5760405163d2b4e6a160e01b815260040160405180910390fd5b82818151811061098057610980611b53565b60200260200101515f036109a75760405163160703d760e01b815260040160405180910390fd5b60010161090f565b5060065460408051602081019091525f8152610789916001600160a01b03169085908590610d83565b5f828152600360205260409020600101546109f281610b2e565b6107508383610c8c565b5f610a0681610b2e565b6001600160a01b038216610a2c576040516261a68760e41b815260040160405180910390fd5b600680546001600160a01b038481166001600160a01b0319831681179093556040519116919082907f2683c02722e9e01707eb234ac654f5eca143b1307d1789be28369d0f846f9e48905f90a3505050565b6001600160a01b039182165f90815260016020908152604080832093909416825291909152205460ff1690565b336001600160a01b0386168114801590610acc5750610aca8682610a7e565b155b15610afd5760405163711bec9160e11b81526001600160a01b0380831660048301528716602482015260440161070e565b6107248686868686610db9565b5f6001600160e01b03198216637965db0b60e01b1480610425575061042582610e45565b610b388133610e94565b50565b6001600160a01b038416610b6457604051632bfa23e760e11b81525f600482015260240161070e565b604080516001808252602082018690528183019081526060820185905260808201909252906107245f87848487610ecd565b6001600160a01b038416610bbf57604051632bfa23e760e11b81525f600482015260240161070e565b6001600160a01b038516610be757604051626a0d4560e21b81525f600482015260240161070e565b610bf48585858585610ecd565b5050505050565b5f610c068383610895565b610c85575f8381526003602090815260408083206001600160a01b03861684529091529020805460ff19166001179055610c3d3390565b6001600160a01b0316826001600160a01b0316847f2f8788117e7eff1d82e926ec794901d17c78024a50270940304540a733656f0d60405160405180910390a4506001610425565b505f610425565b5f610c978383610895565b15610c85575f8381526003602090815260408083206001600160a01b0386168085529252808320805460ff1916905551339286917ff6391f5c32d9c69d2a47ea670b442974b53935d1edc7fd64eb21e047a839171b9190a4506001610425565b6001600160a01b038216610d1f5760405162ced3e160e81b81525f600482015260240161070e565b6001600160a01b038381165f81815260016020908152604080832094871680845294825291829020805460ff191686151590811790915591519182527f17307eab39ab6107e8899845ad3d59bd9653f200f220920489ca2b5937696c319101610697565b6001600160a01b038416610dac57604051632bfa23e760e11b81525f600482015260240161070e565b6107505f85858585610ecd565b6001600160a01b038416610de257604051632bfa23e760e11b81525f600482015260240161070e565b6001600160a01b038516610e0a57604051626a0d4560e21b81525f600482015260240161070e565b60408051600180825260208201869052818301908152606082018590526080820190925290610e3c8787848487610ecd565b50505050505050565b5f6001600160e01b03198216636cdb3d1360e11b1480610e7557506001600160e01b031982166303a24d0760e21b145b8061042557506301ffc9a760e01b6001600160e01b0319831614610425565b610e9e8282610895565b6108ca5760405163e2517d3f60e01b81526001600160a01b03821660048201526024810183905260440161070e565b610ed985858585610f20565b6001600160a01b03841615610bf45782513390600103610f125760208481015190840151610f0b838989858589610f2c565b5050610724565b61072481878787878761104d565b61075084848484611134565b6001600160a01b0384163b156107245760405163f23a6e6160e01b81526001600160a01b0385169063f23a6e6190610f709089908990889088908890600401611b67565b6020604051808303815f875af1925050508015610faa575060408051601f3d908101601f19168201909252610fa791810190611bab565b60015b611011573d808015610fd7576040519150601f19603f3d011682016040523d82523d5f602084013e610fdc565b606091505b5080515f0361100957604051632bfa23e760e11b81526001600160a01b038616600482015260240161070e565b805160208201fd5b6001600160e01b0319811663f23a6e6160e01b14610e3c57604051632bfa23e760e11b81526001600160a01b038616600482015260240161070e565b6001600160a01b0384163b156107245760405163bc197c8160e01b81526001600160a01b0385169063bc197c81906110919089908990889088908890600401611bc6565b6020604051808303815f875af19250505080156110cb575060408051601f3d908101601f191682019092526110c891810190611bab565b60015b6110f8573d808015610fd7576040519150601f19603f3d011682016040523d82523d5f602084013e610fdc565b6001600160e01b0319811663bc197c8160e01b14610e3c57604051632bfa23e760e11b81526001600160a01b038616600482015260240161070e565b6111408484848461121b565b6001600160a01b0384166111bd575f805b83518110156111a45760208181028481018201519086018201515f908152600490925260408220805491928392611189908490611c23565b9091555061119990508184611c23565b925050600101611151565b508060055f8282546111b69190611c23565b9091555050505b6001600160a01b038316610750575f805b835181101561120a5760208181028481018201519086018201515f908152600490925260409091208054829003905591909101906001016111ce565b506005805491909103905550505050565b805182511461124a5781518151604051635b05999160e01b81526004810192909252602482015260440161070e565b335f5b835181101561134c576020818102858101820151908501909101516001600160a01b038816156112fe575f828152602081815260408083206001600160a01b038c168452909152902054818110156112d8576040516303dee4c560e01b81526001600160a01b038a16600482015260248101829052604481018390526064810184905260840161070e565b5f838152602081815260408083206001600160a01b038d16845290915290209082900390555b6001600160a01b03871615611342575f828152602081815260408083206001600160a01b038b1684529091528120805483929061133c908490611c23565b90915550505b505060010161124d565b5082516001036113cc5760208301515f906020840151909150856001600160a01b0316876001600160a01b0316846001600160a01b03167fc3d58168c5ae7397731d063d5bbf3d657854427343f4c083240f7aacaa2d0f6285856040516113bd929190918252602082015260400190565b60405180910390a45050610bf4565b836001600160a01b0316856001600160a01b0316826001600160a01b03167f4a39dc06d4c0dbc64b70af90fd698a233a518aa5d07e595d983b8c0526c8f7fb868660405161141b929190611c36565b60405180910390a45050505050565b80356001600160a01b0381168114611440575f5ffd5b919050565b5f5f60408385031215611456575f5ffd5b61145f8361142a565b946020939093013593505050565b6001600160e01b031981168114610b38575f5ffd5b5f60208284031215611492575f5ffd5b813561149d8161146d565b9392505050565b5f602082840312156114b4575f5ffd5b5035919050565b5f81518084528060208401602086015e5f602082860101526020601f19601f83011685010191505092915050565b602081525f61149d60208301846114bb565b634e487b7160e01b5f52604160045260245ffd5b604051601f8201601f191681016001600160401b0381118282101715611537576115376114fb565b604052919050565b5f82601f83011261154e575f5ffd5b8135602083015f5f6001600160401b0384111561156d5761156d6114fb565b50601f8301601f19166020016115828161150f565b915050828152858383011115611596575f5ffd5b828260208301375f92810160200192909252509392505050565b5f5f5f606084860312156115c2575f5ffd5b8335925060208401356001600160401b038111156115de575f5ffd5b6115ea8682870161153f565b92505060408401356001600160401b03811115611605575f5ffd5b6116118682870161153f565b9150509250925092565b5f5f6040838503121561162c575f5ffd5b50508035926020909101359150565b5f6001600160401b03821115611653576116536114fb565b5060051b60200190565b5f82601f83011261166c575f5ffd5b813561167f61167a8261163b565b61150f565b8082825260208201915060208360051b8601019250858311156116a0575f5ffd5b602085015b838110156116bd5780358352602092830192016116a5565b5095945050505050565b5f5f5f5f5f60a086880312156116db575f5ffd5b6116e48661142a565b94506116f26020870161142a565b935060408601356001600160401b0381111561170c575f5ffd5b6117188882890161165d565b93505060608601356001600160401b03811115611733575f5ffd5b61173f8882890161165d565b92505060808601356001600160401b0381111561175a575f5ffd5b6117668882890161153f565b9150509295509295909350565b5f5f60408385031215611784575f5ffd5b823591506117946020840161142a565b90509250929050565b5f5f604083850312156117ae575f5ffd5b82356001600160401b038111156117c3575f5ffd5b8301601f810185136117d3575f5ffd5b80356117e161167a8261163b565b8082825260208201915060208360051b850101925087831115611802575f5ffd5b6020840193505b8284101561182b5761181a8461142a565b825260209384019390910190611809565b945050505060208301356001600160401b03811115611848575f5ffd5b6118548582860161165d565b9150509250929050565b5f8151808452602084019350602083015f5b8281101561188e578151865260209586019590910190600101611870565b5093949350505050565b602081525f61149d602083018461185e565b5f5f604083850312156118bb575f5ffd5b6118c48361142a565b9150602083013580151581146118d8575f5ffd5b809150509250929050565b5f5f604083850312156118f4575f5ffd5b82356001600160401b03811115611909575f5ffd5b6119158582860161165d565b92505060208301356001600160401b03811115611848575f5ffd5b5f60208284031215611940575f5ffd5b61149d8261142a565b5f5f6040838503121561195a575f5ffd5b6119638361142a565b91506117946020840161142a565b5f5f5f5f5f60a08688031215611985575f5ffd5b61198e8661142a565b945061199c6020870161142a565b9350604086013592506060860135915060808601356001600160401b0381111561175a575f5ffd5b600181811c908216806119d857607f821691505b6020821081036119f657634e487b7160e01b5f52602260045260245ffd5b50919050565b601f82111561078957805f5260205f20601f840160051c81016020851015611a215750805b601f840160051c820191505b81811015610bf4575f8155600101611a2d565b81516001600160401b03811115611a5957611a596114fb565b611a6d81611a6784546119c4565b846119fc565b6020601f821160018114611a9f575f8315611a885750848201515b5f19600385901b1c1916600184901b178455610bf4565b5f84815260208120601f198516915b82811015611ace5787850151825560209485019460019092019101611aae565b5084821015611aeb57868401515f19600387901b60f8161c191681555b50505050600190811b01905550565b634e487b7160e01b5f52601160045260245ffd5b5f60018201611b1f57611b1f611afa565b5060010190565b604081525f611b3860408301856114bb565b8281036020840152611b4a81856114bb565b95945050505050565b634e487b7160e01b5f52603260045260245ffd5b6001600160a01b03868116825285166020820152604081018490526060810183905260a0608082018190525f90611ba0908301846114bb565b979650505050505050565b5f60208284031215611bbb575f5ffd5b815161149d8161146d565b6001600160a01b0386811682528516602082015260a0604082018190525f90611bf19083018661185e565b8281036060840152611c03818661185e565b90508281036080840152611c1781856114bb565b98975050505050505050565b8082018082111561042557610425611afa565b604081525f611c48604083018561185e565b8281036020840152611b4a818561185e56fe0b84ee281e5cf521a9ad54a86fafe78946b157177e231bd8ae785af4d3b3620fa2646970667358221220520be81efe12c64dfbf0a206d7e2a04c7ca8a916ba4201f3fd7f3ab20f508c6d64736f6c634300081e00330000000000000000000000000000000000000000000000000000000000000020000000000000000000000000000000000000000000000000000000000000008168747470733a2f2f616d6574687973742d61636365737369626c652d6c656d6d696e672d3635332e6d7970696e6174612e636c6f75642f697066732f62616679626569676e707170617364687766653468357a6a337679666e657a6d6569643361713336673768346a74366e6b74616463696869736e612f7b69647d2e6a736f6e00000000000000000000000000000000000000000000000000000000000000",
        "nonce": "0x73",
        "chainId": "0xaa36a7"
      },
      "additionalContracts": [],
      "isFixedGasLimit": false
    },
    {
      "hash": "0xfde312cb85f75bd871fd1d4bdcbb499de7da96075a23accc21896a8ad45a6584",
      "transactionType": "CREATE",
      "contractName": "PrimaryMarket",
      "contractAddress": "0x93b54f5317602c4dda3c77eb5a491a8d230fc004",
      "function": null,
      "arguments": [
        "0x2Cf8F433E60a0586c3f228d13038Ee9F219c6188",
        "0x3Eb95eFCdC5B021D64f96739C81E43d45D222C38"
      ],
      "transaction": {
        "from": "0xe30f5d336931186dd86b5c9426fd4493c34a5c5d",
        "gas": "0x13235d",
        "value": "0x0",
        "input": "0x60c060405234801561000f575f5ffd5b506040516110c93803806110c983398101604081905261002e916101be565b60017f9b779b17422d0df92223018b32b4d1fa46e071723d6817e2486d003becc55f00556001600160a01b038216158061006f57506001600160a01b038116155b1561008d576040516367cb2c1d60e11b815260040160405180910390fd5b6001600160a01b03828116608052811660a05260018054610100600160a81b031916336101008102919091179091556100c7905f906100fa565b506100f27f0b84ee281e5cf521a9ad54a86fafe78946b157177e231bd8ae785af4d3b3620f336100fa565b5050506101ef565b5f828152602081815260408083206001600160a01b038516845290915281205460ff1661019a575f838152602081815260408083206001600160a01b03861684529091529020805460ff191660011790556101523390565b6001600160a01b0316826001600160a01b0316847f2f8788117e7eff1d82e926ec794901d17c78024a50270940304540a733656f0d60405160405180910390a450600161019d565b505f5b92915050565b80516001600160a01b03811681146101b9575f5ffd5b919050565b5f5f604083850312156101cf575f5ffd5b6101d8836101a3565b91506101e6602084016101a3565b90509250929050565b60805160a051610ea46102255f395f81816102fe015281816104c6015261063301525f81816101ea01526104060152610ea45ff3fe608060405234801561000f575f5ffd5b5060043610610132575f3560e01c80638051522d116100b4578063b9c1868511610079578063b9c1868514610296578063bc197c81146102ae578063c0aab765146102e6578063cfeeafdb146102f9578063d547741f14610320578063f23a6e6114610333575f5ffd5b80638051522d1461024e5780638456cb591461026157806391d14854146102695780639e635bd61461027c578063a217fddf1461028f575f5ffd5b806336568abe116100fa57806336568abe146101ca5780633f4ba83a146101dd5780635885a895146101e55780635c975abb146102245780635e694cf51461022f575f5ffd5b806301ffc9a71461013657806309b69e8d1461015e578063248a9ca3146101735780632f2ff15d146101a35780632f83a6bc146101b6575b5f5ffd5b610149610144366004610afe565b610352565b60405190151581526020015b60405180910390f35b61017161016c366004610b2c565b610362565b005b610195610181366004610b4c565b5f9081526020819052604090206001015490565b604051908152602001610155565b6101716101b1366004610b7e565b610592565b6101955f516020610e4f5f395f51905f5281565b6101716101d8366004610b7e565b6105bc565b6101716105f4565b61020c7f000000000000000000000000000000000000000000000000000000000000000081565b6040516001600160a01b039091168152602001610155565b60015460ff16610149565b61019561023d366004610b4c565b5f9081526002602052604090205490565b61019561025c366004610b4c565b610616565b6101716106a3565b610149610277366004610b7e565b6106c2565b61017161028a366004610ba8565b6106ea565b6101955f81565b60015461020c9061010090046001600160a01b031681565b6102cd6102bc366004610cf2565b63bc197c8160e01b95945050505050565b6040516001600160e01b03199091168152602001610155565b6101716102f4366004610b2c565b610775565b61020c7f000000000000000000000000000000000000000000000000000000000000000081565b61017161032e366004610b7e565b6107fd565b6102cd610341366004610da1565b63f23a6e6160e01b95945050505050565b5f61035c82610821565b92915050565b61036a610845565b61037261086b565b805f0361039257604051632b71967360e01b815260040160405180910390fd5b5f82815260026020526040812054908190036103c15760405163069019f760e51b815260040160405180910390fd5b5f6103cc8383610df5565b6001546040516323b872dd60e01b81523360048201526101009091046001600160a01b039081166024830152604482018390529192505f917f000000000000000000000000000000000000000000000000000000000000000016906323b872dd906064016020604051808303815f875af115801561044c573d5f5f3e3d5ffd5b505050506040513d601f19601f820116820180604052508101906104709190610e18565b90508061049057604051633861795760e01b815260040160405180910390fd5b604051637921219560e11b8152306004820152336024820152604481018690526064810185905260a060848201525f60a48201527f00000000000000000000000000000000000000000000000000000000000000006001600160a01b03169063f242432a9060c4015f604051808303815f87803b15801561050f575f5ffd5b505af1158015610521573d5f5f3e3d5ffd5b505060408051878152602081018690528893503392507f751dfd922ff4b6048a31e74f71bfe6c58ee9135146d587bf908e12cfa525ae0b910160405180910390a350505061058e60017f9b779b17422d0df92223018b32b4d1fa46e071723d6817e2486d003becc55f0055565b5050565b5f828152602081905260409020600101546105ac81610899565b6105b683836108a3565b50505050565b6001600160a01b03811633146105e55760405163334bd91960e11b815260040160405180910390fd5b6105ef8282610932565b505050565b5f516020610e4f5f395f51905f5261060b81610899565b61061361099b565b50565b604051627eeac760e11b8152306004820152602481018290525f907f00000000000000000000000000000000000000000000000000000000000000006001600160a01b03169062fdd58e90604401602060405180830381865afa15801561067f573d5f5f3e3d5ffd5b505050506040513d601f19601f8201168201806040525081019061035c9190610e37565b5f516020610e4f5f395f51905f526106ba81610899565b6106136109ed565b5f918252602082815260408084206001600160a01b0393909316845291905290205460ff1690565b5f6106f481610899565b6001600160a01b03821661071b576040516367cb2c1d60e11b815260040160405180910390fd5b600180546001600160a01b03848116610100818102610100600160a81b031985161790945560405193909204169182907fb1ffc11b80176a035d4da15837c3326eb97da052c521f011e6bc8c9b9a8a5791905f90a3505050565b5f516020610e4f5f395f51905f5261078c81610899565b815f036107ac5760405163bec5275d60e01b815260040160405180910390fd5b5f83815260026020526040908190208390555183907f288e01eadd84f87ff852e67e784d6fe5181f8d088c2f1690e5c263289cad8a45906107f09085815260200190565b60405180910390a2505050565b5f8281526020819052604090206001015461081781610899565b6105b68383610932565b5f6001600160e01b03198216630271189760e51b148061035c575061035c82610a28565b60015460ff16156108695760405163d93c066560e01b815260040160405180910390fd5b565b610873610a5c565b60027f9b779b17422d0df92223018b32b4d1fa46e071723d6817e2486d003becc55f0055565b6106138133610a9e565b5f6108ae83836106c2565b61092b575f838152602081815260408083206001600160a01b03861684529091529020805460ff191660011790556108e33390565b6001600160a01b0316826001600160a01b0316847f2f8788117e7eff1d82e926ec794901d17c78024a50270940304540a733656f0d60405160405180910390a450600161035c565b505f61035c565b5f61093d83836106c2565b1561092b575f838152602081815260408083206001600160a01b0386168085529252808320805460ff1916905551339286917ff6391f5c32d9c69d2a47ea670b442974b53935d1edc7fd64eb21e047a839171b9190a450600161035c565b6109a3610adb565b6001805460ff191690557f5db9ee0a495bf2e6ff9c91a7834c1ba4fdd244a5e8aa4e537bd38aeae4b073aa335b6040516001600160a01b03909116815260200160405180910390a1565b6109f5610845565b6001805460ff1916811790557f62e78cea01bee320cd4e420270b5ea74000d11b0c9f74754ebdbfc544b05a258336109d0565b5f6001600160e01b03198216637965db0b60e01b148061035c57506301ffc9a760e01b6001600160e01b031983161461035c565b7f9b779b17422d0df92223018b32b4d1fa46e071723d6817e2486d003becc55f005460020361086957604051633ee5aeb560e01b815260040160405180910390fd5b610aa882826106c2565b61058e5760405163e2517d3f60e01b81526001600160a01b03821660048201526024810183905260440160405180910390fd5b60015460ff1661086957604051638dfc202b60e01b815260040160405180910390fd5b5f60208284031215610b0e575f5ffd5b81356001600160e01b031981168114610b25575f5ffd5b9392505050565b5f5f60408385031215610b3d575f5ffd5b50508035926020909101359150565b5f60208284031215610b5c575f5ffd5b5035919050565b80356001600160a01b0381168114610b79575f5ffd5b919050565b5f5f60408385031215610b8f575f5ffd5b82359150610b9f60208401610b63565b90509250929050565b5f60208284031215610bb8575f5ffd5b610b2582610b63565b634e487b7160e01b5f52604160045260245ffd5b604051601f8201601f1916810167ffffffffffffffff81118282101715610bfe57610bfe610bc1565b604052919050565b5f82601f830112610c15575f5ffd5b813567ffffffffffffffff811115610c2f57610c2f610bc1565b8060051b610c3f60208201610bd5565b91825260208185018101929081019086841115610c5a575f5ffd5b6020860192505b83831015610c7c578235825260209283019290910190610c61565b9695505050505050565b5f82601f830112610c95575f5ffd5b813567ffffffffffffffff811115610caf57610caf610bc1565b610cc2601f8201601f1916602001610bd5565b818152846020838601011115610cd6575f5ffd5b816020850160208301375f918101602001919091529392505050565b5f5f5f5f5f60a08688031215610d06575f5ffd5b610d0f86610b63565b9450610d1d60208701610b63565b9350604086013567ffffffffffffffff811115610d38575f5ffd5b610d4488828901610c06565b935050606086013567ffffffffffffffff811115610d60575f5ffd5b610d6c88828901610c06565b925050608086013567ffffffffffffffff811115610d88575f5ffd5b610d9488828901610c86565b9150509295509295909350565b5f5f5f5f5f60a08688031215610db5575f5ffd5b610dbe86610b63565b9450610dcc60208701610b63565b93506040860135925060608601359150608086013567ffffffffffffffff811115610d88575f5ffd5b808202811582820484141761035c57634e487b7160e01b5f52601160045260245ffd5b5f60208284031215610e28575f5ffd5b81518015158114610b25575f5ffd5b5f60208284031215610e47575f5ffd5b505191905056fe0b84ee281e5cf521a9ad54a86fafe78946b157177e231bd8ae785af4d3b3620fa2646970667358221220fabe3b977799b185f862635d98e1bd9cca4de0dac968862f715150362179c31f64736f6c634300081e00330000000000000000000000002cf8f433e60a0586c3f228d13038ee9f219c61880000000000000000000000003eb95efcdc5b021d64f96739c81e43d45d222c38",
        "nonce": "0x74",
        "chainId": "0xaa36a7"
      },
      "additionalContracts": [],
      "isFixedGasLimit": false
    },
    {
      "hash": "0xaeb96c37d0e36db35bba68179f9a0cc65054ddc1969758cea3ac9a795eb261dc",
      "transactionType": "CREATE",
      "contractName": "SecondaryMarket",
      "contractAddress": "0xb861949bebabe343b8f816d29de92d9e4d3e6383",
      "function": null,
      "arguments": [
        "0x2Cf8F433E60a0586c3f228d13038Ee9F219c6188",
        "0x3Eb95eFCdC5B021D64f96739C81E43d45D222C38"
      ],
      "transaction": {
        "from": "0xe30f5d336931186dd86b5c9426fd4493c34a5c5d",
        "gas": "0x18163d",
        "value": "0x0",
        "input": "0x60c060405234801561000f575f5ffd5b506040516115f83803806115f883398101604081905261002e91610176565b60017f9b779b17422d0df92223018b32b4d1fa46e071723d6817e2486d003becc55f00556001600160a01b038216158061006f57506001600160a01b038116155b1561008d57604051631c4998f160e01b815260040160405180910390fd5b6001600160a01b03808316608052811660a0526100aa5f336100b2565b5050506101a7565b5f828152602081815260408083206001600160a01b038516845290915281205460ff16610152575f838152602081815260408083206001600160a01b03861684529091529020805460ff1916600117905561010a3390565b6001600160a01b0316826001600160a01b0316847f2f8788117e7eff1d82e926ec794901d17c78024a50270940304540a733656f0d60405160405180910390a4506001610155565b505f5b92915050565b80516001600160a01b0381168114610171575f5ffd5b919050565b5f5f60408385031215610187575f5ffd5b6101908361015b565b915061019e6020840161015b565b90509250929050565b60805160a0516114066101f25f395f818161033b0152818161080101528181610a120152610c4e01525f8181610257015281816105be01528181610667015261075b01526114065ff3fe608060405234801561000f575f5ffd5b5060043610610132575f3560e01c80635c975abb116100b4578063a217fddf11610079578063a217fddf146102e4578063b03053b6146102eb578063bc197c81146102fe578063cfeeafdb14610336578063d547741f1461035d578063f23a6e6114610370575f5ffd5b80635c975abb1461029157806378e30c911461029c5780638456cb59146102c157806387ed92d7146102c957806391d14854146102d1575f5ffd5b80632f2ff15d116100fa5780632f2ff15d14610211578063305a67a81461022457806336568abe146102375780633f4ba83a1461024a5780635885a89514610252575f5ffd5b806301ffc9a7146101365780631030f05f1461015e578063107a274a146101b9578063248a9ca3146101cc57806326fbd1d6146101fc575b5f5ffd5b610149610144366004610fed565b61038f565b60405190151581526020015b60405180910390f35b61017161016c366004611014565b61039f565b604051610155919081516001600160a01b0316815260208083015190820152604080830151908201526060808301519082015260809182015115159181019190915260a00190565b6101716101c7366004611014565b61044b565b6101ee6101da366004611014565b5f9081526020819052604090206001015490565b604051908152602001610155565b61020f61020a36600461102b565b6104dc565b005b61020f61021f366004611066565b610927565b61020f610232366004611014565b610951565b61020f610245366004611066565b610ad1565b61020f610b09565b6102797f000000000000000000000000000000000000000000000000000000000000000081565b6040516001600160a01b039091168152602001610155565b60015460ff16610149565b6101496102aa366004611014565b5f9081526002602052604090206004015460ff1690565b61020f610b1b565b6003546101ee565b6101496102df366004611066565b610b2d565b6101ee5f81565b6101ee6102f9366004611090565b610b55565b61031d61030c3660046111ea565b63bc197c8160e01b95945050505050565b6040516001600160e01b03199091168152602001610155565b6102797f000000000000000000000000000000000000000000000000000000000000000081565b61020f61036b366004611066565b610d12565b61031d61037e366004611299565b63f23a6e6160e01b95945050505050565b5f61039982610d36565b92915050565b6103d76040518060a001604052805f6001600160a01b031681526020015f81526020015f81526020015f81526020015f151581525090565b5f82815260026020818152604092839020835160a08101855281546001600160a01b031681526001820154928101929092529182015492810192909252600381015460608301526004015460ff161515608082018190526103995760405163324cf4ef60e21b815260040160405180910390fd5b6104836040518060a001604052805f6001600160a01b031681526020015f81526020015f81526020015f81526020015f151581525090565b505f90815260026020818152604092839020835160a08101855281546001600160a01b031681526001820154928101929092529182015492810192909252600381015460608301526004015460ff161515608082015290565b6104e4610d5a565b6104ec610d80565b805f0361050c5760405163247efccf60e11b815260040160405180910390fd5b5f82815260026020526040902080546001600160a01b03166105415760405163e9891b5360e01b815260040160405180910390fd5b600481015460ff166105665760405163324cf4ef60e21b815260040160405180910390fd5b818160020154101561058b576040516327dc8bc160e21b815260040160405180910390fd5b5f82826003015461059c9190611301565b6040516370a0823160e01b81523360048201529091505f906001600160a01b037f000000000000000000000000000000000000000000000000000000000000000016906370a0823190602401602060405180830381865afa158015610603573d5f5f3e3d5ffd5b505050506040513d601f19601f820116820180604052508101906106279190611318565b90508181101561064a57604051630e33fdd960e21b815260040160405180910390fd5b604051636eb1769f60e11b81523360048201523060248201525f907f00000000000000000000000000000000000000000000000000000000000000006001600160a01b03169063dd62ed3e90604401602060405180830381865afa1580156106b4573d5f5f3e3d5ffd5b505050506040513d601f19601f820116820180604052508101906106d89190611318565b9050828110156106fb576040516303be262160e41b815260040160405180910390fd5b84846002015f82825461070e919061132f565b909155505060028401545f0361072b5760048401805460ff191690555b83546040516323b872dd60e01b81523360048201526001600160a01b039182166024820152604481018590525f917f000000000000000000000000000000000000000000000000000000000000000016906323b872dd906064016020604051808303815f875af11580156107a1573d5f5f3e3d5ffd5b505050506040513d601f19601f820116820180604052508101906107c59190611342565b9050806107e557604051632db4922f60e21b815260040160405180910390fd5b6001850154604051637921219560e11b81526001600160a01b037f0000000000000000000000000000000000000000000000000000000000000000169163f242432a9161083b9130913391908c90600401611361565b5f604051808303815f87803b158015610852575f5ffd5b505af1158015610864573d5f5f3e3d5ffd5b50508654600188015460408051918252602082018b905281018890526001600160a01b03909116925033915089907fb3556955a489fb1ff1cf2ce48ea54f262b9cb31e1e22a13f66142172e71cb52f9060600160405180910390a460028501541561090857867f66bcde9f7aec9b81719a4fdec54cbafbf6c834d1f2f989d9cd2134dab8d0c0de86600201546040516108ff91815260200190565b60405180910390a25b505050505061092360015f5160206113b15f395f51905f5255565b5050565b5f8281526020819052604090206001015461094181610d9b565b61094b8383610da5565b50505050565b610959610d80565b5f81815260026020526040902080546001600160a01b031661098e5760405163e9891b5360e01b815260040160405180910390fd5b80546001600160a01b031633146109b857604051630f41436b60e21b815260040160405180910390fd5b600481015460ff166109dd5760405163324cf4ef60e21b815260040160405180910390fd5b60018101546002820180546004808501805460ff191690555f909255604051637921219560e11b815290916001600160a01b037f0000000000000000000000000000000000000000000000000000000000000000169163f242432a91610a4b91309133918891889101611361565b5f604051808303815f87803b158015610a62575f5ffd5b505af1158015610a74573d5f5f3e3d5ffd5b505060408051858152602081018590523393508792507f587f221a465f70749f0226b8dd00e01725d2fc0a7cb46475c600f1a81f1849c3910160405180910390a3505050610ace60015f5160206113b15f395f51905f5255565b50565b6001600160a01b0381163314610afa5760405163334bd91960e11b815260040160405180910390fd5b610b048282610e34565b505050565b5f610b1381610d9b565b610ace610e9d565b5f610b2581610d9b565b610ace610eef565b5f918252602082815260408084206001600160a01b0393909316845291905290205460ff1690565b5f610b5e610d5a565b610b66610d80565b825f03610b865760405163247efccf60e11b815260040160405180910390fd5b815f03610ba65760405163c992dc8f60e01b815260040160405180910390fd5b60038054905f610bb583611398565b909155506040805160a081018252338082526020808301898152838501898152606085018981526001608087018181525f8a8152600296879052899020975188546001600160a01b0319166001600160a01b039182161789559451918801919091559151938601939093559151600385015590516004938401805460ff19169115159190911790559251637921219560e11b81529394507f00000000000000000000000000000000000000000000000000000000000000009092169263f242432a92610c8992909130918a918a9101611361565b5f604051808303815f87803b158015610ca0575f5ffd5b505af1158015610cb2573d5f5f3e3d5ffd5b5050604080518681526020810186905287935033925084917fa3941cfa07eecf2734875ab71cea0e47395be644da6e17b039a7e29efba74ef9910160405180910390a4610d0b60015f5160206113b15f395f51905f5255565b9392505050565b5f82815260208190526040902060010154610d2c81610d9b565b61094b8383610e34565b5f6001600160e01b03198216630271189760e51b1480610399575061039982610f2a565b60015460ff1615610d7e5760405163d93c066560e01b815260040160405180910390fd5b565b610d88610f5e565b60025f5160206113b15f395f51905f5255565b610ace8133610f8d565b5f610db08383610b2d565b610e2d575f838152602081815260408083206001600160a01b03861684529091529020805460ff19166001179055610de53390565b6001600160a01b0316826001600160a01b0316847f2f8788117e7eff1d82e926ec794901d17c78024a50270940304540a733656f0d60405160405180910390a4506001610399565b505f610399565b5f610e3f8383610b2d565b15610e2d575f838152602081815260408083206001600160a01b0386168085529252808320805460ff1916905551339286917ff6391f5c32d9c69d2a47ea670b442974b53935d1edc7fd64eb21e047a839171b9190a4506001610399565b610ea5610fca565b6001805460ff191690557f5db9ee0a495bf2e6ff9c91a7834c1ba4fdd244a5e8aa4e537bd38aeae4b073aa335b6040516001600160a01b03909116815260200160405180910390a1565b610ef7610d5a565b6001805460ff1916811790557f62e78cea01bee320cd4e420270b5ea74000d11b0c9f74754ebdbfc544b05a25833610ed2565b5f6001600160e01b03198216637965db0b60e01b148061039957506301ffc9a760e01b6001600160e01b0319831614610399565b5f5160206113b15f395f51905f5254600203610d7e57604051633ee5aeb560e01b815260040160405180910390fd5b610f978282610b2d565b6109235760405163e2517d3f60e01b81526001600160a01b03821660048201526024810183905260440160405180910390fd5b60015460ff16610d7e57604051638dfc202b60e01b815260040160405180910390fd5b5f60208284031215610ffd575f5ffd5b81356001600160e01b031981168114610d0b575f5ffd5b5f60208284031215611024575f5ffd5b5035919050565b5f5f6040838503121561103c575f5ffd5b50508035926020909101359150565b80356001600160a01b0381168114611061575f5ffd5b919050565b5f5f60408385031215611077575f5ffd5b823591506110876020840161104b565b90509250929050565b5f5f5f606084860312156110a2575f5ffd5b505081359360208301359350604090920135919050565b634e487b7160e01b5f52604160045260245ffd5b604051601f8201601f1916810167ffffffffffffffff811182821017156110f6576110f66110b9565b604052919050565b5f82601f83011261110d575f5ffd5b813567ffffffffffffffff811115611127576111276110b9565b8060051b611137602082016110cd565b91825260208185018101929081019086841115611152575f5ffd5b6020860192505b83831015611174578235825260209283019290910190611159565b9695505050505050565b5f82601f83011261118d575f5ffd5b813567ffffffffffffffff8111156111a7576111a76110b9565b6111ba601f8201601f19166020016110cd565b8181528460208386010111156111ce575f5ffd5b816020850160208301375f918101602001919091529392505050565b5f5f5f5f5f60a086880312156111fe575f5ffd5b6112078661104b565b94506112156020870161104b565b9350604086013567ffffffffffffffff811115611230575f5ffd5b61123c888289016110fe565b935050606086013567ffffffffffffffff811115611258575f5ffd5b611264888289016110fe565b925050608086013567ffffffffffffffff811115611280575f5ffd5b61128c8882890161117e565b9150509295509295909350565b5f5f5f5f5f60a086880312156112ad575f5ffd5b6112b68661104b565b94506112c46020870161104b565b93506040860135925060608601359150608086013567ffffffffffffffff811115611280575f5ffd5b634e487b7160e01b5f52601160045260245ffd5b8082028115828204841417610399576103996112ed565b5f60208284031215611328575f5ffd5b5051919050565b81810381811115610399576103996112ed565b5f60208284031215611352575f5ffd5b81518015158114610d0b575f5ffd5b6001600160a01b0394851681529290931660208301526040820152606081019190915260a0608082018190525f9082015260c00190565b5f600182016113a9576113a96112ed565b506001019056fe9b779b17422d0df92223018b32b4d1fa46e071723d6817e2486d003becc55f00a26469706673582212205c4637a7bc68a3fc7c1373ba9c55e48d60f37e2c76a1682827688a58fe35ffee64736f6c634300081e00330000000000000000000000002cf8f433e60a0586c3f228d13038ee9f219c61880000000000000000000000003eb95efcdc5b021d64f96739c81e43d45d222c38",
        "nonce": "0x75",
        "chainId": "0xaa36a7"
      },
      "additionalContracts": [],
      "isFixedGasLimit": false
    },
    {
      "hash": "0x3c41397355ddea3386fd853c6af5be0cecb07fb262e52c090732f61d3e7b54a4",
      "transactionType": "CALL",
      "contractName": "FinancialAssets",
      "contractAddress": "0x3eb95efcdc5b021d64f96739c81e43d45d222c38",
      "function": "setPrimaryMarket(address)",
      "arguments": [
        "0x93b54F5317602c4Dda3C77eB5a491A8D230FC004"
      ],
      "transaction": {
        "from": "0xe30f5d336931186dd86b5c9426fd4493c34a5c5d",
        "to": "0x3eb95efcdc5b021d64f96739c81e43d45d222c38",
        "gas": "0x111c4",
        "value": "0x0",
        "input": "0xe2dc366600000000000000000000000093b54f5317602c4dda3c77eb5a491a8d230fc004",
        "nonce": "0x76",
        "chainId": "0xaa36a7"
      },
      "additionalContracts": [],
      "isFixedGasLimit": false
    },
    {
      "hash": "0x673d2b69680bb973d90372764b3b8120e00c1ae460d8bbde34e5e524aeebabeb",
      "transactionType": "CALL",
      "contractName": "FinancialAssets",
      "contractAddress": "0x3eb95efcdc5b021d64f96739c81e43d45d222c38",
      "function": "createAssetType(uint256,string,string)",
      "arguments": [
        "0",
        "Nexus Technology Fund",
        "TECH"
      ],
      "transaction": {
        "from": "0xe30f5d336931186dd86b5c9426fd4493c34a5c5d",
        "to": "0x3eb95efcdc5b021d64f96739c81e43d45d222c38",
        "gas": "0x20994",
        "value": "0x0",
        "input": "0x19a8413f0000000000000000000000000000000000000000000000000000000000000000000000000000000000000000000000000000000000000000000000000000006000000000000000000000000000000000000000000000000000000000000000a000000000000000000000000000000000000000000000000000000000000000154e6578757320546563686e6f6c6f67792046756e64000000000000000000000000000000000000000000000000000000000000000000000000000000000000045445434800000000000000000000000000000000000000000000000000000000",
        "nonce": "0x77",
        "chainId": "0xaa36a7"
      },
      "additionalContracts": [],
      "isFixedGasLimit": false
    },
    {
      "hash": "0x98f009bc6205aba9f52e3c72b04fd925ffe8e15c531a1c7ff0e52cf3ce7139e3",
      "transactionType": "CALL",
      "contractName": "FinancialAssets",
      "contractAddress": "0x3eb95efcdc5b021d64f96739c81e43d45d222c38",
      "function": "createAssetType(uint256,string,string)",
      "arguments": [
        "1",
        "Goldstone Precious Metals Fund",
        "GOLD"
      ],
      "transaction": {
        "from": "0xe30f5d336931186dd86b5c9426fd4493c34a5c5d",
        "to": "0x3eb95efcdc5b021d64f96739c81e43d45d222c38",
        "gas": "0x1c742",
        "value": "0x0",
        "input": "0x19a8413f0000000000000000000000000000000000000000000000000000000000000001000000000000000000000000000000000000000000000000000000000000006000000000000000000000000000000000000000000000000000000000000000a0000000000000000000000000000000000000000000000000000000000000001e476f6c6473746f6e652050726563696f7573204d6574616c732046756e6400000000000000000000000000000000000000000000000000000000000000000004474f4c4400000000000000000000000000000000000000000000000000000000",
        "nonce": "0x78",
        "chainId": "0xaa36a7"
      },
      "additionalContracts": [],
      "isFixedGasLimit": false
    },
    {
      "hash": "0x8c746f2e5889d83e268e8e23d6ea320cf4720d32d35b176d64eb7f9034e417d2",
      "transactionType": "CALL",
      "contractName": "FinancialAssets",
      "contractAddress": "0x3eb95efcdc5b021d64f96739c81e43d45d222c38",
      "function": "createAssetType(uint256,string,string)",
      "arguments": [
        "2",
        "Apex Real Estate Capital Fund",
        "REAL"
      ],
      "transaction": {
        "from": "0xe30f5d336931186dd86b5c9426fd4493c34a5c5d",
        "to": "0x3eb95efcdc5b021d64f96739c81e43d45d222c38",
        "gas": "0x1ade6",
        "value": "0x0",
        "input": "0x19a8413f0000000000000000000000000000000000000000000000000000000000000002000000000000000000000000000000000000000000000000000000000000006000000000000000000000000000000000000000000000000000000000000000a0000000000000000000000000000000000000000000000000000000000000001d41706578205265616c20457374617465204361706974616c2046756e6400000000000000000000000000000000000000000000000000000000000000000000045245414c00000000000000000000000000000000000000000000000000000000",
        "nonce": "0x79",
        "chainId": "0xaa36a7"
      },
      "additionalContracts": [],
      "isFixedGasLimit": false
    },
    {
      "hash": "0x1b852c3e02814ba7833bb7def3d2964b49895b6a96628c4d127d7e4deab84cce",
      "transactionType": "CALL",
      "contractName": "FinancialAssets",
      "contractAddress": "0x3eb95efcdc5b021d64f96739c81e43d45d222c38",
      "function": "createAssetType(uint256,string,string)",
      "arguments": [
        "3",
        "Green Future Sustainable Energy Fund",
        "GREEN"
      ],
      "transaction": {
        "from": "0xe30f5d336931186dd86b5c9426fd4493c34a5c5d",
        "to": "0x3eb95efcdc5b021d64f96739c81e43d45d222c38",
        "gas": "0x2a004",
        "value": "0x0",
        "input": "0x19a8413f0000000000000000000000000000000000000000000000000000000000000003000000000000000000000000000000000000000000000000000000000000006000000000000000000000000000000000000000000000000000000000000000c00000000000000000000000000000000000000000000000000000000000000024477265656e20467574757265205375737461696e61626c6520456e657267792046756e64000000000000000000000000000000000000000000000000000000000000000000000000000000000000000000000000000000000000000000000005475245454e000000000000000000000000000000000000000000000000000000",
        "nonce": "0x7a",
        "chainId": "0xaa36a7"
      },
      "additionalContracts": [],
      "isFixedGasLimit": false
    },
    {
      "hash": "0xfbc3fb7a1351d2c698633db7669a288c52483a07231814b322911e0ee2257f2f",
      "transactionType": "CALL",
      "contractName": "FinancialAssets",
      "contractAddress": "0x3eb95efcdc5b021d64f96739c81e43d45d222c38",
      "function": "createAssetType(uint256,string,string)",
      "arguments": [
        "4",
        "MediCare Healthcare & Biotech Fund",
        "HEALTH"
      ],
      "transaction": {
        "from": "0xe30f5d336931186dd86b5c9426fd4493c34a5c5d",
        "to": "0x3eb95efcdc5b021d64f96739c81e43d45d222c38",
        "gas": "0x29ff3",
        "value": "0x0",
        "input": "0x19a8413f0000000000000000000000000000000000000000000000000000000000000004000000000000000000000000000000000000000000000000000000000000006000000000000000000000000000000000000000000000000000000000000000c000000000000000000000000000000000000000000000000000000000000000224d65646943617265204865616c74686361726520262042696f746563682046756e6400000000000000000000000000000000000000000000000000000000000000000000000000000000000000000000000000000000000000000000000000064845414c54480000000000000000000000000000000000000000000000000000",
        "nonce": "0x7b",
        "chainId": "0xaa36a7"
      },
      "additionalContracts": [],
      "isFixedGasLimit": false
    },
    {
      "hash": "0xfde013cf9b32b068e18e9dc47531ff59e33f3051cd2e1f46383a80fd3e03c7fe",
      "transactionType": "CALL",
      "contractName": "FinancialAssets",
      "contractAddress": "0x3eb95efcdc5b021d64f96739c81e43d45d222c38",
      "function": "mint(uint256,uint256)",
      "arguments": [
        "0",
        "1000"
      ],
      "transaction": {
        "from": "0xe30f5d336931186dd86b5c9426fd4493c34a5c5d",
        "to": "0x3eb95efcdc5b021d64f96739c81e43d45d222c38",
        "gas": "0x23ab4",
        "value": "0x0",
        "input": "0x1b2ef1ca000000000000000000000000000000000000000000000000000000000000000000000000000000000000000000000000000000000000000000000000000003e8",
        "nonce": "0x7c",
        "chainId": "0xaa36a7"
      },
      "additionalContracts": [],
      "isFixedGasLimit": false
    },
    {
      "hash": "0x7e57ccf138b6b75631d01976d97260a03691cc3f4a696565920b981ce6109c14",
      "transactionType": "CALL",
      "contractName": "FinancialAssets",
      "contractAddress": "0x3eb95efcdc5b021d64f96739c81e43d45d222c38",
      "function": "mint(uint256,uint256)",
      "arguments": [
        "1",
        "500"
      ],
      "transaction": {
        "from": "0xe30f5d336931186dd86b5c9426fd4493c34a5c5d",
        "to": "0x3eb95efcdc5b021d64f96739c81e43d45d222c38",
        "gas": "0x1de81",
        "value": "0x0",
        "input": "0x1b2ef1ca000000000000000000000000000000000000000000000000000000000000000100000000000000000000000000000000000000000000000000000000000001f4",
        "nonce": "0x7d",
        "chainId": "0xaa36a7"
      },
      "additionalContracts": [],
      "isFixedGasLimit": false
    },
    {
      "hash": "0x7e83163f4200e8f33741dad7e15ca46c7839711bb973877a8e25ef54ff39bc5b",
      "transactionType": "CALL",
      "contractName": "FinancialAssets",
      "contractAddress": "0x3eb95efcdc5b021d64f96739c81e43d45d222c38",
      "function": "mint(uint256,uint256)",
      "arguments": [
        "2",
        "750"
      ],
      "transaction": {
        "from": "0xe30f5d336931186dd86b5c9426fd4493c34a5c5d",
        "to": "0x3eb95efcdc5b021d64f96739c81e43d45d222c38",
        "gas": "0x1de81",
        "value": "0x0",
        "input": "0x1b2ef1ca000000000000000000000000000000000000000000000000000000000000000200000000000000000000000000000000000000000000000000000000000002ee",
        "nonce": "0x7e",
        "chainId": "0xaa36a7"
      },
      "additionalContracts": [],
      "isFixedGasLimit": false
    },
    {
      "hash": "0xf6496f79c01bbc1ced7dd405e9c2fd021b22675d2a60da86ce526946666fb0aa",
      "transactionType": "CALL",
      "contractName": "FinancialAssets",
      "contractAddress": "0x3eb95efcdc5b021d64f96739c81e43d45d222c38",
      "function": "mint(uint256,uint256)",
      "arguments": [
        "3",
        "800"
      ],
      "transaction": {
        "from": "0xe30f5d336931186dd86b5c9426fd4493c34a5c5d",
        "to": "0x3eb95efcdc5b021d64f96739c81e43d45d222c38",
        "gas": "0x1fa94",
        "value": "0x0",
        "input": "0x1b2ef1ca00000000000000000000000000000000000000000000000000000000000000030000000000000000000000000000000000000000000000000000000000000320",
        "nonce": "0x7f",
        "chainId": "0xaa36a7"
      },
      "additionalContracts": [],
      "isFixedGasLimit": false
    },
    {
      "hash": "0xc7895d97daab1df26c736b771a8431488545c98c92309f523464b4dcc3d0fcc9",
      "transactionType": "CALL",
      "contractName": "FinancialAssets",
      "contractAddress": "0x3eb95efcdc5b021d64f96739c81e43d45d222c38",
      "function": "mint(uint256,uint256)",
      "arguments": [
        "4",
        "600"
      ],
      "transaction": {
        "from": "0xe30f5d336931186dd86b5c9426fd4493c34a5c5d",
        "to": "0x3eb95efcdc5b021d64f96739c81e43d45d222c38",
        "gas": "0x1fa94",
        "value": "0x0",
        "input": "0x1b2ef1ca00000000000000000000000000000000000000000000000000000000000000040000000000000000000000000000000000000000000000000000000000000258",
        "nonce": "0x80",
        "chainId": "0xaa36a7"
      },
      "additionalContracts": [],
      "isFixedGasLimit": false
    },
    {
      "hash": "0x9a4089c9fe2dae0f629ae25fe7002ecfd0d3a66e9b796a13da2077d481d28937",
      "transactionType": "CALL",
      "contractName": "PrimaryMarket",
      "contractAddress": "0x93b54f5317602c4dda3c77eb5a491a8d230fc004",
      "function": "configureAsset(uint256,uint256)",
      "arguments": [
        "0",
        "100000000"
      ],
      "transaction": {
        "from": "0xe30f5d336931186dd86b5c9426fd4493c34a5c5d",
        "to": "0x93b54f5317602c4dda3c77eb5a491a8d230fc004",
        "gas": "0x10189",
        "value": "0x0",
        "input": "0xc0aab76500000000000000000000000000000000000000000000000000000000000000000000000000000000000000000000000000000000000000000000000005f5e100",
        "nonce": "0x81",
        "chainId": "0xaa36a7"
      },
      "additionalContracts": [],
      "isFixedGasLimit": false
    },
    {
      "hash": "0xfda35665f39a9524d57e99756d18735b50298fd67f9006cb3f5223c2e3074d67",
      "transactionType": "CALL",
      "contractName": "PrimaryMarket",
      "contractAddress": "0x93b54f5317602c4dda3c77eb5a491a8d230fc004",
      "function": "configureAsset(uint256,uint256)",
      "arguments": [
        "1",
        "200000000"
      ],
      "transaction": {
        "from": "0xe30f5d336931186dd86b5c9426fd4493c34a5c5d",
        "to": "0x93b54f5317602c4dda3c77eb5a491a8d230fc004",
        "gas": "0x1019a",
        "value": "0x0",
        "input": "0xc0aab7650000000000000000000000000000000000000000000000000000000000000001000000000000000000000000000000000000000000000000000000000bebc200",
        "nonce": "0x82",
        "chainId": "0xaa36a7"
      },
      "additionalContracts": [],
      "isFixedGasLimit": false
    },
    {
      "hash": "0x4218d06e7f9d88c23a19d68db28a996b524d25ada301f690f91b3a9d34c59551",
      "transactionType": "CALL",
      "contractName": "PrimaryMarket",
      "contractAddress": "0x93b54f5317602c4dda3c77eb5a491a8d230fc004",
      "function": "configureAsset(uint256,uint256)",
      "arguments": [
        "2",
        "150000000"
      ],
      "transaction": {
        "from": "0xe30f5d336931186dd86b5c9426fd4493c34a5c5d",
        "to": "0x93b54f5317602c4dda3c77eb5a491a8d230fc004",
        "gas": "0x101aa",
        "value": "0x0",
        "input": "0xc0aab76500000000000000000000000000000000000000000000000000000000000000020000000000000000000000000000000000000000000000000000000008f0d180",
        "nonce": "0x83",
        "chainId": "0xaa36a7"
      },
      "additionalContracts": [],
      "isFixedGasLimit": false
    },
    {
      "hash": "0xe4b2a4cf693a899da9a52188261c92d1d7aa556a173b04a5751b38a3da4dafe5",
      "transactionType": "CALL",
      "contractName": "PrimaryMarket",
      "contractAddress": "0x93b54f5317602c4dda3c77eb5a491a8d230fc004",
      "function": "configureAsset(uint256,uint256)",
      "arguments": [
        "3",
        "80000000"
      ],
      "transaction": {
        "from": "0xe30f5d336931186dd86b5c9426fd4493c34a5c5d",
        "to": "0x93b54f5317602c4dda3c77eb5a491a8d230fc004",
        "gas": "0x1019a",
        "value": "0x0",
        "input": "0xc0aab76500000000000000000000000000000000000000000000000000000000000000030000000000000000000000000000000000000000000000000000000004c4b400",
        "nonce": "0x84",
        "chainId": "0xaa36a7"
      },
      "additionalContracts": [],
      "isFixedGasLimit": false
    },
    {
      "hash": "0x7c07d13660e35b90013a20c8d071e4fe9ca4f360f088616ef635d704f336c61d",
      "transactionType": "CALL",
      "contractName": "PrimaryMarket",
      "contractAddress": "0x93b54f5317602c4dda3c77eb5a491a8d230fc004",
      "function": "configureAsset(uint256,uint256)",
      "arguments": [
        "4",
        "250000000"
      ],
      "transaction": {
        "from": "0xe30f5d336931186dd86b5c9426fd4493c34a5c5d",
        "to": "0x93b54f5317602c4dda3c77eb5a491a8d230fc004",
        "gas": "0x101aa",
        "value": "0x0",
        "input": "0xc0aab7650000000000000000000000000000000000000000000000000000000000000004000000000000000000000000000000000000000000000000000000000ee6b280",
        "nonce": "0x85",
        "chainId": "0xaa36a7"
      },
      "additionalContracts": [],
      "isFixedGasLimit": false
    },
    {
      "hash": "0xaf78851f5300e1b2c7e2d4e5dcdf500e0ac2956b5fc01a4b38a9a7c532fe38f4",
      "transactionType": "CALL",
      "contractName": "DigitalEuro",
      "contractAddress": "0x2cf8f433e60a0586c3f228d13038ee9f219c6188",
      "function": "mint(address,uint256)",
      "arguments": [
        "0x6Fc2Fbb2973E592EB6f932a10b3e72eeaA3113C0",
        "50000000000"
      ],
      "transaction": {
        "from": "0xe30f5d336931186dd86b5c9426fd4493c34a5c5d",
        "to": "0x2cf8f433e60a0586c3f228d13038ee9f219c6188",
        "gas": "0x19cf0",
        "value": "0x0",
        "input": "0x40c10f190000000000000000000000006fc2fbb2973e592eb6f932a10b3e72eeaa3113c00000000000000000000000000000000000000000000000000000000ba43b7400",
        "nonce": "0x86",
        "chainId": "0xaa36a7"
      },
      "additionalContracts": [],
      "isFixedGasLimit": false
    },
    {
      "hash": "0x7ceea34d2e4fd5c3fd78eeb213df2ff34573b1903fdfbc976e86d9f9259a3f78",
      "transactionType": "CALL",
      "contractName": "DigitalEuro",
      "contractAddress": "0x2cf8f433e60a0586c3f228d13038ee9f219c6188",
      "function": "mint(address,uint256)",
      "arguments": [
        "0xdE4a466B7441357E1137A1a1E311bD70c1439eCB",
        "30000000000"
      ],
      "transaction": {
        "from": "0xe30f5d336931186dd86b5c9426fd4493c34a5c5d",
        "to": "0x2cf8f433e60a0586c3f228d13038ee9f219c6188",
        "gas": "0x129bb",
        "value": "0x0",
        "input": "0x40c10f19000000000000000000000000de4a466b7441357e1137a1a1e311bd70c1439ecb00000000000000000000000000000000000000000000000000000006fc23ac00",
        "nonce": "0x87",
        "chainId": "0xaa36a7"
      },
      "additionalContracts": [],
      "isFixedGasLimit": false
    },
    {
      "hash": "0xb8b630a3e03e56ea81d8f567bb8766e64516cb590c6b93f28bf62a20fea3445f",
      "transactionType": "CALL",
      "contractName": "DigitalEuro",
      "contractAddress": "0x2cf8f433e60a0586c3f228d13038ee9f219c6188",
      "function": "mint(address,uint256)",
      "arguments": [
        "0xac75578bBdd3C830B32F2De2B8E2a4fA36996082",
        "40000000000"
      ],
      "transaction": {
        "from": "0xe30f5d336931186dd86b5c9426fd4493c34a5c5d",
        "to": "0x2cf8f433e60a0586c3f228d13038ee9f219c6188",
        "gas": "0x129bb",
        "value": "0x0",
        "input": "0x40c10f19000000000000000000000000ac75578bbdd3c830b32f2de2b8e2a4fa3699608200000000000000000000000000000000000000000000000000000009502f9000",
        "nonce": "0x88",
        "chainId": "0xaa36a7"
      },
      "additionalContracts": [],
      "isFixedGasLimit": false
    },
    {
      "hash": "0x9859dbf250cc8570232ff25ccdf618f9df1f8cf86a5b72f3c827dba9bbec48ba",
      "transactionType": "CALL",
      "contractName": "DigitalEuro",
      "contractAddress": "0x2cf8f433e60a0586c3f228d13038ee9f219c6188",
      "function": "approve(address,uint256)",
      "arguments": [
        "0x93b54F5317602c4Dda3C77eB5a491A8D230FC004",
        "30000000000"
      ],
      "transaction": {
        "from": "0x6fc2fbb2973e592eb6f932a10b3e72eeaa3113c0",
        "to": "0x2cf8f433e60a0586c3f228d13038ee9f219c6188",
        "gas": "0xfa33",
        "value": "0x0",
        "input": "0x095ea7b300000000000000000000000093b54f5317602c4dda3c77eb5a491a8d230fc00400000000000000000000000000000000000000000000000000000006fc23ac00",
        "nonce": "0x10",
        "chainId": "0xaa36a7"
      },
      "additionalContracts": [],
      "isFixedGasLimit": false
    },
    {
      "hash": "0x27a58160c04a89ad64e210757e7d1c4f1f8055c7cab8829ca1c05c2d9a7e876c",
      "transactionType": "CALL",
      "contractName": "PrimaryMarket",
      "contractAddress": "0x93b54f5317602c4dda3c77eb5a491a8d230fc004",
      "function": "buyAsset(uint256,uint256)",
      "arguments": [
        "0",
        "100"
      ],
      "transaction": {
        "from": "0x6fc2fbb2973e592eb6f932a10b3e72eeaa3113c0",
        "to": "0x93b54f5317602c4dda3c77eb5a491a8d230fc004",
        "gas": "0x255e6",
        "value": "0x0",
        "input": "0x09b69e8d00000000000000000000000000000000000000000000000000000000000000000000000000000000000000000000000000000000000000000000000000000064",
        "nonce": "0x11",
        "chainId": "0xaa36a7"
      },
      "additionalContracts": [],
      "isFixedGasLimit": false
    },
    {
      "hash": "0x720832013a0eb6f6ee50aa8932d780c86dfc6a40700e36b465e84bf459bccd6a",
      "transactionType": "CALL",
      "contractName": "PrimaryMarket",
      "contractAddress": "0x93b54f5317602c4dda3c77eb5a491a8d230fc004",
      "function": "buyAsset(uint256,uint256)",
      "arguments": [
        "1",
        "50"
      ],
      "transaction": {
        "from": "0x6fc2fbb2973e592eb6f932a10b3e72eeaa3113c0",
        "to": "0x93b54f5317602c4dda3c77eb5a491a8d230fc004",
        "gas": "0x1f446",
        "value": "0x0",
        "input": "0x09b69e8d00000000000000000000000000000000000000000000000000000000000000010000000000000000000000000000000000000000000000000000000000000032",
        "nonce": "0x12",
        "chainId": "0xaa36a7"
      },
      "additionalContracts": [],
      "isFixedGasLimit": false
    },
    {
      "hash": "0xf5cf79e3b942108e2d47f6353653cfcc4e5b7c80491c8d00247be5a4980d9430",
      "transactionType": "CALL",
      "contractName": "DigitalEuro",
      "contractAddress": "0x2cf8f433e60a0586c3f228d13038ee9f219c6188",
      "function": "approve(address,uint256)",
      "arguments": [
        "0x93b54F5317602c4Dda3C77eB5a491A8D230FC004",
        "25000000000"
      ],
      "transaction": {
        "from": "0xde4a466b7441357e1137a1a1e311bd70c1439ecb",
        "to": "0x2cf8f433e60a0586c3f228d13038ee9f219c6188",
        "gas": "0xfa33",
        "value": "0x0",
        "input": "0x095ea7b300000000000000000000000093b54f5317602c4dda3c77eb5a491a8d230fc00400000000000000000000000000000000000000000000000000000005d21dba00",
        "nonce": "0x15",
        "chainId": "0xaa36a7"
      },
      "additionalContracts": [],
      "isFixedGasLimit": false
    },
    {
      "hash": "0x416075e7c1ca6f4b6b7a9bf84a2dba26d202c6303530d7e59b384ea6f653146e",
      "transactionType": "CALL",
      "contractName": "PrimaryMarket",
      "contractAddress": "0x93b54f5317602c4dda3c77eb5a491a8d230fc004",
      "function": "buyAsset(uint256,uint256)",
      "arguments": [
        "3",
        "100"
      ],
      "transaction": {
        "from": "0xde4a466b7441357e1137a1a1e311bd70c1439ecb",
        "to": "0x93b54f5317602c4dda3c77eb5a491a8d230fc004",
        "gas": "0x1f446",
        "value": "0x0",
        "input": "0x09b69e8d00000000000000000000000000000000000000000000000000000000000000030000000000000000000000000000000000000000000000000000000000000064",
        "nonce": "0x16",
        "chainId": "0xaa36a7"
      },
      "additionalContracts": [],
      "isFixedGasLimit": false
    },
    {
      "hash": "0x050b4f76844ce40d0e7fd65e17220cf3686b8cbe1b8c69e5afe18e8ce8120d7a",
      "transactionType": "CALL",
      "contractName": "PrimaryMarket",
      "contractAddress": "0x93b54f5317602c4dda3c77eb5a491a8d230fc004",
      "function": "buyAsset(uint256,uint256)",
      "arguments": [
        "2",
        "80"
      ],
      "transaction": {
        "from": "0xde4a466b7441357e1137a1a1e311bd70c1439ecb",
        "to": "0x93b54f5317602c4dda3c77eb5a491a8d230fc004",
        "gas": "0x1f446",
        "value": "0x0",
        "input": "0x09b69e8d00000000000000000000000000000000000000000000000000000000000000020000000000000000000000000000000000000000000000000000000000000050",
        "nonce": "0x17",
        "chainId": "0xaa36a7"
      },
      "additionalContracts": [],
      "isFixedGasLimit": false
    },
    {
      "hash": "0x56776bd91bfcb276f115959da36a84a0c4a16395f172d53936c256732d6dddec",
      "transactionType": "CALL",
      "contractName": "DigitalEuro",
      "contractAddress": "0x2cf8f433e60a0586c3f228d13038ee9f219c6188",
      "function": "approve(address,uint256)",
      "arguments": [
        "0x93b54F5317602c4Dda3C77eB5a491A8D230FC004",
        "35000000000"
      ],
      "transaction": {
        "from": "0xac75578bbdd3c830b32f2de2b8e2a4fa36996082",
        "to": "0x2cf8f433e60a0586c3f228d13038ee9f219c6188",
        "gas": "0xfa33",
        "value": "0x0",
        "input": "0x095ea7b300000000000000000000000093b54f5317602c4dda3c77eb5a491a8d230fc0040000000000000000000000000000000000000000000000000000000826299e00",
        "nonce": "0x12",
        "chainId": "0xaa36a7"
      },
      "additionalContracts": [],
      "isFixedGasLimit": false
    },
    {
      "hash": "0xe5558578ea7a8d7e55ef4eecbd7a4cd8af7ec46c17fe4f8c043b32ff86345eab",
      "transactionType": "CALL",
      "contractName": "PrimaryMarket",
      "contractAddress": "0x93b54f5317602c4dda3c77eb5a491a8d230fc004",
      "function": "buyAsset(uint256,uint256)",
      "arguments": [
        "4",
        "60"
      ],
      "transaction": {
        "from": "0xac75578bbdd3c830b32f2de2b8e2a4fa36996082",
        "to": "0x93b54f5317602c4dda3c77eb5a491a8d230fc004",
        "gas": "0x1f446",
        "value": "0x0",
        "input": "0x09b69e8d0000000000000000000000000000000000000000000000000000000000000004000000000000000000000000000000000000000000000000000000000000003c",
        "nonce": "0x13",
        "chainId": "0xaa36a7"
      },
      "additionalContracts": [],
      "isFixedGasLimit": false
    },
    {
      "hash": "0x1bcc967ec82944c96643d45dd26e9abfbb7cef3b0ee47c42d6639ff64c66356b",
      "transactionType": "CALL",
      "contractName": "PrimaryMarket",
      "contractAddress": "0x93b54f5317602c4dda3c77eb5a491a8d230fc004",
      "function": "buyAsset(uint256,uint256)",
      "arguments": [
        "1",
        "30"
      ],
      "transaction": {
        "from": "0xac75578bbdd3c830b32f2de2b8e2a4fa36996082",
        "to": "0x93b54f5317602c4dda3c77eb5a491a8d230fc004",
        "gas": "0x1f446",
        "value": "0x0",
        "input": "0x09b69e8d0000000000000000000000000000000000000000000000000000000000000001000000000000000000000000000000000000000000000000000000000000001e",
        "nonce": "0x14",
        "chainId": "0xaa36a7"
      },
      "additionalContracts": [],
      "isFixedGasLimit": false
    },
    {
      "hash": "0x673342ecf20d2d9b37a996f12cfe292071cfe0fd9fc9c5739cfc13960f74c436",
      "transactionType": "CALL",
      "contractName": "PrimaryMarket",
      "contractAddress": "0x93b54f5317602c4dda3c77eb5a491a8d230fc004",
      "function": "buyAsset(uint256,uint256)",
      "arguments": [
        "0",
        "50"
      ],
      "transaction": {
        "from": "0xac75578bbdd3c830b32f2de2b8e2a4fa36996082",
        "to": "0x93b54f5317602c4dda3c77eb5a491a8d230fc004",
        "gas": "0x1d86b",
        "value": "0x0",
        "input": "0x09b69e8d00000000000000000000000000000000000000000000000000000000000000000000000000000000000000000000000000000000000000000000000000000032",
        "nonce": "0x15",
        "chainId": "0xaa36a7"
      },
      "additionalContracts": [],
      "isFixedGasLimit": false
    },
    {
      "hash": "0xc8e68004bcf83731daa8a6ba4db4cd3a311a8d996707bd3f1a96601406882615",
      "transactionType": "CALL",
      "contractName": "FinancialAssets",
      "contractAddress": "0x3eb95efcdc5b021d64f96739c81e43d45d222c38",
      "function": "setApprovalForAll(address,bool)",
      "arguments": [
        "0xB861949beBaBE343b8F816D29de92D9E4D3E6383",
        "true"
      ],
      "transaction": {
        "from": "0x6fc2fbb2973e592eb6f932a10b3e72eeaa3113c0",
        "to": "0x3eb95efcdc5b021d64f96739c81e43d45d222c38",
        "gas": "0xf92f",
        "value": "0x0",
        "input": "0xa22cb465000000000000000000000000b861949bebabe343b8f816d29de92d9e4d3e63830000000000000000000000000000000000000000000000000000000000000001",
        "nonce": "0x13",
        "chainId": "0xaa36a7"
      },
      "additionalContracts": [],
      "isFixedGasLimit": false
    },
    {
      "hash": "0x05a1a8155bce724629e8f73b0e3775f1013993c4d24c6e662363b07f9e1b3e56",
      "transactionType": "CALL",
      "contractName": "FinancialAssets",
      "contractAddress": "0x3eb95efcdc5b021d64f96739c81e43d45d222c38",
      "function": "setApprovalForAll(address,bool)",
      "arguments": [
        "0xB861949beBaBE343b8F816D29de92D9E4D3E6383",
        "true"
      ],
      "transaction": {
        "from": "0xde4a466b7441357e1137a1a1e311bd70c1439ecb",
        "to": "0x3eb95efcdc5b021d64f96739c81e43d45d222c38",
        "gas": "0xf92f",
        "value": "0x0",
        "input": "0xa22cb465000000000000000000000000b861949bebabe343b8f816d29de92d9e4d3e63830000000000000000000000000000000000000000000000000000000000000001",
        "nonce": "0x18",
        "chainId": "0xaa36a7"
      },
      "additionalContracts": [],
      "isFixedGasLimit": false
    },
    {
      "hash": "0xde5c14998282c1eb72a3e73f466b7d304bf1dfa2207ac5affd1f961902d12822",
      "transactionType": "CALL",
      "contractName": "SecondaryMarket",
      "contractAddress": "0xb861949bebabe343b8f816d29de92d9e4d3e6383",
      "function": "createListing(uint256,uint256,uint256)",
      "arguments": [
        "0",
        "60",
        "120000000"
      ],
      "transaction": {
        "from": "0x6fc2fbb2973e592eb6f932a10b3e72eeaa3113c0",
        "to": "0xb861949bebabe343b8f816d29de92d9e4d3e6383",
        "gas": "0x3d553",
        "value": "0x0",
        "input": "0xb03053b60000000000000000000000000000000000000000000000000000000000000000000000000000000000000000000000000000000000000000000000000000003c0000000000000000000000000000000000000000000000000000000007270e00",
        "nonce": "0x14",
        "chainId": "0xaa36a7"
      },
      "additionalContracts": [],
      "isFixedGasLimit": false
    },
    {
      "hash": "0xfe4c4f5d8847cc30e3c1c102a6784ae333a04dd5fbc0fa959e9a6217d9f2c2fe",
      "transactionType": "CALL",
      "contractName": "SecondaryMarket",
      "contractAddress": "0xb861949bebabe343b8f816d29de92d9e4d3e6383",
      "function": "createListing(uint256,uint256,uint256)",
      "arguments": [
        "3",
        "50",
        "85000000"
      ],
      "transaction": {
        "from": "0xde4a466b7441357e1137a1a1e311bd70c1439ecb",
        "to": "0xb861949bebabe343b8f816d29de92d9e4d3e6383",
        "gas": "0x3e48f",
        "value": "0x0",
        "input": "0xb03053b600000000000000000000000000000000000000000000000000000000000000030000000000000000000000000000000000000000000000000000000000000032000000000000000000000000000000000000000000000000000000000510ff40",
        "nonce": "0x19",
        "chainId": "0xaa36a7"
      },
      "additionalContracts": [],
      "isFixedGasLimit": false
    },
    {
      "hash": "0x4e5712f6314160b28951e21ab2c1e4d0af277b8b4115aaeb08c45c2f19b093e8",
      "transactionType": "CALL",
      "contractName": "DigitalEuro",
      "contractAddress": "0x2cf8f433e60a0586c3f228d13038ee9f219c6188",
      "function": "approve(address,uint256)",
      "arguments": [
        "0xB861949beBaBE343b8F816D29de92D9E4D3E6383",
        "6000000000"
      ],
      "transaction": {
        "from": "0xde4a466b7441357e1137a1a1e311bd70c1439ecb",
        "to": "0x2cf8f433e60a0586c3f228d13038ee9f219c6188",
        "gas": "0xfa33",
        "value": "0x0",
        "input": "0x095ea7b3000000000000000000000000b861949bebabe343b8f816d29de92d9e4d3e63830000000000000000000000000000000000000000000000000000000165a0bc00",
        "nonce": "0x1a",
        "chainId": "0xaa36a7"
      },
      "additionalContracts": [],
      "isFixedGasLimit": false
    },
    {
      "hash": "0x7b984d9f2b4a14fc4da9980773965c789b39eb6bb836b837d864b469cd8a7571",
      "transactionType": "CALL",
      "contractName": "SecondaryMarket",
      "contractAddress": "0xb861949bebabe343b8f816d29de92d9e4d3e6383",
      "function": "executeTrade(uint256,uint256)",
      "arguments": [
        "0",
        "40"
      ],
      "transaction": {
        "from": "0xde4a466b7441357e1137a1a1e311bd70c1439ecb",
        "to": "0xb861949bebabe343b8f816d29de92d9e4d3e6383",
        "gas": "0x232b6",
        "value": "0x0",
        "input": "0x26fbd1d600000000000000000000000000000000000000000000000000000000000000000000000000000000000000000000000000000000000000000000000000000028",
        "nonce": "0x1b",
        "chainId": "0xaa36a7"
      },
      "additionalContracts": [],
      "isFixedGasLimit": false
    },
    {
      "hash": "0x78eccf2e7062c819809a14c567f72fcaf4fa2c796f854575ac9accfc09f8dd71",
      "transactionType": "CALL",
      "contractName": "DigitalEuro",
      "contractAddress": "0x2cf8f433e60a0586c3f228d13038ee9f219c6188",
      "function": "approve(address,uint256)",
      "arguments": [
        "0xB861949beBaBE343b8F816D29de92D9E4D3E6383",
        "5000000000"
      ],
      "transaction": {
        "from": "0xac75578bbdd3c830b32f2de2b8e2a4fa36996082",
        "to": "0x2cf8f433e60a0586c3f228d13038ee9f219c6188",
        "gas": "0xfa33",
        "value": "0x0",
        "input": "0x095ea7b3000000000000000000000000b861949bebabe343b8f816d29de92d9e4d3e6383000000000000000000000000000000000000000000000000000000012a05f200",
        "nonce": "0x16",
        "chainId": "0xaa36a7"
      },
      "additionalContracts": [],
      "isFixedGasLimit": false
    },
    {
      "hash": "0xcbf72b878f38bb9f3ffb79ddb82e00d16fe05cc979a32bef16a6243e95f4a0b3",
      "transactionType": "CALL",
      "contractName": "SecondaryMarket",
      "contractAddress": "0xb861949bebabe343b8f816d29de92d9e4d3e6383",
      "function": "executeTrade(uint256,uint256)",
      "arguments": [
        "1",
        "30"
      ],
      "transaction": {
        "from": "0xac75578bbdd3c830b32f2de2b8e2a4fa36996082",
        "to": "0xb861949bebabe343b8f816d29de92d9e4d3e6383",
        "gas": "0x253e1",
        "value": "0x0",
        "input": "0x26fbd1d60000000000000000000000000000000000000000000000000000000000000001000000000000000000000000000000000000000000000000000000000000001e",
        "nonce": "0x17",
        "chainId": "0xaa36a7"
      },
      "additionalContracts": [],
      "isFixedGasLimit": false
    }
  ],
  "receipts": [
    {
      "status": "0x1",
      "cumulativeGasUsed": "0x663e27",
      "logs": [
        {
          "address": "0x2cf8f433e60a0586c3f228d13038ee9f219c6188",
          "topics": [
            "0x2f8788117e7eff1d82e926ec794901d17c78024a50270940304540a733656f0d",
            "0x0000000000000000000000000000000000000000000000000000000000000000",
            "0x000000000000000000000000e30f5d336931186dd86b5c9426fd4493c34a5c5d",
            "0x000000000000000000000000e30f5d336931186dd86b5c9426fd4493c34a5c5d"
          ],
          "data": "0x",
          "blockHash": "0x81f6bb2c0168c04a44144636cb9377258ca9ed7b05c8b6aef85d0b6edfe85d12",
          "blockNumber": "0x9b2cf2",
          "blockTimestamp": "0x697f5f60",
          "transactionHash": "0xe8116cc586f00090cfcd81a6eadf0746fe71dbd861f3594cd9e4e109e18aead5",
          "transactionIndex": "0x2d",
          "logIndex": "0x38",
          "removed": false
        },
        {
          "address": "0x2cf8f433e60a0586c3f228d13038ee9f219c6188",
          "topics": [
            "0x2f8788117e7eff1d82e926ec794901d17c78024a50270940304540a733656f0d",
            "0x9f2df0fed2c77648de5860a4cc508cd0818c85b8b8a1ab4ceeef8d981c8956a6",
            "0x000000000000000000000000e30f5d336931186dd86b5c9426fd4493c34a5c5d",
            "0x000000000000000000000000e30f5d336931186dd86b5c9426fd4493c34a5c5d"
          ],
          "data": "0x",
          "blockHash": "0x81f6bb2c0168c04a44144636cb9377258ca9ed7b05c8b6aef85d0b6edfe85d12",
          "blockNumber": "0x9b2cf2",
          "blockTimestamp": "0x697f5f60",
          "transactionHash": "0xe8116cc586f00090cfcd81a6eadf0746fe71dbd861f3594cd9e4e109e18aead5",
          "transactionIndex": "0x2d",
          "logIndex": "0x39",
          "removed": false
        }
      ],
      "logsBloom": "0x00000004000000000000000000000000000000000000000000000040000000000000000000000000000000000000004000000000000004000000000000000000000000000000000000000000000000000000000000000000000000000000000000000000020000000000000000000800000000000000000000000000001000000000100000000000000000000000000000000000000000000000000000000000000000000000020000000000000000000000000002000000001000000000000000000000000000000000000000000100001000000000000100000000000020000000000000000000000000000000000000000000000000000000000000000000",
      "type": "0x2",
      "transactionHash": "0xe8116cc586f00090cfcd81a6eadf0746fe71dbd861f3594cd9e4e109e18aead5",
      "transactionIndex": "0x2d",
      "blockHash": "0x81f6bb2c0168c04a44144636cb9377258ca9ed7b05c8b6aef85d0b6edfe85d12",
      "blockNumber": "0x9b2cf2",
      "gasUsed": "0xc2a50",
      "effectiveGasPrice": "0x3eb330ea",
      "from": "0xe30f5d336931186dd86b5c9426fd4493c34a5c5d",
      "to": null,
      "contractAddress": "0x2cf8f433e60a0586c3f228d13038ee9f219c6188"
    },
    {
      "status": "0x1",
      "cumulativeGasUsed": "0x3882ef0",
      "logs": [
        {
          "address": "0x3eb95efcdc5b021d64f96739c81e43d45d222c38",
          "topics": [
            "0x2f8788117e7eff1d82e926ec794901d17c78024a50270940304540a733656f0d",
            "0x0000000000000000000000000000000000000000000000000000000000000000",
            "0x000000000000000000000000e30f5d336931186dd86b5c9426fd4493c34a5c5d",
            "0x000000000000000000000000e30f5d336931186dd86b5c9426fd4493c34a5c5d"
          ],
          "data": "0x",
          "blockHash": "0x7fe154cb488eb85299cbee7ff37d4be142fc82eaa1578a6b8729f3a0453e11d9",
          "blockNumber": "0x9b2cf3",
          "blockTimestamp": "0x697f5f6c",
          "transactionHash": "0xc211d1c991d5eb9137daf721c112c2d5c9bcdabdbc2b936798f130aff85d6ee2",
          "transactionIndex": "0x4c",
          "logIndex": "0x4d",
          "removed": false
        },
        {
          "address": "0x3eb95efcdc5b021d64f96739c81e43d45d222c38",
          "topics": [
            "0x2f8788117e7eff1d82e926ec794901d17c78024a50270940304540a733656f0d",
            "0x0b84ee281e5cf521a9ad54a86fafe78946b157177e231bd8ae785af4d3b3620f",
            "0x000000000000000000000000e30f5d336931186dd86b5c9426fd4493c34a5c5d",
            "0x000000000000000000000000e30f5d336931186dd86b5c9426fd4493c34a5c5d"
          ],
          "data": "0x",
          "blockHash": "0x7fe154cb488eb85299cbee7ff37d4be142fc82eaa1578a6b8729f3a0453e11d9",
          "blockNumber": "0x9b2cf3",
          "blockTimestamp": "0x697f5f6c",
          "transactionHash": "0xc211d1c991d5eb9137daf721c112c2d5c9bcdabdbc2b936798f130aff85d6ee2",
          "transactionIndex": "0x4c",
          "logIndex": "0x4e",
          "removed": false
        }
      ],
      "logsBloom": "0x00000004000000000000000000000000000000000000000000000040000000000000000000000000000000000000000000000000000000000000000010000000000000000000000000000000000000000000000000000080000000000000000000000000020000000000000000000800000000000000000000000000000000000000100000000000000000000000000200000000000000000000000000000000000000000004000000000000000002000000000000000000001000000000000000000000000000000000040000000100000000000000000100000000000020000000000000000000000000000000000000000000000000000000000000000000",
      "type": "0x2",
      "transactionHash": "0xc211d1c991d5eb9137daf721c112c2d5c9bcdabdbc2b936798f130aff85d6ee2",
      "transactionIndex": "0x4c",
      "blockHash": "0x7fe154cb488eb85299cbee7ff37d4be142fc82eaa1578a6b8729f3a0453e11d9",
      "blockNumber": "0x9b2cf3",
      "gasUsed": "0x1c1376",
      "effectiveGasPrice": "0x395a7752",
      "from": "0xe30f5d336931186dd86b5c9426fd4493c34a5c5d",
      "to": null,
      "contractAddress": "0x3eb95efcdc5b021d64f96739c81e43d45d222c38"
    },
    {
      "status": "0x1",
      "cumulativeGasUsed": "0x959639",
      "logs": [
        {
          "address": "0x93b54f5317602c4dda3c77eb5a491a8d230fc004",
          "topics": [
            "0x2f8788117e7eff1d82e926ec794901d17c78024a50270940304540a733656f0d",
            "0x0000000000000000000000000000000000000000000000000000000000000000",
            "0x000000000000000000000000e30f5d336931186dd86b5c9426fd4493c34a5c5d",
            "0x000000000000000000000000e30f5d336931186dd86b5c9426fd4493c34a5c5d"
          ],
          "data": "0x",
          "blockHash": "0x6b33b4a61e1afca492a5e4027afc0f3ae6033b11ae635393c8084603e3561bdb",
          "blockNumber": "0x9b2cf4",
          "blockTimestamp": "0x697f5f78",
          "transactionHash": "0xfde312cb85f75bd871fd1d4bdcbb499de7da96075a23accc21896a8ad45a6584",
          "transactionIndex": "0x3c",
          "logIndex": "0x62",
          "removed": false
        },
        {
          "address": "0x93b54f5317602c4dda3c77eb5a491a8d230fc004",
          "topics": [
            "0x2f8788117e7eff1d82e926ec794901d17c78024a50270940304540a733656f0d",
            "0x0b84ee281e5cf521a9ad54a86fafe78946b157177e231bd8ae785af4d3b3620f",
            "0x000000000000000000000000e30f5d336931186dd86b5c9426fd4493c34a5c5d",
            "0x000000000000000000000000e30f5d336931186dd86b5c9426fd4493c34a5c5d"
          ],
          "data": "0x",
          "blockHash": "0x6b33b4a61e1afca492a5e4027afc0f3ae6033b11ae635393c8084603e3561bdb",
          "blockNumber": "0x9b2cf4",
          "blockTimestamp": "0x697f5f78",
          "transactionHash": "0xfde312cb85f75bd871fd1d4bdcbb499de7da96075a23accc21896a8ad45a6584",
          "transactionIndex": "0x3c",
          "logIndex": "0x63",
          "removed": false
        }
      ],
      "logsBloom": "0x00000004000000000000000000000000000000000000000000000040000000000000000000000000000000000000000000000000000000000000000010000000000000000000000000000000000100000000000000000080000000000000000000000000020000000000000000000800000000000000000000000000000000000000100000000000000000000000000000000000000000000000000000000000000000000020000000400000000000000000000000000000001000000000000000000000000000000000040000000100000000000000000100000000000020000000000000000000000000000000000000000000000000000000000000000000",
      "type": "0x2",
      "transactionHash": "0xfde312cb85f75bd871fd1d4bdcbb499de7da96075a23accc21896a8ad45a6584",
      "transactionIndex": "0x3c",
      "blockHash": "0x6b33b4a61e1afca492a5e4027afc0f3ae6033b11ae635393c8084603e3561bdb",
      "blockNumber": "0x9b2cf4",
      "gasUsed": "0xeb8be",
      "effectiveGasPrice": "0x4069b1af",
      "from": "0xe30f5d336931186dd86b5c9426fd4493c34a5c5d",
      "to": null,
      "contractAddress": "0x93b54f5317602c4dda3c77eb5a491a8d230fc004"
    },
    {
      "status": "0x1",
      "cumulativeGasUsed": "0x6c8db2",
      "logs": [
        {
          "address": "0xb861949bebabe343b8f816d29de92d9e4d3e6383",
          "topics": [
            "0x2f8788117e7eff1d82e926ec794901d17c78024a50270940304540a733656f0d",
            "0x0000000000000000000000000000000000000000000000000000000000000000",
            "0x000000000000000000000000e30f5d336931186dd86b5c9426fd4493c34a5c5d",
            "0x000000000000000000000000e30f5d336931186dd86b5c9426fd4493c34a5c5d"
          ],
          "data": "0x",
          "blockHash": "0x7a3fbd09752679bf5bdc222902dff770b6d25ef33a81ef12f8e29ce811dcf18b",
          "blockNumber": "0x9b2cf5",
          "blockTimestamp": "0x697f5f84",
          "transactionHash": "0xaeb96c37d0e36db35bba68179f9a0cc65054ddc1969758cea3ac9a795eb261dc",
          "transactionIndex": "0x34",
          "logIndex": "0x4d",
          "removed": false
        }
      ],
      "logsBloom": "0x00000004000000000000000000000000000000000000000000000040000000000000000000000000200000000000000000000000000000000000000000000000000000000000000000000000000000000010000000000000000000000000000000000000020000000000000000000800000000000000000000000000000000000000100000000000000000000000000000000000000000000000000000000000000000000000000000000000000000000000000000000000001000000000000000000000000000000000000000000100000000000000000100000000000020000000000000000000000000000000000000000000000000000000004000000000",
      "type": "0x2",
      "transactionHash": "0xaeb96c37d0e36db35bba68179f9a0cc65054ddc1969758cea3ac9a795eb261dc",
      "transactionIndex": "0x34",
      "blockHash": "0x7a3fbd09752679bf5bdc222902dff770b6d25ef33a81ef12f8e29ce811dcf18b",
      "blockNumber": "0x9b2cf5",
      "gasUsed": "0x128743",
      "effectiveGasPrice": "0x3bd00f63",
      "from": "0xe30f5d336931186dd86b5c9426fd4493c34a5c5d",
      "to": null,
      "contractAddress": "0xb861949bebabe343b8f816d29de92d9e4d3e6383"
    },
    {
      "status": "0x1",
      "cumulativeGasUsed": "0x5e1af2",
      "logs": [
        {
          "address": "0x3eb95efcdc5b021d64f96739c81e43d45d222c38",
          "topics": [
            "0x2683c02722e9e01707eb234ac654f5eca143b1307d1789be28369d0f846f9e48",
            "0x0000000000000000000000000000000000000000000000000000000000000000",
            "0x00000000000000000000000093b54f5317602c4dda3c77eb5a491a8d230fc004"
          ],
          "data": "0x",
          "blockHash": "0xa602b044d0886179045c749d4d3ea54105eea1e89d6232c1766de0fa7dfbe894",
          "blockNumber": "0x9b2cf6",
          "blockTimestamp": "0x697f5f90",
          "transactionHash": "0x3c41397355ddea3386fd853c6af5be0cecb07fb262e52c090732f61d3e7b54a4",
          "transactionIndex": "0x25",
          "logIndex": "0x37",
          "removed": false
        }
      ],
      "logsBloom": "0x00000000000000000000000000000200000000000000000000000000000020000000080000000000000000000000000000000000000000000000000000001000000000000000000000000000000000000000000000000000000000000000000000000000020000000000000000000800000000000000000000000000000000000000000000000000000000000000000600000000001000000000000000000000000000000004000000000000000002000000000000000000000000000000000000000000000000000000000000000000000000000000000000000000000020000000000000000000000000000000000000000000000000000000000000000000",
      "type": "0x2",
      "transactionHash": "0x3c41397355ddea3386fd853c6af5be0cecb07fb262e52c090732f61d3e7b54a4",
      "transactionIndex": "0x25",
      "blockHash": "0xa602b044d0886179045c749d4d3ea54105eea1e89d6232c1766de0fa7dfbe894",
      "blockNumber": "0x9b2cf6",
      "gasUsed": "0xbb31",
      "effectiveGasPrice": "0x432de7ef",
      "from": "0xe30f5d336931186dd86b5c9426fd4493c34a5c5d",
      "to": "0x3eb95efcdc5b021d64f96739c81e43d45d222c38",
      "contractAddress": null
    },
    {
      "status": "0x1",
      "cumulativeGasUsed": "0x4add34",
      "logs": [
        {
          "address": "0x3eb95efcdc5b021d64f96739c81e43d45d222c38",
          "topics": [
            "0xb6d0fdd4aa7871e97002ee6e98a7078316273461e22e2f1be3715a9d247e766d",
            "0x0000000000000000000000000000000000000000000000000000000000000000"
          ],
          "data": "0x0000000000000000000000000000000000000000000000000000000000000040000000000000000000000000000000000000000000000000000000000000008000000000000000000000000000000000000000000000000000000000000000154e6578757320546563686e6f6c6f67792046756e64000000000000000000000000000000000000000000000000000000000000000000000000000000000000045445434800000000000000000000000000000000000000000000000000000000",
          "blockHash": "0x2d2c1ced31fed5d0debfd3eab38c3787b6e2126d7cc69089631b04926d5f9ce6",
          "blockNumber": "0x9b2cf7",
          "blockTimestamp": "0x697f5f9c",
          "transactionHash": "0x673d2b69680bb973d90372764b3b8120e00c1ae460d8bbde34e5e524aeebabeb",
          "transactionIndex": "0x35",
          "logIndex": "0x38",
          "removed": false
        }
      ],
      "logsBloom": "0x00000000000000000000000000000000000000000000000000000000000000000000000000000000000000000000000000000000000000000000000000000000000000000000000000000000000000000000000000000000000000000000000000000000020000000000000000000800000000000000000000000000000000000000000000000000000000000000000200000000000000000000000000000000004000000004000000000000000002000000000000000010000000000000000000000000000000000000000000000000000000000000000000000000800020000000000000000000000000000000000000000000000000000000000000000000",
      "type": "0x2",
      "transactionHash": "0x673d2b69680bb973d90372764b3b8120e00c1ae460d8bbde34e5e524aeebabeb",
      "transactionIndex": "0x35",
      "blockHash": "0x2d2c1ced31fed5d0debfd3eab38c3787b6e2126d7cc69089631b04926d5f9ce6",
      "blockNumber": "0x9b2cf7",
      "gasUsed": "0x1799e",
      "effectiveGasPrice": "0x3ce8bc3e",
      "from": "0xe30f5d336931186dd86b5c9426fd4493c34a5c5d",
      "to": "0x3eb95efcdc5b021d64f96739c81e43d45d222c38",
      "contractAddress": null
    },
    {
      "status": "0x1",
      "cumulativeGasUsed": "0x39298f9",
      "logs": [
        {
          "address": "0x3eb95efcdc5b021d64f96739c81e43d45d222c38",
          "topics": [
            "0xb6d0fdd4aa7871e97002ee6e98a7078316273461e22e2f1be3715a9d247e766d",
            "0x0000000000000000000000000000000000000000000000000000000000000001"
          ],
          "data": "0x00000000000000000000000000000000000000000000000000000000000000400000000000000000000000000000000000000000000000000000000000000080000000000000000000000000000000000000000000000000000000000000001e476f6c6473746f6e652050726563696f7573204d6574616c732046756e6400000000000000000000000000000000000000000000000000000000000000000004474f4c4400000000000000000000000000000000000000000000000000000000",
          "blockHash": "0xdfd15fdb289f3cdbda81a476eb39bac3508a47437375ec359b621e70bb5b83bf",
          "blockNumber": "0x9b2cf8",
          "blockTimestamp": "0x697f5fa8",
          "transactionHash": "0x98f009bc6205aba9f52e3c72b04fd925ffe8e15c531a1c7ff0e52cf3ce7139e3",
          "transactionIndex": "0x4b",
          "logIndex": "0x3a",
          "removed": false
        }
      ],
      "logsBloom": "0x00000000000000000000000000000000000000000000000000000000000000000000000000000000000000000000000000000000000000000000000000040000000000000000000000000000000000000000000000040000000000000000000000000000000000000000000000000000000000000000000000000000000000000000000000000000000000000000000200000000000000000000000000000000004000000004000000000000000002000000000000000010000000000000000000000000000000000000000000000000000000000000000000000000800040000000000000000000000000000000000000000000000000000000000000000000",
      "type": "0x2",
      "transactionHash": "0x98f009bc6205aba9f52e3c72b04fd925ffe8e15c531a1c7ff0e52cf3ce7139e3",
      "transactionIndex": "0x4b",
      "blockHash": "0xdfd15fdb289f3cdbda81a476eb39bac3508a47437375ec359b621e70bb5b83bf",
      "blockNumber": "0x9b2cf8",
      "gasUsed": "0x1374a",
      "effectiveGasPrice": "0x37231ec4",
      "from": "0xe30f5d336931186dd86b5c9426fd4493c34a5c5d",
      "to": "0x3eb95efcdc5b021d64f96739c81e43d45d222c38",
      "contractAddress": null
    },
    {
      "status": "0x1",
      "cumulativeGasUsed": "0x91c31a",
      "logs": [
        {
          "address": "0x3eb95efcdc5b021d64f96739c81e43d45d222c38",
          "topics": [
            "0xb6d0fdd4aa7871e97002ee6e98a7078316273461e22e2f1be3715a9d247e766d",
            "0x0000000000000000000000000000000000000000000000000000000000000002"
          ],
          "data": "0x00000000000000000000000000000000000000000000000000000000000000400000000000000000000000000000000000000000000000000000000000000080000000000000000000000000000000000000000000000000000000000000001d41706578205265616c20457374617465204361706974616c2046756e6400000000000000000000000000000000000000000000000000000000000000000000045245414c00000000000000000000000000000000000000000000000000000000",
          "blockHash": "0xa8c968915329a60fce836bd13187e3d456d6666aea846cf0f82ce0165b1faf7e",
          "blockNumber": "0x9b2cf9",
          "blockTimestamp": "0x697f5fb4",
          "transactionHash": "0x8c746f2e5889d83e268e8e23d6ea320cf4720d32d35b176d64eb7f9034e417d2",
          "transactionIndex": "0x2b",
          "logIndex": "0x32",
          "removed": false
        }
      ],
      "logsBloom": "0x04000000000000000000000000000000000000000000000000000000000000000000000000000000000000000000000000000000000000000000000000000000000000000000000000000000000000000000000000000000000000000000000000000000000000000000000000000000000000000000000000000000000000000000000000000000000000000000000200000000000000000000000000000000004000000004000000000100000002000000000000000010000000000000000000000000000000000000000000000000000000000000000000000000800000000000000000000000000000000000000000000000008000000000000000000000",
      "type": "0x2",
      "transactionHash": "0x8c746f2e5889d83e268e8e23d6ea320cf4720d32d35b176d64eb7f9034e417d2",
      "transactionIndex": "0x2b",
      "blockHash": "0xa8c968915329a60fce836bd13187e3d456d6666aea846cf0f82ce0165b1faf7e",
      "blockNumber": "0x9b2cf9",
      "gasUsed": "0x1373e",
      "effectiveGasPrice": "0x3df8b62d",
      "from": "0xe30f5d336931186dd86b5c9426fd4493c34a5c5d",
      "to": "0x3eb95efcdc5b021d64f96739c81e43d45d222c38",
      "contractAddress": null
    },
    {
      "status": "0x1",
      "cumulativeGasUsed": "0x3757e82",
      "logs": [
        {
          "address": "0x3eb95efcdc5b021d64f96739c81e43d45d222c38",
          "topics": [
            "0xb6d0fdd4aa7871e97002ee6e98a7078316273461e22e2f1be3715a9d247e766d",
            "0x0000000000000000000000000000000000000000000000000000000000000003"
          ],
          "data": "0x000000000000000000000000000000000000000000000000000000000000004000000000000000000000000000000000000000000000000000000000000000a00000000000000000000000000000000000000000000000000000000000000024477265656e20467574757265205375737461696e61626c6520456e657267792046756e64000000000000000000000000000000000000000000000000000000000000000000000000000000000000000000000000000000000000000000000005475245454e000000000000000000000000000000000000000000000000000000",
          "blockHash": "0x11fe264b1aae7cb37f07ee9d7346bae766d02de529fc1f2f6440d8191448a0b3",
          "blockNumber": "0x9b2cfa",
          "blockTimestamp": "0x697f5fc0",
          "transactionHash": "0x1b852c3e02814ba7833bb7def3d2964b49895b6a96628c4d127d7e4deab84cce",
          "transactionIndex": "0x3f",
          "logIndex": "0x37",
          "removed": false
        }
      ],
      "logsBloom": "0x00000000000000000000000000000000000000000000000000000000000000000000000000000000000000000000000000000000020000000000000000000000000000000000000000000000000000000000000000000000000000000000000000000000000000000000000000000000000000000000000000000000000000000000000000000000000000000000000200000000000000000000000000000000004000000004000000000000000002000000000000800010000000000000400000000000000000000000000000000000000000000000000000000000800000000000000000000000000000000000000000000000000000000000000000000000",
      "type": "0x2",
      "transactionHash": "0x1b852c3e02814ba7833bb7def3d2964b49895b6a96628c4d127d7e4deab84cce",
      "transactionIndex": "0x3f",
      "blockHash": "0x11fe264b1aae7cb37f07ee9d7346bae766d02de529fc1f2f6440d8191448a0b3",
      "blockNumber": "0x9b2cfa",
      "gasUsed": "0x1e688",
      "effectiveGasPrice": "0x39276789",
      "from": "0xe30f5d336931186dd86b5c9426fd4493c34a5c5d",
      "to": "0x3eb95efcdc5b021d64f96739c81e43d45d222c38",
      "contractAddress": null
    },
    {
      "status": "0x1",
      "cumulativeGasUsed": "0x57cba6",
      "logs": [
        {
          "address": "0x3eb95efcdc5b021d64f96739c81e43d45d222c38",
          "topics": [
            "0xb6d0fdd4aa7871e97002ee6e98a7078316273461e22e2f1be3715a9d247e766d",
            "0x0000000000000000000000000000000000000000000000000000000000000004"
          ],
          "data": "0x000000000000000000000000000000000000000000000000000000000000004000000000000000000000000000000000000000000000000000000000000000a000000000000000000000000000000000000000000000000000000000000000224d65646943617265204865616c74686361726520262042696f746563682046756e6400000000000000000000000000000000000000000000000000000000000000000000000000000000000000000000000000000000000000000000000000064845414c54480000000000000000000000000000000000000000000000000000",
          "blockHash": "0xc373c2fc1a04a6815a59a9a515eb18f21189bfc4a3670dd74e15340c4ebba93a",
          "blockNumber": "0x9b2cfb",
          "blockTimestamp": "0x697f5fcc",
          "transactionHash": "0xfbc3fb7a1351d2c698633db7669a288c52483a07231814b322911e0ee2257f2f",
          "transactionIndex": "0x30",
          "logIndex": "0x2b",
          "removed": false
        }
      ],
      "logsBloom": "0x00000000000000000000000000000000000000000000000000000000000000000000000000000000000000000000000000000000000000000000000000000000000000000000000000000000000000000000000000000000000000000000000008000000000000000000000000000000000000000000000000000000000000000000000000000000000000000000000200000000000000000000000000000000004000000004000000000000000002000000000000000010002000000000000000000000000000000000000000000000000000008000000000000000800000000000000000000000000000000000000000000000000000000000000000000000",
      "type": "0x2",
      "transactionHash": "0xfbc3fb7a1351d2c698633db7669a288c52483a07231814b322911e0ee2257f2f",
      "transactionIndex": "0x30",
      "blockHash": "0xc373c2fc1a04a6815a59a9a515eb18f21189bfc4a3670dd74e15340c4ebba93a",
      "blockNumber": "0x9b2cfb",
      "gasUsed": "0x1e67c",
      "effectiveGasPrice": "0x402c581f",
      "from": "0xe30f5d336931186dd86b5c9426fd4493c34a5c5d",
      "to": "0x3eb95efcdc5b021d64f96739c81e43d45d222c38",
      "contractAddress": null
    },
    {
      "status": "0x1",
      "cumulativeGasUsed": "0x382641a",
      "logs": [
        {
          "address": "0x3eb95efcdc5b021d64f96739c81e43d45d222c38",
          "topics": [
            "0xc3d58168c5ae7397731d063d5bbf3d657854427343f4c083240f7aacaa2d0f62",
            "0x000000000000000000000000e30f5d336931186dd86b5c9426fd4493c34a5c5d",
            "0x0000000000000000000000000000000000000000000000000000000000000000",
            "0x00000000000000000000000093b54f5317602c4dda3c77eb5a491a8d230fc004"
          ],
          "data": "0x000000000000000000000000000000000000000000000000000000000000000000000000000000000000000000000000000000000000000000000000000003e8",
          "blockHash": "0x5cf3e067df19fe5331435f4acfcef0f78bbaa7eeef2be6a4f7bfc03328e5c08f",
          "blockNumber": "0x9b2cfc",
          "blockTimestamp": "0x697f5fd8",
          "transactionHash": "0xfde013cf9b32b068e18e9dc47531ff59e33f3051cd2e1f46383a80fd3e03c7fe",
          "transactionIndex": "0x42",
          "logIndex": "0x54",
          "removed": false
        },
        {
          "address": "0x3eb95efcdc5b021d64f96739c81e43d45d222c38",
          "topics": [
            "0xcd6742d5e809eafe3ac91950822ad9d9f4cec48faad935421642d893db7d0993",
            "0x0000000000000000000000000000000000000000000000000000000000000000",
            "0x00000000000000000000000093b54f5317602c4dda3c77eb5a491a8d230fc004"
          ],
          "data": "0x00000000000000000000000000000000000000000000000000000000000003e8",
          "blockHash": "0x5cf3e067df19fe5331435f4acfcef0f78bbaa7eeef2be6a4f7bfc03328e5c08f",
          "blockNumber": "0x9b2cfc",
          "blockTimestamp": "0x697f5fd8",
          "transactionHash": "0xfde013cf9b32b068e18e9dc47531ff59e33f3051cd2e1f46383a80fd3e03c7fe",
          "transactionIndex": "0x42",
          "logIndex": "0x55",
          "removed": false
        }
      ],
      "logsBloom": "0x00000000000000000000000000000000000000000000000000000040000000000000000000000000000000000000000000000000000000010000000000003000000000000000000000000000000000000000000000000000000000000000000000000000020000000000000000000800000000000000000000000000000000000000100000000000000000000000000610000000001000000000000000000000000000000004000000000000000002000000000000000000000000000000000000000000000000000000000000000100000000000008000000000000000020000000000000004000000000000000000000000000000000000000080000000000",
      "type": "0x2",
      "transactionHash": "0xfde013cf9b32b068e18e9dc47531ff59e33f3051cd2e1f46383a80fd3e03c7fe",
      "transactionIndex": "0x42",
      "blockHash": "0x5cf3e067df19fe5331435f4acfcef0f78bbaa7eeef2be6a4f7bfc03328e5c08f",
      "blockNumber": "0x9b2cfc",
      "gasUsed": "0x19d2f",
      "effectiveGasPrice": "0x3b421878",
      "from": "0xe30f5d336931186dd86b5c9426fd4493c34a5c5d",
      "to": "0x3eb95efcdc5b021d64f96739c81e43d45d222c38",
      "contractAddress": null
    },
    {
      "status": "0x1",
      "cumulativeGasUsed": "0x38a022",
      "logs": [
        {
          "address": "0x3eb95efcdc5b021d64f96739c81e43d45d222c38",
          "topics": [
            "0xc3d58168c5ae7397731d063d5bbf3d657854427343f4c083240f7aacaa2d0f62",
            "0x000000000000000000000000e30f5d336931186dd86b5c9426fd4493c34a5c5d",
            "0x0000000000000000000000000000000000000000000000000000000000000000",
            "0x00000000000000000000000093b54f5317602c4dda3c77eb5a491a8d230fc004"
          ],
          "data": "0x000000000000000000000000000000000000000000000000000000000000000100000000000000000000000000000000000000000000000000000000000001f4",
          "blockHash": "0xbc43796d825441140ad7bb7d1e803c68194ba84e3dde7bc0f3d44d70d6e5063c",
          "blockNumber": "0x9b2cfd",
          "blockTimestamp": "0x697f5fe4",
          "transactionHash": "0x7e57ccf138b6b75631d01976d97260a03691cc3f4a696565920b981ce6109c14",
          "transactionIndex": "0x27",
          "logIndex": "0x31",
          "removed": false
        },
        {
          "address": "0x3eb95efcdc5b021d64f96739c81e43d45d222c38",
          "topics": [
            "0xcd6742d5e809eafe3ac91950822ad9d9f4cec48faad935421642d893db7d0993",
            "0x0000000000000000000000000000000000000000000000000000000000000001",
            "0x00000000000000000000000093b54f5317602c4dda3c77eb5a491a8d230fc004"
          ],
          "data": "0x00000000000000000000000000000000000000000000000000000000000001f4",
          "blockHash": "0xbc43796d825441140ad7bb7d1e803c68194ba84e3dde7bc0f3d44d70d6e5063c",
          "blockNumber": "0x9b2cfd",
          "blockTimestamp": "0x697f5fe4",
          "transactionHash": "0x7e57ccf138b6b75631d01976d97260a03691cc3f4a696565920b981ce6109c14",
          "transactionIndex": "0x27",
          "logIndex": "0x32",
          "removed": false
        }
      ],
      "logsBloom": "0x00000000000000000000000000000000000000000000000000000040000000000000000000000000000000000000000000000000000000010000000000043000000000000000000000000000000000000000000000040000000000000000000000000000020000000000000000000800000000000000000000000000000000000000100000000000000000000000000610000000001000000000000000000000000000000004000000000000000002000000000000000000000000000000000000000000000000000000000000000100000000000008000000000000000060000000000000004000000000000000000000000000000000000000080000000000",
      "type": "0x2",
      "transactionHash": "0x7e57ccf138b6b75631d01976d97260a03691cc3f4a696565920b981ce6109c14",
      "transactionIndex": "0x27",
      "blockHash": "0xbc43796d825441140ad7bb7d1e803c68194ba84e3dde7bc0f3d44d70d6e5063c",
      "blockNumber": "0x9b2cfd",
      "gasUsed": "0x15a6f",
      "effectiveGasPrice": "0x429b376c",
      "from": "0xe30f5d336931186dd86b5c9426fd4493c34a5c5d",
      "to": "0x3eb95efcdc5b021d64f96739c81e43d45d222c38",
      "contractAddress": null
    },
    {
      "status": "0x1",
      "cumulativeGasUsed": "0x79caaa",
      "logs": [
        {
          "address": "0x3eb95efcdc5b021d64f96739c81e43d45d222c38",
          "topics": [
            "0xc3d58168c5ae7397731d063d5bbf3d657854427343f4c083240f7aacaa2d0f62",
            "0x000000000000000000000000e30f5d336931186dd86b5c9426fd4493c34a5c5d",
            "0x0000000000000000000000000000000000000000000000000000000000000000",
            "0x00000000000000000000000093b54f5317602c4dda3c77eb5a491a8d230fc004"
          ],
          "data": "0x000000000000000000000000000000000000000000000000000000000000000200000000000000000000000000000000000000000000000000000000000002ee",
          "blockHash": "0xf53220302262a14d4ecac44c1e4435fdad263f68da1baca76b7909d20b2610d1",
          "blockNumber": "0x9b2cfe",
          "blockTimestamp": "0x697f5ff0",
          "transactionHash": "0x7e83163f4200e8f33741dad7e15ca46c7839711bb973877a8e25ef54ff39bc5b",
          "transactionIndex": "0x3c",
          "logIndex": "0x37",
          "removed": false
        },
        {
          "address": "0x3eb95efcdc5b021d64f96739c81e43d45d222c38",
          "topics": [
            "0xcd6742d5e809eafe3ac91950822ad9d9f4cec48faad935421642d893db7d0993",
            "0x0000000000000000000000000000000000000000000000000000000000000002",
            "0x00000000000000000000000093b54f5317602c4dda3c77eb5a491a8d230fc004"
          ],
          "data": "0x00000000000000000000000000000000000000000000000000000000000002ee",
          "blockHash": "0xf53220302262a14d4ecac44c1e4435fdad263f68da1baca76b7909d20b2610d1",
          "blockNumber": "0x9b2cfe",
          "blockTimestamp": "0x697f5ff0",
          "transactionHash": "0x7e83163f4200e8f33741dad7e15ca46c7839711bb973877a8e25ef54ff39bc5b",
          "transactionIndex": "0x3c",
          "logIndex": "0x38",
          "removed": false
        }
      ],
      "logsBloom": "0x04000000000000000000000000000000000000000000000000000040000000000000000000000000000000000000000000000000000000010000000000003000000000000000000000000000000000000000000000000000000000000000000000000000020000000000000000000800000000000000000000000000000000000000100000000000000000000000000610000000001000000000000000000000000000000004000000000100000002000000000000000000000000000000000000000000000000000000000000000100000000000008000000000000000020000000000000004000000000000000000000000000008000000000080000000000",
      "type": "0x2",
      "transactionHash": "0x7e83163f4200e8f33741dad7e15ca46c7839711bb973877a8e25ef54ff39bc5b",
      "transactionIndex": "0x3c",
      "blockHash": "0xf53220302262a14d4ecac44c1e4435fdad263f68da1baca76b7909d20b2610d1",
      "blockNumber": "0x9b2cfe",
      "gasUsed": "0x15a6f",
      "effectiveGasPrice": "0x3c2782a2",
      "from": "0xe30f5d336931186dd86b5c9426fd4493c34a5c5d",
      "to": "0x3eb95efcdc5b021d64f96739c81e43d45d222c38",
      "contractAddress": null
    },
    {
      "status": "0x1",
      "cumulativeGasUsed": "0x3817851",
      "logs": [
        {
          "address": "0x3eb95efcdc5b021d64f96739c81e43d45d222c38",
          "topics": [
            "0xc3d58168c5ae7397731d063d5bbf3d657854427343f4c083240f7aacaa2d0f62",
            "0x000000000000000000000000e30f5d336931186dd86b5c9426fd4493c34a5c5d",
            "0x0000000000000000000000000000000000000000000000000000000000000000",
            "0x00000000000000000000000093b54f5317602c4dda3c77eb5a491a8d230fc004"
          ],
          "data": "0x00000000000000000000000000000000000000000000000000000000000000030000000000000000000000000000000000000000000000000000000000000320",
          "blockHash": "0x282f238fc5df3586ed5a179f4741d1d37d4ca694ea95032a7041abacea34aca2",
          "blockNumber": "0x9b2cff",
          "blockTimestamp": "0x697f5ffc",
          "transactionHash": "0xf6496f79c01bbc1ced7dd405e9c2fd021b22675d2a60da86ce526946666fb0aa",
          "transactionIndex": "0x48",
          "logIndex": "0x44",
          "removed": false
        },
        {
          "address": "0x3eb95efcdc5b021d64f96739c81e43d45d222c38",
          "topics": [
            "0xcd6742d5e809eafe3ac91950822ad9d9f4cec48faad935421642d893db7d0993",
            "0x0000000000000000000000000000000000000000000000000000000000000003",
            "0x00000000000000000000000093b54f5317602c4dda3c77eb5a491a8d230fc004"
          ],
          "data": "0x0000000000000000000000000000000000000000000000000000000000000320",
          "blockHash": "0x282f238fc5df3586ed5a179f4741d1d37d4ca694ea95032a7041abacea34aca2",
          "blockNumber": "0x9b2cff",
          "blockTimestamp": "0x697f5ffc",
          "transactionHash": "0xf6496f79c01bbc1ced7dd405e9c2fd021b22675d2a60da86ce526946666fb0aa",
          "transactionIndex": "0x48",
          "logIndex": "0x45",
          "removed": false
        }
      ],
      "logsBloom": "0x00000000000000000000000000000000000000000000000000000040000000000000000000000000000000000000000000000000020000010000000000003000000000000000000000000000000000000000000000000000000000000000000000000000020000000000000000000800000000000000000000000000000000000000100000000000000000000000000610000000001000000000000000000000000000000004000000000000000002000000000000800000000000000000400000000000000000000000000000000100000000000008000000000000000020000000000000004000000000000000000000000000000000000000080000000000",
      "type": "0x2",
      "transactionHash": "0xf6496f79c01bbc1ced7dd405e9c2fd021b22675d2a60da86ce526946666fb0aa",
      "transactionIndex": "0x48",
      "blockHash": "0x282f238fc5df3586ed5a179f4741d1d37d4ca694ea95032a7041abacea34aca2",
      "blockNumber": "0x9b2cff",
      "gasUsed": "0x15a61",
      "effectiveGasPrice": "0x37188b25",
      "from": "0xe30f5d336931186dd86b5c9426fd4493c34a5c5d",
      "to": "0x3eb95efcdc5b021d64f96739c81e43d45d222c38",
      "contractAddress": null
    },
    {
      "status": "0x1",
      "cumulativeGasUsed": "0x9423b9",
      "logs": [
        {
          "address": "0x3eb95efcdc5b021d64f96739c81e43d45d222c38",
          "topics": [
            "0xc3d58168c5ae7397731d063d5bbf3d657854427343f4c083240f7aacaa2d0f62",
            "0x000000000000000000000000e30f5d336931186dd86b5c9426fd4493c34a5c5d",
            "0x0000000000000000000000000000000000000000000000000000000000000000",
            "0x00000000000000000000000093b54f5317602c4dda3c77eb5a491a8d230fc004"
          ],
          "data": "0x00000000000000000000000000000000000000000000000000000000000000040000000000000000000000000000000000000000000000000000000000000258",
          "blockHash": "0x94edd33b1a204ae8fb89599b059b18c71f64783aca09cf1c6cf6bb7d7f344b94",
          "blockNumber": "0x9b2d00",
          "blockTimestamp": "0x697f6008",
          "transactionHash": "0xc7895d97daab1df26c736b771a8431488545c98c92309f523464b4dcc3d0fcc9",
          "transactionIndex": "0x37",
          "logIndex": "0x53",
          "removed": false
        },
        {
          "address": "0x3eb95efcdc5b021d64f96739c81e43d45d222c38",
          "topics": [
            "0xcd6742d5e809eafe3ac91950822ad9d9f4cec48faad935421642d893db7d0993",
            "0x0000000000000000000000000000000000000000000000000000000000000004",
            "0x00000000000000000000000093b54f5317602c4dda3c77eb5a491a8d230fc004"
          ],
          "data": "0x0000000000000000000000000000000000000000000000000000000000000258",
          "blockHash": "0x94edd33b1a204ae8fb89599b059b18c71f64783aca09cf1c6cf6bb7d7f344b94",
          "blockNumber": "0x9b2d00",
          "blockTimestamp": "0x697f6008",
          "transactionHash": "0xc7895d97daab1df26c736b771a8431488545c98c92309f523464b4dcc3d0fcc9",
          "transactionIndex": "0x37",
          "logIndex": "0x54",
          "removed": false
        }
      ],
      "logsBloom": "0x00000000000000000000000000000000000000000000000000000040000000000000000000000000000000000000000000000000000000010000000000003000000000000000000000000000000000000000000000000000000000000000000008000000020000000000000000000800000000000000000000000000000000000000100000000000000000000000000610000000001000000000000000000000000000000004000000000000000002000000000000000000002000000000000000000000000000000000000000000100000000008008000000000000000020000000000000004000000000000000000000000000000000000000080000000000",
      "type": "0x2",
      "transactionHash": "0xc7895d97daab1df26c736b771a8431488545c98c92309f523464b4dcc3d0fcc9",
      "transactionIndex": "0x37",
      "blockHash": "0x94edd33b1a204ae8fb89599b059b18c71f64783aca09cf1c6cf6bb7d7f344b94",
      "blockNumber": "0x9b2d00",
      "gasUsed": "0x15a61",
      "effectiveGasPrice": "0x3dedb266",
      "from": "0xe30f5d336931186dd86b5c9426fd4493c34a5c5d",
      "to": "0x3eb95efcdc5b021d64f96739c81e43d45d222c38",
      "contractAddress": null
    },
    {
      "status": "0x1",
      "cumulativeGasUsed": "0x37e6680",
      "logs": [
        {
          "address": "0x93b54f5317602c4dda3c77eb5a491a8d230fc004",
          "topics": [
            "0x288e01eadd84f87ff852e67e784d6fe5181f8d088c2f1690e5c263289cad8a45",
            "0x0000000000000000000000000000000000000000000000000000000000000000"
          ],
          "data": "0x0000000000000000000000000000000000000000000000000000000005f5e100",
          "blockHash": "0xb8755098548dec120e4fc5e5fcfbb78c52a3cab1c2d465aa32f344504b5dfd12",
          "blockNumber": "0x9b2d01",
          "blockTimestamp": "0x697f6014",
          "transactionHash": "0x9a4089c9fe2dae0f629ae25fe7002ecfd0d3a66e9b796a13da2077d481d28937",
          "transactionIndex": "0x44",
          "logIndex": "0x34",
          "removed": false
        }
      ],
      "logsBloom": "0x00000000000000000000000000000000000000000000000000000000000000000000000000000000000000000000000000000000000000000000000000000000000000000000000000000000000100000000000000000000000000000000000000000000020000000000000000000800000000000000000000000000000000000000000000000000000000000040000000000000000000000000000000000000000000000020000000400000000000000000000000000000000000000000000000000040000000000000000000000000000000000000000000000000000020000000000000000020000000000000000000000000000000000000000000000000",
      "type": "0x2",
      "transactionHash": "0x9a4089c9fe2dae0f629ae25fe7002ecfd0d3a66e9b796a13da2077d481d28937",
      "transactionIndex": "0x44",
      "blockHash": "0xb8755098548dec120e4fc5e5fcfbb78c52a3cab1c2d465aa32f344504b5dfd12",
      "blockNumber": "0x9b2d01",
      "gasUsed": "0xba74",
      "effectiveGasPrice": "0x3972467d",
      "from": "0xe30f5d336931186dd86b5c9426fd4493c34a5c5d",
      "to": "0x93b54f5317602c4dda3c77eb5a491a8d230fc004",
      "contractAddress": null
    },
    {
      "status": "0x1",
      "cumulativeGasUsed": "0x3f7d6d",
      "logs": [
        {
          "address": "0x93b54f5317602c4dda3c77eb5a491a8d230fc004",
          "topics": [
            "0x288e01eadd84f87ff852e67e784d6fe5181f8d088c2f1690e5c263289cad8a45",
            "0x0000000000000000000000000000000000000000000000000000000000000001"
          ],
          "data": "0x000000000000000000000000000000000000000000000000000000000bebc200",
          "blockHash": "0x0425db83b4ba01ddcd8dede5373be1b20977e3837c433015f874330dbf055b05",
          "blockNumber": "0x9b2d02",
          "blockTimestamp": "0x697f6020",
          "transactionHash": "0xfda35665f39a9524d57e99756d18735b50298fd67f9006cb3f5223c2e3074d67",
          "transactionIndex": "0x2b",
          "logIndex": "0x41",
          "removed": false
        }
      ],
      "logsBloom": "0x00000000000000000000000000000000000000000000000000000000000000000000000000000000000000000000000000000000000000000000000000040000000000000000000000000000000100000000000000040000000000000000000000000000000000000000000000000000000000000000000000000000000000000000000000000000000000000040000000000000000000000000000000000000000000000020000000400000000000000000000000000000000000000000000000000040000000000000000000000000000000000000000000000000000040000000000000000020000000000000000000000000000000000000000000000000",
      "type": "0x2",
      "transactionHash": "0xfda35665f39a9524d57e99756d18735b50298fd67f9006cb3f5223c2e3074d67",
      "transactionIndex": "0x2b",
      "blockHash": "0x0425db83b4ba01ddcd8dede5373be1b20977e3837c433015f874330dbf055b05",
      "blockNumber": "0x9b2d02",
      "gasUsed": "0xba80",
      "effectiveGasPrice": "0x404a7725",
      "from": "0xe30f5d336931186dd86b5c9426fd4493c34a5c5d",
      "to": "0x93b54f5317602c4dda3c77eb5a491a8d230fc004",
      "contractAddress": null
    },
    {
      "status": "0x1",
      "cumulativeGasUsed": "0x3814a17",
      "logs": [
        {
          "address": "0x93b54f5317602c4dda3c77eb5a491a8d230fc004",
          "topics": [
            "0x288e01eadd84f87ff852e67e784d6fe5181f8d088c2f1690e5c263289cad8a45",
            "0x0000000000000000000000000000000000000000000000000000000000000002"
          ],
          "data": "0x0000000000000000000000000000000000000000000000000000000008f0d180",
          "blockHash": "0x9974fab948142ff5e7f0bfd0d3f7c28e36f0cb5af49de2c4bbe5544fcc557d25",
          "blockNumber": "0x9b2d03",
          "blockTimestamp": "0x697f602c",
          "transactionHash": "0x4218d06e7f9d88c23a19d68db28a996b524d25ada301f690f91b3a9d34c59551",
          "transactionIndex": "0x3b",
          "logIndex": "0x4a",
          "removed": false
        }
      ],
      "logsBloom": "0x04000000000000000000000000000000000000000000000000000000000000000000000000000000000000000000000000000000000000000000000000000000000000000000000000000000000100000000000000000000000000000000000000000000000000000000000000000000000000000000000000000000000000000000000000000000000000000040000000000000000000000000000000000000000000000020000000400100000000000000000000000000000000000000000000000040000000000000000000000000000000000000000000000000000000000000000000000020000000000000000000000000008000000000000000000000",
      "type": "0x2",
      "transactionHash": "0x4218d06e7f9d88c23a19d68db28a996b524d25ada301f690f91b3a9d34c59551",
      "transactionIndex": "0x3b",
      "blockHash": "0x9974fab948142ff5e7f0bfd0d3f7c28e36f0cb5af49de2c4bbe5544fcc557d25",
      "blockNumber": "0x9b2d03",
      "gasUsed": "0xba8c",
      "effectiveGasPrice": "0x3b479360",
      "from": "0xe30f5d336931186dd86b5c9426fd4493c34a5c5d",
      "to": "0x93b54f5317602c4dda3c77eb5a491a8d230fc004",
      "contractAddress": null
    },
    {
      "status": "0x1",
      "cumulativeGasUsed": "0x93164b",
      "logs": [
        {
          "address": "0x93b54f5317602c4dda3c77eb5a491a8d230fc004",
          "topics": [
            "0x288e01eadd84f87ff852e67e784d6fe5181f8d088c2f1690e5c263289cad8a45",
            "0x0000000000000000000000000000000000000000000000000000000000000003"
          ],
          "data": "0x0000000000000000000000000000000000000000000000000000000004c4b400",
          "blockHash": "0x19d05f0b79376593bf73b2423398f4c7c8707f1f832bce097f291f89ae0b3678",
          "blockNumber": "0x9b2d04",
          "blockTimestamp": "0x697f6038",
          "transactionHash": "0xe4b2a4cf693a899da9a52188261c92d1d7aa556a173b04a5751b38a3da4dafe5",
          "transactionIndex": "0x21",
          "logIndex": "0x28",
          "removed": false
        }
      ],
      "logsBloom": "0x00000000000000000000000000000000000000000000000000000000000000000000000000000000000000000000000000000000020000000000000000000000000000000000000000000000000100000000000000000000000000000000000000000000000000000000000000000000000000000000000000000000000000000000000000000000000000000040000000000000000000000000000000000000000000000020000000400000000000000000000000800000000000000000400000000040000000000000000000000000000000000000000000000000000000000000000000000020000000000000000000000000000000000000000000000000",
      "type": "0x2",
      "transactionHash": "0xe4b2a4cf693a899da9a52188261c92d1d7aa556a173b04a5751b38a3da4dafe5",
      "transactionIndex": "0x21",
      "blockHash": "0x19d05f0b79376593bf73b2423398f4c7c8707f1f832bce097f291f89ae0b3678",
      "blockNumber": "0x9b2d04",
      "gasUsed": "0xba80",
      "effectiveGasPrice": "0x428ff082",
      "from": "0xe30f5d336931186dd86b5c9426fd4493c34a5c5d",
      "to": "0x93b54f5317602c4dda3c77eb5a491a8d230fc004",
      "contractAddress": null
    },
    {
      "status": "0x1",
      "cumulativeGasUsed": "0x2c2bf3",
      "logs": [
        {
          "address": "0x93b54f5317602c4dda3c77eb5a491a8d230fc004",
          "topics": [
            "0x288e01eadd84f87ff852e67e784d6fe5181f8d088c2f1690e5c263289cad8a45",
            "0x0000000000000000000000000000000000000000000000000000000000000004"
          ],
          "data": "0x000000000000000000000000000000000000000000000000000000000ee6b280",
          "blockHash": "0xda30c7306122bfb494072b987658d4f25f851011c778854f608d83d9ce029cd2",
          "blockNumber": "0x9b2d05",
          "blockTimestamp": "0x697f6044",
          "transactionHash": "0x7c07d13660e35b90013a20c8d071e4fe9ca4f360f088616ef635d704f336c61d",
          "transactionIndex": "0x1f",
          "logIndex": "0x2b",
          "removed": false
        }
      ],
      "logsBloom": "0x00000000000000000000000000000000000000000000000000000000000000000000000000000000000000000000000000000000000000000000000000000000000000000000000000000000000100000000000000000000000000000000000008000000000000000000000000000000000000000000000000000000000000000000000000000000000000000040000000000000000000000000000000000000000000000020000000400000000000000000000000000000002000000000000000000040000000000000000000000000000000008000000000000000000000000000000000000020000000000000000000000000000000000000000000000000",
      "type": "0x2",
      "transactionHash": "0x7c07d13660e35b90013a20c8d071e4fe9ca4f360f088616ef635d704f336c61d",
      "transactionIndex": "0x1f",
      "blockHash": "0xda30c7306122bfb494072b987658d4f25f851011c778854f608d83d9ce029cd2",
      "blockNumber": "0x9b2d05",
      "gasUsed": "0xba8c",
      "effectiveGasPrice": "0x3dba7cad",
      "from": "0xe30f5d336931186dd86b5c9426fd4493c34a5c5d",
      "to": "0x93b54f5317602c4dda3c77eb5a491a8d230fc004",
      "contractAddress": null
    },
    {
      "status": "0x1",
      "cumulativeGasUsed": "0x3924f4d",
      "logs": [
        {
          "address": "0x2cf8f433e60a0586c3f228d13038ee9f219c6188",
          "topics": [
            "0xddf252ad1be2c89b69c2b068fc378daa952ba7f163c4a11628f55a4df523b3ef",
            "0x0000000000000000000000000000000000000000000000000000000000000000",
            "0x0000000000000000000000006fc2fbb2973e592eb6f932a10b3e72eeaa3113c0"
          ],
          "data": "0x0000000000000000000000000000000000000000000000000000000ba43b7400",
          "blockHash": "0x387c92859d775ab0f345720f066bd3ec25a33ce2ef96ac623c8c83a81a1a8144",
          "blockNumber": "0x9b2d06",
          "blockTimestamp": "0x697f6050",
          "transactionHash": "0xaf78851f5300e1b2c7e2d4e5dcdf500e0ac2956b5fc01a4b38a9a7c532fe38f4",
          "transactionIndex": "0x41",
          "logIndex": "0x4a",
          "removed": false
        },
        {
          "address": "0x2cf8f433e60a0586c3f228d13038ee9f219c6188",
          "topics": [
            "0x3f2c9d57c068687834f0de942a9babb9e5acab57d516d3480a3c16ee165a4273",
            "0x0000000000000000000000006fc2fbb2973e592eb6f932a10b3e72eeaa3113c0"
          ],
          "data": "0x0000000000000000000000000000000000000000000000000000000ba43b7400",
          "blockHash": "0x387c92859d775ab0f345720f066bd3ec25a33ce2ef96ac623c8c83a81a1a8144",
          "blockNumber": "0x9b2d06",
          "blockTimestamp": "0x697f6050",
          "transactionHash": "0xaf78851f5300e1b2c7e2d4e5dcdf500e0ac2956b5fc01a4b38a9a7c532fe38f4",
          "transactionIndex": "0x41",
          "logIndex": "0x4b",
          "removed": false
        }
      ],
      "logsBloom": "0x00000000000000000080000000000000000000000000000000000000000000000000000000000000000000000000000000400000000004000000000000000000000000000000000000000008000000000000000000000000000000000000000000000000020000000000000000000800000000000000000000000010000000000000000000000000000000000000000100800000000000000000010000000000000000000000020000000000000000000000000002000000000000000000000000000002000000000000000000000000000000000000000000000800000020000000000000000000000000000000000000000000000000000000000000000000",
      "type": "0x2",
      "transactionHash": "0xaf78851f5300e1b2c7e2d4e5dcdf500e0ac2956b5fc01a4b38a9a7c532fe38f4",
      "transactionIndex": "0x41",
      "blockHash": "0x387c92859d775ab0f345720f066bd3ec25a33ce2ef96ac623c8c83a81a1a8144",
      "blockNumber": "0x9b2d06",
      "gasUsed": "0x11a5a",
      "effectiveGasPrice": "0x375e5f35",
      "from": "0xe30f5d336931186dd86b5c9426fd4493c34a5c5d",
      "to": "0x2cf8f433e60a0586c3f228d13038ee9f219c6188",
      "contractAddress": null
    },
    {
      "status": "0x1",
      "cumulativeGasUsed": "0xb441df",
      "logs": [
        {
          "address": "0x2cf8f433e60a0586c3f228d13038ee9f219c6188",
          "topics": [
            "0xddf252ad1be2c89b69c2b068fc378daa952ba7f163c4a11628f55a4df523b3ef",
            "0x0000000000000000000000000000000000000000000000000000000000000000",
            "0x000000000000000000000000de4a466b7441357e1137a1a1e311bd70c1439ecb"
          ],
          "data": "0x00000000000000000000000000000000000000000000000000000006fc23ac00",
          "blockHash": "0xa33430f8bef874382092d0214df08b3f9b9174c6d8f4d5d307c9f7560239548d",
          "blockNumber": "0x9b2d07",
          "blockTimestamp": "0x697f605c",
          "transactionHash": "0x7ceea34d2e4fd5c3fd78eeb213df2ff34573b1903fdfbc976e86d9f9259a3f78",
          "transactionIndex": "0x31",
          "logIndex": "0x4c",
          "removed": false
        },
        {
          "address": "0x2cf8f433e60a0586c3f228d13038ee9f219c6188",
          "topics": [
            "0x3f2c9d57c068687834f0de942a9babb9e5acab57d516d3480a3c16ee165a4273",
            "0x000000000000000000000000de4a466b7441357e1137a1a1e311bd70c1439ecb"
          ],
          "data": "0x00000000000000000000000000000000000000000000000000000006fc23ac00",
          "blockHash": "0xa33430f8bef874382092d0214df08b3f9b9174c6d8f4d5d307c9f7560239548d",
          "blockNumber": "0x9b2d07",
          "blockTimestamp": "0x697f605c",
          "transactionHash": "0x7ceea34d2e4fd5c3fd78eeb213df2ff34573b1903fdfbc976e86d9f9259a3f78",
          "transactionIndex": "0x31",
          "logIndex": "0x4d",
          "removed": false
        }
      ],
      "logsBloom": "0x00000000000000000000000000000000000000000000000000000000000000000000000000000000000000000000000000400000000104000000000000000000000000000000000000000008000000000000000000000000000000000000000000000000020000000000000000000800000000000000000000000010000000000000000000000000000000000000000100000000000000000000000000000000000000000000020000040000000000000000000002000000000400000000000000000002000000000000000000000000000000000000000000000800000020000000000000000000000000000000000000000000000000000000000000000000",
      "type": "0x2",
      "transactionHash": "0x7ceea34d2e4fd5c3fd78eeb213df2ff34573b1903fdfbc976e86d9f9259a3f78",
      "transactionIndex": "0x31",
      "blockHash": "0xa33430f8bef874382092d0214df08b3f9b9174c6d8f4d5d307c9f7560239548d",
      "blockNumber": "0x9b2d07",
      "gasUsed": "0xd78e",
      "effectiveGasPrice": "0x3e3bfcb3",
      "from": "0xe30f5d336931186dd86b5c9426fd4493c34a5c5d",
      "to": "0x2cf8f433e60a0586c3f228d13038ee9f219c6188",
      "contractAddress": null
    },
    {
      "status": "0x1",
      "cumulativeGasUsed": "0x37689f7",
      "logs": [
        {
          "address": "0x2cf8f433e60a0586c3f228d13038ee9f219c6188",
          "topics": [
            "0xddf252ad1be2c89b69c2b068fc378daa952ba7f163c4a11628f55a4df523b3ef",
            "0x0000000000000000000000000000000000000000000000000000000000000000",
            "0x000000000000000000000000ac75578bbdd3c830b32f2de2b8e2a4fa36996082"
          ],
          "data": "0x00000000000000000000000000000000000000000000000000000009502f9000",
          "blockHash": "0x8483e04b458aec32b872571e0d01847fad9bf6f5e02b061c86edd9a6a3ea5190",
          "blockNumber": "0x9b2d08",
          "blockTimestamp": "0x697f6068",
          "transactionHash": "0xb8b630a3e03e56ea81d8f567bb8766e64516cb590c6b93f28bf62a20fea3445f",
          "transactionIndex": "0x4d",
          "logIndex": "0x72",
          "removed": false
        },
        {
          "address": "0x2cf8f433e60a0586c3f228d13038ee9f219c6188",
          "topics": [
            "0x3f2c9d57c068687834f0de942a9babb9e5acab57d516d3480a3c16ee165a4273",
            "0x000000000000000000000000ac75578bbdd3c830b32f2de2b8e2a4fa36996082"
          ],
          "data": "0x00000000000000000000000000000000000000000000000000000009502f9000",
          "blockHash": "0x8483e04b458aec32b872571e0d01847fad9bf6f5e02b061c86edd9a6a3ea5190",
          "blockNumber": "0x9b2d08",
          "blockTimestamp": "0x697f6068",
          "transactionHash": "0xb8b630a3e03e56ea81d8f567bb8766e64516cb590c6b93f28bf62a20fea3445f",
          "transactionIndex": "0x4d",
          "logIndex": "0x73",
          "removed": false
        }
      ],
      "logsBloom": "0x00000000000000000000000000000000000000000000000000000000000000000000000000000000000000000000000000410000000004000000000000000000000000000000000000000008000000000000000000000000000000000000000000000000020000000000000000000800000000000000000000000010000000000000000000000000000000000000000100000000000000000000000000000000000000000000020000000000008000000000000002000000000000000000000000000002000000000000000000000000000000000001000000000800000020000000000000000000000000000000000000000000000000000000000000000000",
      "type": "0x2",
      "transactionHash": "0xb8b630a3e03e56ea81d8f567bb8766e64516cb590c6b93f28bf62a20fea3445f",
      "transactionIndex": "0x4d",
      "blockHash": "0x8483e04b458aec32b872571e0d01847fad9bf6f5e02b061c86edd9a6a3ea5190",
      "blockNumber": "0x9b2d08",
      "gasUsed": "0xd78e",
      "effectiveGasPrice": "0x3a1171cf",
      "from": "0xe30f5d336931186dd86b5c9426fd4493c34a5c5d",
      "to": "0x2cf8f433e60a0586c3f228d13038ee9f219c6188",
      "contractAddress": null
    },
    {
      "status": "0x1",
      "cumulativeGasUsed": "0x7798f1",
      "logs": [
        {
          "address": "0x2cf8f433e60a0586c3f228d13038ee9f219c6188",
          "topics": [
            "0x8c5be1e5ebec7d5bd14f71427d1e84f3dd0314c0f7b2291e5b200ac8c7c3b925",
            "0x0000000000000000000000006fc2fbb2973e592eb6f932a10b3e72eeaa3113c0",
            "0x00000000000000000000000093b54f5317602c4dda3c77eb5a491a8d230fc004"
          ],
          "data": "0x00000000000000000000000000000000000000000000000000000006fc23ac00",
          "blockHash": "0xcd46cca9d92d69a12c08539aaa951bc43a7440e7abfa79224c58e056df4f9486",
          "blockNumber": "0x9b2d09",
          "blockTimestamp": "0x697f6074",
          "transactionHash": "0x9859dbf250cc8570232ff25ccdf618f9df1f8cf86a5b72f3c827dba9bbec48ba",
          "transactionIndex": "0x3f",
          "logIndex": "0x48",
          "removed": false
        }
      ],
      "logsBloom": "0x00000000000000000080000000000000000000000000000000000000000000000000000000000000000000000000000000000000000004000000000000201000000000000000000000000000000000000000000000000000000000000000000000000000000000000000000000000000000000000000000000000000000000000000000000000000000000000000000400800000001000000000010000000000020000000000020000000000000000000000000002000000000000000000000000000000000000000000000000000000000000000000000000000000000000000010000000000000000000000000000000000000000000000000000000000000",
      "type": "0x2",
      "transactionHash": "0x9859dbf250cc8570232ff25ccdf618f9df1f8cf86a5b72f3c827dba9bbec48ba",
      "transactionIndex": "0x3f",
      "blockHash": "0xcd46cca9d92d69a12c08539aaa951bc43a7440e7abfa79224c58e056df4f9486",
      "blockNumber": "0x9b2d09",
      "gasUsed": "0xb524",
      "effectiveGasPrice": "0x411f9bd1",
      "from": "0x6fc2fbb2973e592eb6f932a10b3e72eeaa3113c0",
      "to": "0x2cf8f433e60a0586c3f228d13038ee9f219c6188",
      "contractAddress": null
    },
    {
      "status": "0x1",
      "cumulativeGasUsed": "0x4e2e81",
      "logs": [
        {
          "address": "0x2cf8f433e60a0586c3f228d13038ee9f219c6188",
          "topics": [
            "0xddf252ad1be2c89b69c2b068fc378daa952ba7f163c4a11628f55a4df523b3ef",
            "0x0000000000000000000000006fc2fbb2973e592eb6f932a10b3e72eeaa3113c0",
            "0x000000000000000000000000e30f5d336931186dd86b5c9426fd4493c34a5c5d"
          ],
          "data": "0x00000000000000000000000000000000000000000000000000000002540be400",
          "blockHash": "0xf3e4a05aedabb1082b54521fe3bb2684595a22288c4aa581d7a5a3f25c8af041",
          "blockNumber": "0x9b2d0a",
          "blockTimestamp": "0x697f6080",
          "transactionHash": "0x27a58160c04a89ad64e210757e7d1c4f1f8055c7cab8829ca1c05c2d9a7e876c",
          "transactionIndex": "0x2e",
          "logIndex": "0x27",
          "removed": false
        },
        {
          "address": "0x3eb95efcdc5b021d64f96739c81e43d45d222c38",
          "topics": [
            "0xc3d58168c5ae7397731d063d5bbf3d657854427343f4c083240f7aacaa2d0f62",
            "0x00000000000000000000000093b54f5317602c4dda3c77eb5a491a8d230fc004",
            "0x00000000000000000000000093b54f5317602c4dda3c77eb5a491a8d230fc004",
            "0x0000000000000000000000006fc2fbb2973e592eb6f932a10b3e72eeaa3113c0"
          ],
          "data": "0x00000000000000000000000000000000000000000000000000000000000000000000000000000000000000000000000000000000000000000000000000000064",
          "blockHash": "0xf3e4a05aedabb1082b54521fe3bb2684595a22288c4aa581d7a5a3f25c8af041",
          "blockNumber": "0x9b2d0a",
          "blockTimestamp": "0x697f6080",
          "transactionHash": "0x27a58160c04a89ad64e210757e7d1c4f1f8055c7cab8829ca1c05c2d9a7e876c",
          "transactionIndex": "0x2e",
          "logIndex": "0x28",
          "removed": false
        },
        {
          "address": "0x93b54f5317602c4dda3c77eb5a491a8d230fc004",
          "topics": [
            "0x751dfd922ff4b6048a31e74f71bfe6c58ee9135146d587bf908e12cfa525ae0b",
            "0x0000000000000000000000006fc2fbb2973e592eb6f932a10b3e72eeaa3113c0",
            "0x0000000000000000000000000000000000000000000000000000000000000000"
          ],
          "data": "0x000000000000000000000000000000000000000000000000000000000000006400000000000000000000000000000000000000000000000000000002540be400",
          "blockHash": "0xf3e4a05aedabb1082b54521fe3bb2684595a22288c4aa581d7a5a3f25c8af041",
          "blockNumber": "0x9b2d0a",
          "blockTimestamp": "0x697f6080",
          "transactionHash": "0x27a58160c04a89ad64e210757e7d1c4f1f8055c7cab8829ca1c05c2d9a7e876c",
          "transactionIndex": "0x2e",
          "logIndex": "0x29",
          "removed": false
        }
      ],
      "logsBloom": "0x00000000000000000080000004000000000000000000000000000040000000000000000000000000000000000000000000000000000004000000000200003000000000000000000000000008000100000000000000000000000000000000000000000000020000000000000000000800000000000000000000000010000000000000100000000000000000000000000600800000001000000000010000000000000000000024020000400000000002000000000002000000000000000000000000000002000000000000000000000100000000001008000000000000000020000000000000000000000000000000000000000000000000000000080000000000",
      "type": "0x2",
      "transactionHash": "0x27a58160c04a89ad64e210757e7d1c4f1f8055c7cab8829ca1c05c2d9a7e876c",
      "transactionIndex": "0x2e",
      "blockHash": "0xf3e4a05aedabb1082b54521fe3bb2684595a22288c4aa581d7a5a3f25c8af041",
      "blockNumber": "0x9b2d0a",
      "gasUsed": "0x198d2",
      "effectiveGasPrice": "0x3c07e6ed",
      "from": "0x6fc2fbb2973e592eb6f932a10b3e72eeaa3113c0",
      "to": "0x93b54f5317602c4dda3c77eb5a491a8d230fc004",
      "contractAddress": null
    },
    {
      "status": "0x1",
      "cumulativeGasUsed": "0xc43aa1",
      "logs": [
        {
          "address": "0x2cf8f433e60a0586c3f228d13038ee9f219c6188",
          "topics": [
            "0xddf252ad1be2c89b69c2b068fc378daa952ba7f163c4a11628f55a4df523b3ef",
            "0x0000000000000000000000006fc2fbb2973e592eb6f932a10b3e72eeaa3113c0",
            "0x000000000000000000000000e30f5d336931186dd86b5c9426fd4493c34a5c5d"
          ],
          "data": "0x00000000000000000000000000000000000000000000000000000002540be400",
          "blockHash": "0xcfaef2bd817337bde6cee74406dfc7574f81f00f8e3912ee641c85af4cfa848b",
          "blockNumber": "0x9b2d0b",
          "blockTimestamp": "0x697f608c",
          "transactionHash": "0x720832013a0eb6f6ee50aa8932d780c86dfc6a40700e36b465e84bf459bccd6a",
          "transactionIndex": "0x34",
          "logIndex": "0x3a",
          "removed": false
        },
        {
          "address": "0x3eb95efcdc5b021d64f96739c81e43d45d222c38",
          "topics": [
            "0xc3d58168c5ae7397731d063d5bbf3d657854427343f4c083240f7aacaa2d0f62",
            "0x00000000000000000000000093b54f5317602c4dda3c77eb5a491a8d230fc004",
            "0x00000000000000000000000093b54f5317602c4dda3c77eb5a491a8d230fc004",
            "0x0000000000000000000000006fc2fbb2973e592eb6f932a10b3e72eeaa3113c0"
          ],
          "data": "0x00000000000000000000000000000000000000000000000000000000000000010000000000000000000000000000000000000000000000000000000000000032",
          "blockHash": "0xcfaef2bd817337bde6cee74406dfc7574f81f00f8e3912ee641c85af4cfa848b",
          "blockNumber": "0x9b2d0b",
          "blockTimestamp": "0x697f608c",
          "transactionHash": "0x720832013a0eb6f6ee50aa8932d780c86dfc6a40700e36b465e84bf459bccd6a",
          "transactionIndex": "0x34",
          "logIndex": "0x3b",
          "removed": false
        },
        {
          "address": "0x93b54f5317602c4dda3c77eb5a491a8d230fc004",
          "topics": [
            "0x751dfd922ff4b6048a31e74f71bfe6c58ee9135146d587bf908e12cfa525ae0b",
            "0x0000000000000000000000006fc2fbb2973e592eb6f932a10b3e72eeaa3113c0",
            "0x0000000000000000000000000000000000000000000000000000000000000001"
          ],
          "data": "0x000000000000000000000000000000000000000000000000000000000000003200000000000000000000000000000000000000000000000000000002540be400",
          "blockHash": "0xcfaef2bd817337bde6cee74406dfc7574f81f00f8e3912ee641c85af4cfa848b",
          "blockNumber": "0x9b2d0b",
          "blockTimestamp": "0x697f608c",
          "transactionHash": "0x720832013a0eb6f6ee50aa8932d780c86dfc6a40700e36b465e84bf459bccd6a",
          "transactionIndex": "0x34",
          "logIndex": "0x3c",
          "removed": false
        }
      ],
      "logsBloom": "0x00000000000000000080000004000000000000000000000000000040000000000000000000000000000000000000000000000000000004000000000200043000000000000000000000000008000100000000000000040000000000000000000000000000000000000000000000000000000000000000000000000010000000000000100000000000000000000000000600800000001000000000010000000000000000000024020000400000000002000000000002000000000000000000000000000002000000000000000000000100000000001008000000000000000040000000000000000000000000000000000000000000000000000000080000000000",
      "type": "0x2",
      "transactionHash": "0x720832013a0eb6f6ee50aa8932d780c86dfc6a40700e36b465e84bf459bccd6a",
      "transactionIndex": "0x34",
      "blockHash": "0xcfaef2bd817337bde6cee74406dfc7574f81f00f8e3912ee641c85af4cfa848b",
      "blockNumber": "0x9b2d0b",
      "gasUsed": "0x15612",
      "effectiveGasPrice": "0x3ff1ba3e",
      "from": "0x6fc2fbb2973e592eb6f932a10b3e72eeaa3113c0",
      "to": "0x93b54f5317602c4dda3c77eb5a491a8d230fc004",
      "contractAddress": null
    },
    {
      "status": "0x1",
      "cumulativeGasUsed": "0x5abb2a",
      "logs": [
        {
          "address": "0x2cf8f433e60a0586c3f228d13038ee9f219c6188",
          "topics": [
            "0x8c5be1e5ebec7d5bd14f71427d1e84f3dd0314c0f7b2291e5b200ac8c7c3b925",
            "0x000000000000000000000000de4a466b7441357e1137a1a1e311bd70c1439ecb",
            "0x00000000000000000000000093b54f5317602c4dda3c77eb5a491a8d230fc004"
          ],
          "data": "0x00000000000000000000000000000000000000000000000000000005d21dba00",
          "blockHash": "0xed1db4203575b210a0d38329eb12a441f6899d602cbd758d9155250c1a058810",
          "blockNumber": "0x9b2d0c",
          "blockTimestamp": "0x697f6098",
          "transactionHash": "0xf5cf79e3b942108e2d47f6353653cfcc4e5b7c80491c8d00247be5a4980d9430",
          "transactionIndex": "0x38",
          "logIndex": "0x46",
          "removed": false
        }
      ],
      "logsBloom": "0x00000000000000000000000000000000000000000000000000000000000000000000000000000000000000000000000000000000000104000000000000201000000000000000000000000000000000000000000000000000000000000000000000000000000000000000000000000000000000000000000000000000000000000000000000000000000000000000000400000000001000000000000000000000020000000000020000040000000000000000000002000000000400000000000000000000000000000000000000000000000000000000000000000000000000000010000000000000000000000000000000000000000000000000000000000000",
      "type": "0x2",
      "transactionHash": "0xf5cf79e3b942108e2d47f6353653cfcc4e5b7c80491c8d00247be5a4980d9430",
      "transactionIndex": "0x38",
      "blockHash": "0xed1db4203575b210a0d38329eb12a441f6899d602cbd758d9155250c1a058810",
      "blockNumber": "0x9b2d0c",
      "gasUsed": "0xb524",
      "effectiveGasPrice": "0x3cf486c6",
      "from": "0xde4a466b7441357e1137a1a1e311bd70c1439ecb",
      "to": "0x2cf8f433e60a0586c3f228d13038ee9f219c6188",
      "contractAddress": null
    },
    {
      "status": "0x1",
      "cumulativeGasUsed": "0x3828492",
      "logs": [
        {
          "address": "0x2cf8f433e60a0586c3f228d13038ee9f219c6188",
          "topics": [
            "0xddf252ad1be2c89b69c2b068fc378daa952ba7f163c4a11628f55a4df523b3ef",
            "0x000000000000000000000000de4a466b7441357e1137a1a1e311bd70c1439ecb",
            "0x000000000000000000000000e30f5d336931186dd86b5c9426fd4493c34a5c5d"
          ],
          "data": "0x00000000000000000000000000000000000000000000000000000001dcd65000",
          "blockHash": "0x37825b1ff25c65e84a64b7299acb7b79724c5d2bde2657bac9bdb11776eb4356",
          "blockNumber": "0x9b2d0d",
          "blockTimestamp": "0x697f60a4",
          "transactionHash": "0x416075e7c1ca6f4b6b7a9bf84a2dba26d202c6303530d7e59b384ea6f653146e",
          "transactionIndex": "0x56",
          "logIndex": "0x6b",
          "removed": false
        },
        {
          "address": "0x3eb95efcdc5b021d64f96739c81e43d45d222c38",
          "topics": [
            "0xc3d58168c5ae7397731d063d5bbf3d657854427343f4c083240f7aacaa2d0f62",
            "0x00000000000000000000000093b54f5317602c4dda3c77eb5a491a8d230fc004",
            "0x00000000000000000000000093b54f5317602c4dda3c77eb5a491a8d230fc004",
            "0x000000000000000000000000de4a466b7441357e1137a1a1e311bd70c1439ecb"
          ],
          "data": "0x00000000000000000000000000000000000000000000000000000000000000030000000000000000000000000000000000000000000000000000000000000064",
          "blockHash": "0x37825b1ff25c65e84a64b7299acb7b79724c5d2bde2657bac9bdb11776eb4356",
          "blockNumber": "0x9b2d0d",
          "blockTimestamp": "0x697f60a4",
          "transactionHash": "0x416075e7c1ca6f4b6b7a9bf84a2dba26d202c6303530d7e59b384ea6f653146e",
          "transactionIndex": "0x56",
          "logIndex": "0x6c",
          "removed": false
        },
        {
          "address": "0x93b54f5317602c4dda3c77eb5a491a8d230fc004",
          "topics": [
            "0x751dfd922ff4b6048a31e74f71bfe6c58ee9135146d587bf908e12cfa525ae0b",
            "0x000000000000000000000000de4a466b7441357e1137a1a1e311bd70c1439ecb",
            "0x0000000000000000000000000000000000000000000000000000000000000003"
          ],
          "data": "0x000000000000000000000000000000000000000000000000000000000000006400000000000000000000000000000000000000000000000000000001dcd65000",
          "blockHash": "0x37825b1ff25c65e84a64b7299acb7b79724c5d2bde2657bac9bdb11776eb4356",
          "blockNumber": "0x9b2d0d",
          "blockTimestamp": "0x697f60a4",
          "transactionHash": "0x416075e7c1ca6f4b6b7a9bf84a2dba26d202c6303530d7e59b384ea6f653146e",
          "transactionIndex": "0x56",
          "logIndex": "0x6d",
          "removed": false
        }
      ],
      "logsBloom": "0x00000000000000000000000004000000000000000000000000000040000000000000000000000000000000000000000000000000020104000000000200003000000000000000000000000008000100000000000000000000000000000000000000000000000000000000000000000000000000000000000000000010000000000000100000000000000000000000000600000000001000000000000000000000000000000024020000440000000002000000000002800000000400000000400000000002000000000000000000000100000000001008000000000000000000000000000000000000000000000000000000000000000000000000080000000000",
      "type": "0x2",
      "transactionHash": "0x416075e7c1ca6f4b6b7a9bf84a2dba26d202c6303530d7e59b384ea6f653146e",
      "transactionIndex": "0x56",
      "blockHash": "0x37825b1ff25c65e84a64b7299acb7b79724c5d2bde2657bac9bdb11776eb4356",
      "blockNumber": "0x9b2d0d",
      "gasUsed": "0x15612",
      "effectiveGasPrice": "0x374b368a",
      "from": "0xde4a466b7441357e1137a1a1e311bd70c1439ecb",
      "to": "0x93b54f5317602c4dda3c77eb5a491a8d230fc004",
      "contractAddress": null
    },
    {
      "status": "0x1",
      "cumulativeGasUsed": "0x55fa4f",
      "logs": [
        {
          "address": "0x2cf8f433e60a0586c3f228d13038ee9f219c6188",
          "topics": [
            "0xddf252ad1be2c89b69c2b068fc378daa952ba7f163c4a11628f55a4df523b3ef",
            "0x000000000000000000000000de4a466b7441357e1137a1a1e311bd70c1439ecb",
            "0x000000000000000000000000e30f5d336931186dd86b5c9426fd4493c34a5c5d"
          ],
          "data": "0x00000000000000000000000000000000000000000000000000000002cb417800",
          "blockHash": "0xf5ba0bbe6448473bd905462e82d471e7ed898db5382dca9107b35ad39194a656",
          "blockNumber": "0x9b2d0e",
          "blockTimestamp": "0x697f60b0",
          "transactionHash": "0x050b4f76844ce40d0e7fd65e17220cf3686b8cbe1b8c69e5afe18e8ce8120d7a",
          "transactionIndex": "0x36",
          "logIndex": "0x3e",
          "removed": false
        },
        {
          "address": "0x3eb95efcdc5b021d64f96739c81e43d45d222c38",
          "topics": [
            "0xc3d58168c5ae7397731d063d5bbf3d657854427343f4c083240f7aacaa2d0f62",
            "0x00000000000000000000000093b54f5317602c4dda3c77eb5a491a8d230fc004",
            "0x00000000000000000000000093b54f5317602c4dda3c77eb5a491a8d230fc004",
            "0x000000000000000000000000de4a466b7441357e1137a1a1e311bd70c1439ecb"
          ],
          "data": "0x00000000000000000000000000000000000000000000000000000000000000020000000000000000000000000000000000000000000000000000000000000050",
          "blockHash": "0xf5ba0bbe6448473bd905462e82d471e7ed898db5382dca9107b35ad39194a656",
          "blockNumber": "0x9b2d0e",
          "blockTimestamp": "0x697f60b0",
          "transactionHash": "0x050b4f76844ce40d0e7fd65e17220cf3686b8cbe1b8c69e5afe18e8ce8120d7a",
          "transactionIndex": "0x36",
          "logIndex": "0x3f",
          "removed": false
        },
        {
          "address": "0x93b54f5317602c4dda3c77eb5a491a8d230fc004",
          "topics": [
            "0x751dfd922ff4b6048a31e74f71bfe6c58ee9135146d587bf908e12cfa525ae0b",
            "0x000000000000000000000000de4a466b7441357e1137a1a1e311bd70c1439ecb",
            "0x0000000000000000000000000000000000000000000000000000000000000002"
          ],
          "data": "0x000000000000000000000000000000000000000000000000000000000000005000000000000000000000000000000000000000000000000000000002cb417800",
          "blockHash": "0xf5ba0bbe6448473bd905462e82d471e7ed898db5382dca9107b35ad39194a656",
          "blockNumber": "0x9b2d0e",
          "blockTimestamp": "0x697f60b0",
          "transactionHash": "0x050b4f76844ce40d0e7fd65e17220cf3686b8cbe1b8c69e5afe18e8ce8120d7a",
          "transactionIndex": "0x36",
          "logIndex": "0x40",
          "removed": false
        }
      ],
      "logsBloom": "0x04000000000000000000000004000000000000000000000000000040000000000000000000000000000000000000000000000000000104000000000200003000000000000000000000000008000100000000000000000000000000000000000000000000000000000000000000000000000000000000000000000010000000000000100000000000000000000000000600000000001000000000000000000000000000000024020000440100000002000000000002000000000400000000000000000002000000000000000000000100000000001008000000000000000000000000000000000000000000000000000000000000008000000000080000000000",
      "type": "0x2",
      "transactionHash": "0x050b4f76844ce40d0e7fd65e17220cf3686b8cbe1b8c69e5afe18e8ce8120d7a",
      "transactionIndex": "0x36",
      "blockHash": "0xf5ba0bbe6448473bd905462e82d471e7ed898db5382dca9107b35ad39194a656",
      "blockNumber": "0x9b2d0e",
      "gasUsed": "0x15612",
      "effectiveGasPrice": "0x3e2496ad",
      "from": "0xde4a466b7441357e1137a1a1e311bd70c1439ecb",
      "to": "0x93b54f5317602c4dda3c77eb5a491a8d230fc004",
      "contractAddress": null
    },
    {
      "status": "0x1",
      "cumulativeGasUsed": "0x39333de",
      "logs": [
        {
          "address": "0x2cf8f433e60a0586c3f228d13038ee9f219c6188",
          "topics": [
            "0x8c5be1e5ebec7d5bd14f71427d1e84f3dd0314c0f7b2291e5b200ac8c7c3b925",
            "0x000000000000000000000000ac75578bbdd3c830b32f2de2b8e2a4fa36996082",
            "0x00000000000000000000000093b54f5317602c4dda3c77eb5a491a8d230fc004"
          ],
          "data": "0x0000000000000000000000000000000000000000000000000000000826299e00",
          "blockHash": "0x9590999fe1fab8720124944eac14ac3c9129239528154ecdd1a20290d41615b6",
          "blockNumber": "0x9b2d0f",
          "blockTimestamp": "0x697f60bc",
          "transactionHash": "0x56776bd91bfcb276f115959da36a84a0c4a16395f172d53936c256732d6dddec",
          "transactionIndex": "0x43",
          "logIndex": "0x4e",
          "removed": false
        }
      ],
      "logsBloom": "0x00000000000000000000000000000000000000000000000000000000000000000000000000000000000000000000000000010000000004000000000000201000000000000000000000000000000000000000000000000000000000000000000000000000000000000000000000000000000000000000000000000000000000000000000000000000000000000000000400000000001000000000000000000000020000000000020000000000008000000000000002000000000000000000000000000000000000000000000000000000000000000001000000000000000000000010000000000000000000000000000000000000000000000000000000000000",
      "type": "0x2",
      "transactionHash": "0x56776bd91bfcb276f115959da36a84a0c4a16395f172d53936c256732d6dddec",
      "transactionIndex": "0x43",
      "blockHash": "0x9590999fe1fab8720124944eac14ac3c9129239528154ecdd1a20290d41615b6",
      "blockNumber": "0x9b2d0f",
      "gasUsed": "0xb524",
      "effectiveGasPrice": "0x3883f4db",
      "from": "0xac75578bbdd3c830b32f2de2b8e2a4fa36996082",
      "to": "0x2cf8f433e60a0586c3f228d13038ee9f219c6188",
      "contractAddress": null
    },
    {
      "status": "0x1",
      "cumulativeGasUsed": "0xe1c032",
      "logs": [
        {
          "address": "0x2cf8f433e60a0586c3f228d13038ee9f219c6188",
          "topics": [
            "0xddf252ad1be2c89b69c2b068fc378daa952ba7f163c4a11628f55a4df523b3ef",
            "0x000000000000000000000000ac75578bbdd3c830b32f2de2b8e2a4fa36996082",
            "0x000000000000000000000000e30f5d336931186dd86b5c9426fd4493c34a5c5d"
          ],
          "data": "0x000000000000000000000000000000000000000000000000000000037e11d600",
          "blockHash": "0x4142fe4aaae2f440c15b1265b326dd60b6a8594531c73995997a6da4418cbb94",
          "blockNumber": "0x9b2d10",
          "blockTimestamp": "0x697f60c8",
          "transactionHash": "0xe5558578ea7a8d7e55ef4eecbd7a4cd8af7ec46c17fe4f8c043b32ff86345eab",
          "transactionIndex": "0x34",
          "logIndex": "0x3b",
          "removed": false
        },
        {
          "address": "0x3eb95efcdc5b021d64f96739c81e43d45d222c38",
          "topics": [
            "0xc3d58168c5ae7397731d063d5bbf3d657854427343f4c083240f7aacaa2d0f62",
            "0x00000000000000000000000093b54f5317602c4dda3c77eb5a491a8d230fc004",
            "0x00000000000000000000000093b54f5317602c4dda3c77eb5a491a8d230fc004",
            "0x000000000000000000000000ac75578bbdd3c830b32f2de2b8e2a4fa36996082"
          ],
          "data": "0x0000000000000000000000000000000000000000000000000000000000000004000000000000000000000000000000000000000000000000000000000000003c",
          "blockHash": "0x4142fe4aaae2f440c15b1265b326dd60b6a8594531c73995997a6da4418cbb94",
          "blockNumber": "0x9b2d10",
          "blockTimestamp": "0x697f60c8",
          "transactionHash": "0xe5558578ea7a8d7e55ef4eecbd7a4cd8af7ec46c17fe4f8c043b32ff86345eab",
          "transactionIndex": "0x34",
          "logIndex": "0x3c",
          "removed": false
        },
        {
          "address": "0x93b54f5317602c4dda3c77eb5a491a8d230fc004",
          "topics": [
            "0x751dfd922ff4b6048a31e74f71bfe6c58ee9135146d587bf908e12cfa525ae0b",
            "0x000000000000000000000000ac75578bbdd3c830b32f2de2b8e2a4fa36996082",
            "0x0000000000000000000000000000000000000000000000000000000000000004"
          ],
          "data": "0x000000000000000000000000000000000000000000000000000000000000003c000000000000000000000000000000000000000000000000000000037e11d600",
          "blockHash": "0x4142fe4aaae2f440c15b1265b326dd60b6a8594531c73995997a6da4418cbb94",
          "blockNumber": "0x9b2d10",
          "blockTimestamp": "0x697f60c8",
          "transactionHash": "0xe5558578ea7a8d7e55ef4eecbd7a4cd8af7ec46c17fe4f8c043b32ff86345eab",
          "transactionIndex": "0x34",
          "logIndex": "0x3d",
          "removed": false
        }
      ],
      "logsBloom": "0x00000000000000000000000004000000000000000000000000000040000000000000000000000000000000000000000000010000000004000000000200003000000000000000000000000008000100000000000000000000000000000000000008000000000000000000000000000000000000000000000000000010000000000000100000000000000000000000000600000000001000000000000000000000000000000024020000400000008002000000000002000000002000000000000000000002000000000000000000000100000000009009000000000000000000000000000000000000000000000000000000000000000000000000080000000000",
      "type": "0x2",
      "transactionHash": "0xe5558578ea7a8d7e55ef4eecbd7a4cd8af7ec46c17fe4f8c043b32ff86345eab",
      "transactionIndex": "0x34",
      "blockHash": "0x4142fe4aaae2f440c15b1265b326dd60b6a8594531c73995997a6da4418cbb94",
      "blockNumber": "0x9b2d10",
      "gasUsed": "0x15612",
      "effectiveGasPrice": "0x3f868a7f",
      "from": "0xac75578bbdd3c830b32f2de2b8e2a4fa36996082",
      "to": "0x93b54f5317602c4dda3c77eb5a491a8d230fc004",
      "contractAddress": null
    },
    {
      "status": "0x1",
      "cumulativeGasUsed": "0x4a47d3",
      "logs": [
        {
          "address": "0x2cf8f433e60a0586c3f228d13038ee9f219c6188",
          "topics": [
            "0xddf252ad1be2c89b69c2b068fc378daa952ba7f163c4a11628f55a4df523b3ef",
            "0x000000000000000000000000ac75578bbdd3c830b32f2de2b8e2a4fa36996082",
            "0x000000000000000000000000e30f5d336931186dd86b5c9426fd4493c34a5c5d"
          ],
          "data": "0x0000000000000000000000000000000000000000000000000000000165a0bc00",
          "blockHash": "0x6cc13a28802b9d68ff88be65906dcdb4abb158761958293e76a5c0ab79b81465",
          "blockNumber": "0x9b2d11",
          "blockTimestamp": "0x697f60d4",
          "transactionHash": "0x1bcc967ec82944c96643d45dd26e9abfbb7cef3b0ee47c42d6639ff64c66356b",
          "transactionIndex": "0x38",
          "logIndex": "0x3c",
          "removed": false
        },
        {
          "address": "0x3eb95efcdc5b021d64f96739c81e43d45d222c38",
          "topics": [
            "0xc3d58168c5ae7397731d063d5bbf3d657854427343f4c083240f7aacaa2d0f62",
            "0x00000000000000000000000093b54f5317602c4dda3c77eb5a491a8d230fc004",
            "0x00000000000000000000000093b54f5317602c4dda3c77eb5a491a8d230fc004",
            "0x000000000000000000000000ac75578bbdd3c830b32f2de2b8e2a4fa36996082"
          ],
          "data": "0x0000000000000000000000000000000000000000000000000000000000000001000000000000000000000000000000000000000000000000000000000000001e",
          "blockHash": "0x6cc13a28802b9d68ff88be65906dcdb4abb158761958293e76a5c0ab79b81465",
          "blockNumber": "0x9b2d11",
          "blockTimestamp": "0x697f60d4",
          "transactionHash": "0x1bcc967ec82944c96643d45dd26e9abfbb7cef3b0ee47c42d6639ff64c66356b",
          "transactionIndex": "0x38",
          "logIndex": "0x3d",
          "removed": false
        },
        {
          "address": "0x93b54f5317602c4dda3c77eb5a491a8d230fc004",
          "topics": [
            "0x751dfd922ff4b6048a31e74f71bfe6c58ee9135146d587bf908e12cfa525ae0b",
            "0x000000000000000000000000ac75578bbdd3c830b32f2de2b8e2a4fa36996082",
            "0x0000000000000000000000000000000000000000000000000000000000000001"
          ],
          "data": "0x000000000000000000000000000000000000000000000000000000000000001e0000000000000000000000000000000000000000000000000000000165a0bc00",
          "blockHash": "0x6cc13a28802b9d68ff88be65906dcdb4abb158761958293e76a5c0ab79b81465",
          "blockNumber": "0x9b2d11",
          "blockTimestamp": "0x697f60d4",
          "transactionHash": "0x1bcc967ec82944c96643d45dd26e9abfbb7cef3b0ee47c42d6639ff64c66356b",
          "transactionIndex": "0x38",
          "logIndex": "0x3e",
          "removed": false
        }
      ],
      "logsBloom": "0x00000000000000000000000004000000000000000000000000000040000000000000000000000000000000000000000000010000000004000000000200043000000000000000000000000008000100000000000000040000000000000000000000000000000000000000000000000000000000000000000000000010000000000000100000000000000000000000000600000000001000000000000000000000000000000024020000400000008002000000000002000000000000000000000000000002000000000000000000000100000000001009000000000000000040000000000000000000000000000000000000000000000000000000080000000000",
      "type": "0x2",
      "transactionHash": "0x1bcc967ec82944c96643d45dd26e9abfbb7cef3b0ee47c42d6639ff64c66356b",
      "transactionIndex": "0x38",
      "blockHash": "0x6cc13a28802b9d68ff88be65906dcdb4abb158761958293e76a5c0ab79b81465",
      "blockNumber": "0x9b2d11",
      "gasUsed": "0x15612",
      "effectiveGasPrice": "0x3bea1eec",
      "from": "0xac75578bbdd3c830b32f2de2b8e2a4fa36996082",
      "to": "0x93b54f5317602c4dda3c77eb5a491a8d230fc004",
      "contractAddress": null
    },
    {
      "status": "0x1",
      "cumulativeGasUsed": "0xad55b0",
      "logs": [
        {
          "address": "0x2cf8f433e60a0586c3f228d13038ee9f219c6188",
          "topics": [
            "0xddf252ad1be2c89b69c2b068fc378daa952ba7f163c4a11628f55a4df523b3ef",
            "0x000000000000000000000000ac75578bbdd3c830b32f2de2b8e2a4fa36996082",
            "0x000000000000000000000000e30f5d336931186dd86b5c9426fd4493c34a5c5d"
          ],
          "data": "0x000000000000000000000000000000000000000000000000000000012a05f200",
          "blockHash": "0xb7d2b4157959e504cbdbf2dfc9852f88c1460228cd78773e7b83b0ee0102f87e",
          "blockNumber": "0x9b2d12",
          "blockTimestamp": "0x697f60e0",
          "transactionHash": "0x673342ecf20d2d9b37a996f12cfe292071cfe0fd9fc9c5739cfc13960f74c436",
          "transactionIndex": "0x36",
          "logIndex": "0x49",
          "removed": false
        },
        {
          "address": "0x3eb95efcdc5b021d64f96739c81e43d45d222c38",
          "topics": [
            "0xc3d58168c5ae7397731d063d5bbf3d657854427343f4c083240f7aacaa2d0f62",
            "0x00000000000000000000000093b54f5317602c4dda3c77eb5a491a8d230fc004",
            "0x00000000000000000000000093b54f5317602c4dda3c77eb5a491a8d230fc004",
            "0x000000000000000000000000ac75578bbdd3c830b32f2de2b8e2a4fa36996082"
          ],
          "data": "0x00000000000000000000000000000000000000000000000000000000000000000000000000000000000000000000000000000000000000000000000000000032",
          "blockHash": "0xb7d2b4157959e504cbdbf2dfc9852f88c1460228cd78773e7b83b0ee0102f87e",
          "blockNumber": "0x9b2d12",
          "blockTimestamp": "0x697f60e0",
          "transactionHash": "0x673342ecf20d2d9b37a996f12cfe292071cfe0fd9fc9c5739cfc13960f74c436",
          "transactionIndex": "0x36",
          "logIndex": "0x4a",
          "removed": false
        },
        {
          "address": "0x93b54f5317602c4dda3c77eb5a491a8d230fc004",
          "topics": [
            "0x751dfd922ff4b6048a31e74f71bfe6c58ee9135146d587bf908e12cfa525ae0b",
            "0x000000000000000000000000ac75578bbdd3c830b32f2de2b8e2a4fa36996082",
            "0x0000000000000000000000000000000000000000000000000000000000000000"
          ],
          "data": "0x0000000000000000000000000000000000000000000000000000000000000032000000000000000000000000000000000000000000000000000000012a05f200",
          "blockHash": "0xb7d2b4157959e504cbdbf2dfc9852f88c1460228cd78773e7b83b0ee0102f87e",
          "blockNumber": "0x9b2d12",
          "blockTimestamp": "0x697f60e0",
          "transactionHash": "0x673342ecf20d2d9b37a996f12cfe292071cfe0fd9fc9c5739cfc13960f74c436",
          "transactionIndex": "0x36",
          "logIndex": "0x4b",
          "removed": false
        }
      ],
      "logsBloom": "0x00000000000000000000000004000000000000000000000000000040000000000000000000000000000000000000000000010000000004000000000200003000000000000000000000000008000100000000000000000000000000000000000000000000020000000000000000000800000000000000000000000010000000000000100000000000000000000000000600000000001000000000000000000000000000000024020000400000008002000000000002000000000000000000000000000002000000000000000000000100000000001009000000000000000020000000000000000000000000000000000000000000000000000000080000000000",
      "type": "0x2",
      "transactionHash": "0x673342ecf20d2d9b37a996f12cfe292071cfe0fd9fc9c5739cfc13960f74c436",
      "transactionIndex": "0x36",
      "blockHash": "0xb7d2b4157959e504cbdbf2dfc9852f88c1460228cd78773e7b83b0ee0102f87e",
      "blockNumber": "0x9b2d12",
      "gasUsed": "0x15606",
      "effectiveGasPrice": "0x4330a116",
      "from": "0xac75578bbdd3c830b32f2de2b8e2a4fa36996082",
      "to": "0x93b54f5317602c4dda3c77eb5a491a8d230fc004",
      "contractAddress": null
    },
    {
      "status": "0x1",
      "cumulativeGasUsed": "0x73b8da",
      "logs": [
        {
          "address": "0x3eb95efcdc5b021d64f96739c81e43d45d222c38",
          "topics": [
            "0x17307eab39ab6107e8899845ad3d59bd9653f200f220920489ca2b5937696c31",
            "0x0000000000000000000000006fc2fbb2973e592eb6f932a10b3e72eeaa3113c0",
            "0x000000000000000000000000b861949bebabe343b8f816d29de92d9e4d3e6383"
          ],
          "data": "0x0000000000000000000000000000000000000000000000000000000000000001",
          "blockHash": "0x65cd65f47144f72aa59c4fd9157348fbc3a215f86ef3346dd50b74370110c8b6",
          "blockNumber": "0x9b2d13",
          "blockTimestamp": "0x697f60ec",
          "transactionHash": "0xc8e68004bcf83731daa8a6ba4db4cd3a311a8d996707bd3f1a96601406882615",
          "transactionIndex": "0x27",
          "logIndex": "0x39",
          "removed": false
        }
      ],
      "logsBloom": "0x00000000000000010080000000000000000000000000000000000000000000001000000000000000000000000000000000000000000000000000000000000000000000000000000000000000000000000000000000000000000000000000000002000000000000000000000000000000000000000000000000000000000000000000000000000000000000000000000200800000000000000000010000000000000000000004000000010000000002000000000000000000000000000000000000000000000000000000000000000000000000000000000000000000000000000000200800000000000000000000000000000000000000000000000000000000",
      "type": "0x2",
      "transactionHash": "0xc8e68004bcf83731daa8a6ba4db4cd3a311a8d996707bd3f1a96601406882615",
      "transactionIndex": "0x27",
      "blockHash": "0x65cd65f47144f72aa59c4fd9157348fbc3a215f86ef3346dd50b74370110c8b6",
      "blockNumber": "0x9b2d13",
      "gasUsed": "0xb468",
      "effectiveGasPrice": "0x3e8a00b0",
      "from": "0x6fc2fbb2973e592eb6f932a10b3e72eeaa3113c0",
      "to": "0x3eb95efcdc5b021d64f96739c81e43d45d222c38",
      "contractAddress": null
    },
    {
      "status": "0x1",
      "cumulativeGasUsed": "0x38bddfa",
      "logs": [
        {
          "address": "0x3eb95efcdc5b021d64f96739c81e43d45d222c38",
          "topics": [
            "0x17307eab39ab6107e8899845ad3d59bd9653f200f220920489ca2b5937696c31",
            "0x000000000000000000000000de4a466b7441357e1137a1a1e311bd70c1439ecb",
            "0x000000000000000000000000b861949bebabe343b8f816d29de92d9e4d3e6383"
          ],
          "data": "0x0000000000000000000000000000000000000000000000000000000000000001",
          "blockHash": "0xd1d0cb9720fdea9eff19e3d9a89927e038ec03258b681e87b49edeb0c0d4186a",
          "blockNumber": "0x9b2d14",
          "blockTimestamp": "0x697f60f8",
          "transactionHash": "0x05a1a8155bce724629e8f73b0e3775f1013993c4d24c6e662363b07f9e1b3e56",
          "transactionIndex": "0x43",
          "logIndex": "0x5d",
          "removed": false
        }
      ],
      "logsBloom": "0x00000000000000010000000000000000000000000000000000000000000000001000000000000000000000000000000000000000000100000000000000000000000000000000000000000000000000000000000000000000000000000000000002000000000000000000000000000000000000000000000000000000000000000000000000000000000000000000000200000000000000000000000000000000000000000004000000050000000002000000000000000000000400000000000000000000000000000000000000000000000000000000000000000000000000000000200800000000000000000000000000000000000000000000000000000000",
      "type": "0x2",
      "transactionHash": "0x05a1a8155bce724629e8f73b0e3775f1013993c4d24c6e662363b07f9e1b3e56",
      "transactionIndex": "0x43",
      "blockHash": "0xd1d0cb9720fdea9eff19e3d9a89927e038ec03258b681e87b49edeb0c0d4186a",
      "blockNumber": "0x9b2d14",
      "gasUsed": "0xb468",
      "effectiveGasPrice": "0x390c21bc",
      "from": "0xde4a466b7441357e1137a1a1e311bd70c1439ecb",
      "to": "0x3eb95efcdc5b021d64f96739c81e43d45d222c38",
      "contractAddress": null
    },
    {
      "status": "0x1",
      "cumulativeGasUsed": "0x4de260",
      "logs": [
        {
          "address": "0x3eb95efcdc5b021d64f96739c81e43d45d222c38",
          "topics": [
            "0xc3d58168c5ae7397731d063d5bbf3d657854427343f4c083240f7aacaa2d0f62",
            "0x000000000000000000000000b861949bebabe343b8f816d29de92d9e4d3e6383",
            "0x0000000000000000000000006fc2fbb2973e592eb6f932a10b3e72eeaa3113c0",
            "0x000000000000000000000000b861949bebabe343b8f816d29de92d9e4d3e6383"
          ],
          "data": "0x0000000000000000000000000000000000000000000000000000000000000000000000000000000000000000000000000000000000000000000000000000003c",
          "blockHash": "0xa646a231686a77318f126f7ec78a1e457201583950aa5717583f07dc26d09b72",
          "blockNumber": "0x9b2d15",
          "blockTimestamp": "0x697f6104",
          "transactionHash": "0xde5c14998282c1eb72a3e73f466b7d304bf1dfa2207ac5affd1f961902d12822",
          "transactionIndex": "0x20",
          "logIndex": "0x1a",
          "removed": false
        },
        {
          "address": "0xb861949bebabe343b8f816d29de92d9e4d3e6383",
          "topics": [
            "0xa3941cfa07eecf2734875ab71cea0e47395be644da6e17b039a7e29efba74ef9",
            "0x0000000000000000000000000000000000000000000000000000000000000000",
            "0x0000000000000000000000006fc2fbb2973e592eb6f932a10b3e72eeaa3113c0",
            "0x0000000000000000000000000000000000000000000000000000000000000000"
          ],
          "data": "0x000000000000000000000000000000000000000000000000000000000000003c0000000000000000000000000000000000000000000000000000000007270e00",
          "blockHash": "0xa646a231686a77318f126f7ec78a1e457201583950aa5717583f07dc26d09b72",
          "blockNumber": "0x9b2d15",
          "blockTimestamp": "0x697f6104",
          "transactionHash": "0xde5c14998282c1eb72a3e73f466b7d304bf1dfa2207ac5affd1f961902d12822",
          "transactionIndex": "0x20",
          "logIndex": "0x1b",
          "removed": false
        }
      ],
      "logsBloom": "0x00000000000000018080000000000000000000000000000000000000000000001000000000040000200000000000000000000000000000000000000000002000000000000000000000000000000000000010000000000000000000000000000000000000020000000000000000000800000000000000000000000000000000000000000000000000000000000000000200800000000000000000010000000000000000000004000000010000000002000000000000000000000000000000000000000000000000000000000000000000000000000008000000000000000020000000000000000000000000000000000000000000000000000000084004000000",
      "type": "0x2",
      "transactionHash": "0xde5c14998282c1eb72a3e73f466b7d304bf1dfa2207ac5affd1f961902d12822",
      "transactionIndex": "0x20",
      "blockHash": "0xa646a231686a77318f126f7ec78a1e457201583950aa5717583f07dc26d09b72",
      "blockNumber": "0x9b2d15",
      "gasUsed": "0x2c677",
      "effectiveGasPrice": "0x40175f91",
      "from": "0x6fc2fbb2973e592eb6f932a10b3e72eeaa3113c0",
      "to": "0xb861949bebabe343b8f816d29de92d9e4d3e6383",
      "contractAddress": null
    },
    {
      "status": "0x1",
      "cumulativeGasUsed": "0x606c93",
      "logs": [
        {
          "address": "0x3eb95efcdc5b021d64f96739c81e43d45d222c38",
          "topics": [
            "0xc3d58168c5ae7397731d063d5bbf3d657854427343f4c083240f7aacaa2d0f62",
            "0x000000000000000000000000b861949bebabe343b8f816d29de92d9e4d3e6383",
            "0x000000000000000000000000de4a466b7441357e1137a1a1e311bd70c1439ecb",
            "0x000000000000000000000000b861949bebabe343b8f816d29de92d9e4d3e6383"
          ],
          "data": "0x00000000000000000000000000000000000000000000000000000000000000030000000000000000000000000000000000000000000000000000000000000032",
          "blockHash": "0xa172b921c5af3d49291cec51a1eff6037ce9fa0104d3aec442ff8a2898cad8df",
          "blockNumber": "0x9b2d17",
          "blockTimestamp": "0x697f611c",
          "transactionHash": "0xfe4c4f5d8847cc30e3c1c102a6784ae333a04dd5fbc0fa959e9a6217d9f2c2fe",
          "transactionIndex": "0x2d",
          "logIndex": "0x2f",
          "removed": false
        },
        {
          "address": "0xb861949bebabe343b8f816d29de92d9e4d3e6383",
          "topics": [
            "0xa3941cfa07eecf2734875ab71cea0e47395be644da6e17b039a7e29efba74ef9",
            "0x0000000000000000000000000000000000000000000000000000000000000001",
            "0x000000000000000000000000de4a466b7441357e1137a1a1e311bd70c1439ecb",
            "0x0000000000000000000000000000000000000000000000000000000000000003"
          ],
          "data": "0x0000000000000000000000000000000000000000000000000000000000000032000000000000000000000000000000000000000000000000000000000510ff40",
          "blockHash": "0xa172b921c5af3d49291cec51a1eff6037ce9fa0104d3aec442ff8a2898cad8df",
          "blockNumber": "0x9b2d17",
          "blockTimestamp": "0x697f611c",
          "transactionHash": "0xfe4c4f5d8847cc30e3c1c102a6784ae333a04dd5fbc0fa959e9a6217d9f2c2fe",
          "transactionIndex": "0x2d",
          "logIndex": "0x30",
          "removed": false
        }
      ],
      "logsBloom": "0x00000000000000018000000000000000000000000000000000000000000000001000000000040000200000000000000000000000020100000000000000042000000000000000000000000000000000000010000000040000000000000000000000000000000000000000000000000000000000000000000000000000000000000000000000000000000000000000000200000000000000000000000000000000000000000004000000050000000002000000000000800000000400000000400000000000000000000000000000000000000000000008000000000000000040000000000000000000000000000000000000000000000000000000084004000000",
      "type": "0x2",
      "transactionHash": "0xfe4c4f5d8847cc30e3c1c102a6784ae333a04dd5fbc0fa959e9a6217d9f2c2fe",
      "transactionIndex": "0x2d",
      "blockHash": "0xa172b921c5af3d49291cec51a1eff6037ce9fa0104d3aec442ff8a2898cad8df",
      "blockNumber": "0x9b2d17",
      "gasUsed": "0x2d17f",
      "effectiveGasPrice": "0x414b8da8",
      "from": "0xde4a466b7441357e1137a1a1e311bd70c1439ecb",
      "to": "0xb861949bebabe343b8f816d29de92d9e4d3e6383",
      "contractAddress": null
    },
    {
      "status": "0x1",
      "cumulativeGasUsed": "0x3919711",
      "logs": [
        {
          "address": "0x2cf8f433e60a0586c3f228d13038ee9f219c6188",
          "topics": [
            "0x8c5be1e5ebec7d5bd14f71427d1e84f3dd0314c0f7b2291e5b200ac8c7c3b925",
            "0x000000000000000000000000de4a466b7441357e1137a1a1e311bd70c1439ecb",
            "0x000000000000000000000000b861949bebabe343b8f816d29de92d9e4d3e6383"
          ],
          "data": "0x0000000000000000000000000000000000000000000000000000000165a0bc00",
          "blockHash": "0xf51110cb2b2ec1f6701f60d95728aac18c65dfd596f62e2219eb99c2ec862c3b",
          "blockNumber": "0x9b2d18",
          "blockTimestamp": "0x697f6128",
          "transactionHash": "0x4e5712f6314160b28951e21ab2c1e4d0af277b8b4115aaeb08c45c2f19b093e8",
          "transactionIndex": "0x4c",
          "logIndex": "0x47",
          "removed": false
        }
      ],
      "logsBloom": "0x00000000000000010000000000000000000000000000000000000000000000001000000000000000000000000000000000000000000104000000000000200000000000000000000000000000000000000000000000000000000000000000000000000000000000000000000000000000000000000000000000000000000000000000000000000000000000000000000000000000000000000000000000000000020000000000020000050000000000000000000002000000000400000000000000000000000000000000000000000000000000000000000000000000000000000010000000000000000000000000000000000000000000000000000000000000",
      "type": "0x2",
      "transactionHash": "0x4e5712f6314160b28951e21ab2c1e4d0af277b8b4115aaeb08c45c2f19b093e8",
      "transactionIndex": "0x4c",
      "blockHash": "0xf51110cb2b2ec1f6701f60d95728aac18c65dfd596f62e2219eb99c2ec862c3b",
      "blockNumber": "0x9b2d18",
      "gasUsed": "0xb524",
      "effectiveGasPrice": "0x3b423089",
      "from": "0xde4a466b7441357e1137a1a1e311bd70c1439ecb",
      "to": "0x2cf8f433e60a0586c3f228d13038ee9f219c6188",
      "contractAddress": null
    },
    {
      "status": "0x1",
      "cumulativeGasUsed": "0x87ca20",
      "logs": [
        {
          "address": "0x2cf8f433e60a0586c3f228d13038ee9f219c6188",
          "topics": [
            "0xddf252ad1be2c89b69c2b068fc378daa952ba7f163c4a11628f55a4df523b3ef",
            "0x000000000000000000000000de4a466b7441357e1137a1a1e311bd70c1439ecb",
            "0x0000000000000000000000006fc2fbb2973e592eb6f932a10b3e72eeaa3113c0"
          ],
          "data": "0x000000000000000000000000000000000000000000000000000000011e1a3000",
          "blockHash": "0xccdfdfeb1ecae8420b168927e67c6d6ee02c0b7ca1441b34f23977b196a630f9",
          "blockNumber": "0x9b2d19",
          "blockTimestamp": "0x697f6134",
          "transactionHash": "0x7b984d9f2b4a14fc4da9980773965c789b39eb6bb836b837d864b469cd8a7571",
          "transactionIndex": "0x27",
          "logIndex": "0x3b",
          "removed": false
        },
        {
          "address": "0x3eb95efcdc5b021d64f96739c81e43d45d222c38",
          "topics": [
            "0xc3d58168c5ae7397731d063d5bbf3d657854427343f4c083240f7aacaa2d0f62",
            "0x000000000000000000000000b861949bebabe343b8f816d29de92d9e4d3e6383",
            "0x000000000000000000000000b861949bebabe343b8f816d29de92d9e4d3e6383",
            "0x000000000000000000000000de4a466b7441357e1137a1a1e311bd70c1439ecb"
          ],
          "data": "0x00000000000000000000000000000000000000000000000000000000000000000000000000000000000000000000000000000000000000000000000000000028",
          "blockHash": "0xccdfdfeb1ecae8420b168927e67c6d6ee02c0b7ca1441b34f23977b196a630f9",
          "blockNumber": "0x9b2d19",
          "blockTimestamp": "0x697f6134",
          "transactionHash": "0x7b984d9f2b4a14fc4da9980773965c789b39eb6bb836b837d864b469cd8a7571",
          "transactionIndex": "0x27",
          "logIndex": "0x3c",
          "removed": false
        },
        {
          "address": "0xb861949bebabe343b8f816d29de92d9e4d3e6383",
          "topics": [
            "0xb3556955a489fb1ff1cf2ce48ea54f262b9cb31e1e22a13f66142172e71cb52f",
            "0x0000000000000000000000000000000000000000000000000000000000000000",
            "0x000000000000000000000000de4a466b7441357e1137a1a1e311bd70c1439ecb",
            "0x0000000000000000000000006fc2fbb2973e592eb6f932a10b3e72eeaa3113c0"
          ],
          "data": "0x00000000000000000000000000000000000000000000000000000000000000000000000000000000000000000000000000000000000000000000000000000028000000000000000000000000000000000000000000000000000000011e1a3000",
          "blockHash": "0xccdfdfeb1ecae8420b168927e67c6d6ee02c0b7ca1441b34f23977b196a630f9",
          "blockNumber": "0x9b2d19",
          "blockTimestamp": "0x697f6134",
          "transactionHash": "0x7b984d9f2b4a14fc4da9980773965c789b39eb6bb836b837d864b469cd8a7571",
          "transactionIndex": "0x27",
          "logIndex": "0x3d",
          "removed": false
        },
        {
          "address": "0xb861949bebabe343b8f816d29de92d9e4d3e6383",
          "topics": [
            "0x66bcde9f7aec9b81719a4fdec54cbafbf6c834d1f2f989d9cd2134dab8d0c0de",
            "0x0000000000000000000000000000000000000000000000000000000000000000"
          ],
          "data": "0x0000000000000000000000000000000000000000000000000000000000000014",
          "blockHash": "0xccdfdfeb1ecae8420b168927e67c6d6ee02c0b7ca1441b34f23977b196a630f9",
          "blockNumber": "0x9b2d19",
          "blockTimestamp": "0x697f6134",
          "transactionHash": "0x7b984d9f2b4a14fc4da9980773965c789b39eb6bb836b837d864b469cd8a7571",
          "transactionIndex": "0x27",
          "logIndex": "0x3e",
          "removed": false
        }
      ],
      "logsBloom": "0x00000000000000010080000000000000010000000000100000000000000000001000000000000000200000000000000000000001000104000000000000002000000000000000000000000008000000000010000000000000000000000000000000000000020000000000000000000800000000000000400000000010000000000000000000000000000000000000000200800000000000000000010000000000000000000004020000050000000002200000000002000000000400000000000000000002000000000000000000000000000000000008000000000000000020000000000000400000000000000000000000000000000000000000084000000000",
      "type": "0x2",
      "transactionHash": "0x7b984d9f2b4a14fc4da9980773965c789b39eb6bb836b837d864b469cd8a7571",
      "transactionIndex": "0x27",
      "blockHash": "0xccdfdfeb1ecae8420b168927e67c6d6ee02c0b7ca1441b34f23977b196a630f9",
      "blockNumber": "0x9b2d19",
      "gasUsed": "0x19765",
      "effectiveGasPrice": "0x429ac33a",
      "from": "0xde4a466b7441357e1137a1a1e311bd70c1439ecb",
      "to": "0xb861949bebabe343b8f816d29de92d9e4d3e6383",
      "contractAddress": null
    },
    {
      "status": "0x1",
      "cumulativeGasUsed": "0xa11fc9",
      "logs": [
        {
          "address": "0x2cf8f433e60a0586c3f228d13038ee9f219c6188",
          "topics": [
            "0x8c5be1e5ebec7d5bd14f71427d1e84f3dd0314c0f7b2291e5b200ac8c7c3b925",
            "0x000000000000000000000000ac75578bbdd3c830b32f2de2b8e2a4fa36996082",
            "0x000000000000000000000000b861949bebabe343b8f816d29de92d9e4d3e6383"
          ],
          "data": "0x000000000000000000000000000000000000000000000000000000012a05f200",
          "blockHash": "0x67309844847f73642678ca229d2547faeac6d8b4640ce1f5d22261075dfc3da8",
          "blockNumber": "0x9b2d1a",
          "blockTimestamp": "0x697f6140",
          "transactionHash": "0x78eccf2e7062c819809a14c567f72fcaf4fa2c796f854575ac9accfc09f8dd71",
          "transactionIndex": "0x2c",
          "logIndex": "0x25",
          "removed": false
        }
      ],
      "logsBloom": "0x00000000000000010000000000000000000000000000000000000000000000001000000000000000000000000000000000010000000004000000000000200000000000000000000000000000000000000000000000000000000000000000000000000000000000000000000000000000000000000000000000000000000000000000000000000000000000000000000000000000000000000000000000000000020000000000020000010000008000000000000002000000000000000000000000000000000000000000000000000000000000000001000000000000000000000010000000000000000000000000000000000000000000000000000000000000",
      "type": "0x2",
      "transactionHash": "0x78eccf2e7062c819809a14c567f72fcaf4fa2c796f854575ac9accfc09f8dd71",
      "transactionIndex": "0x2c",
      "blockHash": "0x67309844847f73642678ca229d2547faeac6d8b4640ce1f5d22261075dfc3da8",
      "blockNumber": "0x9b2d1a",
      "gasUsed": "0xb524",
      "effectiveGasPrice": "0x3d1fb33b",
      "from": "0xac75578bbdd3c830b32f2de2b8e2a4fa36996082",
      "to": "0x2cf8f433e60a0586c3f228d13038ee9f219c6188",
      "contractAddress": null
    },
    {
      "status": "0x1",
      "cumulativeGasUsed": "0x3819d5a",
      "logs": [
        {
          "address": "0x2cf8f433e60a0586c3f228d13038ee9f219c6188",
          "topics": [
            "0xddf252ad1be2c89b69c2b068fc378daa952ba7f163c4a11628f55a4df523b3ef",
            "0x000000000000000000000000ac75578bbdd3c830b32f2de2b8e2a4fa36996082",
            "0x000000000000000000000000de4a466b7441357e1137a1a1e311bd70c1439ecb"
          ],
          "data": "0x0000000000000000000000000000000000000000000000000000000097fde980",
          "blockHash": "0xa708dd3279b83eaa9e1463163f85c4ab46fc0b77ad664ab22f12cbd238489d77",
          "blockNumber": "0x9b2d1b",
          "blockTimestamp": "0x697f614c",
          "transactionHash": "0xcbf72b878f38bb9f3ffb79ddb82e00d16fe05cc979a32bef16a6243e95f4a0b3",
          "transactionIndex": "0x44",
          "logIndex": "0x53",
          "removed": false
        },
        {
          "address": "0x3eb95efcdc5b021d64f96739c81e43d45d222c38",
          "topics": [
            "0xc3d58168c5ae7397731d063d5bbf3d657854427343f4c083240f7aacaa2d0f62",
            "0x000000000000000000000000b861949bebabe343b8f816d29de92d9e4d3e6383",
            "0x000000000000000000000000b861949bebabe343b8f816d29de92d9e4d3e6383",
            "0x000000000000000000000000ac75578bbdd3c830b32f2de2b8e2a4fa36996082"
          ],
          "data": "0x0000000000000000000000000000000000000000000000000000000000000003000000000000000000000000000000000000000000000000000000000000001e",
          "blockHash": "0xa708dd3279b83eaa9e1463163f85c4ab46fc0b77ad664ab22f12cbd238489d77",
          "blockNumber": "0x9b2d1b",
          "blockTimestamp": "0x697f614c",
          "transactionHash": "0xcbf72b878f38bb9f3ffb79ddb82e00d16fe05cc979a32bef16a6243e95f4a0b3",
          "transactionIndex": "0x44",
          "logIndex": "0x54",
          "removed": false
        },
        {
          "address": "0xb861949bebabe343b8f816d29de92d9e4d3e6383",
          "topics": [
            "0xb3556955a489fb1ff1cf2ce48ea54f262b9cb31e1e22a13f66142172e71cb52f",
            "0x0000000000000000000000000000000000000000000000000000000000000001",
            "0x000000000000000000000000ac75578bbdd3c830b32f2de2b8e2a4fa36996082",
            "0x000000000000000000000000de4a466b7441357e1137a1a1e311bd70c1439ecb"
          ],
          "data": "0x0000000000000000000000000000000000000000000000000000000000000003000000000000000000000000000000000000000000000000000000000000001e0000000000000000000000000000000000000000000000000000000097fde980",
          "blockHash": "0xa708dd3279b83eaa9e1463163f85c4ab46fc0b77ad664ab22f12cbd238489d77",
          "blockNumber": "0x9b2d1b",
          "blockTimestamp": "0x697f614c",
          "transactionHash": "0xcbf72b878f38bb9f3ffb79ddb82e00d16fe05cc979a32bef16a6243e95f4a0b3",
          "transactionIndex": "0x44",
          "logIndex": "0x55",
          "removed": false
        },
        {
          "address": "0xb861949bebabe343b8f816d29de92d9e4d3e6383",
          "topics": [
            "0x66bcde9f7aec9b81719a4fdec54cbafbf6c834d1f2f989d9cd2134dab8d0c0de",
            "0x0000000000000000000000000000000000000000000000000000000000000001"
          ],
          "data": "0x0000000000000000000000000000000000000000000000000000000000000014",
          "blockHash": "0xa708dd3279b83eaa9e1463163f85c4ab46fc0b77ad664ab22f12cbd238489d77",
          "blockNumber": "0x9b2d1b",
          "blockTimestamp": "0x697f614c",
          "transactionHash": "0xcbf72b878f38bb9f3ffb79ddb82e00d16fe05cc979a32bef16a6243e95f4a0b3",
          "transactionIndex": "0x44",
          "logIndex": "0x56",
          "removed": false
        }
      ],
      "logsBloom": "0x00000000000000010000000000000000010000000000100000000000000000001000000000000000200000000000000000010001000104000000000000042000000000000000000000000008000000000010000000040000000000000000000000000000000000000000000000000000000000000000400000000010000000000000000000000000000000000000000200000000000000000000000000000000000000000004020000050000008002200000000002000000000400000000000000000002000000000000000000000000000000000009000000000000000040000000000000400000000000000000000000000000000000000000084000000000",
      "type": "0x2",
      "transactionHash": "0xcbf72b878f38bb9f3ffb79ddb82e00d16fe05cc979a32bef16a6243e95f4a0b3",
      "transactionIndex": "0x44",
      "blockHash": "0xa708dd3279b83eaa9e1463163f85c4ab46fc0b77ad664ab22f12cbd238489d77",
      "blockNumber": "0x9b2d1b",
      "gasUsed": "0x19771",
      "effectiveGasPrice": "0x38674d4a",
      "from": "0xac75578bbdd3c830b32f2de2b8e2a4fa36996082",
      "to": "0xb861949bebabe343b8f816d29de92d9e4d3e6383",
      "contractAddress": null
    }
  ],
  "libraries": [],
  "pending": [],
  "returns": {},
  "timestamp": 1769955660892,
  "chain": 11155111,
  "commit": "0e77fdf"
}