{
  "transactions": [
    {
      "hash": "0x687a9737fb8ff07f69e0675c33469b51bd8fca3aa03df3918012073b7d5c5d5d",
      "transactionType": "CREATE",
      "contractName": "DigitalEuro",
      "contractAddress": "0x5ae69a270f061d8435100938b2cef210d1f8348f",
      "function": null,
      "arguments": [
        "Digital Euro",
        "DEUR"
      ],
      "transaction": {
        "from": "0xe30f5d336931186dd86b5c9426fd4493c34a5c5d",
        "gas": "0xfd09b",
        "value": "0x0",
        "input": "0x608060405234801561000f575f5ffd5b50604051610ef8380380610ef883398101604081905261002e916101d5565b8181600361003c83826102be565b50600461004982826102be565b5061005891505f90503361008b565b506100837f9f2df0fed2c77648de5860a4cc508cd0818c85b8b8a1ab4ceeef8d981c8956a63361008b565b505050610378565b5f8281526005602090815260408083206001600160a01b038516845290915281205460ff1661012f575f8381526005602090815260408083206001600160a01b03861684529091529020805460ff191660011790556100e73390565b6001600160a01b0316826001600160a01b0316847f2f8788117e7eff1d82e926ec794901d17c78024a50270940304540a733656f0d60405160405180910390a4506001610132565b505f5b92915050565b634e487b7160e01b5f52604160045260245ffd5b5f82601f83011261015b575f5ffd5b81516001600160401b0381111561017457610174610138565b604051601f8201601f19908116603f011681016001600160401b03811182821017156101a2576101a2610138565b6040528181528382016020018510156101b9575f5ffd5b8160208501602083015e5f918101602001919091529392505050565b5f5f604083850312156101e6575f5ffd5b82516001600160401b038111156101fb575f5ffd5b6102078582860161014c565b602085015190935090506001600160401b03811115610224575f5ffd5b6102308582860161014c565b9150509250929050565b600181811c9082168061024e57607f821691505b60208210810361026c57634e487b7160e01b5f52602260045260245ffd5b50919050565b601f8211156102b957805f5260205f20601f840160051c810160208510156102975750805b601f840160051c820191505b818110156102b6575f81556001016102a3565b50505b505050565b81516001600160401b038111156102d7576102d7610138565b6102eb816102e5845461023a565b84610272565b6020601f82116001811461031d575f83156103065750848201515b5f19600385901b1c1916600184901b1784556102b6565b5f84815260208120601f198516915b8281101561034c578785015182556020948501946001909201910161032c565b508482101561036957868401515f19600387901b60f8161c191681555b50505050600190811b01905550565b610b73806103855f395ff3fe608060405234801561000f575f5ffd5b5060043610610111575f3560e01c806340c10f191161009e578063a217fddf1161006e578063a217fddf14610239578063a9059cbb14610240578063d539139314610253578063d547741f1461027a578063dd62ed3e1461028d575f5ffd5b806340c10f19146101e357806370a08231146101f657806391d148541461021e57806395d89b4114610231575f5ffd5b806323b872dd116100e457806323b872dd14610177578063248a9ca31461018a5780632f2ff15d146101ac578063313ce567146101c157806336568abe146101d0575f5ffd5b806301ffc9a71461011557806306fdde031461013d578063095ea7b31461015257806318160ddd14610165575b5f5ffd5b610128610123366004610984565b6102c5565b60405190151581526020015b60405180910390f35b6101456102fb565b60405161013491906109b2565b610128610160366004610a02565b61038b565b6002545b604051908152602001610134565b610128610185366004610a2a565b6103a2565b610169610198366004610a64565b5f9081526005602052604090206001015490565b6101bf6101ba366004610a7b565b6103c5565b005b60405160068152602001610134565b6101bf6101de366004610a7b565b6103ef565b6101bf6101f1366004610a02565b610427565b610169610204366004610aa5565b6001600160a01b03165f9081526020819052604090205490565b61012861022c366004610a7b565b6104c3565b6101456104ed565b6101695f81565b61012861024e366004610a02565b6104fc565b6101697f9f2df0fed2c77648de5860a4cc508cd0818c85b8b8a1ab4ceeef8d981c8956a681565b6101bf610288366004610a7b565b610509565b61016961029b366004610abe565b6001600160a01b039182165f90815260016020908152604080832093909416825291909152205490565b5f6001600160e01b03198216637965db0b60e01b14806102f557506301ffc9a760e01b6001600160e01b03198316145b92915050565b60606003805461030a90610ae6565b80601f016020809104026020016040519081016040528092919081815260200182805461033690610ae6565b80156103815780601f1061035857610100808354040283529160200191610381565b820191905f5260205f20905b81548152906001019060200180831161036457829003601f168201915b5050505050905090565b5f3361039881858561052d565b5060019392505050565b5f336103af85828561053a565b6103ba8585856105b5565b506001949350505050565b5f828152600560205260409020600101546103df81610612565b6103e9838361061f565b50505050565b6001600160a01b03811633146104185760405163334bd91960e11b815260040160405180910390fd5b61042282826106b0565b505050565b7f9f2df0fed2c77648de5860a4cc508cd0818c85b8b8a1ab4ceeef8d981c8956a661045181610612565b815f036104715760405163210753df60e01b815260040160405180910390fd5b61047b838361071b565b826001600160a01b03167f3f2c9d57c068687834f0de942a9babb9e5acab57d516d3480a3c16ee165a4273836040516104b691815260200190565b60405180910390a2505050565b5f9182526005602090815260408084206001600160a01b0393909316845291905290205460ff1690565b60606004805461030a90610ae6565b5f336103988185856105b5565b5f8281526005602052604090206001015461052381610612565b6103e983836106b0565b6104228383836001610753565b6001600160a01b038381165f908152600160209081526040808320938616835292905220545f198110156103e957818110156105a757604051637dc7a0d960e11b81526001600160a01b038416600482015260248101829052604481018390526064015b60405180910390fd5b6103e984848484035f610753565b6001600160a01b0383166105de57604051634b637e8f60e11b81525f600482015260240161059e565b6001600160a01b0382166106075760405163ec442f0560e01b81525f600482015260240161059e565b610422838383610825565b61061c813361094b565b50565b5f61062a83836104c3565b6106a9575f8381526005602090815260408083206001600160a01b03861684529091529020805460ff191660011790556106613390565b6001600160a01b0316826001600160a01b0316847f2f8788117e7eff1d82e926ec794901d17c78024a50270940304540a733656f0d60405160405180910390a45060016102f5565b505f6102f5565b5f6106bb83836104c3565b156106a9575f8381526005602090815260408083206001600160a01b0386168085529252808320805460ff1916905551339286917ff6391f5c32d9c69d2a47ea670b442974b53935d1edc7fd64eb21e047a839171b9190a45060016102f5565b6001600160a01b0382166107445760405163ec442f0560e01b81525f600482015260240161059e565b61074f5f8383610825565b5050565b6001600160a01b03841661077c5760405163e602df0560e01b81525f600482015260240161059e565b6001600160a01b0383166107a557604051634a1406b160e11b81525f600482015260240161059e565b6001600160a01b038085165f90815260016020908152604080832093871683529290522082905580156103e957826001600160a01b0316846001600160a01b03167f8c5be1e5ebec7d5bd14f71427d1e84f3dd0314c0f7b2291e5b200ac8c7c3b9258460405161081791815260200190565b60405180910390a350505050565b6001600160a01b03831661084f578060025f8282546108449190610b1e565b909155506108bf9050565b6001600160a01b0383165f90815260208190526040902054818110156108a15760405163391434e360e21b81526001600160a01b0385166004820152602481018290526044810183905260640161059e565b6001600160a01b0384165f9081526020819052604090209082900390555b6001600160a01b0382166108db576002805482900390556108f9565b6001600160a01b0382165f9081526020819052604090208054820190555b816001600160a01b0316836001600160a01b03167fddf252ad1be2c89b69c2b068fc378daa952ba7f163c4a11628f55a4df523b3ef8360405161093e91815260200190565b60405180910390a3505050565b61095582826104c3565b61074f5760405163e2517d3f60e01b81526001600160a01b03821660048201526024810183905260440161059e565b5f60208284031215610994575f5ffd5b81356001600160e01b0319811681146109ab575f5ffd5b9392505050565b602081525f82518060208401528060208501604085015e5f604082850101526040601f19601f83011684010191505092915050565b80356001600160a01b03811681146109fd575f5ffd5b919050565b5f5f60408385031215610a13575f5ffd5b610a1c836109e7565b946020939093013593505050565b5f5f5f60608486031215610a3c575f5ffd5b610a45846109e7565b9250610a53602085016109e7565b929592945050506040919091013590565b5f60208284031215610a74575f5ffd5b5035919050565b5f5f60408385031215610a8c575f5ffd5b82359150610a9c602084016109e7565b90509250929050565b5f60208284031215610ab5575f5ffd5b6109ab826109e7565b5f5f60408385031215610acf575f5ffd5b610ad8836109e7565b9150610a9c602084016109e7565b600181811c90821680610afa57607f821691505b602082108103610b1857634e487b7160e01b5f52602260045260245ffd5b50919050565b808201808211156102f557634e487b7160e01b5f52601160045260245ffdfea2646970667358221220160d8d1a37de4948c2337fa4a42dd362e917a011991410010613432f4582aa0264736f6c634300081e003300000000000000000000000000000000000000000000000000000000000000400000000000000000000000000000000000000000000000000000000000000080000000000000000000000000000000000000000000000000000000000000000c4469676974616c204575726f000000000000000000000000000000000000000000000000000000000000000000000000000000000000000000000000000000044445555200000000000000000000000000000000000000000000000000000000",
        "nonce": "0x132",
        "chainId": "0xaa36a7"
      },
      "additionalContracts": [],
      "isFixedGasLimit": false
    },
    {
      "hash": "0x5553e5a677514d82c03c9e5e4a39d93418d932a8e22ec97517be308eb78b609f",
      "transactionType": "CREATE",
      "contractName": "FinancialAssets",
      "contractAddress": "0xbc7ebadd93107d39a3379d9c600f428eb9765f0c",
      "function": null,
      "arguments": [
        "https://amethyst-accessible-lemming-653.mypinata.cloud/ipfs/bafybeid42im5sn3kgswi5fgemsql66pp4s75gr62idcwsoxkutqk3odbvy/{id}.json"
      ],
      "transaction": {
        "from": "0xe30f5d336931186dd86b5c9426fd4493c34a5c5d",
        "gas": "0x256755",
        "value": "0x0",
        "input": "0x608060405234801561000f575f5ffd5b506040516120c43803806120c483398101604081905261002e91610146565b8061003881610075565b506100435f33610085565b5061006e7f0b84ee281e5cf521a9ad54a86fafe78946b157177e231bd8ae785af4d3b3620f33610085565b5050610334565b6002610081828261027a565b5050565b5f8281526003602090815260408083206001600160a01b038516845290915281205460ff16610129575f8381526003602090815260408083206001600160a01b03861684529091529020805460ff191660011790556100e13390565b6001600160a01b0316826001600160a01b0316847f2f8788117e7eff1d82e926ec794901d17c78024a50270940304540a733656f0d60405160405180910390a450600161012c565b505f5b92915050565b634e487b7160e01b5f52604160045260245ffd5b5f60208284031215610156575f5ffd5b81516001600160401b0381111561016b575f5ffd5b8201601f8101841361017b575f5ffd5b80516001600160401b0381111561019457610194610132565b604051601f8201601f19908116603f011681016001600160401b03811182821017156101c2576101c2610132565b6040528181528282016020018610156101d9575f5ffd5b8160208401602083015e5f91810160200191909152949350505050565b600181811c9082168061020a57607f821691505b60208210810361022857634e487b7160e01b5f52602260045260245ffd5b50919050565b601f82111561027557805f5260205f20601f840160051c810160208510156102535750805b601f840160051c820191505b81811015610272575f815560010161025f565b50505b505050565b81516001600160401b0381111561029357610293610132565b6102a7816102a184546101f6565b8461022e565b6020601f8211600181146102d9575f83156102c25750848201515b5f19600385901b1c1916600184901b178455610272565b5f84815260208120601f198516915b8281101561030857878501518255602094850194600190920191016102e8565b508482101561032557868401515f19600387901b60f8161c191681555b50505050600190811b01905550565b611d83806103415f395ff3fe608060405234801561000f575f5ffd5b50600436106101a0575f3560e01c80634e1273f4116100f3578063a22cb46511610093578063d547741f1161006e578063d547741f146103b8578063e2dc3666146103cb578063e985e9c5146103de578063f242432a146103f1575f5ffd5b8063a22cb46514610373578063bd85b03914610386578063d351cfdc146103a5575f5ffd5b80636b36d613116100ce5780636b36d6131461033e5780636f9759811461034657806391d1485414610359578063a217fddf1461036c575f5ffd5b80634e1273f4146102ea5780634f558e791461030a578063518e2bdd1461032b575f5ffd5b80631e77ceda1161015e5780632eb2c2d6116101395780632eb2c2d61461029d5780632f2ff15d146102b05780632f83a6bc146102c357806336568abe146102d7575f5ffd5b80631e77ceda1461023d578063248a9ca31461026857806324fc099b1461028a575f5ffd5b8062fdd58e146101a457806301ffc9a7146101ca5780630e89341c146101ed57806318160ddd1461020d57806319a8413f146102155780631b2ef1ca1461022a575b5f5ffd5b6101b76101b2366004611518565b610404565b6040519081526020015b60405180910390f35b6101dd6101d8366004611555565b61042b565b60405190151581526020016101c1565b6102006101fb366004611577565b610435565b6040516101c191906115bc565b6005546101b7565b610228610223366004611683565b6104c7565b005b6102286102383660046116ee565b6105bb565b600654610250906001600160a01b031681565b6040516001600160a01b0390911681526020016101c1565b6101b7610276366004611577565b5f9081526003602052604090206001015490565b610200610298366004611577565b6106c5565b6102286102ab36600461179a565b6106e1565b6102286102be366004611846565b61074d565b6101b75f516020611d2e5f395f51905f5281565b6102286102e5366004611846565b610777565b6102fd6102f8366004611870565b6107af565b6040516101c1919061196b565b6101dd610318366004611577565b5f90815260046020526040902054151590565b6101dd610339366004611577565b610879565b6009546101b7565b610200610354366004611577565b61089a565b6101dd610367366004611846565b6108b6565b6101b75f81565b61022861038136600461197d565b6108e0565b6101b7610394366004611577565b5f9081526004602052604090205490565b6102286103b33660046119b6565b6108ef565b6102286103c6366004611846565b610aab565b6102286103d9366004611a03565b610acf565b6101dd6103ec366004611a1c565b610b51565b6102286103ff366004611a44565b610b7e565b5f818152602081815260408083206001600160a01b03861684529091529020545b92915050565b5f61042582610bdd565b60606002805461044490611a97565b80601f016020809104026020016040519081016040528092919081815260200182805461047090611a97565b80156104bb5780601f10610492576101008083540402835291602001916104bb565b820191905f5260205f20905b81548152906001019060200180831161049e57829003601f168201915b50505050509050919050565b5f516020611d2e5f395f51905f526104de81610c01565b82515f036104ff5760405163e9a0784160e01b815260040160405180910390fd5b5f848152600760205260409020805461051790611a97565b15905061053757604051630ad9430b60e01b815260040160405180910390fd5b5f84815260076020526040902061054e8482611b13565b505f8481526008602052604090206105668382611b13565b5060098054905f61057683611be1565b9190505550837fb6d0fdd4aa7871e97002ee6e98a7078316273461e22e2f1be3715a9d247e766d84846040516105ad929190611bf9565b60405180910390a250505050565b5f516020611d2e5f395f51905f526105d281610c01565b6006546001600160a01b03166105fa576040516248999560e01b815260040160405180910390fd5b815f0361061a5760405163160703d760e01b815260040160405180910390fd5b5f838152600760205260409020805461063290611a97565b90505f036106535760405163d2b4e6a160e01b815260040160405180910390fd5b60065460408051602081019091525f815261067b916001600160a01b03169085908590610c0e565b6006546040518381526001600160a01b039091169084907fcd6742d5e809eafe3ac91950822ad9d9f4cec48faad935421642d893db7d0993906020015b60405180910390a3505050565b5f81815260076020526040902080546060919061044490611a97565b336001600160a01b038616811480159061070257506107008682610b51565b155b156107385760405163711bec9160e11b81526001600160a01b038083166004830152871660248201526044015b60405180910390fd5b6107458686868686610c69565b505050505050565b5f8281526003602052604090206001015461076781610c01565b6107718383610cce565b50505050565b6001600160a01b03811633146107a05760405163334bd91960e11b815260040160405180910390fd5b6107aa8282610d5f565b505050565b606081518351146107e05781518351604051635b05999160e01b81526004810192909252602482015260440161072f565b5f83516001600160401b038111156107fa576107fa6115ce565b604051908082528060200260200182016040528015610823578160200160208202803683370190505b5090505f5b84518110156108715760208082028601015161084c90602080840287010151610404565b82828151811061085e5761085e611c26565b6020908102919091010152600101610828565b509392505050565b5f818152600760205260408120805461089190611a97565b15159392505050565b5f81815260086020526040902080546060919061044490611a97565b5f9182526003602090815260408084206001600160a01b0393909316845291905290205460ff1690565b6108eb338383610dca565b5050565b5f516020611d2e5f395f51905f5261090681610c01565b6006546001600160a01b031661092e576040516248999560e01b815260040160405180910390fd5b81518351146109505760405163160703d760e01b815260040160405180910390fd5b5f5b83518110156109f25760075f85838151811061097057610970611c26565b602002602001015181526020019081526020015f20805461099090611a97565b90505f036109b15760405163d2b4e6a160e01b815260040160405180910390fd5b8281815181106109c3576109c3611c26565b60200260200101515f036109ea5760405163160703d760e01b815260040160405180910390fd5b600101610952565b5060065460408051602081019091525f8152610a1b916001600160a01b03169085908590610e56565b5f5b83518110156107715760065484516001600160a01b0390911690859083908110610a4957610a49611c26565b60200260200101517fcd6742d5e809eafe3ac91950822ad9d9f4cec48faad935421642d893db7d0993858481518110610a8457610a84611c26565b6020026020010151604051610a9b91815260200190565b60405180910390a3600101610a1d565b5f82815260036020526040902060010154610ac581610c01565b6107718383610d5f565b5f610ad981610c01565b6001600160a01b038216610aff576040516261a68760e41b815260040160405180910390fd5b600680546001600160a01b038481166001600160a01b0319831681179093556040519116919082907f2683c02722e9e01707eb234ac654f5eca143b1307d1789be28369d0f846f9e48905f90a3505050565b6001600160a01b039182165f90815260016020908152604080832093909416825291909152205460ff1690565b336001600160a01b0386168114801590610b9f5750610b9d8682610b51565b155b15610bd05760405163711bec9160e11b81526001600160a01b0380831660048301528716602482015260440161072f565b6107458686868686610e8c565b5f6001600160e01b03198216637965db0b60e01b1480610425575061042582610f18565b610c0b8133610f67565b50565b6001600160a01b038416610c3757604051632bfa23e760e11b81525f600482015260240161072f565b604080516001808252602082018690528183019081526060820185905260808201909252906107455f87848487610fa0565b6001600160a01b038416610c9257604051632bfa23e760e11b81525f600482015260240161072f565b6001600160a01b038516610cba57604051626a0d4560e21b81525f600482015260240161072f565b610cc78585858585610fa0565b5050505050565b5f610cd983836108b6565b610d58575f8381526003602090815260408083206001600160a01b03861684529091529020805460ff19166001179055610d103390565b6001600160a01b0316826001600160a01b0316847f2f8788117e7eff1d82e926ec794901d17c78024a50270940304540a733656f0d60405160405180910390a4506001610425565b505f610425565b5f610d6a83836108b6565b15610d58575f8381526003602090815260408083206001600160a01b0386168085529252808320805460ff1916905551339286917ff6391f5c32d9c69d2a47ea670b442974b53935d1edc7fd64eb21e047a839171b9190a4506001610425565b6001600160a01b038216610df25760405162ced3e160e81b81525f600482015260240161072f565b6001600160a01b038381165f81815260016020908152604080832094871680845294825291829020805460ff191686151590811790915591519182527f17307eab39ab6107e8899845ad3d59bd9653f200f220920489ca2b5937696c3191016106b8565b6001600160a01b038416610e7f57604051632bfa23e760e11b81525f600482015260240161072f565b6107715f85858585610fa0565b6001600160a01b038416610eb557604051632bfa23e760e11b81525f600482015260240161072f565b6001600160a01b038516610edd57604051626a0d4560e21b81525f600482015260240161072f565b60408051600180825260208201869052818301908152606082018590526080820190925290610f0f8787848487610fa0565b50505050505050565b5f6001600160e01b03198216636cdb3d1360e11b1480610f4857506001600160e01b031982166303a24d0760e21b145b8061042557506301ffc9a760e01b6001600160e01b0319831614610425565b610f7182826108b6565b6108eb5760405163e2517d3f60e01b81526001600160a01b03821660048201526024810183905260440161072f565b610fac85858585610ff3565b6001600160a01b03841615610cc75782513390600103610fe55760208481015190840151610fde838989858589610fff565b5050610745565b610745818787878787611120565b61077184848484611207565b6001600160a01b0384163b156107455760405163f23a6e6160e01b81526001600160a01b0385169063f23a6e61906110439089908990889088908890600401611c3a565b6020604051808303815f875af192505050801561107d575060408051601f3d908101601f1916820190925261107a91810190611c7e565b60015b6110e4573d8080156110aa576040519150601f19603f3d011682016040523d82523d5f602084013e6110af565b606091505b5080515f036110dc57604051632bfa23e760e11b81526001600160a01b038616600482015260240161072f565b805160208201fd5b6001600160e01b0319811663f23a6e6160e01b14610f0f57604051632bfa23e760e11b81526001600160a01b038616600482015260240161072f565b6001600160a01b0384163b156107455760405163bc197c8160e01b81526001600160a01b0385169063bc197c81906111649089908990889088908890600401611c99565b6020604051808303815f875af192505050801561119e575060408051601f3d908101601f1916820190925261119b91810190611c7e565b60015b6111cb573d8080156110aa576040519150601f19603f3d011682016040523d82523d5f602084013e6110af565b6001600160e01b0319811663bc197c8160e01b14610f0f57604051632bfa23e760e11b81526001600160a01b038616600482015260240161072f565b611213848484846112ee565b6001600160a01b038416611290575f805b83518110156112775760208181028481018201519086018201515f90815260049092526040822080549192839261125c908490611cf6565b9091555061126c90508184611cf6565b925050600101611224565b508060055f8282546112899190611cf6565b9091555050505b6001600160a01b038316610771575f805b83518110156112dd5760208181028481018201519086018201515f908152600490925260409091208054829003905591909101906001016112a1565b506005805491909103905550505050565b805182511461131d5781518151604051635b05999160e01b81526004810192909252602482015260440161072f565b335f5b835181101561141f576020818102858101820151908501909101516001600160a01b038816156113d1575f828152602081815260408083206001600160a01b038c168452909152902054818110156113ab576040516303dee4c560e01b81526001600160a01b038a16600482015260248101829052604481018390526064810184905260840161072f565b5f838152602081815260408083206001600160a01b038d16845290915290209082900390555b6001600160a01b03871615611415575f828152602081815260408083206001600160a01b038b1684529091528120805483929061140f908490611cf6565b90915550505b5050600101611320565b50825160010361149f5760208301515f906020840151909150856001600160a01b0316876001600160a01b0316846001600160a01b03167fc3d58168c5ae7397731d063d5bbf3d657854427343f4c083240f7aacaa2d0f628585604051611490929190918252602082015260400190565b60405180910390a45050610cc7565b836001600160a01b0316856001600160a01b0316826001600160a01b03167f4a39dc06d4c0dbc64b70af90fd698a233a518aa5d07e595d983b8c0526c8f7fb86866040516114ee929190611d09565b60405180910390a45050505050565b80356001600160a01b0381168114611513575f5ffd5b919050565b5f5f60408385031215611529575f5ffd5b611532836114fd565b946020939093013593505050565b6001600160e01b031981168114610c0b575f5ffd5b5f60208284031215611565575f5ffd5b813561157081611540565b9392505050565b5f60208284031215611587575f5ffd5b5035919050565b5f81518084528060208401602086015e5f602082860101526020601f19601f83011685010191505092915050565b602081525f611570602083018461158e565b634e487b7160e01b5f52604160045260245ffd5b604051601f8201601f191681016001600160401b038111828210171561160a5761160a6115ce565b604052919050565b5f82601f830112611621575f5ffd5b8135602083015f5f6001600160401b03841115611640576116406115ce565b50601f8301601f1916602001611655816115e2565b915050828152858383011115611669575f5ffd5b828260208301375f92810160200192909252509392505050565b5f5f5f60608486031215611695575f5ffd5b8335925060208401356001600160401b038111156116b1575f5ffd5b6116bd86828701611612565b92505060408401356001600160401b038111156116d8575f5ffd5b6116e486828701611612565b9150509250925092565b5f5f604083850312156116ff575f5ffd5b50508035926020909101359150565b5f6001600160401b03821115611726576117266115ce565b5060051b60200190565b5f82601f83011261173f575f5ffd5b813561175261174d8261170e565b6115e2565b8082825260208201915060208360051b860101925085831115611773575f5ffd5b602085015b83811015611790578035835260209283019201611778565b5095945050505050565b5f5f5f5f5f60a086880312156117ae575f5ffd5b6117b7866114fd565b94506117c5602087016114fd565b935060408601356001600160401b038111156117df575f5ffd5b6117eb88828901611730565b93505060608601356001600160401b03811115611806575f5ffd5b61181288828901611730565b92505060808601356001600160401b0381111561182d575f5ffd5b61183988828901611612565b9150509295509295909350565b5f5f60408385031215611857575f5ffd5b82359150611867602084016114fd565b90509250929050565b5f5f60408385031215611881575f5ffd5b82356001600160401b03811115611896575f5ffd5b8301601f810185136118a6575f5ffd5b80356118b461174d8261170e565b8082825260208201915060208360051b8501019250878311156118d5575f5ffd5b6020840193505b828410156118fe576118ed846114fd565b8252602093840193909101906118dc565b945050505060208301356001600160401b0381111561191b575f5ffd5b61192785828601611730565b9150509250929050565b5f8151808452602084019350602083015f5b82811015611961578151865260209586019590910190600101611943565b5093949350505050565b602081525f6115706020830184611931565b5f5f6040838503121561198e575f5ffd5b611997836114fd565b9150602083013580151581146119ab575f5ffd5b809150509250929050565b5f5f604083850312156119c7575f5ffd5b82356001600160401b038111156119dc575f5ffd5b6119e885828601611730565b92505060208301356001600160401b0381111561191b575f5ffd5b5f60208284031215611a13575f5ffd5b611570826114fd565b5f5f60408385031215611a2d575f5ffd5b611a36836114fd565b9150611867602084016114fd565b5f5f5f5f5f60a08688031215611a58575f5ffd5b611a61866114fd565b9450611a6f602087016114fd565b9350604086013592506060860135915060808601356001600160401b0381111561182d575f5ffd5b600181811c90821680611aab57607f821691505b602082108103611ac957634e487b7160e01b5f52602260045260245ffd5b50919050565b601f8211156107aa57805f5260205f20601f840160051c81016020851015611af45750805b601f840160051c820191505b81811015610cc7575f8155600101611b00565b81516001600160401b03811115611b2c57611b2c6115ce565b611b4081611b3a8454611a97565b84611acf565b6020601f821160018114611b72575f8315611b5b5750848201515b5f19600385901b1c1916600184901b178455610cc7565b5f84815260208120601f198516915b82811015611ba15787850151825560209485019460019092019101611b81565b5084821015611bbe57868401515f19600387901b60f8161c191681555b50505050600190811b01905550565b634e487b7160e01b5f52601160045260245ffd5b5f60018201611bf257611bf2611bcd565b5060010190565b604081525f611c0b604083018561158e565b8281036020840152611c1d818561158e565b95945050505050565b634e487b7160e01b5f52603260045260245ffd5b6001600160a01b03868116825285166020820152604081018490526060810183905260a0608082018190525f90611c739083018461158e565b979650505050505050565b5f60208284031215611c8e575f5ffd5b815161157081611540565b6001600160a01b0386811682528516602082015260a0604082018190525f90611cc490830186611931565b8281036060840152611cd68186611931565b90508281036080840152611cea818561158e565b98975050505050505050565b8082018082111561042557610425611bcd565b604081525f611d1b6040830185611931565b8281036020840152611c1d818561193156fe0b84ee281e5cf521a9ad54a86fafe78946b157177e231bd8ae785af4d3b3620fa264697066735822122095be4a64ad04f43e433fbcfc7c453ec7b52abb66874679720e4b0fec65beb55464736f6c634300081e00330000000000000000000000000000000000000000000000000000000000000020000000000000000000000000000000000000000000000000000000000000008168747470733a2f2f616d6574687973742d61636365737369626c652d6c656d6d696e672d3635332e6d7970696e6174612e636c6f75642f697066732f62616679626569643432696d35736e336b67737769356667656d73716c36367070347337356772363269646377736f786b7574716b336f646276792f7b69647d2e6a736f6e00000000000000000000000000000000000000000000000000000000000000",
        "nonce": "0x133",
        "chainId": "0xaa36a7"
      },
      "additionalContracts": [],
      "isFixedGasLimit": false
    },
    {
      "hash": "0x687af395a56cfa2ed5eb5818601e267a95fa8e48259315072c8fa937bd6222b9",
      "transactionType": "CREATE",
      "contractName": "PrimaryMarket",
      "contractAddress": "0x7bf3823d764bd3e2681a71ff703837b508caa8b3",
      "function": null,
      "arguments": [
        "0x5aE69a270f061d8435100938b2Cef210D1f8348F",
        "0xbC7Ebadd93107D39A3379D9C600f428eb9765f0c"
      ],
      "transaction": {
        "from": "0xe30f5d336931186dd86b5c9426fd4493c34a5c5d",
        "gas": "0x13235d",
        "value": "0x0",
        "input": "0x60c060405234801561000f575f5ffd5b506040516110c93803806110c983398101604081905261002e916101be565b60017f9b779b17422d0df92223018b32b4d1fa46e071723d6817e2486d003becc55f00556001600160a01b038216158061006f57506001600160a01b038116155b1561008d576040516367cb2c1d60e11b815260040160405180910390fd5b6001600160a01b03828116608052811660a05260018054610100600160a81b031916336101008102919091179091556100c7905f906100fa565b506100f27f0b84ee281e5cf521a9ad54a86fafe78946b157177e231bd8ae785af4d3b3620f336100fa565b5050506101ef565b5f828152602081815260408083206001600160a01b038516845290915281205460ff1661019a575f838152602081815260408083206001600160a01b03861684529091529020805460ff191660011790556101523390565b6001600160a01b0316826001600160a01b0316847f2f8788117e7eff1d82e926ec794901d17c78024a50270940304540a733656f0d60405160405180910390a450600161019d565b505f5b92915050565b80516001600160a01b03811681146101b9575f5ffd5b919050565b5f5f604083850312156101cf575f5ffd5b6101d8836101a3565b91506101e6602084016101a3565b90509250929050565b60805160a051610ea46102255f395f81816102fe015281816104c6015261063301525f81816101ea01526104060152610ea45ff3fe608060405234801561000f575f5ffd5b5060043610610132575f3560e01c80638051522d116100b4578063b9c1868511610079578063b9c1868514610296578063bc197c81146102ae578063c0aab765146102e6578063cfeeafdb146102f9578063d547741f14610320578063f23a6e6114610333575f5ffd5b80638051522d1461024e5780638456cb591461026157806391d14854146102695780639e635bd61461027c578063a217fddf1461028f575f5ffd5b806336568abe116100fa57806336568abe146101ca5780633f4ba83a146101dd5780635885a895146101e55780635c975abb146102245780635e694cf51461022f575f5ffd5b806301ffc9a71461013657806309b69e8d1461015e578063248a9ca3146101735780632f2ff15d146101a35780632f83a6bc146101b6575b5f5ffd5b610149610144366004610afe565b610352565b60405190151581526020015b60405180910390f35b61017161016c366004610b2c565b610362565b005b610195610181366004610b4c565b5f9081526020819052604090206001015490565b604051908152602001610155565b6101716101b1366004610b7e565b610592565b6101955f516020610e4f5f395f51905f5281565b6101716101d8366004610b7e565b6105bc565b6101716105f4565b61020c7f000000000000000000000000000000000000000000000000000000000000000081565b6040516001600160a01b039091168152602001610155565b60015460ff16610149565b61019561023d366004610b4c565b5f9081526002602052604090205490565b61019561025c366004610b4c565b610616565b6101716106a3565b610149610277366004610b7e565b6106c2565b61017161028a366004610ba8565b6106ea565b6101955f81565b60015461020c9061010090046001600160a01b031681565b6102cd6102bc366004610cf2565b63bc197c8160e01b95945050505050565b6040516001600160e01b03199091168152602001610155565b6101716102f4366004610b2c565b610775565b61020c7f000000000000000000000000000000000000000000000000000000000000000081565b61017161032e366004610b7e565b6107fd565b6102cd610341366004610da1565b63f23a6e6160e01b95945050505050565b5f61035c82610821565b92915050565b61036a610845565b61037261086b565b805f0361039257604051632b71967360e01b815260040160405180910390fd5b5f82815260026020526040812054908190036103c15760405163069019f760e51b815260040160405180910390fd5b5f6103cc8383610df5565b6001546040516323b872dd60e01b81523360048201526101009091046001600160a01b039081166024830152604482018390529192505f917f000000000000000000000000000000000000000000000000000000000000000016906323b872dd906064016020604051808303815f875af115801561044c573d5f5f3e3d5ffd5b505050506040513d601f19601f820116820180604052508101906104709190610e18565b90508061049057604051633861795760e01b815260040160405180910390fd5b604051637921219560e11b8152306004820152336024820152604481018690526064810185905260a060848201525f60a48201527f00000000000000000000000000000000000000000000000000000000000000006001600160a01b03169063f242432a9060c4015f604051808303815f87803b15801561050f575f5ffd5b505af1158015610521573d5f5f3e3d5ffd5b505060408051878152602081018690528893503392507f751dfd922ff4b6048a31e74f71bfe6c58ee9135146d587bf908e12cfa525ae0b910160405180910390a350505061058e60017f9b779b17422d0df92223018b32b4d1fa46e071723d6817e2486d003becc55f0055565b5050565b5f828152602081905260409020600101546105ac81610899565b6105b683836108a3565b50505050565b6001600160a01b03811633146105e55760405163334bd91960e11b815260040160405180910390fd5b6105ef8282610932565b505050565b5f516020610e4f5f395f51905f5261060b81610899565b61061361099b565b50565b604051627eeac760e11b8152306004820152602481018290525f907f00000000000000000000000000000000000000000000000000000000000000006001600160a01b03169062fdd58e90604401602060405180830381865afa15801561067f573d5f5f3e3d5ffd5b505050506040513d601f19601f8201168201806040525081019061035c9190610e37565b5f516020610e4f5f395f51905f526106ba81610899565b6106136109ed565b5f918252602082815260408084206001600160a01b0393909316845291905290205460ff1690565b5f6106f481610899565b6001600160a01b03821661071b576040516367cb2c1d60e11b815260040160405180910390fd5b600180546001600160a01b03848116610100818102610100600160a81b031985161790945560405193909204169182907fb1ffc11b80176a035d4da15837c3326eb97da052c521f011e6bc8c9b9a8a5791905f90a3505050565b5f516020610e4f5f395f51905f5261078c81610899565b815f036107ac5760405163bec5275d60e01b815260040160405180910390fd5b5f83815260026020526040908190208390555183907f288e01eadd84f87ff852e67e784d6fe5181f8d088c2f1690e5c263289cad8a45906107f09085815260200190565b60405180910390a2505050565b5f8281526020819052604090206001015461081781610899565b6105b68383610932565b5f6001600160e01b03198216630271189760e51b148061035c575061035c82610a28565b60015460ff16156108695760405163d93c066560e01b815260040160405180910390fd5b565b610873610a5c565b60027f9b779b17422d0df92223018b32b4d1fa46e071723d6817e2486d003becc55f0055565b6106138133610a9e565b5f6108ae83836106c2565b61092b575f838152602081815260408083206001600160a01b03861684529091529020805460ff191660011790556108e33390565b6001600160a01b0316826001600160a01b0316847f2f8788117e7eff1d82e926ec794901d17c78024a50270940304540a733656f0d60405160405180910390a450600161035c565b505f61035c565b5f61093d83836106c2565b1561092b575f838152602081815260408083206001600160a01b0386168085529252808320805460ff1916905551339286917ff6391f5c32d9c69d2a47ea670b442974b53935d1edc7fd64eb21e047a839171b9190a450600161035c565b6109a3610adb565b6001805460ff191690557f5db9ee0a495bf2e6ff9c91a7834c1ba4fdd244a5e8aa4e537bd38aeae4b073aa335b6040516001600160a01b03909116815260200160405180910390a1565b6109f5610845565b6001805460ff1916811790557f62e78cea01bee320cd4e420270b5ea74000d11b0c9f74754ebdbfc544b05a258336109d0565b5f6001600160e01b03198216637965db0b60e01b148061035c57506301ffc9a760e01b6001600160e01b031983161461035c565b7f9b779b17422d0df92223018b32b4d1fa46e071723d6817e2486d003becc55f005460020361086957604051633ee5aeb560e01b815260040160405180910390fd5b610aa882826106c2565b61058e5760405163e2517d3f60e01b81526001600160a01b03821660048201526024810183905260440160405180910390fd5b60015460ff1661086957604051638dfc202b60e01b815260040160405180910390fd5b5f60208284031215610b0e575f5ffd5b81356001600160e01b031981168114610b25575f5ffd5b9392505050565b5f5f60408385031215610b3d575f5ffd5b50508035926020909101359150565b5f60208284031215610b5c575f5ffd5b5035919050565b80356001600160a01b0381168114610b79575f5ffd5b919050565b5f5f60408385031215610b8f575f5ffd5b82359150610b9f60208401610b63565b90509250929050565b5f60208284031215610bb8575f5ffd5b610b2582610b63565b634e487b7160e01b5f52604160045260245ffd5b604051601f8201601f1916810167ffffffffffffffff81118282101715610bfe57610bfe610bc1565b604052919050565b5f82601f830112610c15575f5ffd5b813567ffffffffffffffff811115610c2f57610c2f610bc1565b8060051b610c3f60208201610bd5565b91825260208185018101929081019086841115610c5a575f5ffd5b6020860192505b83831015610c7c578235825260209283019290910190610c61565b9695505050505050565b5f82601f830112610c95575f5ffd5b813567ffffffffffffffff811115610caf57610caf610bc1565b610cc2601f8201601f1916602001610bd5565b818152846020838601011115610cd6575f5ffd5b816020850160208301375f918101602001919091529392505050565b5f5f5f5f5f60a08688031215610d06575f5ffd5b610d0f86610b63565b9450610d1d60208701610b63565b9350604086013567ffffffffffffffff811115610d38575f5ffd5b610d4488828901610c06565b935050606086013567ffffffffffffffff811115610d60575f5ffd5b610d6c88828901610c06565b925050608086013567ffffffffffffffff811115610d88575f5ffd5b610d9488828901610c86565b9150509295509295909350565b5f5f5f5f5f60a08688031215610db5575f5ffd5b610dbe86610b63565b9450610dcc60208701610b63565b93506040860135925060608601359150608086013567ffffffffffffffff811115610d88575f5ffd5b808202811582820484141761035c57634e487b7160e01b5f52601160045260245ffd5b5f60208284031215610e28575f5ffd5b81518015158114610b25575f5ffd5b5f60208284031215610e47575f5ffd5b505191905056fe0b84ee281e5cf521a9ad54a86fafe78946b157177e231bd8ae785af4d3b3620fa2646970667358221220182792c7878bc1f0c946ad6473a259ddb92cdd76118a33743c0e6bdf4d2d3c4064736f6c634300081e00330000000000000000000000005ae69a270f061d8435100938b2cef210d1f8348f000000000000000000000000bc7ebadd93107d39a3379d9c600f428eb9765f0c",
        "nonce": "0x134",
        "chainId": "0xaa36a7"
      },
      "additionalContracts": [],
      "isFixedGasLimit": false
    },
    {
      "hash": "0x4d259d67c118a6fc540e1c2a9114b923e3aeaa1e52b452c37217490d92278fc5",
      "transactionType": "CREATE",
      "contractName": "SecondaryMarket",
      "contractAddress": "0x8b86642180149a22c2e06647342f8e250be5f23b",
      "function": null,
      "arguments": [
        "0x5aE69a270f061d8435100938b2Cef210D1f8348F",
        "0xbC7Ebadd93107D39A3379D9C600f428eb9765f0c"
      ],
      "transaction": {
        "from": "0xe30f5d336931186dd86b5c9426fd4493c34a5c5d",
        "gas": "0x18163d",
        "value": "0x0",
        "input": "0x60c060405234801561000f575f5ffd5b506040516115f83803806115f883398101604081905261002e91610176565b60017f9b779b17422d0df92223018b32b4d1fa46e071723d6817e2486d003becc55f00556001600160a01b038216158061006f57506001600160a01b038116155b1561008d57604051631c4998f160e01b815260040160405180910390fd5b6001600160a01b03808316608052811660a0526100aa5f336100b2565b5050506101a7565b5f828152602081815260408083206001600160a01b038516845290915281205460ff16610152575f838152602081815260408083206001600160a01b03861684529091529020805460ff1916600117905561010a3390565b6001600160a01b0316826001600160a01b0316847f2f8788117e7eff1d82e926ec794901d17c78024a50270940304540a733656f0d60405160405180910390a4506001610155565b505f5b92915050565b80516001600160a01b0381168114610171575f5ffd5b919050565b5f5f60408385031215610187575f5ffd5b6101908361015b565b915061019e6020840161015b565b90509250929050565b60805160a0516114066101f25f395f818161033b0152818161080101528181610a120152610c4e01525f8181610257015281816105be01528181610667015261075b01526114065ff3fe608060405234801561000f575f5ffd5b5060043610610132575f3560e01c80635c975abb116100b4578063a217fddf11610079578063a217fddf146102e4578063b03053b6146102eb578063bc197c81146102fe578063cfeeafdb14610336578063d547741f1461035d578063f23a6e6114610370575f5ffd5b80635c975abb1461029157806378e30c911461029c5780638456cb59146102c157806387ed92d7146102c957806391d14854146102d1575f5ffd5b80632f2ff15d116100fa5780632f2ff15d14610211578063305a67a81461022457806336568abe146102375780633f4ba83a1461024a5780635885a89514610252575f5ffd5b806301ffc9a7146101365780631030f05f1461015e578063107a274a146101b9578063248a9ca3146101cc57806326fbd1d6146101fc575b5f5ffd5b610149610144366004610fed565b61038f565b60405190151581526020015b60405180910390f35b61017161016c366004611014565b61039f565b604051610155919081516001600160a01b0316815260208083015190820152604080830151908201526060808301519082015260809182015115159181019190915260a00190565b6101716101c7366004611014565b61044b565b6101ee6101da366004611014565b5f9081526020819052604090206001015490565b604051908152602001610155565b61020f61020a36600461102b565b6104dc565b005b61020f61021f366004611066565b610927565b61020f610232366004611014565b610951565b61020f610245366004611066565b610ad1565b61020f610b09565b6102797f000000000000000000000000000000000000000000000000000000000000000081565b6040516001600160a01b039091168152602001610155565b60015460ff16610149565b6101496102aa366004611014565b5f9081526002602052604090206004015460ff1690565b61020f610b1b565b6003546101ee565b6101496102df366004611066565b610b2d565b6101ee5f81565b6101ee6102f9366004611090565b610b55565b61031d61030c3660046111ea565b63bc197c8160e01b95945050505050565b6040516001600160e01b03199091168152602001610155565b6102797f000000000000000000000000000000000000000000000000000000000000000081565b61020f61036b366004611066565b610d12565b61031d61037e366004611299565b63f23a6e6160e01b95945050505050565b5f61039982610d36565b92915050565b6103d76040518060a001604052805f6001600160a01b031681526020015f81526020015f81526020015f81526020015f151581525090565b5f82815260026020818152604092839020835160a08101855281546001600160a01b031681526001820154928101929092529182015492810192909252600381015460608301526004015460ff161515608082018190526103995760405163324cf4ef60e21b815260040160405180910390fd5b6104836040518060a001604052805f6001600160a01b031681526020015f81526020015f81526020015f81526020015f151581525090565b505f90815260026020818152604092839020835160a08101855281546001600160a01b031681526001820154928101929092529182015492810192909252600381015460608301526004015460ff161515608082015290565b6104e4610d5a565b6104ec610d80565b805f0361050c5760405163247efccf60e11b815260040160405180910390fd5b5f82815260026020526040902080546001600160a01b03166105415760405163e9891b5360e01b815260040160405180910390fd5b600481015460ff166105665760405163324cf4ef60e21b815260040160405180910390fd5b818160020154101561058b576040516327dc8bc160e21b815260040160405180910390fd5b5f82826003015461059c9190611301565b6040516370a0823160e01b81523360048201529091505f906001600160a01b037f000000000000000000000000000000000000000000000000000000000000000016906370a0823190602401602060405180830381865afa158015610603573d5f5f3e3d5ffd5b505050506040513d601f19601f820116820180604052508101906106279190611318565b90508181101561064a57604051630e33fdd960e21b815260040160405180910390fd5b604051636eb1769f60e11b81523360048201523060248201525f907f00000000000000000000000000000000000000000000000000000000000000006001600160a01b03169063dd62ed3e90604401602060405180830381865afa1580156106b4573d5f5f3e3d5ffd5b505050506040513d601f19601f820116820180604052508101906106d89190611318565b9050828110156106fb576040516303be262160e41b815260040160405180910390fd5b84846002015f82825461070e919061132f565b909155505060028401545f0361072b5760048401805460ff191690555b83546040516323b872dd60e01b81523360048201526001600160a01b039182166024820152604481018590525f917f000000000000000000000000000000000000000000000000000000000000000016906323b872dd906064016020604051808303815f875af11580156107a1573d5f5f3e3d5ffd5b505050506040513d601f19601f820116820180604052508101906107c59190611342565b9050806107e557604051632db4922f60e21b815260040160405180910390fd5b6001850154604051637921219560e11b81526001600160a01b037f0000000000000000000000000000000000000000000000000000000000000000169163f242432a9161083b9130913391908c90600401611361565b5f604051808303815f87803b158015610852575f5ffd5b505af1158015610864573d5f5f3e3d5ffd5b50508654600188015460408051918252602082018b905281018890526001600160a01b03909116925033915089907fb3556955a489fb1ff1cf2ce48ea54f262b9cb31e1e22a13f66142172e71cb52f9060600160405180910390a460028501541561090857867f66bcde9f7aec9b81719a4fdec54cbafbf6c834d1f2f989d9cd2134dab8d0c0de86600201546040516108ff91815260200190565b60405180910390a25b505050505061092360015f5160206113b15f395f51905f5255565b5050565b5f8281526020819052604090206001015461094181610d9b565b61094b8383610da5565b50505050565b610959610d80565b5f81815260026020526040902080546001600160a01b031661098e5760405163e9891b5360e01b815260040160405180910390fd5b80546001600160a01b031633146109b857604051630f41436b60e21b815260040160405180910390fd5b600481015460ff166109dd5760405163324cf4ef60e21b815260040160405180910390fd5b60018101546002820180546004808501805460ff191690555f909255604051637921219560e11b815290916001600160a01b037f0000000000000000000000000000000000000000000000000000000000000000169163f242432a91610a4b91309133918891889101611361565b5f604051808303815f87803b158015610a62575f5ffd5b505af1158015610a74573d5f5f3e3d5ffd5b505060408051858152602081018590523393508792507f587f221a465f70749f0226b8dd00e01725d2fc0a7cb46475c600f1a81f1849c3910160405180910390a3505050610ace60015f5160206113b15f395f51905f5255565b50565b6001600160a01b0381163314610afa5760405163334bd91960e11b815260040160405180910390fd5b610b048282610e34565b505050565b5f610b1381610d9b565b610ace610e9d565b5f610b2581610d9b565b610ace610eef565b5f918252602082815260408084206001600160a01b0393909316845291905290205460ff1690565b5f610b5e610d5a565b610b66610d80565b825f03610b865760405163247efccf60e11b815260040160405180910390fd5b815f03610ba65760405163c992dc8f60e01b815260040160405180910390fd5b60038054905f610bb583611398565b909155506040805160a081018252338082526020808301898152838501898152606085018981526001608087018181525f8a8152600296879052899020975188546001600160a01b0319166001600160a01b039182161789559451918801919091559151938601939093559151600385015590516004938401805460ff19169115159190911790559251637921219560e11b81529394507f00000000000000000000000000000000000000000000000000000000000000009092169263f242432a92610c8992909130918a918a9101611361565b5f604051808303815f87803b158015610ca0575f5ffd5b505af1158015610cb2573d5f5f3e3d5ffd5b5050604080518681526020810186905287935033925084917fa3941cfa07eecf2734875ab71cea0e47395be644da6e17b039a7e29efba74ef9910160405180910390a4610d0b60015f5160206113b15f395f51905f5255565b9392505050565b5f82815260208190526040902060010154610d2c81610d9b565b61094b8383610e34565b5f6001600160e01b03198216630271189760e51b1480610399575061039982610f2a565b60015460ff1615610d7e5760405163d93c066560e01b815260040160405180910390fd5b565b610d88610f5e565b60025f5160206113b15f395f51905f5255565b610ace8133610f8d565b5f610db08383610b2d565b610e2d575f838152602081815260408083206001600160a01b03861684529091529020805460ff19166001179055610de53390565b6001600160a01b0316826001600160a01b0316847f2f8788117e7eff1d82e926ec794901d17c78024a50270940304540a733656f0d60405160405180910390a4506001610399565b505f610399565b5f610e3f8383610b2d565b15610e2d575f838152602081815260408083206001600160a01b0386168085529252808320805460ff1916905551339286917ff6391f5c32d9c69d2a47ea670b442974b53935d1edc7fd64eb21e047a839171b9190a4506001610399565b610ea5610fca565b6001805460ff191690557f5db9ee0a495bf2e6ff9c91a7834c1ba4fdd244a5e8aa4e537bd38aeae4b073aa335b6040516001600160a01b03909116815260200160405180910390a1565b610ef7610d5a565b6001805460ff1916811790557f62e78cea01bee320cd4e420270b5ea74000d11b0c9f74754ebdbfc544b05a25833610ed2565b5f6001600160e01b03198216637965db0b60e01b148061039957506301ffc9a760e01b6001600160e01b0319831614610399565b5f5160206113b15f395f51905f5254600203610d7e57604051633ee5aeb560e01b815260040160405180910390fd5b610f978282610b2d565b6109235760405163e2517d3f60e01b81526001600160a01b03821660048201526024810183905260440160405180910390fd5b60015460ff16610d7e57604051638dfc202b60e01b815260040160405180910390fd5b5f60208284031215610ffd575f5ffd5b81356001600160e01b031981168114610d0b575f5ffd5b5f60208284031215611024575f5ffd5b5035919050565b5f5f6040838503121561103c575f5ffd5b50508035926020909101359150565b80356001600160a01b0381168114611061575f5ffd5b919050565b5f5f60408385031215611077575f5ffd5b823591506110876020840161104b565b90509250929050565b5f5f5f606084860312156110a2575f5ffd5b505081359360208301359350604090920135919050565b634e487b7160e01b5f52604160045260245ffd5b604051601f8201601f1916810167ffffffffffffffff811182821017156110f6576110f66110b9565b604052919050565b5f82601f83011261110d575f5ffd5b813567ffffffffffffffff811115611127576111276110b9565b8060051b611137602082016110cd565b91825260208185018101929081019086841115611152575f5ffd5b6020860192505b83831015611174578235825260209283019290910190611159565b9695505050505050565b5f82601f83011261118d575f5ffd5b813567ffffffffffffffff8111156111a7576111a76110b9565b6111ba601f8201601f19166020016110cd565b8181528460208386010111156111ce575f5ffd5b816020850160208301375f918101602001919091529392505050565b5f5f5f5f5f60a086880312156111fe575f5ffd5b6112078661104b565b94506112156020870161104b565b9350604086013567ffffffffffffffff811115611230575f5ffd5b61123c888289016110fe565b935050606086013567ffffffffffffffff811115611258575f5ffd5b611264888289016110fe565b925050608086013567ffffffffffffffff811115611280575f5ffd5b61128c8882890161117e565b9150509295509295909350565b5f5f5f5f5f60a086880312156112ad575f5ffd5b6112b68661104b565b94506112c46020870161104b565b93506040860135925060608601359150608086013567ffffffffffffffff811115611280575f5ffd5b634e487b7160e01b5f52601160045260245ffd5b8082028115828204841417610399576103996112ed565b5f60208284031215611328575f5ffd5b5051919050565b81810381811115610399576103996112ed565b5f60208284031215611352575f5ffd5b81518015158114610d0b575f5ffd5b6001600160a01b0394851681529290931660208301526040820152606081019190915260a0608082018190525f9082015260c00190565b5f600182016113a9576113a96112ed565b506001019056fe9b779b17422d0df92223018b32b4d1fa46e071723d6817e2486d003becc55f00a26469706673582212205c4637a7bc68a3fc7c1373ba9c55e48d60f37e2c76a1682827688a58fe35ffee64736f6c634300081e00330000000000000000000000005ae69a270f061d8435100938b2cef210d1f8348f000000000000000000000000bc7ebadd93107d39a3379d9c600f428eb9765f0c",
        "nonce": "0x135",
        "chainId": "0xaa36a7"
      },
      "additionalContracts": [],
      "isFixedGasLimit": false
    },
    {
      "hash": "0x0659bb3681054449bca721ab96abe3e58bb3865e0ea92e6ac35fd5bd6561631c",
      "transactionType": "CALL",
      "contractName": "FinancialAssets",
      "contractAddress": "0xbc7ebadd93107d39a3379d9c600f428eb9765f0c",
      "function": "setPrimaryMarket(address)",
      "arguments": [
        "0x7Bf3823D764bD3e2681A71Ff703837b508CAa8b3"
      ],
      "transaction": {
        "from": "0xe30f5d336931186dd86b5c9426fd4493c34a5c5d",
        "to": "0xbc7ebadd93107d39a3379d9c600f428eb9765f0c",
        "gas": "0x111c4",
        "value": "0x0",
        "input": "0xe2dc36660000000000000000000000007bf3823d764bd3e2681a71ff703837b508caa8b3",
        "nonce": "0x136",
        "chainId": "0xaa36a7"
      },
      "additionalContracts": [],
      "isFixedGasLimit": false
    },
    {
      "hash": "0x311df29a4e3ee4d91abac0c9e7f78364038c316cac7dc0bc10151ea69eca4298",
      "transactionType": "CALL",
      "contractName": "FinancialAssets",
      "contractAddress": "0xbc7ebadd93107d39a3379d9c600f428eb9765f0c",
      "function": "createAssetType(uint256,string,string)",
      "arguments": [
        "0",
        "Nexus Technology Fund",
        "TECH"
      ],
      "transaction": {
        "from": "0xe30f5d336931186dd86b5c9426fd4493c34a5c5d",
        "to": "0xbc7ebadd93107d39a3379d9c600f428eb9765f0c",
        "gas": "0x209b7",
        "value": "0x0",
        "input": "0x19a8413f0000000000000000000000000000000000000000000000000000000000000000000000000000000000000000000000000000000000000000000000000000006000000000000000000000000000000000000000000000000000000000000000a000000000000000000000000000000000000000000000000000000000000000154e6578757320546563686e6f6c6f67792046756e64000000000000000000000000000000000000000000000000000000000000000000000000000000000000045445434800000000000000000000000000000000000000000000000000000000",
        "nonce": "0x137",
        "chainId": "0xaa36a7"
      },
      "additionalContracts": [],
      "isFixedGasLimit": false
    },
    {
      "hash": "0x9abaed9fc65a15412e438413844ce0e14faf88a83bcc3bd8a97c971e1a7a87ab",
      "transactionType": "CALL",
      "contractName": "FinancialAssets",
      "contractAddress": "0xbc7ebadd93107d39a3379d9c600f428eb9765f0c",
      "function": "createAssetType(uint256,string,string)",
      "arguments": [
        "1",
        "Goldstone Precious Metals Fund",
        "GOLD"
      ],
      "transaction": {
        "from": "0xe30f5d336931186dd86b5c9426fd4493c34a5c5d",
        "to": "0xbc7ebadd93107d39a3379d9c600f428eb9765f0c",
        "gas": "0x1c766",
        "value": "0x0",
        "input": "0x19a8413f0000000000000000000000000000000000000000000000000000000000000001000000000000000000000000000000000000000000000000000000000000006000000000000000000000000000000000000000000000000000000000000000a0000000000000000000000000000000000000000000000000000000000000001e476f6c6473746f6e652050726563696f7573204d6574616c732046756e6400000000000000000000000000000000000000000000000000000000000000000004474f4c4400000000000000000000000000000000000000000000000000000000",
        "nonce": "0x138",
        "chainId": "0xaa36a7"
      },
      "additionalContracts": [],
      "isFixedGasLimit": false
    },
    {
      "hash": "0xfec3f071e4f3e8bfb22ae65957683cb40afc1778e0345be03cf047b66c8a5d96",
      "transactionType": "CALL",
      "contractName": "FinancialAssets",
      "contractAddress": "0xbc7ebadd93107d39a3379d9c600f428eb9765f0c",
      "function": "createAssetType(uint256,string,string)",
      "arguments": [
        "2",
        "Apex Real Estate Capital Fund",
        "REAL"
      ],
      "transaction": {
        "from": "0xe30f5d336931186dd86b5c9426fd4493c34a5c5d",
        "to": "0xbc7ebadd93107d39a3379d9c600f428eb9765f0c",
        "gas": "0x1ae09",
        "value": "0x0",
        "input": "0x19a8413f0000000000000000000000000000000000000000000000000000000000000002000000000000000000000000000000000000000000000000000000000000006000000000000000000000000000000000000000000000000000000000000000a0000000000000000000000000000000000000000000000000000000000000001d41706578205265616c20457374617465204361706974616c2046756e6400000000000000000000000000000000000000000000000000000000000000000000045245414c00000000000000000000000000000000000000000000000000000000",
        "nonce": "0x139",
        "chainId": "0xaa36a7"
      },
      "additionalContracts": [],
      "isFixedGasLimit": false
    },
    {
      "hash": "0xd4b2d4ed0bbc8cc277d5ffa4e62e56bd73e86dd61a58a263ca40bd79af115599",
      "transactionType": "CALL",
      "contractName": "FinancialAssets",
      "contractAddress": "0xbc7ebadd93107d39a3379d9c600f428eb9765f0c",
      "function": "createAssetType(uint256,string,string)",
      "arguments": [
        "3",
        "Green Future Sustainable Energy Fund",
        "GREEN"
      ],
      "transaction": {
        "from": "0xe30f5d336931186dd86b5c9426fd4493c34a5c5d",
        "to": "0xbc7ebadd93107d39a3379d9c600f428eb9765f0c",
        "gas": "0x2c7b1",
        "value": "0x0",
        "input": "0x19a8413f0000000000000000000000000000000000000000000000000000000000000003000000000000000000000000000000000000000000000000000000000000006000000000000000000000000000000000000000000000000000000000000000c00000000000000000000000000000000000000000000000000000000000000024477265656e20467574757265205375737461696e61626c6520456e657267792046756e64000000000000000000000000000000000000000000000000000000000000000000000000000000000000000000000000000000000000000000000005475245454e000000000000000000000000000000000000000000000000000000",
        "nonce": "0x13a",
        "chainId": "0xaa36a7"
      },
      "additionalContracts": [],
      "isFixedGasLimit": false
    },
    {
      "hash": "0x07b659904dce65c28a787f74fe8df0ef85b40165d93d1d61b1c3699ddf728c6b",
      "transactionType": "CALL",
      "contractName": "FinancialAssets",
      "contractAddress": "0xbc7ebadd93107d39a3379d9c600f428eb9765f0c",
      "function": "createAssetType(uint256,string,string)",
      "arguments": [
        "4",
        "MediCare Healthcare & Biotech Fund",
        "HEALTH"
      ],
      "transaction": {
        "from": "0xe30f5d336931186dd86b5c9426fd4493c34a5c5d",
        "to": "0xbc7ebadd93107d39a3379d9c600f428eb9765f0c",
        "gas": "0x2a017",
        "value": "0x0",
        "input": "0x19a8413f0000000000000000000000000000000000000000000000000000000000000004000000000000000000000000000000000000000000000000000000000000006000000000000000000000000000000000000000000000000000000000000000c000000000000000000000000000000000000000000000000000000000000000224d65646943617265204865616c74686361726520262042696f746563682046756e6400000000000000000000000000000000000000000000000000000000000000000000000000000000000000000000000000000000000000000000000000064845414c54480000000000000000000000000000000000000000000000000000",
        "nonce": "0x13b",
        "chainId": "0xaa36a7"
      },
      "additionalContracts": [],
      "isFixedGasLimit": false
    },
    {
      "hash": "0x57cff9439696f9796da0d572234c4a91feefada2eaea55920013bcb96803e62c",
      "transactionType": "CALL",
      "contractName": "FinancialAssets",
      "contractAddress": "0xbc7ebadd93107d39a3379d9c600f428eb9765f0c",
      "function": "mint(uint256,uint256)",
      "arguments": [
        "0",
        "1000"
      ],
      "transaction": {
        "from": "0xe30f5d336931186dd86b5c9426fd4493c34a5c5d",
        "to": "0xbc7ebadd93107d39a3379d9c600f428eb9765f0c",
        "gas": "0x23ab4",
        "value": "0x0",
        "input": "0x1b2ef1ca000000000000000000000000000000000000000000000000000000000000000000000000000000000000000000000000000000000000000000000000000003e8",
        "nonce": "0x13c",
        "chainId": "0xaa36a7"
      },
      "additionalContracts": [],
      "isFixedGasLimit": false
    },
    {
      "hash": "0xe20b2fa7355a3d8bb964a6bdc04943fba0e99362ea5e6e3879ec889495eae6bc",
      "transactionType": "CALL",
      "contractName": "FinancialAssets",
      "contractAddress": "0xbc7ebadd93107d39a3379d9c600f428eb9765f0c",
      "function": "mint(uint256,uint256)",
      "arguments": [
        "1",
        "500"
      ],
      "transaction": {
        "from": "0xe30f5d336931186dd86b5c9426fd4493c34a5c5d",
        "to": "0xbc7ebadd93107d39a3379d9c600f428eb9765f0c",
        "gas": "0x1de81",
        "value": "0x0",
        "input": "0x1b2ef1ca000000000000000000000000000000000000000000000000000000000000000100000000000000000000000000000000000000000000000000000000000001f4",
        "nonce": "0x13d",
        "chainId": "0xaa36a7"
      },
      "additionalContracts": [],
      "isFixedGasLimit": false
    },
    {
      "hash": "0x41e084b03ddd081e189cc1915f6d286d07ad2dc6484a7f77f4fa78ac7e61f22e",
      "transactionType": "CALL",
      "contractName": "FinancialAssets",
      "contractAddress": "0xbc7ebadd93107d39a3379d9c600f428eb9765f0c",
      "function": "mint(uint256,uint256)",
      "arguments": [
        "2",
        "750"
      ],
      "transaction": {
        "from": "0xe30f5d336931186dd86b5c9426fd4493c34a5c5d",
        "to": "0xbc7ebadd93107d39a3379d9c600f428eb9765f0c",
        "gas": "0x1de81",
        "value": "0x0",
        "input": "0x1b2ef1ca000000000000000000000000000000000000000000000000000000000000000200000000000000000000000000000000000000000000000000000000000002ee",
        "nonce": "0x13e",
        "chainId": "0xaa36a7"
      },
      "additionalContracts": [],
      "isFixedGasLimit": false
    },
    {
      "hash": "0xae3abf5f28eee31b50d4b80d1cc054dd6016d428c6fe4f3204c363ebaf4cb77e",
      "transactionType": "CALL",
      "contractName": "FinancialAssets",
      "contractAddress": "0xbc7ebadd93107d39a3379d9c600f428eb9765f0c",
      "function": "mint(uint256,uint256)",
      "arguments": [
        "3",
        "800"
      ],
      "transaction": {
        "from": "0xe30f5d336931186dd86b5c9426fd4493c34a5c5d",
        "to": "0xbc7ebadd93107d39a3379d9c600f428eb9765f0c",
        "gas": "0x1fa94",
        "value": "0x0",
        "input": "0x1b2ef1ca00000000000000000000000000000000000000000000000000000000000000030000000000000000000000000000000000000000000000000000000000000320",
        "nonce": "0x13f",
        "chainId": "0xaa36a7"
      },
      "additionalContracts": [],
      "isFixedGasLimit": false
    },
    {
      "hash": "0x6e3e4faf8fc6dea40d342be2043f8cb62faad8a732cd21b8014b3071fd0c9c25",
      "transactionType": "CALL",
      "contractName": "FinancialAssets",
      "contractAddress": "0xbc7ebadd93107d39a3379d9c600f428eb9765f0c",
      "function": "mint(uint256,uint256)",
      "arguments": [
        "4",
        "600"
      ],
      "transaction": {
        "from": "0xe30f5d336931186dd86b5c9426fd4493c34a5c5d",
        "to": "0xbc7ebadd93107d39a3379d9c600f428eb9765f0c",
        "gas": "0x1fa94",
        "value": "0x0",
        "input": "0x1b2ef1ca00000000000000000000000000000000000000000000000000000000000000040000000000000000000000000000000000000000000000000000000000000258",
        "nonce": "0x140",
        "chainId": "0xaa36a7"
      },
      "additionalContracts": [],
      "isFixedGasLimit": false
    },
    {
      "hash": "0x71300a73e585a420234202b64387a6c6335ab30438b56b15ce41d6a082d7d4e1",
      "transactionType": "CALL",
      "contractName": "PrimaryMarket",
      "contractAddress": "0x7bf3823d764bd3e2681a71ff703837b508caa8b3",
      "function": "configureAsset(uint256,uint256)",
      "arguments": [
        "0",
        "100000000"
      ],
      "transaction": {
        "from": "0xe30f5d336931186dd86b5c9426fd4493c34a5c5d",
        "to": "0x7bf3823d764bd3e2681a71ff703837b508caa8b3",
        "gas": "0x10189",
        "value": "0x0",
        "input": "0xc0aab76500000000000000000000000000000000000000000000000000000000000000000000000000000000000000000000000000000000000000000000000005f5e100",
        "nonce": "0x141",
        "chainId": "0xaa36a7"
      },
      "additionalContracts": [],
      "isFixedGasLimit": false
    },
    {
      "hash": "0x441289af2f8509bcde525a0da17465cafee80d36aa0bbc1197e605ca28992e34",
      "transactionType": "CALL",
      "contractName": "PrimaryMarket",
      "contractAddress": "0x7bf3823d764bd3e2681a71ff703837b508caa8b3",
      "function": "configureAsset(uint256,uint256)",
      "arguments": [
        "1",
        "200000000"
      ],
      "transaction": {
        "from": "0xe30f5d336931186dd86b5c9426fd4493c34a5c5d",
        "to": "0x7bf3823d764bd3e2681a71ff703837b508caa8b3",
        "gas": "0x1019a",
        "value": "0x0",
        "input": "0xc0aab7650000000000000000000000000000000000000000000000000000000000000001000000000000000000000000000000000000000000000000000000000bebc200",
        "nonce": "0x142",
        "chainId": "0xaa36a7"
      },
      "additionalContracts": [],
      "isFixedGasLimit": false
    },
    {
      "hash": "0xd259b136fe82bdee6bdfdb0e67122bac7c8046f70527da241d6b7e80a239d30d",
      "transactionType": "CALL",
      "contractName": "PrimaryMarket",
      "contractAddress": "0x7bf3823d764bd3e2681a71ff703837b508caa8b3",
      "function": "configureAsset(uint256,uint256)",
      "arguments": [
        "2",
        "150000000"
      ],
      "transaction": {
        "from": "0xe30f5d336931186dd86b5c9426fd4493c34a5c5d",
        "to": "0x7bf3823d764bd3e2681a71ff703837b508caa8b3",
        "gas": "0x101aa",
        "value": "0x0",
        "input": "0xc0aab76500000000000000000000000000000000000000000000000000000000000000020000000000000000000000000000000000000000000000000000000008f0d180",
        "nonce": "0x143",
        "chainId": "0xaa36a7"
      },
      "additionalContracts": [],
      "isFixedGasLimit": false
    },
    {
      "hash": "0x0a91277ed3526026b25fc71c3debd8ef084a2a22b97e7a87c31104f74edcf06b",
      "transactionType": "CALL",
      "contractName": "PrimaryMarket",
      "contractAddress": "0x7bf3823d764bd3e2681a71ff703837b508caa8b3",
      "function": "configureAsset(uint256,uint256)",
      "arguments": [
        "3",
        "80000000"
      ],
      "transaction": {
        "from": "0xe30f5d336931186dd86b5c9426fd4493c34a5c5d",
        "to": "0x7bf3823d764bd3e2681a71ff703837b508caa8b3",
        "gas": "0x1019a",
        "value": "0x0",
        "input": "0xc0aab76500000000000000000000000000000000000000000000000000000000000000030000000000000000000000000000000000000000000000000000000004c4b400",
        "nonce": "0x144",
        "chainId": "0xaa36a7"
      },
      "additionalContracts": [],
      "isFixedGasLimit": false
    },
    {
      "hash": "0x2377b8075eaed3de73d1a0d350d79d05122a19c6377b75809f48f55346fcd2dc",
      "transactionType": "CALL",
      "contractName": "PrimaryMarket",
      "contractAddress": "0x7bf3823d764bd3e2681a71ff703837b508caa8b3",
      "function": "configureAsset(uint256,uint256)",
      "arguments": [
        "4",
        "250000000"
      ],
      "transaction": {
        "from": "0xe30f5d336931186dd86b5c9426fd4493c34a5c5d",
        "to": "0x7bf3823d764bd3e2681a71ff703837b508caa8b3",
        "gas": "0x101aa",
        "value": "0x0",
        "input": "0xc0aab7650000000000000000000000000000000000000000000000000000000000000004000000000000000000000000000000000000000000000000000000000ee6b280",
        "nonce": "0x145",
        "chainId": "0xaa36a7"
      },
      "additionalContracts": [],
      "isFixedGasLimit": false
    },
    {
      "hash": "0x902207959b98f5234679228d416162f675f16830d0c4f0a4c2cd114118f69c13",
      "transactionType": "CALL",
      "contractName": "DigitalEuro",
      "contractAddress": "0x5ae69a270f061d8435100938b2cef210d1f8348f",
      "function": "mint(address,uint256)",
      "arguments": [
        "0x6Fc2Fbb2973E592EB6f932a10b3e72eeaA3113C0",
        "50000000000"
      ],
      "transaction": {
        "from": "0xe30f5d336931186dd86b5c9426fd4493c34a5c5d",
        "to": "0x5ae69a270f061d8435100938b2cef210d1f8348f",
        "gas": "0x19cf0",
        "value": "0x0",
        "input": "0x40c10f190000000000000000000000006fc2fbb2973e592eb6f932a10b3e72eeaa3113c00000000000000000000000000000000000000000000000000000000ba43b7400",
        "nonce": "0x146",
        "chainId": "0xaa36a7"
      },
      "additionalContracts": [],
      "isFixedGasLimit": false
    },
    {
      "hash": "0x0031b7065a1756cbf1f459d2cd5a037a9b3ef11c81cb046b1f4dfd1fe4269d9e",
      "transactionType": "CALL",
      "contractName": "DigitalEuro",
      "contractAddress": "0x5ae69a270f061d8435100938b2cef210d1f8348f",
      "function": "mint(address,uint256)",
      "arguments": [
        "0xdE4a466B7441357E1137A1a1E311bD70c1439eCB",
        "30000000000"
      ],
      "transaction": {
        "from": "0xe30f5d336931186dd86b5c9426fd4493c34a5c5d",
        "to": "0x5ae69a270f061d8435100938b2cef210d1f8348f",
        "gas": "0x129bb",
        "value": "0x0",
        "input": "0x40c10f19000000000000000000000000de4a466b7441357e1137a1a1e311bd70c1439ecb00000000000000000000000000000000000000000000000000000006fc23ac00",
        "nonce": "0x147",
        "chainId": "0xaa36a7"
      },
      "additionalContracts": [],
      "isFixedGasLimit": false
    },
    {
      "hash": "0x4b27bac97bedd90bcde3dc302e34636206254e870db37050d9aadcdf20f6dd88",
      "transactionType": "CALL",
      "contractName": "DigitalEuro",
      "contractAddress": "0x5ae69a270f061d8435100938b2cef210d1f8348f",
      "function": "mint(address,uint256)",
      "arguments": [
        "0xac75578bBdd3C830B32F2De2B8E2a4fA36996082",
        "40000000000"
      ],
      "transaction": {
        "from": "0xe30f5d336931186dd86b5c9426fd4493c34a5c5d",
        "to": "0x5ae69a270f061d8435100938b2cef210d1f8348f",
        "gas": "0x129bb",
        "value": "0x0",
        "input": "0x40c10f19000000000000000000000000ac75578bbdd3c830b32f2de2b8e2a4fa3699608200000000000000000000000000000000000000000000000000000009502f9000",
        "nonce": "0x148",
        "chainId": "0xaa36a7"
      },
      "additionalContracts": [],
      "isFixedGasLimit": false
    },
    {
      "hash": "0x7badb05b8b154e4e4ad2cf3de29e2434b1861894654c39f4f10ed3f86578698d",
      "transactionType": "CALL",
      "contractName": "DigitalEuro",
      "contractAddress": "0x5ae69a270f061d8435100938b2cef210d1f8348f",
      "function": "approve(address,uint256)",
      "arguments": [
        "0x7Bf3823D764bD3e2681A71Ff703837b508CAa8b3",
        "30000000000"
      ],
      "transaction": {
        "from": "0x6fc2fbb2973e592eb6f932a10b3e72eeaa3113c0",
        "to": "0x5ae69a270f061d8435100938b2cef210d1f8348f",
        "gas": "0xfa33",
        "value": "0x0",
        "input": "0x095ea7b30000000000000000000000007bf3823d764bd3e2681a71ff703837b508caa8b300000000000000000000000000000000000000000000000000000006fc23ac00",
        "nonce": "0x4c",
        "chainId": "0xaa36a7"
      },
      "additionalContracts": [],
      "isFixedGasLimit": false
    },
    {
      "hash": "0x2d9f1f7f8a859c5c566d9f609eec1b5faa9b7a03c84f04315f6b39ec5e6819d7",
      "transactionType": "CALL",
      "contractName": "PrimaryMarket",
      "contractAddress": "0x7bf3823d764bd3e2681a71ff703837b508caa8b3",
      "function": "buyAsset(uint256,uint256)",
      "arguments": [
        "0",
        "100"
      ],
      "transaction": {
        "from": "0x6fc2fbb2973e592eb6f932a10b3e72eeaa3113c0",
        "to": "0x7bf3823d764bd3e2681a71ff703837b508caa8b3",
        "gas": "0x255e6",
        "value": "0x0",
        "input": "0x09b69e8d00000000000000000000000000000000000000000000000000000000000000000000000000000000000000000000000000000000000000000000000000000064",
        "nonce": "0x4d",
        "chainId": "0xaa36a7"
      },
      "additionalContracts": [],
      "isFixedGasLimit": false
    },
    {
      "hash": "0xf40b756a3dc60330594e7bf3f1ceda1fd1ce6ffe45ec5f4bb202347ea2c1132f",
      "transactionType": "CALL",
      "contractName": "PrimaryMarket",
      "contractAddress": "0x7bf3823d764bd3e2681a71ff703837b508caa8b3",
      "function": "buyAsset(uint256,uint256)",
      "arguments": [
        "1",
        "50"
      ],
      "transaction": {
        "from": "0x6fc2fbb2973e592eb6f932a10b3e72eeaa3113c0",
        "to": "0x7bf3823d764bd3e2681a71ff703837b508caa8b3",
        "gas": "0x1f446",
        "value": "0x0",
        "input": "0x09b69e8d00000000000000000000000000000000000000000000000000000000000000010000000000000000000000000000000000000000000000000000000000000032",
        "nonce": "0x4e",
        "chainId": "0xaa36a7"
      },
      "additionalContracts": [],
      "isFixedGasLimit": false
    },
    {
      "hash": "0xbfcbefb8c3a8f8d5efe1a67c2b39e2bc4b808a0f4f913448e9503b7bff9816b9",
      "transactionType": "CALL",
      "contractName": "DigitalEuro",
      "contractAddress": "0x5ae69a270f061d8435100938b2cef210d1f8348f",
      "function": "approve(address,uint256)",
      "arguments": [
        "0x7Bf3823D764bD3e2681A71Ff703837b508CAa8b3",
        "25000000000"
      ],
      "transaction": {
        "from": "0xde4a466b7441357e1137a1a1e311bd70c1439ecb",
        "to": "0x5ae69a270f061d8435100938b2cef210d1f8348f",
        "gas": "0xfa33",
        "value": "0x0",
        "input": "0x095ea7b30000000000000000000000007bf3823d764bd3e2681a71ff703837b508caa8b300000000000000000000000000000000000000000000000000000005d21dba00",
        "nonce": "0x42",
        "chainId": "0xaa36a7"
      },
      "additionalContracts": [],
      "isFixedGasLimit": false
    },
    {
      "hash": "0x027ef8217c8f02fe7a327b7629e0d229702bfbf0b0e6342e3e0260fde0a21ebb",
      "transactionType": "CALL",
      "contractName": "PrimaryMarket",
      "contractAddress": "0x7bf3823d764bd3e2681a71ff703837b508caa8b3",
      "function": "buyAsset(uint256,uint256)",
      "arguments": [
        "3",
        "100"
      ],
      "transaction": {
        "from": "0xde4a466b7441357e1137a1a1e311bd70c1439ecb",
        "to": "0x7bf3823d764bd3e2681a71ff703837b508caa8b3",
        "gas": "0x1f446",
        "value": "0x0",
        "input": "0x09b69e8d00000000000000000000000000000000000000000000000000000000000000030000000000000000000000000000000000000000000000000000000000000064",
        "nonce": "0x43",
        "chainId": "0xaa36a7"
      },
      "additionalContracts": [],
      "isFixedGasLimit": false
    },
    {
      "hash": "0x2b0bc4f0b1a002047c6839dbf5477ac3515b041ff78ef710eb52c11ca130b387",
      "transactionType": "CALL",
      "contractName": "PrimaryMarket",
      "contractAddress": "0x7bf3823d764bd3e2681a71ff703837b508caa8b3",
      "function": "buyAsset(uint256,uint256)",
      "arguments": [
        "2",
        "80"
      ],
      "transaction": {
        "from": "0xde4a466b7441357e1137a1a1e311bd70c1439ecb",
        "to": "0x7bf3823d764bd3e2681a71ff703837b508caa8b3",
        "gas": "0x1f446",
        "value": "0x0",
        "input": "0x09b69e8d00000000000000000000000000000000000000000000000000000000000000020000000000000000000000000000000000000000000000000000000000000050",
        "nonce": "0x44",
        "chainId": "0xaa36a7"
      },
      "additionalContracts": [],
      "isFixedGasLimit": false
    },
    {
      "hash": "0xf6a52fb5cf9dc3995a0da32ac74ae87f3e8bf19c6cd6cdff6f161ba72544d528",
      "transactionType": "CALL",
      "contractName": "DigitalEuro",
      "contractAddress": "0x5ae69a270f061d8435100938b2cef210d1f8348f",
      "function": "approve(address,uint256)",
      "arguments": [
        "0x7Bf3823D764bD3e2681A71Ff703837b508CAa8b3",
        "35000000000"
      ],
      "transaction": {
        "from": "0xac75578bbdd3c830b32f2de2b8e2a4fa36996082",
        "to": "0x5ae69a270f061d8435100938b2cef210d1f8348f",
        "gas": "0xfa33",
        "value": "0x0",
        "input": "0x095ea7b30000000000000000000000007bf3823d764bd3e2681a71ff703837b508caa8b30000000000000000000000000000000000000000000000000000000826299e00",
        "nonce": "0x36",
        "chainId": "0xaa36a7"
      },
      "additionalContracts": [],
      "isFixedGasLimit": false
    },
    {
      "hash": "0x3ea0700ad3bbf657b0edda8ae6398757202255829dd81eb1d61046a31fcf99fc",
      "transactionType": "CALL",
      "contractName": "PrimaryMarket",
      "contractAddress": "0x7bf3823d764bd3e2681a71ff703837b508caa8b3",
      "function": "buyAsset(uint256,uint256)",
      "arguments": [
        "4",
        "60"
      ],
      "transaction": {
        "from": "0xac75578bbdd3c830b32f2de2b8e2a4fa36996082",
        "to": "0x7bf3823d764bd3e2681a71ff703837b508caa8b3",
        "gas": "0x1f446",
        "value": "0x0",
        "input": "0x09b69e8d0000000000000000000000000000000000000000000000000000000000000004000000000000000000000000000000000000000000000000000000000000003c",
        "nonce": "0x37",
        "chainId": "0xaa36a7"
      },
      "additionalContracts": [],
      "isFixedGasLimit": false
    },
    {
      "hash": "0xb35c3a73a2e3c74453f9cac71bb5072601b65b49d49a2f43e556e5711553b424",
      "transactionType": "CALL",
      "contractName": "PrimaryMarket",
      "contractAddress": "0x7bf3823d764bd3e2681a71ff703837b508caa8b3",
      "function": "buyAsset(uint256,uint256)",
      "arguments": [
        "1",
        "30"
      ],
      "transaction": {
        "from": "0xac75578bbdd3c830b32f2de2b8e2a4fa36996082",
        "to": "0x7bf3823d764bd3e2681a71ff703837b508caa8b3",
        "gas": "0x1f446",
        "value": "0x0",
        "input": "0x09b69e8d0000000000000000000000000000000000000000000000000000000000000001000000000000000000000000000000000000000000000000000000000000001e",
        "nonce": "0x38",
        "chainId": "0xaa36a7"
      },
      "additionalContracts": [],
      "isFixedGasLimit": false
    },
    {
      "hash": "0xb31ef3ee1de688c4b05175f09ec73d4c8dd9f29170d1e74765b9f71b930d4834",
      "transactionType": "CALL",
      "contractName": "PrimaryMarket",
      "contractAddress": "0x7bf3823d764bd3e2681a71ff703837b508caa8b3",
      "function": "buyAsset(uint256,uint256)",
      "arguments": [
        "0",
        "50"
      ],
      "transaction": {
        "from": "0xac75578bbdd3c830b32f2de2b8e2a4fa36996082",
        "to": "0x7bf3823d764bd3e2681a71ff703837b508caa8b3",
        "gas": "0x1d86b",
        "value": "0x0",
        "input": "0x09b69e8d00000000000000000000000000000000000000000000000000000000000000000000000000000000000000000000000000000000000000000000000000000032",
        "nonce": "0x39",
        "chainId": "0xaa36a7"
      },
      "additionalContracts": [],
      "isFixedGasLimit": false
    },
    {
      "hash": "0x42cd7766eca42a8c59c2fa1b1c821f2987395f82a4e243bf095f7bab85b64b2c",
      "transactionType": "CALL",
      "contractName": "FinancialAssets",
      "contractAddress": "0xbc7ebadd93107d39a3379d9c600f428eb9765f0c",
      "function": "setApprovalForAll(address,bool)",
      "arguments": [
        "0x8B86642180149a22c2e06647342f8E250BE5F23B",
        "true"
      ],
      "transaction": {
        "from": "0x6fc2fbb2973e592eb6f932a10b3e72eeaa3113c0",
        "to": "0xbc7ebadd93107d39a3379d9c600f428eb9765f0c",
        "gas": "0xf92f",
        "value": "0x0",
        "input": "0xa22cb4650000000000000000000000008b86642180149a22c2e06647342f8e250be5f23b0000000000000000000000000000000000000000000000000000000000000001",
        "nonce": "0x4f",
        "chainId": "0xaa36a7"
      },
      "additionalContracts": [],
      "isFixedGasLimit": false
    },
    {
      "hash": "0xed582a85c7b2293813fe52a8bbdf948c96f4a3bdd0e906c96f35e791ee0593c7",
      "transactionType": "CALL",
      "contractName": "FinancialAssets",
      "contractAddress": "0xbc7ebadd93107d39a3379d9c600f428eb9765f0c",
      "function": "setApprovalForAll(address,bool)",
      "arguments": [
        "0x8B86642180149a22c2e06647342f8E250BE5F23B",
        "true"
      ],
      "transaction": {
        "from": "0xde4a466b7441357e1137a1a1e311bd70c1439ecb",
        "to": "0xbc7ebadd93107d39a3379d9c600f428eb9765f0c",
        "gas": "0xf92f",
        "value": "0x0",
        "input": "0xa22cb4650000000000000000000000008b86642180149a22c2e06647342f8e250be5f23b0000000000000000000000000000000000000000000000000000000000000001",
        "nonce": "0x45",
        "chainId": "0xaa36a7"
      },
      "additionalContracts": [],
      "isFixedGasLimit": false
    },
    {
      "hash": "0x1e906a41bc8e6fc6e4cceae5c736d9504e3637cd25f4ea996702fa3dbef5d57e",
      "transactionType": "CALL",
      "contractName": "SecondaryMarket",
      "contractAddress": "0x8b86642180149a22c2e06647342f8e250be5f23b",
      "function": "createListing(uint256,uint256,uint256)",
      "arguments": [
        "0",
        "60",
        "120000000"
      ],
      "transaction": {
        "from": "0x6fc2fbb2973e592eb6f932a10b3e72eeaa3113c0",
        "to": "0x8b86642180149a22c2e06647342f8e250be5f23b",
        "gas": "0x3d553",
        "value": "0x0",
        "input": "0xb03053b60000000000000000000000000000000000000000000000000000000000000000000000000000000000000000000000000000000000000000000000000000003c0000000000000000000000000000000000000000000000000000000007270e00",
        "nonce": "0x50",
        "chainId": "0xaa36a7"
      },
      "additionalContracts": [],
      "isFixedGasLimit": false
    },
    {
      "hash": "0x2f4d961d348ee09d930b57946f086499f15eb313e0148fd940d4e410b7bed465",
      "transactionType": "CALL",
      "contractName": "SecondaryMarket",
      "contractAddress": "0x8b86642180149a22c2e06647342f8e250be5f23b",
      "function": "createListing(uint256,uint256,uint256)",
      "arguments": [
        "3",
        "50",
        "85000000"
      ],
      "transaction": {
        "from": "0xde4a466b7441357e1137a1a1e311bd70c1439ecb",
        "to": "0x8b86642180149a22c2e06647342f8e250be5f23b",
        "gas": "0x3e48f",
        "value": "0x0",
        "input": "0xb03053b600000000000000000000000000000000000000000000000000000000000000030000000000000000000000000000000000000000000000000000000000000032000000000000000000000000000000000000000000000000000000000510ff40",
        "nonce": "0x46",
        "chainId": "0xaa36a7"
      },
      "additionalContracts": [],
      "isFixedGasLimit": false
    },
    {
      "hash": "0xa1eb6bbf71161b97ba3454f8ff1415b37fa289606c566a8a254ec064b7a0f933",
      "transactionType": "CALL",
      "contractName": "DigitalEuro",
      "contractAddress": "0x5ae69a270f061d8435100938b2cef210d1f8348f",
      "function": "approve(address,uint256)",
      "arguments": [
        "0x8B86642180149a22c2e06647342f8E250BE5F23B",
        "6000000000"
      ],
      "transaction": {
        "from": "0xde4a466b7441357e1137a1a1e311bd70c1439ecb",
        "to": "0x5ae69a270f061d8435100938b2cef210d1f8348f",
        "gas": "0xfa33",
        "value": "0x0",
        "input": "0x095ea7b30000000000000000000000008b86642180149a22c2e06647342f8e250be5f23b0000000000000000000000000000000000000000000000000000000165a0bc00",
        "nonce": "0x47",
        "chainId": "0xaa36a7"
      },
      "additionalContracts": [],
      "isFixedGasLimit": false
    },
    {
      "hash": "0x7904ec55225885a9f653753cf475072676b07bdf57493cdbf3344baf3c1d17ea",
      "transactionType": "CALL",
      "contractName": "SecondaryMarket",
      "contractAddress": "0x8b86642180149a22c2e06647342f8e250be5f23b",
      "function": "executeTrade(uint256,uint256)",
      "arguments": [
        "0",
        "40"
      ],
      "transaction": {
        "from": "0xde4a466b7441357e1137a1a1e311bd70c1439ecb",
        "to": "0x8b86642180149a22c2e06647342f8e250be5f23b",
        "gas": "0x232b6",
        "value": "0x0",
        "input": "0x26fbd1d600000000000000000000000000000000000000000000000000000000000000000000000000000000000000000000000000000000000000000000000000000028",
        "nonce": "0x48",
        "chainId": "0xaa36a7"
      },
      "additionalContracts": [],
      "isFixedGasLimit": false
    },
    {
      "hash": "0x7e45ac7b423090d94d007b31eb1200ca694123e4fb5ce4757cb3ec8a235c856e",
      "transactionType": "CALL",
      "contractName": "DigitalEuro",
      "contractAddress": "0x5ae69a270f061d8435100938b2cef210d1f8348f",
      "function": "approve(address,uint256)",
      "arguments": [
        "0x8B86642180149a22c2e06647342f8E250BE5F23B",
        "5000000000"
      ],
      "transaction": {
        "from": "0xac75578bbdd3c830b32f2de2b8e2a4fa36996082",
        "to": "0x5ae69a270f061d8435100938b2cef210d1f8348f",
        "gas": "0xfa33",
        "value": "0x0",
        "input": "0x095ea7b30000000000000000000000008b86642180149a22c2e06647342f8e250be5f23b000000000000000000000000000000000000000000000000000000012a05f200",
        "nonce": "0x3a",
        "chainId": "0xaa36a7"
      },
      "additionalContracts": [],
      "isFixedGasLimit": false
    },
    {
      "hash": "0x3ae4784f9ec61537cc5c112114deb8700fec4e47c7c552169557f17d7f24c52e",
      "transactionType": "CALL",
      "contractName": "SecondaryMarket",
      "contractAddress": "0x8b86642180149a22c2e06647342f8e250be5f23b",
      "function": "executeTrade(uint256,uint256)",
      "arguments": [
        "1",
        "30"
      ],
      "transaction": {
        "from": "0xac75578bbdd3c830b32f2de2b8e2a4fa36996082",
        "to": "0x8b86642180149a22c2e06647342f8e250be5f23b",
        "gas": "0x253e1",
        "value": "0x0",
        "input": "0x26fbd1d60000000000000000000000000000000000000000000000000000000000000001000000000000000000000000000000000000000000000000000000000000001e",
        "nonce": "0x3b",
        "chainId": "0xaa36a7"
      },
      "additionalContracts": [],
      "isFixedGasLimit": false
    }
  ],
  "receipts": [
    {
      "status": "0x1",
      "cumulativeGasUsed": "0x12758fc",
      "logs": [
        {
          "address": "0x5ae69a270f061d8435100938b2cef210d1f8348f",
          "topics": [
            "0x2f8788117e7eff1d82e926ec794901d17c78024a50270940304540a733656f0d",
            "0x0000000000000000000000000000000000000000000000000000000000000000",
            "0x000000000000000000000000e30f5d336931186dd86b5c9426fd4493c34a5c5d",
            "0x000000000000000000000000e30f5d336931186dd86b5c9426fd4493c34a5c5d"
          ],
          "data": "0x",
          "blockHash": "0x3bb4b8a533fcd42edbe811d0ef666a4eed3ef51be04ff6f3252ecbc1f8ac52ba",
          "blockNumber": "0x9bc8ad",
          "blockTimestamp": "0x6986fea4",
          "transactionHash": "0x687a9737fb8ff07f69e0675c33469b51bd8fca3aa03df3918012073b7d5c5d5d",
          "transactionIndex": "0x64",
          "logIndex": "0xa8",
          "removed": false
        },
        {
          "address": "0x5ae69a270f061d8435100938b2cef210d1f8348f",
          "topics": [
            "0x2f8788117e7eff1d82e926ec794901d17c78024a50270940304540a733656f0d",
            "0x9f2df0fed2c77648de5860a4cc508cd0818c85b8b8a1ab4ceeef8d981c8956a6",
            "0x000000000000000000000000e30f5d336931186dd86b5c9426fd4493c34a5c5d",
            "0x000000000000000000000000e30f5d336931186dd86b5c9426fd4493c34a5c5d"
          ],
          "data": "0x",
          "blockHash": "0x3bb4b8a533fcd42edbe811d0ef666a4eed3ef51be04ff6f3252ecbc1f8ac52ba",
          "blockNumber": "0x9bc8ad",
          "blockTimestamp": "0x6986fea4",
          "transactionHash": "0x687a9737fb8ff07f69e0675c33469b51bd8fca3aa03df3918012073b7d5c5d5d",
          "transactionIndex": "0x64",
          "logIndex": "0xa9",
          "removed": false
        }
      ],
      "logsBloom": "0x00000004000000000000000000000000000000000000000000000040000000000000000000000000000000000000004000000000000000000000000000000000000000000000000000000000000000000000000000000000000000000000000000000000020000000000000000000800000000000000000000000000001000000000100000000000000000000010000000000000000000000000000000000000000000000000000000000000000000000000000000000000001000000000000000000000000000000000000000000100001000000000004100000000000020000000000000000000000000000000000000000000000002000000000000000000",
      "type": "0x2",
      "transactionHash": "0x687a9737fb8ff07f69e0675c33469b51bd8fca3aa03df3918012073b7d5c5d5d",
      "transactionIndex": "0x64",
      "blockHash": "0x3bb4b8a533fcd42edbe811d0ef666a4eed3ef51be04ff6f3252ecbc1f8ac52ba",
      "blockNumber": "0x9bc8ad",
      "gasUsed": "0xc2a50",
      "effectiveGasPrice": "0x3cd6a7b4",
      "from": "0xe30f5d336931186dd86b5c9426fd4493c34a5c5d",
      "to": null,
      "contractAddress": "0x5ae69a270f061d8435100938b2cef210d1f8348f"
    },
    {
      "status": "0x1",
      "cumulativeGasUsed": "0x107e24b",
      "logs": [
        {
          "address": "0xbc7ebadd93107d39a3379d9c600f428eb9765f0c",
          "topics": [
            "0x2f8788117e7eff1d82e926ec794901d17c78024a50270940304540a733656f0d",
            "0x0000000000000000000000000000000000000000000000000000000000000000",
            "0x000000000000000000000000e30f5d336931186dd86b5c9426fd4493c34a5c5d",
            "0x000000000000000000000000e30f5d336931186dd86b5c9426fd4493c34a5c5d"
          ],
          "data": "0x",
          "blockHash": "0x225f959c9d384d26840ab084ed9e112f852e1ebf1d56dd05cb0fe4319eca2299",
          "blockNumber": "0x9bc8af",
          "blockTimestamp": "0x6986febc",
          "transactionHash": "0x5553e5a677514d82c03c9e5e4a39d93418d932a8e22ec97517be308eb78b609f",
          "transactionIndex": "0x4a",
          "logIndex": "0x7c",
          "removed": false
        },
        {
          "address": "0xbc7ebadd93107d39a3379d9c600f428eb9765f0c",
          "topics": [
            "0x2f8788117e7eff1d82e926ec794901d17c78024a50270940304540a733656f0d",
            "0x0b84ee281e5cf521a9ad54a86fafe78946b157177e231bd8ae785af4d3b3620f",
            "0x000000000000000000000000e30f5d336931186dd86b5c9426fd4493c34a5c5d",
            "0x000000000000000000000000e30f5d336931186dd86b5c9426fd4493c34a5c5d"
          ],
          "data": "0x",
          "blockHash": "0x225f959c9d384d26840ab084ed9e112f852e1ebf1d56dd05cb0fe4319eca2299",
          "blockNumber": "0x9bc8af",
          "blockTimestamp": "0x6986febc",
          "transactionHash": "0x5553e5a677514d82c03c9e5e4a39d93418d932a8e22ec97517be308eb78b609f",
          "transactionIndex": "0x4a",
          "logIndex": "0x7d",
          "removed": false
        }
      ],
      "logsBloom": "0x00000004000000000000000000000000000000000000000000000040000000000000000000000000000000000000000000000000000000000000000010000000000000000000000000000004000000000000000000000080000000000000000000000000020000000000000000000800000000000000000004000000000000000000100000000000000000000000000000000000000000000000000000000000000000000000000000000000000000000000000000000000001000000000000000000000000000000000040000000100000000000000800100000000000020000000000000000000000000000000000000000000000000000000000000000000",
      "type": "0x2",
      "transactionHash": "0x5553e5a677514d82c03c9e5e4a39d93418d932a8e22ec97517be308eb78b609f",
      "transactionIndex": "0x4a",
      "blockHash": "0x225f959c9d384d26840ab084ed9e112f852e1ebf1d56dd05cb0fe4319eca2299",
      "blockNumber": "0x9bc8af",
      "gasUsed": "0x1cc5a4",
      "effectiveGasPrice": "0x416b327c",
      "from": "0xe30f5d336931186dd86b5c9426fd4493c34a5c5d",
      "to": null,
      "contractAddress": "0xbc7ebadd93107d39a3379d9c600f428eb9765f0c"
    },
    {
      "status": "0x1",
      "cumulativeGasUsed": "0xe09c1c",
      "logs": [
        {
          "address": "0x7bf3823d764bd3e2681a71ff703837b508caa8b3",
          "topics": [
            "0x2f8788117e7eff1d82e926ec794901d17c78024a50270940304540a733656f0d",
            "0x0000000000000000000000000000000000000000000000000000000000000000",
            "0x000000000000000000000000e30f5d336931186dd86b5c9426fd4493c34a5c5d",
            "0x000000000000000000000000e30f5d336931186dd86b5c9426fd4493c34a5c5d"
          ],
          "data": "0x",
          "blockHash": "0x15be6320b13ebaf045dfb6180b435dc31ccac9a216255341cf3a3c48ae4f8005",
          "blockNumber": "0x9bc8b0",
          "blockTimestamp": "0x6986fec8",
          "transactionHash": "0x687af395a56cfa2ed5eb5818601e267a95fa8e48259315072c8fa937bd6222b9",
          "transactionIndex": "0x4d",
          "logIndex": "0x9b",
          "removed": false
        },
        {
          "address": "0x7bf3823d764bd3e2681a71ff703837b508caa8b3",
          "topics": [
            "0x2f8788117e7eff1d82e926ec794901d17c78024a50270940304540a733656f0d",
            "0x0b84ee281e5cf521a9ad54a86fafe78946b157177e231bd8ae785af4d3b3620f",
            "0x000000000000000000000000e30f5d336931186dd86b5c9426fd4493c34a5c5d",
            "0x000000000000000000000000e30f5d336931186dd86b5c9426fd4493c34a5c5d"
          ],
          "data": "0x",
          "blockHash": "0x15be6320b13ebaf045dfb6180b435dc31ccac9a216255341cf3a3c48ae4f8005",
          "blockNumber": "0x9bc8b0",
          "blockTimestamp": "0x6986fec8",
          "transactionHash": "0x687af395a56cfa2ed5eb5818601e267a95fa8e48259315072c8fa937bd6222b9",
          "transactionIndex": "0x4d",
          "logIndex": "0x9c",
          "removed": false
        }
      ],
      "logsBloom": "0x00000004000000000000000000000000000000000000000000000040000000000000000000000000000000000000000000000000000000000000000010000000000000000000000000000000000000000000000000000080000000000000000000000000020000000000000000000800000000000000000000000000004000000000100000000000000000000000000000000000000000000000000000000000000000000000000000000000000000000000000000000000001000008002000000000000000000000000040000000100000000000000000100000000000020000000000000000000000000000000000000000000000000000000000000000000",
      "type": "0x2",
      "transactionHash": "0x687af395a56cfa2ed5eb5818601e267a95fa8e48259315072c8fa937bd6222b9",
      "transactionIndex": "0x4d",
      "blockHash": "0x15be6320b13ebaf045dfb6180b435dc31ccac9a216255341cf3a3c48ae4f8005",
      "blockNumber": "0x9bc8b0",
      "gasUsed": "0xeb8be",
      "effectiveGasPrice": "0x3f3127c5",
      "from": "0xe30f5d336931186dd86b5c9426fd4493c34a5c5d",
      "to": null,
      "contractAddress": "0x7bf3823d764bd3e2681a71ff703837b508caa8b3"
    },
    {
      "status": "0x1",
      "cumulativeGasUsed": "0x83e296",
      "logs": [
        {
          "address": "0x8b86642180149a22c2e06647342f8e250be5f23b",
          "topics": [
            "0x2f8788117e7eff1d82e926ec794901d17c78024a50270940304540a733656f0d",
            "0x0000000000000000000000000000000000000000000000000000000000000000",
            "0x000000000000000000000000e30f5d336931186dd86b5c9426fd4493c34a5c5d",
            "0x000000000000000000000000e30f5d336931186dd86b5c9426fd4493c34a5c5d"
          ],
          "data": "0x",
          "blockHash": "0x0ce722596b6263076687330a9ef68169fe32c17d4c765d5838754d1e19f5b80e",
          "blockNumber": "0x9bc8b1",
          "blockTimestamp": "0x6986fed4",
          "transactionHash": "0x4d259d67c118a6fc540e1c2a9114b923e3aeaa1e52b452c37217490d92278fc5",
          "transactionIndex": "0x41",
          "logIndex": "0x63",
          "removed": false
        }
      ],
      "logsBloom": "0x00000004000000000000000000000000000000000000000000000050000000000000000000000000000000000000000000000000000000000000000000000000000000000000000000000000000000000000000000000000000000000000000000000000820000000000000000000800000000000000000000000000000000000000100000000000000000000000000000000000000000000000000000000000000000000000000000000000000000000000000000000000001000000000000000000000000000000000000000000100000000000000000100000000000220000000000000000000000000000000000000000000000000000000000000000000",
      "type": "0x2",
      "transactionHash": "0x4d259d67c118a6fc540e1c2a9114b923e3aeaa1e52b452c37217490d92278fc5",
      "transactionIndex": "0x41",
      "blockHash": "0x0ce722596b6263076687330a9ef68169fe32c17d4c765d5838754d1e19f5b80e",
      "blockNumber": "0x9bc8b1",
      "gasUsed": "0x128743",
      "effectiveGasPrice": "0x3bffe450",
      "from": "0xe30f5d336931186dd86b5c9426fd4493c34a5c5d",
      "to": null,
      "contractAddress": "0x8b86642180149a22c2e06647342f8e250be5f23b"
    },
    {
      "status": "0x1",
      "cumulativeGasUsed": "0x390bade",
      "logs": [
        {
          "address": "0xbc7ebadd93107d39a3379d9c600f428eb9765f0c",
          "topics": [
            "0x2683c02722e9e01707eb234ac654f5eca143b1307d1789be28369d0f846f9e48",
            "0x0000000000000000000000000000000000000000000000000000000000000000",
            "0x0000000000000000000000007bf3823d764bd3e2681a71ff703837b508caa8b3"
          ],
          "data": "0x",
          "blockHash": "0x3dee16f9b99860ac51414feb69af2043d6c1ea8b7911a75ec367b5a2208f4749",
          "blockNumber": "0x9bc8b2",
          "blockTimestamp": "0x6986fee0",
          "transactionHash": "0x0659bb3681054449bca721ab96abe3e58bb3865e0ea92e6ac35fd5bd6561631c",
          "transactionIndex": "0x84",
          "logIndex": "0xc5",
          "removed": false
        }
      ],
      "logsBloom": "0x00000000000000000000400000000200000000000000000000000000000020000000080000000000000000000000000000000000000000000000000000000000000000000000000000000004000000000000000000000000000040000000000000000000020000000000000000000800000000000000000004000000000000000000000000000000000000000000000000000000000000000000000000000000000000000000000000000000000400000000000000000000000000000000000000000000000000000000000000000000000000000000800000000000000020000000000000000000000000000000000000000000000000000000000000000000",
      "type": "0x2",
      "transactionHash": "0x0659bb3681054449bca721ab96abe3e58bb3865e0ea92e6ac35fd5bd6561631c",
      "transactionIndex": "0x84",
      "blockHash": "0x3dee16f9b99860ac51414feb69af2043d6c1ea8b7911a75ec367b5a2208f4749",
      "blockNumber": "0x9bc8b2",
      "gasUsed": "0xbb31",
      "effectiveGasPrice": "0x38163aa8",
      "from": "0xe30f5d336931186dd86b5c9426fd4493c34a5c5d",
      "to": "0xbc7ebadd93107d39a3379d9c600f428eb9765f0c",
      "contractAddress": null
    },
    {
      "status": "0x1",
      "cumulativeGasUsed": "0x7a3009",
      "logs": [
        {
          "address": "0xbc7ebadd93107d39a3379d9c600f428eb9765f0c",
          "topics": [
            "0xb6d0fdd4aa7871e97002ee6e98a7078316273461e22e2f1be3715a9d247e766d",
            "0x0000000000000000000000000000000000000000000000000000000000000000"
          ],
          "data": "0x0000000000000000000000000000000000000000000000000000000000000040000000000000000000000000000000000000000000000000000000000000008000000000000000000000000000000000000000000000000000000000000000154e6578757320546563686e6f6c6f67792046756e64000000000000000000000000000000000000000000000000000000000000000000000000000000000000045445434800000000000000000000000000000000000000000000000000000000",
          "blockHash": "0xe53b38d398d08fa1700670e2a4a51a09d944a96749936c224dd24f9349562ac8",
          "blockNumber": "0x9bc8b3",
          "blockTimestamp": "0x6986feec",
          "transactionHash": "0x311df29a4e3ee4d91abac0c9e7f78364038c316cac7dc0bc10151ea69eca4298",
          "transactionIndex": "0x44",
          "logIndex": "0x9c",
          "removed": false
        }
      ],
      "logsBloom": "0x00000000000000000000000000000000000000000000000000000000000000000000000000000000000000000000000000000000000000000000000000000000000000000000000000000004000000000000000000000000000000000000000000000000020000000000000000000800000000000000000004000000000000000000000000000000000000000000000000000000000000000000000000000000004000000000000000000000000000000000000000000010000000000000000000000000000000000000000000000000000000000000800000000000800020000000000000000000000000000000000000000000000000000000000000000000",
      "type": "0x2",
      "transactionHash": "0x311df29a4e3ee4d91abac0c9e7f78364038c316cac7dc0bc10151ea69eca4298",
      "transactionIndex": "0x44",
      "blockHash": "0xe53b38d398d08fa1700670e2a4a51a09d944a96749936c224dd24f9349562ac8",
      "blockNumber": "0x9bc8b3",
      "gasUsed": "0x179b7",
      "effectiveGasPrice": "0x3f15d379",
      "from": "0xe30f5d336931186dd86b5c9426fd4493c34a5c5d",
      "to": "0xbc7ebadd93107d39a3379d9c600f428eb9765f0c",
      "contractAddress": null
    },
    {
      "status": "0x1",
      "cumulativeGasUsed": "0x2cd30f1",
      "logs": [
        {
          "address": "0xbc7ebadd93107d39a3379d9c600f428eb9765f0c",
          "topics": [
            "0xb6d0fdd4aa7871e97002ee6e98a7078316273461e22e2f1be3715a9d247e766d",
            "0x0000000000000000000000000000000000000000000000000000000000000001"
          ],
          "data": "0x00000000000000000000000000000000000000000000000000000000000000400000000000000000000000000000000000000000000000000000000000000080000000000000000000000000000000000000000000000000000000000000001e476f6c6473746f6e652050726563696f7573204d6574616c732046756e6400000000000000000000000000000000000000000000000000000000000000000004474f4c4400000000000000000000000000000000000000000000000000000000",
          "blockHash": "0xb52cbfa59023cec3a44952a7fd9a8da1d35d6a9ebff675bf1496015b37e1116b",
          "blockNumber": "0x9bc8b4",
          "blockTimestamp": "0x6986fef8",
          "transactionHash": "0x9abaed9fc65a15412e438413844ce0e14faf88a83bcc3bd8a97c971e1a7a87ab",
          "transactionIndex": "0x6c",
          "logIndex": "0xa2",
          "removed": false
        }
      ],
      "logsBloom": "0x00000000000000000000000000000000000000000000000000000000000000000000000000000000000000000000000000000000000000000000000000040000000000000000000000000004000000000000000000040000000000000000000000000000000000000000000000000000000000000000000004000000000000000000000000000000000000000000000000000000000000000000000000000000004000000000000000000000000000000000000000000010000000000000000000000000000000000000000000000000000000000000800000000000800040000000000000000000000000000000000000000000000000000000000000000000",
      "type": "0x2",
      "transactionHash": "0x9abaed9fc65a15412e438413844ce0e14faf88a83bcc3bd8a97c971e1a7a87ab",
      "transactionIndex": "0x6c",
      "blockHash": "0xb52cbfa59023cec3a44952a7fd9a8da1d35d6a9ebff675bf1496015b37e1116b",
      "blockNumber": "0x9bc8b4",
      "gasUsed": "0x13763",
      "effectiveGasPrice": "0x39e027b6",
      "from": "0xe30f5d336931186dd86b5c9426fd4493c34a5c5d",
      "to": "0xbc7ebadd93107d39a3379d9c600f428eb9765f0c",
      "contractAddress": null
    },
    {
      "status": "0x1",
      "cumulativeGasUsed": "0x6b09bf",
      "logs": [
        {
          "address": "0xbc7ebadd93107d39a3379d9c600f428eb9765f0c",
          "topics": [
            "0xb6d0fdd4aa7871e97002ee6e98a7078316273461e22e2f1be3715a9d247e766d",
            "0x0000000000000000000000000000000000000000000000000000000000000002"
          ],
          "data": "0x00000000000000000000000000000000000000000000000000000000000000400000000000000000000000000000000000000000000000000000000000000080000000000000000000000000000000000000000000000000000000000000001d41706578205265616c20457374617465204361706974616c2046756e6400000000000000000000000000000000000000000000000000000000000000000000045245414c00000000000000000000000000000000000000000000000000000000",
          "blockHash": "0x7c0179cd1b044c9ca4cfd8a0a1432fe600ad55dc6ddd5ffb88f0fb9c2ca81922",
          "blockNumber": "0x9bc8b5",
          "blockTimestamp": "0x6986ff04",
          "transactionHash": "0xfec3f071e4f3e8bfb22ae65957683cb40afc1778e0345be03cf047b66c8a5d96",
          "transactionIndex": "0x57",
          "logIndex": "0x74",
          "removed": false
        }
      ],
      "logsBloom": "0x04000000000000000000000000000000000000000000000000000000000000000000000000000000000000000000000000000000000000000000000000000000000000000000000000000004000000000000000000000000000000000000000000000000000000000000000000000000000000000000000004000000000000000000000000000000000000000000000000000000000000000000000000000000004000000000000000000100000000000000000000000010000000000000000000000000000000000000000000000000000000000000800000000000800000000000000000000000000000000000000000000000008000000000000000000000",
      "type": "0x2",
      "transactionHash": "0xfec3f071e4f3e8bfb22ae65957683cb40afc1778e0345be03cf047b66c8a5d96",
      "transactionIndex": "0x57",
      "blockHash": "0x7c0179cd1b044c9ca4cfd8a0a1432fe600ad55dc6ddd5ffb88f0fb9c2ca81922",
      "blockNumber": "0x9bc8b5",
      "gasUsed": "0x13757",
      "effectiveGasPrice": "0x3e9cb638",
      "from": "0xe30f5d336931186dd86b5c9426fd4493c34a5c5d",
      "to": "0xbc7ebadd93107d39a3379d9c600f428eb9765f0c",
      "contractAddress": null
    },
    {
      "status": "0x1",
      "cumulativeGasUsed": "0x8f96ee",
      "logs": [
        {
          "address": "0xbc7ebadd93107d39a3379d9c600f428eb9765f0c",
          "topics": [
            "0xb6d0fdd4aa7871e97002ee6e98a7078316273461e22e2f1be3715a9d247e766d",
            "0x0000000000000000000000000000000000000000000000000000000000000003"
          ],
          "data": "0x000000000000000000000000000000000000000000000000000000000000004000000000000000000000000000000000000000000000000000000000000000a00000000000000000000000000000000000000000000000000000000000000024477265656e20467574757265205375737461696e61626c6520456e657267792046756e64000000000000000000000000000000000000000000000000000000000000000000000000000000000000000000000000000000000000000000000005475245454e000000000000000000000000000000000000000000000000000000",
          "blockHash": "0xf7700abfb166d984e0045b25ed319ce0cf368178ad5c843014631c410d20837f",
          "blockNumber": "0x9bc8b7",
          "blockTimestamp": "0x6986ff1c",
          "transactionHash": "0xd4b2d4ed0bbc8cc277d5ffa4e62e56bd73e86dd61a58a263ca40bd79af115599",
          "transactionIndex": "0x5f",
          "logIndex": "0x99",
          "removed": false
        }
      ],
      "logsBloom": "0x00000000000000000000000000000000000000000000000000000000000000000000000000000000000000000000000000000000020000000000000000000000000000000000000000000004000000000000000000000000000000000000000000000000000000000000000000000000000000000000000004000000000000000000000000000000000000000000000000000000000000000000000000000000004000000000000000000000000000000000000000800010000000000000400000000000000000000000000000000000000000000000800000000000800000000000000000000000000000000000000000000000000000000000000000000000",
      "type": "0x2",
      "transactionHash": "0xd4b2d4ed0bbc8cc277d5ffa4e62e56bd73e86dd61a58a263ca40bd79af115599",
      "transactionIndex": "0x5f",
      "blockHash": "0xf7700abfb166d984e0045b25ed319ce0cf368178ad5c843014631c410d20837f",
      "blockNumber": "0x9bc8b7",
      "gasUsed": "0x1e6a1",
      "effectiveGasPrice": "0x40bb1d39",
      "from": "0xe30f5d336931186dd86b5c9426fd4493c34a5c5d",
      "to": "0xbc7ebadd93107d39a3379d9c600f428eb9765f0c",
      "contractAddress": null
    },
    {
      "status": "0x1",
      "cumulativeGasUsed": "0xc05868",
      "logs": [
        {
          "address": "0xbc7ebadd93107d39a3379d9c600f428eb9765f0c",
          "topics": [
            "0xb6d0fdd4aa7871e97002ee6e98a7078316273461e22e2f1be3715a9d247e766d",
            "0x0000000000000000000000000000000000000000000000000000000000000004"
          ],
          "data": "0x000000000000000000000000000000000000000000000000000000000000004000000000000000000000000000000000000000000000000000000000000000a000000000000000000000000000000000000000000000000000000000000000224d65646943617265204865616c74686361726520262042696f746563682046756e6400000000000000000000000000000000000000000000000000000000000000000000000000000000000000000000000000000000000000000000000000064845414c54480000000000000000000000000000000000000000000000000000",
          "blockHash": "0x6e7f9f379bfa10640b60151599f805779512f0eaf790e330919503ab808d45ad",
          "blockNumber": "0x9bc8b8",
          "blockTimestamp": "0x6986ff28",
          "transactionHash": "0x07b659904dce65c28a787f74fe8df0ef85b40165d93d1d61b1c3699ddf728c6b",
          "transactionIndex": "0x79",
          "logIndex": "0xde",
          "removed": false
        }
      ],
      "logsBloom": "0x00000000000000000000000000000000000000000000000000000000000000000000000000000000000000000000000000000000000000000000000000000000000000000000000000000004000000000000000000000000000000000000000008000000000000000000000000000000000000000000000004000000000000000000000000000000000000000000000000000000000000000000000000000000004000000000000000000000000000000000000000000010002000000000000000000000000000000000000000000000000000008000800000000000800000000000000000000000000000000000000000000000000000000000000000000000",
      "type": "0x2",
      "transactionHash": "0x07b659904dce65c28a787f74fe8df0ef85b40165d93d1d61b1c3699ddf728c6b",
      "transactionIndex": "0x79",
      "blockHash": "0x6e7f9f379bfa10640b60151599f805779512f0eaf790e330919503ab808d45ad",
      "blockNumber": "0x9bc8b8",
      "gasUsed": "0x1e695",
      "effectiveGasPrice": "0x400be622",
      "from": "0xe30f5d336931186dd86b5c9426fd4493c34a5c5d",
      "to": "0xbc7ebadd93107d39a3379d9c600f428eb9765f0c",
      "contractAddress": null
    },
    {
      "status": "0x1",
      "cumulativeGasUsed": "0xf3bc0e",
      "logs": [
        {
          "address": "0xbc7ebadd93107d39a3379d9c600f428eb9765f0c",
          "topics": [
            "0xc3d58168c5ae7397731d063d5bbf3d657854427343f4c083240f7aacaa2d0f62",
            "0x000000000000000000000000e30f5d336931186dd86b5c9426fd4493c34a5c5d",
            "0x0000000000000000000000000000000000000000000000000000000000000000",
            "0x0000000000000000000000007bf3823d764bd3e2681a71ff703837b508caa8b3"
          ],
          "data": "0x000000000000000000000000000000000000000000000000000000000000000000000000000000000000000000000000000000000000000000000000000003e8",
          "blockHash": "0x60863f6a99da38d97b91b934da9c06b3a6d1d0638145d624ecc098ace111b4ba",
          "blockNumber": "0x9bc8b9",
          "blockTimestamp": "0x6986ff34",
          "transactionHash": "0x57cff9439696f9796da0d572234c4a91feefada2eaea55920013bcb96803e62c",
          "transactionIndex": "0x58",
          "logIndex": "0xc4",
          "removed": false
        },
        {
          "address": "0xbc7ebadd93107d39a3379d9c600f428eb9765f0c",
          "topics": [
            "0xcd6742d5e809eafe3ac91950822ad9d9f4cec48faad935421642d893db7d0993",
            "0x0000000000000000000000000000000000000000000000000000000000000000",
            "0x0000000000000000000000007bf3823d764bd3e2681a71ff703837b508caa8b3"
          ],
          "data": "0x00000000000000000000000000000000000000000000000000000000000003e8",
          "blockHash": "0x60863f6a99da38d97b91b934da9c06b3a6d1d0638145d624ecc098ace111b4ba",
          "blockNumber": "0x9bc8b9",
          "blockTimestamp": "0x6986ff34",
          "transactionHash": "0x57cff9439696f9796da0d572234c4a91feefada2eaea55920013bcb96803e62c",
          "transactionIndex": "0x58",
          "logIndex": "0xc5",
          "removed": false
        }
      ],
      "logsBloom": "0x00000000000000000000400000000000000000000000000000000040000000000000000000000000000000000000000000000000000000010000000000002000000000000000000000000004000000000000000000000000000040000000000000000000020000000000000000000800000000000000000004000000000000000000100000000000000000000000000010000000000000000000000000000000000000000000000000000000000400000000000000000000000000000000000000000000000000000000000000000100000000000008800000000000000020000000000000004000000000000000000000000000000000000000080000000000",
      "type": "0x2",
      "transactionHash": "0x57cff9439696f9796da0d572234c4a91feefada2eaea55920013bcb96803e62c",
      "transactionIndex": "0x58",
      "blockHash": "0x60863f6a99da38d97b91b934da9c06b3a6d1d0638145d624ecc098ace111b4ba",
      "blockNumber": "0x9bc8b9",
      "gasUsed": "0x19d2f",
      "effectiveGasPrice": "0x3bf74313",
      "from": "0xe30f5d336931186dd86b5c9426fd4493c34a5c5d",
      "to": "0xbc7ebadd93107d39a3379d9c600f428eb9765f0c",
      "contractAddress": null
    },
    {
      "status": "0x1",
      "cumulativeGasUsed": "0x1430e83",
      "logs": [
        {
          "address": "0xbc7ebadd93107d39a3379d9c600f428eb9765f0c",
          "topics": [
            "0xc3d58168c5ae7397731d063d5bbf3d657854427343f4c083240f7aacaa2d0f62",
            "0x000000000000000000000000e30f5d336931186dd86b5c9426fd4493c34a5c5d",
            "0x0000000000000000000000000000000000000000000000000000000000000000",
            "0x0000000000000000000000007bf3823d764bd3e2681a71ff703837b508caa8b3"
          ],
          "data": "0x000000000000000000000000000000000000000000000000000000000000000100000000000000000000000000000000000000000000000000000000000001f4",
          "blockHash": "0x8a704c90fcd8398a36f1b1546ea4e7597d3805327a7e6b97960b324d0c4411b7",
          "blockNumber": "0x9bc8bb",
          "blockTimestamp": "0x6986ff4c",
          "transactionHash": "0xe20b2fa7355a3d8bb964a6bdc04943fba0e99362ea5e6e3879ec889495eae6bc",
          "transactionIndex": "0x77",
          "logIndex": "0xf7",
          "removed": false
        },
        {
          "address": "0xbc7ebadd93107d39a3379d9c600f428eb9765f0c",
          "topics": [
            "0xcd6742d5e809eafe3ac91950822ad9d9f4cec48faad935421642d893db7d0993",
            "0x0000000000000000000000000000000000000000000000000000000000000001",
            "0x0000000000000000000000007bf3823d764bd3e2681a71ff703837b508caa8b3"
          ],
          "data": "0x00000000000000000000000000000000000000000000000000000000000001f4",
          "blockHash": "0x8a704c90fcd8398a36f1b1546ea4e7597d3805327a7e6b97960b324d0c4411b7",
          "blockNumber": "0x9bc8bb",
          "blockTimestamp": "0x6986ff4c",
          "transactionHash": "0xe20b2fa7355a3d8bb964a6bdc04943fba0e99362ea5e6e3879ec889495eae6bc",
          "transactionIndex": "0x77",
          "logIndex": "0xf8",
          "removed": false
        }
      ],
      "logsBloom": "0x00000000000000000000400000000000000000000000000000000040000000000000000000000000000000000000000000000000000000010000000000042000000000000000000000000004000000000000000000040000000040000000000000000000020000000000000000000800000000000000000004000000000000000000100000000000000000000000000010000000000000000000000000000000000000000000000000000000000400000000000000000000000000000000000000000000000000000000000000000100000000000008800000000000000060000000000000004000000000000000000000000000000000000000080000000000",
      "type": "0x2",
      "transactionHash": "0xe20b2fa7355a3d8bb964a6bdc04943fba0e99362ea5e6e3879ec889495eae6bc",
      "transactionIndex": "0x77",
      "blockHash": "0x8a704c90fcd8398a36f1b1546ea4e7597d3805327a7e6b97960b324d0c4411b7",
      "blockNumber": "0x9bc8bb",
      "gasUsed": "0x15a6f",
      "effectiveGasPrice": "0x3fbc4297",
      "from": "0xe30f5d336931186dd86b5c9426fd4493c34a5c5d",
      "to": "0xbc7ebadd93107d39a3379d9c600f428eb9765f0c",
      "contractAddress": null
    },
    {
      "status": "0x1",
      "cumulativeGasUsed": "0x9476e3",
      "logs": [
        {
          "address": "0xbc7ebadd93107d39a3379d9c600f428eb9765f0c",
          "topics": [
            "0xc3d58168c5ae7397731d063d5bbf3d657854427343f4c083240f7aacaa2d0f62",
            "0x000000000000000000000000e30f5d336931186dd86b5c9426fd4493c34a5c5d",
            "0x0000000000000000000000000000000000000000000000000000000000000000",
            "0x0000000000000000000000007bf3823d764bd3e2681a71ff703837b508caa8b3"
          ],
          "data": "0x000000000000000000000000000000000000000000000000000000000000000200000000000000000000000000000000000000000000000000000000000002ee",
          "blockHash": "0x3f92d80b0ef3162f23bb8e91ef58c111bdc972ee754ab06539400d81bfc4df33",
          "blockNumber": "0x9bc8bc",
          "blockTimestamp": "0x6986ff58",
          "transactionHash": "0x41e084b03ddd081e189cc1915f6d286d07ad2dc6484a7f77f4fa78ac7e61f22e",
          "transactionIndex": "0x4f",
          "logIndex": "0x93",
          "removed": false
        },
        {
          "address": "0xbc7ebadd93107d39a3379d9c600f428eb9765f0c",
          "topics": [
            "0xcd6742d5e809eafe3ac91950822ad9d9f4cec48faad935421642d893db7d0993",
            "0x0000000000000000000000000000000000000000000000000000000000000002",
            "0x0000000000000000000000007bf3823d764bd3e2681a71ff703837b508caa8b3"
          ],
          "data": "0x00000000000000000000000000000000000000000000000000000000000002ee",
          "blockHash": "0x3f92d80b0ef3162f23bb8e91ef58c111bdc972ee754ab06539400d81bfc4df33",
          "blockNumber": "0x9bc8bc",
          "blockTimestamp": "0x6986ff58",
          "transactionHash": "0x41e084b03ddd081e189cc1915f6d286d07ad2dc6484a7f77f4fa78ac7e61f22e",
          "transactionIndex": "0x4f",
          "logIndex": "0x94",
          "removed": false
        }
      ],
      "logsBloom": "0x04000000000000000000400000000000000000000000000000000040000000000000000000000000000000000000000000000000000000010000000000002000000000000000000000000004000000000000000000000000000040000000000000000000020000000000000000000800000000000000000004000000000000000000100000000000000000000000000010000000000000000000000000000000000000000000000000000100000400000000000000000000000000000000000000000000000000000000000000000100000000000008800000000000000020000000000000004000000000000000000000000000008000000000080000000000",
      "type": "0x2",
      "transactionHash": "0x41e084b03ddd081e189cc1915f6d286d07ad2dc6484a7f77f4fa78ac7e61f22e",
      "transactionIndex": "0x4f",
      "blockHash": "0x3f92d80b0ef3162f23bb8e91ef58c111bdc972ee754ab06539400d81bfc4df33",
      "blockNumber": "0x9bc8bc",
      "gasUsed": "0x15a6f",
      "effectiveGasPrice": "0x3eb97006",
      "from": "0xe30f5d336931186dd86b5c9426fd4493c34a5c5d",
      "to": "0xbc7ebadd93107d39a3379d9c600f428eb9765f0c",
      "contractAddress": null
    },
    {
      "status": "0x1",
      "cumulativeGasUsed": "0xa0a9a8",
      "logs": [
        {
          "address": "0xbc7ebadd93107d39a3379d9c600f428eb9765f0c",
          "topics": [
            "0xc3d58168c5ae7397731d063d5bbf3d657854427343f4c083240f7aacaa2d0f62",
            "0x000000000000000000000000e30f5d336931186dd86b5c9426fd4493c34a5c5d",
            "0x0000000000000000000000000000000000000000000000000000000000000000",
            "0x0000000000000000000000007bf3823d764bd3e2681a71ff703837b508caa8b3"
          ],
          "data": "0x00000000000000000000000000000000000000000000000000000000000000030000000000000000000000000000000000000000000000000000000000000320",
          "blockHash": "0x27622975c9e561b701c97026f6d775b0269da16522e3daa45477c72f9eabd936",
          "blockNumber": "0x9bc8be",
          "blockTimestamp": "0x6986ff70",
          "transactionHash": "0xae3abf5f28eee31b50d4b80d1cc054dd6016d428c6fe4f3204c363ebaf4cb77e",
          "transactionIndex": "0x60",
          "logIndex": "0x81",
          "removed": false
        },
        {
          "address": "0xbc7ebadd93107d39a3379d9c600f428eb9765f0c",
          "topics": [
            "0xcd6742d5e809eafe3ac91950822ad9d9f4cec48faad935421642d893db7d0993",
            "0x0000000000000000000000000000000000000000000000000000000000000003",
            "0x0000000000000000000000007bf3823d764bd3e2681a71ff703837b508caa8b3"
          ],
          "data": "0x0000000000000000000000000000000000000000000000000000000000000320",
          "blockHash": "0x27622975c9e561b701c97026f6d775b0269da16522e3daa45477c72f9eabd936",
          "blockNumber": "0x9bc8be",
          "blockTimestamp": "0x6986ff70",
          "transactionHash": "0xae3abf5f28eee31b50d4b80d1cc054dd6016d428c6fe4f3204c363ebaf4cb77e",
          "transactionIndex": "0x60",
          "logIndex": "0x82",
          "removed": false
        }
      ],
      "logsBloom": "0x00000000000000000000400000000000000000000000000000000040000000000000000000000000000000000000000000000000020000010000000000002000000000000000000000000004000000000000000000000000000040000000000000000000020000000000000000000800000000000000000004000000000000000000100000000000000000000000000010000000000000000000000000000000000000000000000000000000000400000000000000800000000000000000400000000000000000000000000000000100000000000008800000000000000020000000000000004000000000000000000000000000000000000000080000000000",
      "type": "0x2",
      "transactionHash": "0xae3abf5f28eee31b50d4b80d1cc054dd6016d428c6fe4f3204c363ebaf4cb77e",
      "transactionIndex": "0x60",
      "blockHash": "0x27622975c9e561b701c97026f6d775b0269da16522e3daa45477c72f9eabd936",
      "blockNumber": "0x9bc8be",
      "gasUsed": "0x15a61",
      "effectiveGasPrice": "0x41bb1108",
      "from": "0xe30f5d336931186dd86b5c9426fd4493c34a5c5d",
      "to": "0xbc7ebadd93107d39a3379d9c600f428eb9765f0c",
      "contractAddress": null
    },
    {
      "status": "0x1",
      "cumulativeGasUsed": "0x8d45fc",
      "logs": [
        {
          "address": "0xbc7ebadd93107d39a3379d9c600f428eb9765f0c",
          "topics": [
            "0xc3d58168c5ae7397731d063d5bbf3d657854427343f4c083240f7aacaa2d0f62",
            "0x000000000000000000000000e30f5d336931186dd86b5c9426fd4493c34a5c5d",
            "0x0000000000000000000000000000000000000000000000000000000000000000",
            "0x0000000000000000000000007bf3823d764bd3e2681a71ff703837b508caa8b3"
          ],
          "data": "0x00000000000000000000000000000000000000000000000000000000000000040000000000000000000000000000000000000000000000000000000000000258",
          "blockHash": "0xaf747efb784d73af6f5f872c9d7bed9c116fd52edeb45eeebb8c79a2a84efb23",
          "blockNumber": "0x9bc8bf",
          "blockTimestamp": "0x6986ff7c",
          "transactionHash": "0x6e3e4faf8fc6dea40d342be2043f8cb62faad8a732cd21b8014b3071fd0c9c25",
          "transactionIndex": "0x5c",
          "logIndex": "0xad",
          "removed": false
        },
        {
          "address": "0xbc7ebadd93107d39a3379d9c600f428eb9765f0c",
          "topics": [
            "0xcd6742d5e809eafe3ac91950822ad9d9f4cec48faad935421642d893db7d0993",
            "0x0000000000000000000000000000000000000000000000000000000000000004",
            "0x0000000000000000000000007bf3823d764bd3e2681a71ff703837b508caa8b3"
          ],
          "data": "0x0000000000000000000000000000000000000000000000000000000000000258",
          "blockHash": "0xaf747efb784d73af6f5f872c9d7bed9c116fd52edeb45eeebb8c79a2a84efb23",
          "blockNumber": "0x9bc8bf",
          "blockTimestamp": "0x6986ff7c",
          "transactionHash": "0x6e3e4faf8fc6dea40d342be2043f8cb62faad8a732cd21b8014b3071fd0c9c25",
          "transactionIndex": "0x5c",
          "logIndex": "0xae",
          "removed": false
        }
      ],
      "logsBloom": "0x00000000000000000000400000000000000000000000000000000040000000000000000000000000000000000000000000000000000000010000000000002000000000000000000000000004000000000000000000000000000040000000000008000000020000000000000000000800000000000000000004000000000000000000100000000000000000000000000010000000000000000000000000000000000000000000000000000000000400000000000000000000002000000000000000000000000000000000000000000100000000008008800000000000000020000000000000004000000000000000000000000000000000000000080000000000",
      "type": "0x2",
      "transactionHash": "0x6e3e4faf8fc6dea40d342be2043f8cb62faad8a732cd21b8014b3071fd0c9c25",
      "transactionIndex": "0x5c",
      "blockHash": "0xaf747efb784d73af6f5f872c9d7bed9c116fd52edeb45eeebb8c79a2a84efb23",
      "blockNumber": "0x9bc8bf",
      "gasUsed": "0x15a61",
      "effectiveGasPrice": "0x3e53f8a7",
      "from": "0xe30f5d336931186dd86b5c9426fd4493c34a5c5d",
      "to": "0xbc7ebadd93107d39a3379d9c600f428eb9765f0c",
      "contractAddress": null
    },
    {
      "status": "0x1",
      "cumulativeGasUsed": "0xb74afe",
      "logs": [
        {
          "address": "0x7bf3823d764bd3e2681a71ff703837b508caa8b3",
          "topics": [
            "0x288e01eadd84f87ff852e67e784d6fe5181f8d088c2f1690e5c263289cad8a45",
            "0x0000000000000000000000000000000000000000000000000000000000000000"
          ],
          "data": "0x0000000000000000000000000000000000000000000000000000000005f5e100",
          "blockHash": "0xea836519dc7ce59ca43b61caa20db133840209bc35e4bae7c8d3d492d9cf7038",
          "blockNumber": "0x9bc8c1",
          "blockTimestamp": "0x6986ff94",
          "transactionHash": "0x71300a73e585a420234202b64387a6c6335ab30438b56b15ce41d6a082d7d4e1",
          "transactionIndex": "0x5f",
          "logIndex": "0xdc",
          "removed": false
        }
      ],
      "logsBloom": "0x00000000000000000000000000000000000000000000000000000000000000000000000000000000000000000000000000000000000000000000000000000000000000000000000000000000000000000000000000000000000000000000000000000000020000000000000000000800000000000000000000000000004000000000000000000000000000000040000000000000000000000000000000000000000000000000000000000000000000000000000000000000000000008002000000000040000000000000000000000000000000000000000000000000000020000000000000000020000000000000000000000000000000000000000000000000",
      "type": "0x2",
      "transactionHash": "0x71300a73e585a420234202b64387a6c6335ab30438b56b15ce41d6a082d7d4e1",
      "transactionIndex": "0x5f",
      "blockHash": "0xea836519dc7ce59ca43b61caa20db133840209bc35e4bae7c8d3d492d9cf7038",
      "blockNumber": "0x9bc8c1",
      "gasUsed": "0xba74",
      "effectiveGasPrice": "0x412fa1ae",
      "from": "0xe30f5d336931186dd86b5c9426fd4493c34a5c5d",
      "to": "0x7bf3823d764bd3e2681a71ff703837b508caa8b3",
      "contractAddress": null
    },
    {
      "status": "0x1",
      "cumulativeGasUsed": "0xc1337f",
      "logs": [
        {
          "address": "0x7bf3823d764bd3e2681a71ff703837b508caa8b3",
          "topics": [
            "0x288e01eadd84f87ff852e67e784d6fe5181f8d088c2f1690e5c263289cad8a45",
            "0x0000000000000000000000000000000000000000000000000000000000000001"
          ],
          "data": "0x000000000000000000000000000000000000000000000000000000000bebc200",
          "blockHash": "0xd43bbbdc2a0b525a4f7b030b6be29ac19aee2acc83f631688ccf2400112a14b0",
          "blockNumber": "0x9bc8c2",
          "blockTimestamp": "0x6986ffa0",
          "transactionHash": "0x441289af2f8509bcde525a0da17465cafee80d36aa0bbc1197e605ca28992e34",
          "transactionIndex": "0x61",
          "logIndex": "0xc7",
          "removed": false
        }
      ],
      "logsBloom": "0x00000000000000000000000000000000000000000000000000000000000000000000000000000000000000000000000000000000000000000000000000040000000000000000000000000000000000000000000000040000000000000000000000000000000000000000000000000000000000000000000000000000004000000000000000000000000000000040000000000000000000000000000000000000000000000000000000000000000000000000000000000000000000008002000000000040000000000000000000000000000000000000000000000000000040000000000000000020000000000000000000000000000000000000000000000000",
      "type": "0x2",
      "transactionHash": "0x441289af2f8509bcde525a0da17465cafee80d36aa0bbc1197e605ca28992e34",
      "transactionIndex": "0x61",
      "blockHash": "0xd43bbbdc2a0b525a4f7b030b6be29ac19aee2acc83f631688ccf2400112a14b0",
      "blockNumber": "0x9bc8c2",
      "gasUsed": "0xba80",
      "effectiveGasPrice": "0x3c95e363",
      "from": "0xe30f5d336931186dd86b5c9426fd4493c34a5c5d",
      "to": "0x7bf3823d764bd3e2681a71ff703837b508caa8b3",
      "contractAddress": null
    },
    {
      "status": "0x1",
      "cumulativeGasUsed": "0x3927f04",
      "logs": [
        {
          "address": "0x7bf3823d764bd3e2681a71ff703837b508caa8b3",
          "topics": [
            "0x288e01eadd84f87ff852e67e784d6fe5181f8d088c2f1690e5c263289cad8a45",
            "0x0000000000000000000000000000000000000000000000000000000000000002"
          ],
          "data": "0x0000000000000000000000000000000000000000000000000000000008f0d180",
          "blockHash": "0x5689d29f4e741076eeae852f484d079d412edc02e088bb671248b5deb14a92a6",
          "blockNumber": "0x9bc8c3",
          "blockTimestamp": "0x6986ffac",
          "transactionHash": "0xd259b136fe82bdee6bdfdb0e67122bac7c8046f70527da241d6b7e80a239d30d",
          "transactionIndex": "0x65",
          "logIndex": "0x86",
          "removed": false
        }
      ],
      "logsBloom": "0x04000000000000000000000000000000000000000000000000000000000000000000000000000000000000000000000000000000000000000000000000000000000000000000000000000000000000000000000000000000000000000000000000000000000000000000000000000000000000000000000000000000004000000000000000000000000000000040000000000000000000000000000000000000000000000000000000000100000000000000000000000000000000008002000000000040000000000000000000000000000000000000000000000000000000000000000000000020000000000000000000000000008000000000000000000000",
      "type": "0x2",
      "transactionHash": "0xd259b136fe82bdee6bdfdb0e67122bac7c8046f70527da241d6b7e80a239d30d",
      "transactionIndex": "0x65",
      "blockHash": "0x5689d29f4e741076eeae852f484d079d412edc02e088bb671248b5deb14a92a6",
      "blockNumber": "0x9bc8c3",
      "gasUsed": "0xba8c",
      "effectiveGasPrice": "0x3887aead",
      "from": "0xe30f5d336931186dd86b5c9426fd4493c34a5c5d",
      "to": "0x7bf3823d764bd3e2681a71ff703837b508caa8b3",
      "contractAddress": null
    },
    {
      "status": "0x1",
      "cumulativeGasUsed": "0xcc8955",
      "logs": [
        {
          "address": "0x7bf3823d764bd3e2681a71ff703837b508caa8b3",
          "topics": [
            "0x288e01eadd84f87ff852e67e784d6fe5181f8d088c2f1690e5c263289cad8a45",
            "0x0000000000000000000000000000000000000000000000000000000000000003"
          ],
          "data": "0x0000000000000000000000000000000000000000000000000000000004c4b400",
          "blockHash": "0x8d7581ee4eec422db565c1dec0c1188fb8314016a2772b433f773aa916c7b35b",
          "blockNumber": "0x9bc8c4",
          "blockTimestamp": "0x6986ffb8",
          "transactionHash": "0x0a91277ed3526026b25fc71c3debd8ef084a2a22b97e7a87c31104f74edcf06b",
          "transactionIndex": "0x76",
          "logIndex": "0xb5",
          "removed": false
        }
      ],
      "logsBloom": "0x00000000000000000000000000000000000000000000000000000000000000000000000000000000000000000000000000000000020000000000000000000000000000000000000000000000000000000000000000000000000000000000000000000000000000000000000000000000000000000000000000000000004000000000000000000000000000000040000000000000000000000000000000000000000000000000000000000000000000000000000000800000000000008002400000000040000000000000000000000000000000000000000000000000000000000000000000000020000000000000000000000000000000000000000000000000",
      "type": "0x2",
      "transactionHash": "0x0a91277ed3526026b25fc71c3debd8ef084a2a22b97e7a87c31104f74edcf06b",
      "transactionIndex": "0x76",
      "blockHash": "0x8d7581ee4eec422db565c1dec0c1188fb8314016a2772b433f773aa916c7b35b",
      "blockNumber": "0x9bc8c4",
      "gasUsed": "0xba80",
      "effectiveGasPrice": "0x3f95d2ab",
      "from": "0xe30f5d336931186dd86b5c9426fd4493c34a5c5d",
      "to": "0x7bf3823d764bd3e2681a71ff703837b508caa8b3",
      "contractAddress": null
    },
    {
      "status": "0x1",
      "cumulativeGasUsed": "0x38134d9",
      "logs": [
        {
          "address": "0x7bf3823d764bd3e2681a71ff703837b508caa8b3",
          "topics": [
            "0x288e01eadd84f87ff852e67e784d6fe5181f8d088c2f1690e5c263289cad8a45",
            "0x0000000000000000000000000000000000000000000000000000000000000004"
          ],
          "data": "0x000000000000000000000000000000000000000000000000000000000ee6b280",
          "blockHash": "0xff5bd8d597a8aa1cea03ddccb29a07d94a348cd4691d2dbb7d1f9672302b46d3",
          "blockNumber": "0x9bc8c5",
          "blockTimestamp": "0x6986ffc4",
          "transactionHash": "0x2377b8075eaed3de73d1a0d350d79d05122a19c6377b75809f48f55346fcd2dc",
          "transactionIndex": "0x65",
          "logIndex": "0x94",
          "removed": false
        }
      ],
      "logsBloom": "0x00000000000000000000000000000000000000000000000000000000000000000000000000000000000000000000000000000000000000000000000000000000000000000000000000000000000000000000000000000000000000000000000008000000000000000000000000000000000000000000000000000000004000000000000000000000000000000040000000000000000000000000000000000000000000000000000000000000000000000000000000000000002000008002000000000040000000000000000000000000000000008000000000000000000000000000000000000020000000000000000000000000000000000000000000000000",
      "type": "0x2",
      "transactionHash": "0x2377b8075eaed3de73d1a0d350d79d05122a19c6377b75809f48f55346fcd2dc",
      "transactionIndex": "0x65",
      "blockHash": "0xff5bd8d597a8aa1cea03ddccb29a07d94a348cd4691d2dbb7d1f9672302b46d3",
      "blockNumber": "0x9bc8c5",
      "gasUsed": "0xba8c",
      "effectiveGasPrice": "0x3b3864b4",
      "from": "0xe30f5d336931186dd86b5c9426fd4493c34a5c5d",
      "to": "0x7bf3823d764bd3e2681a71ff703837b508caa8b3",
      "contractAddress": null
    },
    {
      "status": "0x1",
      "cumulativeGasUsed": "0xaedb2e",
      "logs": [
        {
          "address": "0x5ae69a270f061d8435100938b2cef210d1f8348f",
          "topics": [
            "0xddf252ad1be2c89b69c2b068fc378daa952ba7f163c4a11628f55a4df523b3ef",
            "0x0000000000000000000000000000000000000000000000000000000000000000",
            "0x0000000000000000000000006fc2fbb2973e592eb6f932a10b3e72eeaa3113c0"
          ],
          "data": "0x0000000000000000000000000000000000000000000000000000000ba43b7400",
          "blockHash": "0xd7ee0b88d04b1849063cff58e57bfd47003100fd0f1e5180a515be38c6c2d1dd",
          "blockNumber": "0x9bc8c6",
          "blockTimestamp": "0x6986ffd0",
          "transactionHash": "0x902207959b98f5234679228d416162f675f16830d0c4f0a4c2cd114118f69c13",
          "transactionIndex": "0x42",
          "logIndex": "0xc5",
          "removed": false
        },
        {
          "address": "0x5ae69a270f061d8435100938b2cef210d1f8348f",
          "topics": [
            "0x3f2c9d57c068687834f0de942a9babb9e5acab57d516d3480a3c16ee165a4273",
            "0x0000000000000000000000006fc2fbb2973e592eb6f932a10b3e72eeaa3113c0"
          ],
          "data": "0x0000000000000000000000000000000000000000000000000000000ba43b7400",
          "blockHash": "0xd7ee0b88d04b1849063cff58e57bfd47003100fd0f1e5180a515be38c6c2d1dd",
          "blockNumber": "0x9bc8c6",
          "blockTimestamp": "0x6986ffd0",
          "transactionHash": "0x902207959b98f5234679228d416162f675f16830d0c4f0a4c2cd114118f69c13",
          "transactionIndex": "0x42",
          "logIndex": "0xc6",
          "removed": false
        }
      ],
      "logsBloom": "0x00000000000000000080000000000000000000000000000000000000000000000000000000000000000000000000000000400000000000000000000000000000000000000000000000000008000000000000000000000000000000000000000000000000020000000000000000000800000000000000000000000010000000000000000000000000000000000010000100800000000000000000010000000000000000000000000000000000000000000000000000000000000000000000000000000002000000000000000000000000000000000000004000000800000020000000000000000000000000000000000000000000000002000000000000000000",
      "type": "0x2",
      "transactionHash": "0x902207959b98f5234679228d416162f675f16830d0c4f0a4c2cd114118f69c13",
      "transactionIndex": "0x42",
      "blockHash": "0xd7ee0b88d04b1849063cff58e57bfd47003100fd0f1e5180a515be38c6c2d1dd",
      "blockNumber": "0x9bc8c6",
      "gasUsed": "0x11a5a",
      "effectiveGasPrice": "0x429bdabf",
      "from": "0xe30f5d336931186dd86b5c9426fd4493c34a5c5d",
      "to": "0x5ae69a270f061d8435100938b2cef210d1f8348f",
      "contractAddress": null
    },
    {
      "status": "0x1",
      "cumulativeGasUsed": "0xa42bb8",
      "logs": [
        {
          "address": "0x5ae69a270f061d8435100938b2cef210d1f8348f",
          "topics": [
            "0xddf252ad1be2c89b69c2b068fc378daa952ba7f163c4a11628f55a4df523b3ef",
            "0x0000000000000000000000000000000000000000000000000000000000000000",
            "0x000000000000000000000000de4a466b7441357e1137a1a1e311bd70c1439ecb"
          ],
          "data": "0x00000000000000000000000000000000000000000000000000000006fc23ac00",
          "blockHash": "0xf78ac9d45b940cf6d3d0dd6b041f85707d6084714c283121c74d7e6bc2c79c3f",
          "blockNumber": "0x9bc8c7",
          "blockTimestamp": "0x6986ffdc",
          "transactionHash": "0x0031b7065a1756cbf1f459d2cd5a037a9b3ef11c81cb046b1f4dfd1fe4269d9e",
          "transactionIndex": "0x51",
          "logIndex": "0x77",
          "removed": false
        },
        {
          "address": "0x5ae69a270f061d8435100938b2cef210d1f8348f",
          "topics": [
            "0x3f2c9d57c068687834f0de942a9babb9e5acab57d516d3480a3c16ee165a4273",
            "0x000000000000000000000000de4a466b7441357e1137a1a1e311bd70c1439ecb"
          ],
          "data": "0x00000000000000000000000000000000000000000000000000000006fc23ac00",
          "blockHash": "0xf78ac9d45b940cf6d3d0dd6b041f85707d6084714c283121c74d7e6bc2c79c3f",
          "blockNumber": "0x9bc8c7",
          "blockTimestamp": "0x6986ffdc",
          "transactionHash": "0x0031b7065a1756cbf1f459d2cd5a037a9b3ef11c81cb046b1f4dfd1fe4269d9e",
          "transactionIndex": "0x51",
          "logIndex": "0x78",
          "removed": false
        }
      ],
      "logsBloom": "0x00000000000000000000000000000000000000000000000000000000000000000000000000000000000000000000000000400000000100000000000000000000000000000000000000000008000000000000000000000000000000000000000000000000020000000000000000000800000000000000000000000010000000000000000000000000000000000010000100000000000000000000000000000000000000000000000000040000000000000000000000000000000400000000000000000002000000000000000000000000000000000000004000000800000020000000000000000000000000000000000000000000000002000000000000000000",
      "type": "0x2",
      "transactionHash": "0x0031b7065a1756cbf1f459d2cd5a037a9b3ef11c81cb046b1f4dfd1fe4269d9e",
      "transactionIndex": "0x51",
      "blockHash": "0xf78ac9d45b940cf6d3d0dd6b041f85707d6084714c283121c74d7e6bc2c79c3f",
      "blockNumber": "0x9bc8c7",
      "gasUsed": "0xd78e",
      "effectiveGasPrice": "0x3e8ad0db",
      "from": "0xe30f5d336931186dd86b5c9426fd4493c34a5c5d",
      "to": "0x5ae69a270f061d8435100938b2cef210d1f8348f",
      "contractAddress": null
    },
    {
      "status": "0x1",
      "cumulativeGasUsed": "0x392e741",
      "logs": [
        {
          "address": "0x5ae69a270f061d8435100938b2cef210d1f8348f",
          "topics": [
            "0xddf252ad1be2c89b69c2b068fc378daa952ba7f163c4a11628f55a4df523b3ef",
            "0x0000000000000000000000000000000000000000000000000000000000000000",
            "0x000000000000000000000000ac75578bbdd3c830b32f2de2b8e2a4fa36996082"
          ],
          "data": "0x00000000000000000000000000000000000000000000000000000009502f9000",
          "blockHash": "0x120dad1be250dbcc78a824b92a02150685b47b88060859dd6e58faba5b951646",
          "blockNumber": "0x9bc8c8",
          "blockTimestamp": "0x6986ffe8",
          "transactionHash": "0x4b27bac97bedd90bcde3dc302e34636206254e870db37050d9aadcdf20f6dd88",
          "transactionIndex": "0x66",
          "logIndex": "0x95",
          "removed": false
        },
        {
          "address": "0x5ae69a270f061d8435100938b2cef210d1f8348f",
          "topics": [
            "0x3f2c9d57c068687834f0de942a9babb9e5acab57d516d3480a3c16ee165a4273",
            "0x000000000000000000000000ac75578bbdd3c830b32f2de2b8e2a4fa36996082"
          ],
          "data": "0x00000000000000000000000000000000000000000000000000000009502f9000",
          "blockHash": "0x120dad1be250dbcc78a824b92a02150685b47b88060859dd6e58faba5b951646",
          "blockNumber": "0x9bc8c8",
          "blockTimestamp": "0x6986ffe8",
          "transactionHash": "0x4b27bac97bedd90bcde3dc302e34636206254e870db37050d9aadcdf20f6dd88",
          "transactionIndex": "0x66",
          "logIndex": "0x96",
          "removed": false
        }
      ],
      "logsBloom": "0x00000000000000000000000000000000000000000000000000000000000000000000000000000000000000000000000000410000000000000000000000000000000000000000000000000008000000000000000000000000000000000000000000000000020000000000000000000800000000000000000000000010000000000000000000000000000000000010000100000000000000000000000000000000000000000000000000000000008000000000000000000000000000000000000000000002000000000000000000000000000000000001004000000800000020000000000000000000000000000000000000000000000002000000000000000000",
      "type": "0x2",
      "transactionHash": "0x4b27bac97bedd90bcde3dc302e34636206254e870db37050d9aadcdf20f6dd88",
      "transactionIndex": "0x66",
      "blockHash": "0x120dad1be250dbcc78a824b92a02150685b47b88060859dd6e58faba5b951646",
      "blockNumber": "0x9bc8c8",
      "gasUsed": "0xd78e",
      "effectiveGasPrice": "0x3a888be8",
      "from": "0xe30f5d336931186dd86b5c9426fd4493c34a5c5d",
      "to": "0x5ae69a270f061d8435100938b2cef210d1f8348f",
      "contractAddress": null
    },
    {
      "status": "0x1",
      "cumulativeGasUsed": "0x18fae10",
      "logs": [
        {
          "address": "0x5ae69a270f061d8435100938b2cef210d1f8348f",
          "topics": [
            "0x8c5be1e5ebec7d5bd14f71427d1e84f3dd0314c0f7b2291e5b200ac8c7c3b925",
            "0x0000000000000000000000006fc2fbb2973e592eb6f932a10b3e72eeaa3113c0",
            "0x0000000000000000000000007bf3823d764bd3e2681a71ff703837b508caa8b3"
          ],
          "data": "0x00000000000000000000000000000000000000000000000000000006fc23ac00",
          "blockHash": "0x32326e1b83f45a56efdbfcfd1b59b4a198dc08e6f318f305366edf159e8ad235",
          "blockNumber": "0x9bc8c9",
          "blockTimestamp": "0x6986fff4",
          "transactionHash": "0x7badb05b8b154e4e4ad2cf3de29e2434b1861894654c39f4f10ed3f86578698d",
          "transactionIndex": "0x6a",
          "logIndex": "0xda",
          "removed": false
        }
      ],
      "logsBloom": "0x00000000000000000080400000000000000000000000000000000000000000000000000000000000000000000000000000000000000000000000000000200000000000000000000000000000000000000000000000000000000040000000000000000000000000000000000000000000000000000000000000000000000000000000000000000000000000000010000000800000000000000000010000000000020000000000000000000000000400000000000000000000000000000000000000000000000000000000000000000000000000000000004000000000000000000010000000000000000000000000000000000000000002000000000000000000",
      "type": "0x2",
      "transactionHash": "0x7badb05b8b154e4e4ad2cf3de29e2434b1861894654c39f4f10ed3f86578698d",
      "transactionIndex": "0x6a",
      "blockHash": "0x32326e1b83f45a56efdbfcfd1b59b4a198dc08e6f318f305366edf159e8ad235",
      "blockNumber": "0x9bc8c9",
      "gasUsed": "0xb524",
      "effectiveGasPrice": "0x41d62541",
      "from": "0x6fc2fbb2973e592eb6f932a10b3e72eeaa3113c0",
      "to": "0x5ae69a270f061d8435100938b2cef210d1f8348f",
      "contractAddress": null
    },
    {
      "status": "0x1",
      "cumulativeGasUsed": "0xca5c24",
      "logs": [
        {
          "address": "0x5ae69a270f061d8435100938b2cef210d1f8348f",
          "topics": [
            "0xddf252ad1be2c89b69c2b068fc378daa952ba7f163c4a11628f55a4df523b3ef",
            "0x0000000000000000000000006fc2fbb2973e592eb6f932a10b3e72eeaa3113c0",
            "0x000000000000000000000000e30f5d336931186dd86b5c9426fd4493c34a5c5d"
          ],
          "data": "0x00000000000000000000000000000000000000000000000000000002540be400",
          "blockHash": "0x82388c53358c6618c0c6e3f2a8eadc27ced6891c2af849608079cdebe905b5a0",
          "blockNumber": "0x9bc8ca",
          "blockTimestamp": "0x69870000",
          "transactionHash": "0x2d9f1f7f8a859c5c566d9f609eec1b5faa9b7a03c84f04315f6b39ec5e6819d7",
          "transactionIndex": "0x56",
          "logIndex": "0x9f",
          "removed": false
        },
        {
          "address": "0xbc7ebadd93107d39a3379d9c600f428eb9765f0c",
          "topics": [
            "0xc3d58168c5ae7397731d063d5bbf3d657854427343f4c083240f7aacaa2d0f62",
            "0x0000000000000000000000007bf3823d764bd3e2681a71ff703837b508caa8b3",
            "0x0000000000000000000000007bf3823d764bd3e2681a71ff703837b508caa8b3",
            "0x0000000000000000000000006fc2fbb2973e592eb6f932a10b3e72eeaa3113c0"
          ],
          "data": "0x00000000000000000000000000000000000000000000000000000000000000000000000000000000000000000000000000000000000000000000000000000064",
          "blockHash": "0x82388c53358c6618c0c6e3f2a8eadc27ced6891c2af849608079cdebe905b5a0",
          "blockNumber": "0x9bc8ca",
          "blockTimestamp": "0x69870000",
          "transactionHash": "0x2d9f1f7f8a859c5c566d9f609eec1b5faa9b7a03c84f04315f6b39ec5e6819d7",
          "transactionIndex": "0x56",
          "logIndex": "0xa0",
          "removed": false
        },
        {
          "address": "0x7bf3823d764bd3e2681a71ff703837b508caa8b3",
          "topics": [
            "0x751dfd922ff4b6048a31e74f71bfe6c58ee9135146d587bf908e12cfa525ae0b",
            "0x0000000000000000000000006fc2fbb2973e592eb6f932a10b3e72eeaa3113c0",
            "0x0000000000000000000000000000000000000000000000000000000000000000"
          ],
          "data": "0x000000000000000000000000000000000000000000000000000000000000006400000000000000000000000000000000000000000000000000000002540be400",
          "blockHash": "0x82388c53358c6618c0c6e3f2a8eadc27ced6891c2af849608079cdebe905b5a0",
          "blockNumber": "0x9bc8ca",
          "blockTimestamp": "0x69870000",
          "transactionHash": "0x2d9f1f7f8a859c5c566d9f609eec1b5faa9b7a03c84f04315f6b39ec5e6819d7",
          "transactionIndex": "0x56",
          "logIndex": "0xa1",
          "removed": false
        }
      ],
      "logsBloom": "0x0000000000000000008040000400000000000000000000000000004000000000000000000000000000000000000000000000000000000000000000020000200000000000000000000000000c000000000000000000000000000040000000000000000000020000000000000000000800000000000000000004000010004000000000100000000000000000000010000000800000000000000000010000000000000000000000000000000000000400000000000000000000000000008002000000000002000000000000000000000100000000001008804000000000000020000000000000000000000000000000000000000000000002000000080000000000",
      "type": "0x2",
      "transactionHash": "0x2d9f1f7f8a859c5c566d9f609eec1b5faa9b7a03c84f04315f6b39ec5e6819d7",
      "transactionIndex": "0x56",
      "blockHash": "0x82388c53358c6618c0c6e3f2a8eadc27ced6891c2af849608079cdebe905b5a0",
      "blockNumber": "0x9bc8ca",
      "gasUsed": "0x198d2",
      "effectiveGasPrice": "0x432274c5",
      "from": "0x6fc2fbb2973e592eb6f932a10b3e72eeaa3113c0",
      "to": "0x7bf3823d764bd3e2681a71ff703837b508caa8b3",
      "contractAddress": null
    },
    {
      "status": "0x1",
      "cumulativeGasUsed": "0xd18c7b",
      "logs": [
        {
          "address": "0x5ae69a270f061d8435100938b2cef210d1f8348f",
          "topics": [
            "0xddf252ad1be2c89b69c2b068fc378daa952ba7f163c4a11628f55a4df523b3ef",
            "0x0000000000000000000000006fc2fbb2973e592eb6f932a10b3e72eeaa3113c0",
            "0x000000000000000000000000e30f5d336931186dd86b5c9426fd4493c34a5c5d"
          ],
          "data": "0x00000000000000000000000000000000000000000000000000000002540be400",
          "blockHash": "0xc4bf27e30a2a51f69a05f0ef7fd30d40eb0dfac7ebaf94abbe5bf8a147ee0b7c",
          "blockNumber": "0x9bc8cb",
          "blockTimestamp": "0x6987000c",
          "transactionHash": "0xf40b756a3dc60330594e7bf3f1ceda1fd1ce6ffe45ec5f4bb202347ea2c1132f",
          "transactionIndex": "0x5d",
          "logIndex": "0x90",
          "removed": false
        },
        {
          "address": "0xbc7ebadd93107d39a3379d9c600f428eb9765f0c",
          "topics": [
            "0xc3d58168c5ae7397731d063d5bbf3d657854427343f4c083240f7aacaa2d0f62",
            "0x0000000000000000000000007bf3823d764bd3e2681a71ff703837b508caa8b3",
            "0x0000000000000000000000007bf3823d764bd3e2681a71ff703837b508caa8b3",
            "0x0000000000000000000000006fc2fbb2973e592eb6f932a10b3e72eeaa3113c0"
          ],
          "data": "0x00000000000000000000000000000000000000000000000000000000000000010000000000000000000000000000000000000000000000000000000000000032",
          "blockHash": "0xc4bf27e30a2a51f69a05f0ef7fd30d40eb0dfac7ebaf94abbe5bf8a147ee0b7c",
          "blockNumber": "0x9bc8cb",
          "blockTimestamp": "0x6987000c",
          "transactionHash": "0xf40b756a3dc60330594e7bf3f1ceda1fd1ce6ffe45ec5f4bb202347ea2c1132f",
          "transactionIndex": "0x5d",
          "logIndex": "0x91",
          "removed": false
        },
        {
          "address": "0x7bf3823d764bd3e2681a71ff703837b508caa8b3",
          "topics": [
            "0x751dfd922ff4b6048a31e74f71bfe6c58ee9135146d587bf908e12cfa525ae0b",
            "0x0000000000000000000000006fc2fbb2973e592eb6f932a10b3e72eeaa3113c0",
            "0x0000000000000000000000000000000000000000000000000000000000000001"
          ],
          "data": "0x000000000000000000000000000000000000000000000000000000000000003200000000000000000000000000000000000000000000000000000002540be400",
          "blockHash": "0xc4bf27e30a2a51f69a05f0ef7fd30d40eb0dfac7ebaf94abbe5bf8a147ee0b7c",
          "blockNumber": "0x9bc8cb",
          "blockTimestamp": "0x6987000c",
          "transactionHash": "0xf40b756a3dc60330594e7bf3f1ceda1fd1ce6ffe45ec5f4bb202347ea2c1132f",
          "transactionIndex": "0x5d",
          "logIndex": "0x92",
          "removed": false
        }
      ],
      "logsBloom": "0x0000000000000000008040000400000000000000000000000000004000000000000000000000000000000000000000000000000000000000000000020004200000000000000000000000000c000000000000000000040000000040000000000000000000000000000000000000000000000000000000000004000010004000000000100000000000000000000010000000800000000000000000010000000000000000000000000000000000000400000000000000000000000000008002000000000002000000000000000000000100000000001008804000000000000040000000000000000000000000000000000000000000000002000000080000000000",
      "type": "0x2",
      "transactionHash": "0xf40b756a3dc60330594e7bf3f1ceda1fd1ce6ffe45ec5f4bb202347ea2c1132f",
      "transactionIndex": "0x5d",
      "blockHash": "0xc4bf27e30a2a51f69a05f0ef7fd30d40eb0dfac7ebaf94abbe5bf8a147ee0b7c",
      "blockNumber": "0x9bc8cb",
      "gasUsed": "0x15612",
      "effectiveGasPrice": "0x3ea06377",
      "from": "0x6fc2fbb2973e592eb6f932a10b3e72eeaa3113c0",
      "to": "0x7bf3823d764bd3e2681a71ff703837b508caa8b3",
      "contractAddress": null
    },
    {
      "status": "0x1",
      "cumulativeGasUsed": "0x392758d",
      "logs": [
        {
          "address": "0x5ae69a270f061d8435100938b2cef210d1f8348f",
          "topics": [
            "0x8c5be1e5ebec7d5bd14f71427d1e84f3dd0314c0f7b2291e5b200ac8c7c3b925",
            "0x000000000000000000000000de4a466b7441357e1137a1a1e311bd70c1439ecb",
            "0x0000000000000000000000007bf3823d764bd3e2681a71ff703837b508caa8b3"
          ],
          "data": "0x00000000000000000000000000000000000000000000000000000005d21dba00",
          "blockHash": "0x8fe3572198d88408c9b1d781b6e71ae8d0f8742896c0e9f71ac5d78926b0690e",
          "blockNumber": "0x9bc8cc",
          "blockTimestamp": "0x69870018",
          "transactionHash": "0xbfcbefb8c3a8f8d5efe1a67c2b39e2bc4b808a0f4f913448e9503b7bff9816b9",
          "transactionIndex": "0x62",
          "logIndex": "0xf3",
          "removed": false
        }
      ],
      "logsBloom": "0x00000000000000000000400000000000000000000000000000000000000000000000000000000000000000000000000000000000000100000000000000200000000000000000000000000000000000000000000000000000000040000000000000000000000000000000000000000000000000000000000000000000000000000000000000000000000000000010000000000000000000000000000000000000020000000000000000040000000400000000000000000000000400000000000000000000000000000000000000000000000000000000004000000000000000000010000000000000000000000000000000000000000002000000000000000000",
      "type": "0x2",
      "transactionHash": "0xbfcbefb8c3a8f8d5efe1a67c2b39e2bc4b808a0f4f913448e9503b7bff9816b9",
      "transactionIndex": "0x62",
      "blockHash": "0x8fe3572198d88408c9b1d781b6e71ae8d0f8742896c0e9f71ac5d78926b0690e",
      "blockNumber": "0x9bc8cc",
      "gasUsed": "0xb524",
      "effectiveGasPrice": "0x3a7cac6f",
      "from": "0xde4a466b7441357e1137a1a1e311bd70c1439ecb",
      "to": "0x5ae69a270f061d8435100938b2cef210d1f8348f",
      "contractAddress": null
    },
    {
      "status": "0x1",
      "cumulativeGasUsed": "0x17d5fca",
      "logs": [
        {
          "address": "0x5ae69a270f061d8435100938b2cef210d1f8348f",
          "topics": [
            "0xddf252ad1be2c89b69c2b068fc378daa952ba7f163c4a11628f55a4df523b3ef",
            "0x000000000000000000000000de4a466b7441357e1137a1a1e311bd70c1439ecb",
            "0x000000000000000000000000e30f5d336931186dd86b5c9426fd4493c34a5c5d"
          ],
          "data": "0x00000000000000000000000000000000000000000000000000000001dcd65000",
          "blockHash": "0x930615633230e4c764b606e327b99b3bd01b7a606a7cabed0195b2a3d5897889",
          "blockNumber": "0x9bc8cd",
          "blockTimestamp": "0x69870024",
          "transactionHash": "0x027ef8217c8f02fe7a327b7629e0d229702bfbf0b0e6342e3e0260fde0a21ebb",
          "transactionIndex": "0x6d",
          "logIndex": "0xed",
          "removed": false
        },
        {
          "address": "0xbc7ebadd93107d39a3379d9c600f428eb9765f0c",
          "topics": [
            "0xc3d58168c5ae7397731d063d5bbf3d657854427343f4c083240f7aacaa2d0f62",
            "0x0000000000000000000000007bf3823d764bd3e2681a71ff703837b508caa8b3",
            "0x0000000000000000000000007bf3823d764bd3e2681a71ff703837b508caa8b3",
            "0x000000000000000000000000de4a466b7441357e1137a1a1e311bd70c1439ecb"
          ],
          "data": "0x00000000000000000000000000000000000000000000000000000000000000030000000000000000000000000000000000000000000000000000000000000064",
          "blockHash": "0x930615633230e4c764b606e327b99b3bd01b7a606a7cabed0195b2a3d5897889",
          "blockNumber": "0x9bc8cd",
          "blockTimestamp": "0x69870024",
          "transactionHash": "0x027ef8217c8f02fe7a327b7629e0d229702bfbf0b0e6342e3e0260fde0a21ebb",
          "transactionIndex": "0x6d",
          "logIndex": "0xee",
          "removed": false
        },
        {
          "address": "0x7bf3823d764bd3e2681a71ff703837b508caa8b3",
          "topics": [
            "0x751dfd922ff4b6048a31e74f71bfe6c58ee9135146d587bf908e12cfa525ae0b",
            "0x000000000000000000000000de4a466b7441357e1137a1a1e311bd70c1439ecb",
            "0x0000000000000000000000000000000000000000000000000000000000000003"
          ],
          "data": "0x000000000000000000000000000000000000000000000000000000000000006400000000000000000000000000000000000000000000000000000001dcd65000",
          "blockHash": "0x930615633230e4c764b606e327b99b3bd01b7a606a7cabed0195b2a3d5897889",
          "blockNumber": "0x9bc8cd",
          "blockTimestamp": "0x69870024",
          "transactionHash": "0x027ef8217c8f02fe7a327b7629e0d229702bfbf0b0e6342e3e0260fde0a21ebb",
          "transactionIndex": "0x6d",
          "logIndex": "0xef",
          "removed": false
        }
      ],
      "logsBloom": "0x0000000000000000000040000400000000000000000000000000004000000000000000000000000000000000000000000000000002010000000000020000200000000000000000000000000c000000000000000000000000000040000000000000000000000000000000000000000000000000000000000004000010004000000000100000000000000000000010000000000000000000000000000000000000000000000000000000040000000400000000000000800000000400008002400000000002000000000000000000000100000000001008804000000000000000000000000000000000000000000000000000000000000002000000080000000000",
      "type": "0x2",
      "transactionHash": "0x027ef8217c8f02fe7a327b7629e0d229702bfbf0b0e6342e3e0260fde0a21ebb",
      "transactionIndex": "0x6d",
      "blockHash": "0x930615633230e4c764b606e327b99b3bd01b7a606a7cabed0195b2a3d5897889",
      "blockNumber": "0x9bc8cd",
      "gasUsed": "0x15612",
      "effectiveGasPrice": "0x41c915d7",
      "from": "0xde4a466b7441357e1137a1a1e311bd70c1439ecb",
      "to": "0x7bf3823d764bd3e2681a71ff703837b508caa8b3",
      "contractAddress": null
    },
    {
      "status": "0x1",
      "cumulativeGasUsed": "0x744b3b",
      "logs": [
        {
          "address": "0x5ae69a270f061d8435100938b2cef210d1f8348f",
          "topics": [
            "0xddf252ad1be2c89b69c2b068fc378daa952ba7f163c4a11628f55a4df523b3ef",
            "0x000000000000000000000000de4a466b7441357e1137a1a1e311bd70c1439ecb",
            "0x000000000000000000000000e30f5d336931186dd86b5c9426fd4493c34a5c5d"
          ],
          "data": "0x00000000000000000000000000000000000000000000000000000002cb417800",
          "blockHash": "0x98d2fa9e94ad2222dcb000b75903de2d72658b21916cfdf1b89787c271b06bf4",
          "blockNumber": "0x9bc8ce",
          "blockTimestamp": "0x69870030",
          "transactionHash": "0x2b0bc4f0b1a002047c6839dbf5477ac3515b041ff78ef710eb52c11ca130b387",
          "transactionIndex": "0x56",
          "logIndex": "0x79",
          "removed": false
        },
        {
          "address": "0xbc7ebadd93107d39a3379d9c600f428eb9765f0c",
          "topics": [
            "0xc3d58168c5ae7397731d063d5bbf3d657854427343f4c083240f7aacaa2d0f62",
            "0x0000000000000000000000007bf3823d764bd3e2681a71ff703837b508caa8b3",
            "0x0000000000000000000000007bf3823d764bd3e2681a71ff703837b508caa8b3",
            "0x000000000000000000000000de4a466b7441357e1137a1a1e311bd70c1439ecb"
          ],
          "data": "0x00000000000000000000000000000000000000000000000000000000000000020000000000000000000000000000000000000000000000000000000000000050",
          "blockHash": "0x98d2fa9e94ad2222dcb000b75903de2d72658b21916cfdf1b89787c271b06bf4",
          "blockNumber": "0x9bc8ce",
          "blockTimestamp": "0x69870030",
          "transactionHash": "0x2b0bc4f0b1a002047c6839dbf5477ac3515b041ff78ef710eb52c11ca130b387",
          "transactionIndex": "0x56",
          "logIndex": "0x7a",
          "removed": false
        },
        {
          "address": "0x7bf3823d764bd3e2681a71ff703837b508caa8b3",
          "topics": [
            "0x751dfd922ff4b6048a31e74f71bfe6c58ee9135146d587bf908e12cfa525ae0b",
            "0x000000000000000000000000de4a466b7441357e1137a1a1e311bd70c1439ecb",
            "0x0000000000000000000000000000000000000000000000000000000000000002"
          ],
          "data": "0x000000000000000000000000000000000000000000000000000000000000005000000000000000000000000000000000000000000000000000000002cb417800",
          "blockHash": "0x98d2fa9e94ad2222dcb000b75903de2d72658b21916cfdf1b89787c271b06bf4",
          "blockNumber": "0x9bc8ce",
          "blockTimestamp": "0x69870030",
          "transactionHash": "0x2b0bc4f0b1a002047c6839dbf5477ac3515b041ff78ef710eb52c11ca130b387",
          "transactionIndex": "0x56",
          "logIndex": "0x7b",
          "removed": false
        }
      ],
      "logsBloom": "0x0400000000000000000040000400000000000000000000000000004000000000000000000000000000000000000000000000000000010000000000020000200000000000000000000000000c000000000000000000000000000040000000000000000000000000000000000000000000000000000000000004000010004000000000100000000000000000000010000000000000000000000000000000000000000000000000000000040100000400000000000000000000000400008002000000000002000000000000000000000100000000001008804000000000000000000000000000000000000000000000000000000000008002000000080000000000",
      "type": "0x2",
      "transactionHash": "0x2b0bc4f0b1a002047c6839dbf5477ac3515b041ff78ef710eb52c11ca130b387",
      "transactionIndex": "0x56",
      "blockHash": "0x98d2fa9e94ad2222dcb000b75903de2d72658b21916cfdf1b89787c271b06bf4",
      "blockNumber": "0x9bc8ce",
      "gasUsed": "0x15612",
      "effectiveGasPrice": "0x4123e2e2",
      "from": "0xde4a466b7441357e1137a1a1e311bd70c1439ecb",
      "to": "0x7bf3823d764bd3e2681a71ff703837b508caa8b3",
      "contractAddress": null
    },
    {
      "status": "0x1",
      "cumulativeGasUsed": "0x8c7a2a",
      "logs": [
        {
          "address": "0x5ae69a270f061d8435100938b2cef210d1f8348f",
          "topics": [
            "0x8c5be1e5ebec7d5bd14f71427d1e84f3dd0314c0f7b2291e5b200ac8c7c3b925",
            "0x000000000000000000000000ac75578bbdd3c830b32f2de2b8e2a4fa36996082",
            "0x0000000000000000000000007bf3823d764bd3e2681a71ff703837b508caa8b3"
          ],
          "data": "0x0000000000000000000000000000000000000000000000000000000826299e00",
          "blockHash": "0x4231497eaf9d608a71dd1b92e1a201d6f5ed02b767dbece73273ec6e86e154ed",
          "blockNumber": "0x9bc8cf",
          "blockTimestamp": "0x6987003c",
          "transactionHash": "0xf6a52fb5cf9dc3995a0da32ac74ae87f3e8bf19c6cd6cdff6f161ba72544d528",
          "transactionIndex": "0x55",
          "logIndex": "0xa2",
          "removed": false
        }
      ],
      "logsBloom": "0x00000000000000000000400000000000000000000000000000000000000000000000000000000000000000000000000000010000000000000000000000200000000000000000000000000000000000000000000000000000000040000000000000000000000000000000000000000000000000000000000000000000000000000000000000000000000000000010000000000000000000000000000000000000020000000000000000000000008400000000000000000000000000000000000000000000000000000000000000000000000000000001004000000000000000000010000000000000000000000000000000000000000002000000000000000000",
      "type": "0x2",
      "transactionHash": "0xf6a52fb5cf9dc3995a0da32ac74ae87f3e8bf19c6cd6cdff6f161ba72544d528",
      "transactionIndex": "0x55",
      "blockHash": "0x4231497eaf9d608a71dd1b92e1a201d6f5ed02b767dbece73273ec6e86e154ed",
      "blockNumber": "0x9bc8cf",
      "gasUsed": "0xb524",
      "effectiveGasPrice": "0x3b9b08fa",
      "from": "0xac75578bbdd3c830b32f2de2b8e2a4fa36996082",
      "to": "0x5ae69a270f061d8435100938b2cef210d1f8348f",
      "contractAddress": null
    },
    {
      "status": "0x1",
      "cumulativeGasUsed": "0xcffd60",
      "logs": [
        {
          "address": "0x5ae69a270f061d8435100938b2cef210d1f8348f",
          "topics": [
            "0xddf252ad1be2c89b69c2b068fc378daa952ba7f163c4a11628f55a4df523b3ef",
            "0x000000000000000000000000ac75578bbdd3c830b32f2de2b8e2a4fa36996082",
            "0x000000000000000000000000e30f5d336931186dd86b5c9426fd4493c34a5c5d"
          ],
          "data": "0x000000000000000000000000000000000000000000000000000000037e11d600",
          "blockHash": "0xe03eb78f765478168c7aa67b1cf84b81ad5ccd4ef05495bf9ed797f0c5925ebc",
          "blockNumber": "0x9bc8d0",
          "blockTimestamp": "0x69870048",
          "transactionHash": "0x3ea0700ad3bbf657b0edda8ae6398757202255829dd81eb1d61046a31fcf99fc",
          "transactionIndex": "0x6b",
          "logIndex": "0xce",
          "removed": false
        },
        {
          "address": "0xbc7ebadd93107d39a3379d9c600f428eb9765f0c",
          "topics": [
            "0xc3d58168c5ae7397731d063d5bbf3d657854427343f4c083240f7aacaa2d0f62",
            "0x0000000000000000000000007bf3823d764bd3e2681a71ff703837b508caa8b3",
            "0x0000000000000000000000007bf3823d764bd3e2681a71ff703837b508caa8b3",
            "0x000000000000000000000000ac75578bbdd3c830b32f2de2b8e2a4fa36996082"
          ],
          "data": "0x0000000000000000000000000000000000000000000000000000000000000004000000000000000000000000000000000000000000000000000000000000003c",
          "blockHash": "0xe03eb78f765478168c7aa67b1cf84b81ad5ccd4ef05495bf9ed797f0c5925ebc",
          "blockNumber": "0x9bc8d0",
          "blockTimestamp": "0x69870048",
          "transactionHash": "0x3ea0700ad3bbf657b0edda8ae6398757202255829dd81eb1d61046a31fcf99fc",
          "transactionIndex": "0x6b",
          "logIndex": "0xcf",
          "removed": false
        },
        {
          "address": "0x7bf3823d764bd3e2681a71ff703837b508caa8b3",
          "topics": [
            "0x751dfd922ff4b6048a31e74f71bfe6c58ee9135146d587bf908e12cfa525ae0b",
            "0x000000000000000000000000ac75578bbdd3c830b32f2de2b8e2a4fa36996082",
            "0x0000000000000000000000000000000000000000000000000000000000000004"
          ],
          "data": "0x000000000000000000000000000000000000000000000000000000000000003c000000000000000000000000000000000000000000000000000000037e11d600",
          "blockHash": "0xe03eb78f765478168c7aa67b1cf84b81ad5ccd4ef05495bf9ed797f0c5925ebc",
          "blockNumber": "0x9bc8d0",
          "blockTimestamp": "0x69870048",
          "transactionHash": "0x3ea0700ad3bbf657b0edda8ae6398757202255829dd81eb1d61046a31fcf99fc",
          "transactionIndex": "0x6b",
          "logIndex": "0xd0",
          "removed": false
        }
      ],
      "logsBloom": "0x0000000000000000000040000400000000000000000000000000004000000000000000000000000000000000000000000001000000000000000000020000200000000000000000000000000c000000000000000000000000000040000000000008000000000000000000000000000000000000000000000004000010004000000000100000000000000000000010000000000000000000000000000000000000000000000000000000000000008400000000000000000000002000008002000000000002000000000000000000000100000000009009804000000000000000000000000000000000000000000000000000000000000002000000080000000000",
      "type": "0x2",
      "transactionHash": "0x3ea0700ad3bbf657b0edda8ae6398757202255829dd81eb1d61046a31fcf99fc",
      "transactionIndex": "0x6b",
      "blockHash": "0xe03eb78f765478168c7aa67b1cf84b81ad5ccd4ef05495bf9ed797f0c5925ebc",
      "blockNumber": "0x9bc8d0",
      "gasUsed": "0x15612",
      "effectiveGasPrice": "0x4280cc9d",
      "from": "0xac75578bbdd3c830b32f2de2b8e2a4fa36996082",
      "to": "0x7bf3823d764bd3e2681a71ff703837b508caa8b3",
      "contractAddress": null
    },
    {
      "status": "0x1",
      "cumulativeGasUsed": "0xba1737",
      "logs": [
        {
          "address": "0x5ae69a270f061d8435100938b2cef210d1f8348f",
          "topics": [
            "0xddf252ad1be2c89b69c2b068fc378daa952ba7f163c4a11628f55a4df523b3ef",
            "0x000000000000000000000000ac75578bbdd3c830b32f2de2b8e2a4fa36996082",
            "0x000000000000000000000000e30f5d336931186dd86b5c9426fd4493c34a5c5d"
          ],
          "data": "0x0000000000000000000000000000000000000000000000000000000165a0bc00",
          "blockHash": "0x119feeec5c461e4cade9febca4608f192bf521e8d09c80e6937f89e36fd7b160",
          "blockNumber": "0x9bc8d1",
          "blockTimestamp": "0x69870060",
          "transactionHash": "0xb35c3a73a2e3c74453f9cac71bb5072601b65b49d49a2f43e556e5711553b424",
          "transactionIndex": "0x73",
          "logIndex": "0xae",
          "removed": false
        },
        {
          "address": "0xbc7ebadd93107d39a3379d9c600f428eb9765f0c",
          "topics": [
            "0xc3d58168c5ae7397731d063d5bbf3d657854427343f4c083240f7aacaa2d0f62",
            "0x0000000000000000000000007bf3823d764bd3e2681a71ff703837b508caa8b3",
            "0x0000000000000000000000007bf3823d764bd3e2681a71ff703837b508caa8b3",
            "0x000000000000000000000000ac75578bbdd3c830b32f2de2b8e2a4fa36996082"
          ],
          "data": "0x0000000000000000000000000000000000000000000000000000000000000001000000000000000000000000000000000000000000000000000000000000001e",
          "blockHash": "0x119feeec5c461e4cade9febca4608f192bf521e8d09c80e6937f89e36fd7b160",
          "blockNumber": "0x9bc8d1",
          "blockTimestamp": "0x69870060",
          "transactionHash": "0xb35c3a73a2e3c74453f9cac71bb5072601b65b49d49a2f43e556e5711553b424",
          "transactionIndex": "0x73",
          "logIndex": "0xaf",
          "removed": false
        },
        {
          "address": "0x7bf3823d764bd3e2681a71ff703837b508caa8b3",
          "topics": [
            "0x751dfd922ff4b6048a31e74f71bfe6c58ee9135146d587bf908e12cfa525ae0b",
            "0x000000000000000000000000ac75578bbdd3c830b32f2de2b8e2a4fa36996082",
            "0x0000000000000000000000000000000000000000000000000000000000000001"
          ],
          "data": "0x000000000000000000000000000000000000000000000000000000000000001e0000000000000000000000000000000000000000000000000000000165a0bc00",
          "blockHash": "0x119feeec5c461e4cade9febca4608f192bf521e8d09c80e6937f89e36fd7b160",
          "blockNumber": "0x9bc8d1",
          "blockTimestamp": "0x69870060",
          "transactionHash": "0xb35c3a73a2e3c74453f9cac71bb5072601b65b49d49a2f43e556e5711553b424",
          "transactionIndex": "0x73",
          "logIndex": "0xb0",
          "removed": false
        }
      ],
      "logsBloom": "0x0000000000000000000040000400000000000000000000000000004000000000000000000000000000000000000000000001000000000000000000020004200000000000000000000000000c000000000000000000040000000040000000000000000000000000000000000000000000000000000000000004000010004000000000100000000000000000000010000000000000000000000000000000000000000000000000000000000000008400000000000000000000000000008002000000000002000000000000000000000100000000001009804000000000000040000000000000000000000000000000000000000000000002000000080000000000",
      "type": "0x2",
      "transactionHash": "0xb35c3a73a2e3c74453f9cac71bb5072601b65b49d49a2f43e556e5711553b424",
      "transactionIndex": "0x73",
      "blockHash": "0x119feeec5c461e4cade9febca4608f192bf521e8d09c80e6937f89e36fd7b160",
      "blockNumber": "0x9bc8d1",
      "gasUsed": "0x15612",
      "effectiveGasPrice": "0x3f5b756c",
      "from": "0xac75578bbdd3c830b32f2de2b8e2a4fa36996082",
      "to": "0x7bf3823d764bd3e2681a71ff703837b508caa8b3",
      "contractAddress": null
    },
    {
      "status": "0x1",
      "cumulativeGasUsed": "0x8f20f7",
      "logs": [
        {
          "address": "0x5ae69a270f061d8435100938b2cef210d1f8348f",
          "topics": [
            "0xddf252ad1be2c89b69c2b068fc378daa952ba7f163c4a11628f55a4df523b3ef",
            "0x000000000000000000000000ac75578bbdd3c830b32f2de2b8e2a4fa36996082",
            "0x000000000000000000000000e30f5d336931186dd86b5c9426fd4493c34a5c5d"
          ],
          "data": "0x000000000000000000000000000000000000000000000000000000012a05f200",
          "blockHash": "0xc7a1ef93c98523a0d21e22d7aa21e1f32c33e090e3f4cd3dfa1c3214764e8938",
          "blockNumber": "0x9bc8d2",
          "blockTimestamp": "0x6987006c",
          "transactionHash": "0xb31ef3ee1de688c4b05175f09ec73d4c8dd9f29170d1e74765b9f71b930d4834",
          "transactionIndex": "0x4f",
          "logIndex": "0x98",
          "removed": false
        },
        {
          "address": "0xbc7ebadd93107d39a3379d9c600f428eb9765f0c",
          "topics": [
            "0xc3d58168c5ae7397731d063d5bbf3d657854427343f4c083240f7aacaa2d0f62",
            "0x0000000000000000000000007bf3823d764bd3e2681a71ff703837b508caa8b3",
            "0x0000000000000000000000007bf3823d764bd3e2681a71ff703837b508caa8b3",
            "0x000000000000000000000000ac75578bbdd3c830b32f2de2b8e2a4fa36996082"
          ],
          "data": "0x00000000000000000000000000000000000000000000000000000000000000000000000000000000000000000000000000000000000000000000000000000032",
          "blockHash": "0xc7a1ef93c98523a0d21e22d7aa21e1f32c33e090e3f4cd3dfa1c3214764e8938",
          "blockNumber": "0x9bc8d2",
          "blockTimestamp": "0x6987006c",
          "transactionHash": "0xb31ef3ee1de688c4b05175f09ec73d4c8dd9f29170d1e74765b9f71b930d4834",
          "transactionIndex": "0x4f",
          "logIndex": "0x99",
          "removed": false
        },
        {
          "address": "0x7bf3823d764bd3e2681a71ff703837b508caa8b3",
          "topics": [
            "0x751dfd922ff4b6048a31e74f71bfe6c58ee9135146d587bf908e12cfa525ae0b",
            "0x000000000000000000000000ac75578bbdd3c830b32f2de2b8e2a4fa36996082",
            "0x0000000000000000000000000000000000000000000000000000000000000000"
          ],
          "data": "0x0000000000000000000000000000000000000000000000000000000000000032000000000000000000000000000000000000000000000000000000012a05f200",
          "blockHash": "0xc7a1ef93c98523a0d21e22d7aa21e1f32c33e090e3f4cd3dfa1c3214764e8938",
          "blockNumber": "0x9bc8d2",
          "blockTimestamp": "0x6987006c",
          "transactionHash": "0xb31ef3ee1de688c4b05175f09ec73d4c8dd9f29170d1e74765b9f71b930d4834",
          "transactionIndex": "0x4f",
          "logIndex": "0x9a",
          "removed": false
        }
      ],
      "logsBloom": "0x0000000000000000000040000400000000000000000000000000004000000000000000000000000000000000000000000001000000000000000000020000200000000000000000000000000c000000000000000000000000000040000000000000000000020000000000000000000800000000000000000004000010004000000000100000000000000000000010000000000000000000000000000000000000000000000000000000000000008400000000000000000000000000008002000000000002000000000000000000000100000000001009804000000000000020000000000000000000000000000000000000000000000002000000080000000000",
      "type": "0x2",
      "transactionHash": "0xb31ef3ee1de688c4b05175f09ec73d4c8dd9f29170d1e74765b9f71b930d4834",
      "transactionIndex": "0x4f",
      "blockHash": "0xc7a1ef93c98523a0d21e22d7aa21e1f32c33e090e3f4cd3dfa1c3214764e8938",
      "blockNumber": "0x9bc8d2",
      "gasUsed": "0x15606",
      "effectiveGasPrice": "0x3c6f621b",
      "from": "0xac75578bbdd3c830b32f2de2b8e2a4fa36996082",
      "to": "0x7bf3823d764bd3e2681a71ff703837b508caa8b3",
      "contractAddress": null
    },
    {
      "status": "0x1",
      "cumulativeGasUsed": "0xa2b565",
      "logs": [
        {
          "address": "0xbc7ebadd93107d39a3379d9c600f428eb9765f0c",
          "topics": [
            "0x17307eab39ab6107e8899845ad3d59bd9653f200f220920489ca2b5937696c31",
            "0x0000000000000000000000006fc2fbb2973e592eb6f932a10b3e72eeaa3113c0",
            "0x0000000000000000000000008b86642180149a22c2e06647342f8e250be5f23b"
          ],
          "data": "0x0000000000000000000000000000000000000000000000000000000000000001",
          "blockHash": "0x3fbcf8a637e0bf933c4e8aa5bab65989ca1b832aaab851e9b4a21b7f6bed033c",
          "blockNumber": "0x9bc8d4",
          "blockTimestamp": "0x69870084",
          "transactionHash": "0x42cd7766eca42a8c59c2fa1b1c821f2987395f82a4e243bf095f7bab85b64b2c",
          "transactionIndex": "0x5a",
          "logIndex": "0xa4",
          "removed": false
        }
      ],
      "logsBloom": "0x00000000000000000080000000000000000000000000000000000000000200000200000000000000000000000000000000000000000000000000000000000000000000000000000000000004000000000000000000000000000000000000000002000000000000000000000000000000000000000000000004000000000000000000000000000000000000000000200000800000000000000000010000000000000000000000000000000000000000000000000000000000000000000000000000000000000000000000000000000000000000000000800000000000000000000000200800000000000000000000000000000000000000000000000000000000",
      "type": "0x2",
      "transactionHash": "0x42cd7766eca42a8c59c2fa1b1c821f2987395f82a4e243bf095f7bab85b64b2c",
      "transactionIndex": "0x5a",
      "blockHash": "0x3fbcf8a637e0bf933c4e8aa5bab65989ca1b832aaab851e9b4a21b7f6bed033c",
      "blockNumber": "0x9bc8d4",
      "gasUsed": "0xb468",
      "effectiveGasPrice": "0x3f1441d9",
      "from": "0x6fc2fbb2973e592eb6f932a10b3e72eeaa3113c0",
      "to": "0xbc7ebadd93107d39a3379d9c600f428eb9765f0c",
      "contractAddress": null
    },
    {
      "status": "0x1",
      "cumulativeGasUsed": "0x384747e",
      "logs": [
        {
          "address": "0xbc7ebadd93107d39a3379d9c600f428eb9765f0c",
          "topics": [
            "0x17307eab39ab6107e8899845ad3d59bd9653f200f220920489ca2b5937696c31",
            "0x000000000000000000000000de4a466b7441357e1137a1a1e311bd70c1439ecb",
            "0x0000000000000000000000008b86642180149a22c2e06647342f8e250be5f23b"
          ],
          "data": "0x0000000000000000000000000000000000000000000000000000000000000001",
          "blockHash": "0x52b8a69fad50e390f75f13f82475b0660579717956aee77d1646209dec4d87df",
          "blockNumber": "0x9bc8d5",
          "blockTimestamp": "0x69870090",
          "transactionHash": "0xed582a85c7b2293813fe52a8bbdf948c96f4a3bdd0e906c96f35e791ee0593c7",
          "transactionIndex": "0x64",
          "logIndex": "0xba",
          "removed": false
        }
      ],
      "logsBloom": "0x00000000000000000000000000000000000000000000000000000000000200000200000000000000000000000000000000000000000100000000000000000000000000000000000000000004000000000000000000000000000000000000000002000000000000000000000000000000000000000000000004000000000000000000000000000000000000000000200000000000000000000000000000000000000000000000000000040000000000000000000000000000000400000000000000000000000000000000000000000000000000000000800000000000000000000000200800000000000000000000000000000000000000000000000000000000",
      "type": "0x2",
      "transactionHash": "0xed582a85c7b2293813fe52a8bbdf948c96f4a3bdd0e906c96f35e791ee0593c7",
      "transactionIndex": "0x64",
      "blockHash": "0x52b8a69fad50e390f75f13f82475b0660579717956aee77d1646209dec4d87df",
      "blockNumber": "0x9bc8d5",
      "gasUsed": "0xb468",
      "effectiveGasPrice": "0x3b21f5fa",
      "from": "0xde4a466b7441357e1137a1a1e311bd70c1439ecb",
      "to": "0xbc7ebadd93107d39a3379d9c600f428eb9765f0c",
      "contractAddress": null
    },
    {
      "status": "0x1",
      "cumulativeGasUsed": "0xc5fd50",
      "logs": [
        {
          "address": "0xbc7ebadd93107d39a3379d9c600f428eb9765f0c",
          "topics": [
            "0xc3d58168c5ae7397731d063d5bbf3d657854427343f4c083240f7aacaa2d0f62",
            "0x0000000000000000000000008b86642180149a22c2e06647342f8e250be5f23b",
            "0x0000000000000000000000006fc2fbb2973e592eb6f932a10b3e72eeaa3113c0",
            "0x0000000000000000000000008b86642180149a22c2e06647342f8e250be5f23b"
          ],
          "data": "0x0000000000000000000000000000000000000000000000000000000000000000000000000000000000000000000000000000000000000000000000000000003c",
          "blockHash": "0x1588136e2b25d798f50df79f6901ff2667bf37151b44bc8120f3c5fcb74b83cc",
          "blockNumber": "0x9bc8d6",
          "blockTimestamp": "0x6987009c",
          "transactionHash": "0x1e906a41bc8e6fc6e4cceae5c736d9504e3637cd25f4ea996702fa3dbef5d57e",
          "transactionIndex": "0x58",
          "logIndex": "0x8c",
          "removed": false
        },
        {
          "address": "0x8b86642180149a22c2e06647342f8e250be5f23b",
          "topics": [
            "0xa3941cfa07eecf2734875ab71cea0e47395be644da6e17b039a7e29efba74ef9",
            "0x0000000000000000000000000000000000000000000000000000000000000000",
            "0x0000000000000000000000006fc2fbb2973e592eb6f932a10b3e72eeaa3113c0",
            "0x0000000000000000000000000000000000000000000000000000000000000000"
          ],
          "data": "0x000000000000000000000000000000000000000000000000000000000000003c0000000000000000000000000000000000000000000000000000000007270e00",
          "blockHash": "0x1588136e2b25d798f50df79f6901ff2667bf37151b44bc8120f3c5fcb74b83cc",
          "blockNumber": "0x9bc8d6",
          "blockTimestamp": "0x6987009c",
          "transactionHash": "0x1e906a41bc8e6fc6e4cceae5c736d9504e3637cd25f4ea996702fa3dbef5d57e",
          "transactionIndex": "0x58",
          "logIndex": "0x8d",
          "removed": false
        }
      ],
      "logsBloom": "0x00000000000000008080000000000000000000000000000000000010000200000200000000040000000000000000000000000000000000000000000000002000000000000000000000000004000000000000000000000000000000000000000000000000820000000000000000000800000000000000000004000000000000000000000000000000000000000000200000800000000000000000010000000000000000000000000000000000000000000000000000000000000000000000000000000000000000000000000000000000000000000008800000000000000220000000000000000000000000000000000000000000000000000000080004000000",
      "type": "0x2",
      "transactionHash": "0x1e906a41bc8e6fc6e4cceae5c736d9504e3637cd25f4ea996702fa3dbef5d57e",
      "transactionIndex": "0x58",
      "blockHash": "0x1588136e2b25d798f50df79f6901ff2667bf37151b44bc8120f3c5fcb74b83cc",
      "blockNumber": "0x9bc8d6",
      "gasUsed": "0x2c677",
      "effectiveGasPrice": "0x42829e63",
      "from": "0x6fc2fbb2973e592eb6f932a10b3e72eeaa3113c0",
      "to": "0x8b86642180149a22c2e06647342f8e250be5f23b",
      "contractAddress": null
    },
    {
      "status": "0x1",
      "cumulativeGasUsed": "0x6f298d",
      "logs": [
        {
          "address": "0xbc7ebadd93107d39a3379d9c600f428eb9765f0c",
          "topics": [
            "0xc3d58168c5ae7397731d063d5bbf3d657854427343f4c083240f7aacaa2d0f62",
            "0x0000000000000000000000008b86642180149a22c2e06647342f8e250be5f23b",
            "0x000000000000000000000000de4a466b7441357e1137a1a1e311bd70c1439ecb",
            "0x0000000000000000000000008b86642180149a22c2e06647342f8e250be5f23b"
          ],
          "data": "0x00000000000000000000000000000000000000000000000000000000000000030000000000000000000000000000000000000000000000000000000000000032",
          "blockHash": "0xceff18e29d6bd79e20586071ea17f65814c5ccef3433d6d8d56e25b4b3e34f81",
          "blockNumber": "0x9bc8d7",
          "blockTimestamp": "0x698700a8",
          "transactionHash": "0x2f4d961d348ee09d930b57946f086499f15eb313e0148fd940d4e410b7bed465",
          "transactionIndex": "0x4f",
          "logIndex": "0x79",
          "removed": false
        },
        {
          "address": "0x8b86642180149a22c2e06647342f8e250be5f23b",
          "topics": [
            "0xa3941cfa07eecf2734875ab71cea0e47395be644da6e17b039a7e29efba74ef9",
            "0x0000000000000000000000000000000000000000000000000000000000000001",
            "0x000000000000000000000000de4a466b7441357e1137a1a1e311bd70c1439ecb",
            "0x0000000000000000000000000000000000000000000000000000000000000003"
          ],
          "data": "0x0000000000000000000000000000000000000000000000000000000000000032000000000000000000000000000000000000000000000000000000000510ff40",
          "blockHash": "0xceff18e29d6bd79e20586071ea17f65814c5ccef3433d6d8d56e25b4b3e34f81",
          "blockNumber": "0x9bc8d7",
          "blockTimestamp": "0x698700a8",
          "transactionHash": "0x2f4d961d348ee09d930b57946f086499f15eb313e0148fd940d4e410b7bed465",
          "transactionIndex": "0x4f",
          "logIndex": "0x7a",
          "removed": false
        }
      ],
      "logsBloom": "0x00000000000000008000000000000000000000000000000000000010000200000200000000040000000000000000000000000000020100000000000000042000000000000000000000000004000000000000000000040000000000000000000000000000800000000000000000000000000000000000000004000000000000000000000000000000000000000000200000000000000000000000000000000000000000000000000000040000000000000000000000800000000400000000400000000000000000000000000000000000000000000008800000000000000240000000000000000000000000000000000000000000000000000000080004000000",
      "type": "0x2",
      "transactionHash": "0x2f4d961d348ee09d930b57946f086499f15eb313e0148fd940d4e410b7bed465",
      "transactionIndex": "0x4f",
      "blockHash": "0xceff18e29d6bd79e20586071ea17f65814c5ccef3433d6d8d56e25b4b3e34f81",
      "blockNumber": "0x9bc8d7",
      "gasUsed": "0x2d17f",
      "effectiveGasPrice": "0x3f59b322",
      "from": "0xde4a466b7441357e1137a1a1e311bd70c1439ecb",
      "to": "0x8b86642180149a22c2e06647342f8e250be5f23b",
      "contractAddress": null
    },
    {
      "status": "0x1",
      "cumulativeGasUsed": "0xbb4279",
      "logs": [
        {
          "address": "0x5ae69a270f061d8435100938b2cef210d1f8348f",
          "topics": [
            "0x8c5be1e5ebec7d5bd14f71427d1e84f3dd0314c0f7b2291e5b200ac8c7c3b925",
            "0x000000000000000000000000de4a466b7441357e1137a1a1e311bd70c1439ecb",
            "0x0000000000000000000000008b86642180149a22c2e06647342f8e250be5f23b"
          ],
          "data": "0x0000000000000000000000000000000000000000000000000000000165a0bc00",
          "blockHash": "0x66138568c3c9c3884074b2f5f1b2e18b3d171d3dd29f6426d3355713367f17f0",
          "blockNumber": "0x9bc8d9",
          "blockTimestamp": "0x698700c0",
          "transactionHash": "0xa1eb6bbf71161b97ba3454f8ff1415b37fa289606c566a8a254ec064b7a0f933",
          "transactionIndex": "0x47",
          "logIndex": "0x69",
          "removed": false
        }
      ],
      "logsBloom": "0x00000000000000000000000000000000000000000000000000000000000200000200000000000000000000000000000000000000000100000000000000200000000000000000000000000000000000000000000000000000000000000000000000000000000000000000000000000000000000000000000000000000000000000000000000000000000000000010200000000000000000000000000000000000020000000000000000040000000000000000000000000000000400000000000000000000000000000000000000000000000000000000004000000000000000000010000000000000000000000000000000000000000002000000000000000000",
      "type": "0x2",
      "transactionHash": "0xa1eb6bbf71161b97ba3454f8ff1415b37fa289606c566a8a254ec064b7a0f933",
      "transactionIndex": "0x47",
      "blockHash": "0x66138568c3c9c3884074b2f5f1b2e18b3d171d3dd29f6426d3355713367f17f0",
      "blockNumber": "0x9bc8d9",
      "gasUsed": "0xb524",
      "effectiveGasPrice": "0x41decc2c",
      "from": "0xde4a466b7441357e1137a1a1e311bd70c1439ecb",
      "to": "0x5ae69a270f061d8435100938b2cef210d1f8348f",
      "contractAddress": null
    },
    {
      "status": "0x1",
      "cumulativeGasUsed": "0x72f935",
      "logs": [
        {
          "address": "0x5ae69a270f061d8435100938b2cef210d1f8348f",
          "topics": [
            "0xddf252ad1be2c89b69c2b068fc378daa952ba7f163c4a11628f55a4df523b3ef",
            "0x000000000000000000000000de4a466b7441357e1137a1a1e311bd70c1439ecb",
            "0x0000000000000000000000006fc2fbb2973e592eb6f932a10b3e72eeaa3113c0"
          ],
          "data": "0x000000000000000000000000000000000000000000000000000000011e1a3000",
          "blockHash": "0x7e41711990862b0304055c1e951ba0a3518bab281b5f1e39d2dc3e0968e64e5a",
          "blockNumber": "0x9bc8da",
          "blockTimestamp": "0x698700cc",
          "transactionHash": "0x7904ec55225885a9f653753cf475072676b07bdf57493cdbf3344baf3c1d17ea",
          "transactionIndex": "0x4d",
          "logIndex": "0x7b",
          "removed": false
        },
        {
          "address": "0xbc7ebadd93107d39a3379d9c600f428eb9765f0c",
          "topics": [
            "0xc3d58168c5ae7397731d063d5bbf3d657854427343f4c083240f7aacaa2d0f62",
            "0x0000000000000000000000008b86642180149a22c2e06647342f8e250be5f23b",
            "0x0000000000000000000000008b86642180149a22c2e06647342f8e250be5f23b",
            "0x000000000000000000000000de4a466b7441357e1137a1a1e311bd70c1439ecb"
          ],
          "data": "0x00000000000000000000000000000000000000000000000000000000000000000000000000000000000000000000000000000000000000000000000000000028",
          "blockHash": "0x7e41711990862b0304055c1e951ba0a3518bab281b5f1e39d2dc3e0968e64e5a",
          "blockNumber": "0x9bc8da",
          "blockTimestamp": "0x698700cc",
          "transactionHash": "0x7904ec55225885a9f653753cf475072676b07bdf57493cdbf3344baf3c1d17ea",
          "transactionIndex": "0x4d",
          "logIndex": "0x7c",
          "removed": false
        },
        {
          "address": "0x8b86642180149a22c2e06647342f8e250be5f23b",
          "topics": [
            "0xb3556955a489fb1ff1cf2ce48ea54f262b9cb31e1e22a13f66142172e71cb52f",
            "0x0000000000000000000000000000000000000000000000000000000000000000",
            "0x000000000000000000000000de4a466b7441357e1137a1a1e311bd70c1439ecb",
            "0x0000000000000000000000006fc2fbb2973e592eb6f932a10b3e72eeaa3113c0"
          ],
          "data": "0x00000000000000000000000000000000000000000000000000000000000000000000000000000000000000000000000000000000000000000000000000000028000000000000000000000000000000000000000000000000000000011e1a3000",
          "blockHash": "0x7e41711990862b0304055c1e951ba0a3518bab281b5f1e39d2dc3e0968e64e5a",
          "blockNumber": "0x9bc8da",
          "blockTimestamp": "0x698700cc",
          "transactionHash": "0x7904ec55225885a9f653753cf475072676b07bdf57493cdbf3344baf3c1d17ea",
          "transactionIndex": "0x4d",
          "logIndex": "0x7d",
          "removed": false
        },
        {
          "address": "0x8b86642180149a22c2e06647342f8e250be5f23b",
          "topics": [
            "0x66bcde9f7aec9b81719a4fdec54cbafbf6c834d1f2f989d9cd2134dab8d0c0de",
            "0x0000000000000000000000000000000000000000000000000000000000000000"
          ],
          "data": "0x0000000000000000000000000000000000000000000000000000000000000014",
          "blockHash": "0x7e41711990862b0304055c1e951ba0a3518bab281b5f1e39d2dc3e0968e64e5a",
          "blockNumber": "0x9bc8da",
          "blockTimestamp": "0x698700cc",
          "transactionHash": "0x7904ec55225885a9f653753cf475072676b07bdf57493cdbf3344baf3c1d17ea",
          "transactionIndex": "0x4d",
          "logIndex": "0x7e",
          "removed": false
        }
      ],
      "logsBloom": "0x0000000000000000008000000000000001000000000010000000001000020000020000000000000000000000000000000000000100010000000000000000200000000000000000000000000c000000000000000000000000000000000000000000000000820000000000000000000800000000000000400004000010000000000000000000000000000000000010200000800000000000000000010000000000000000000000000000040000000000200000000000000000000400000000000000000002000000000000000000000000000000000008804000000000000220000000000000400000000000000000000000000000000002000000080000000000",
      "type": "0x2",
      "transactionHash": "0x7904ec55225885a9f653753cf475072676b07bdf57493cdbf3344baf3c1d17ea",
      "transactionIndex": "0x4d",
      "blockHash": "0x7e41711990862b0304055c1e951ba0a3518bab281b5f1e39d2dc3e0968e64e5a",
      "blockNumber": "0x9bc8da",
      "gasUsed": "0x19765",
      "effectiveGasPrice": "0x3e915524",
      "from": "0xde4a466b7441357e1137a1a1e311bd70c1439ecb",
      "to": "0x8b86642180149a22c2e06647342f8e250be5f23b",
      "contractAddress": null
    },
    {
      "status": "0x1",
      "cumulativeGasUsed": "0x3823126",
      "logs": [
        {
          "address": "0x5ae69a270f061d8435100938b2cef210d1f8348f",
          "topics": [
            "0x8c5be1e5ebec7d5bd14f71427d1e84f3dd0314c0f7b2291e5b200ac8c7c3b925",
            "0x000000000000000000000000ac75578bbdd3c830b32f2de2b8e2a4fa36996082",
            "0x0000000000000000000000008b86642180149a22c2e06647342f8e250be5f23b"
          ],
          "data": "0x000000000000000000000000000000000000000000000000000000012a05f200",
          "blockHash": "0x553df30f487ff48da5187e74f49abebc9cd26a274a485efc5b4600b1b4aee650",
          "blockNumber": "0x9bc8db",
          "blockTimestamp": "0x698700d8",
          "transactionHash": "0x7e45ac7b423090d94d007b31eb1200ca694123e4fb5ce4757cb3ec8a235c856e",
          "transactionIndex": "0x5a",
          "logIndex": "0x9b",
          "removed": false
        }
      ],
      "logsBloom": "0x00000000000000000000000000000000000000000000000000000000000200000200000000000000000000000000000000010000000000000000000000200000000000000000000000000000000000000000000000000000000000000000000000000000000000000000000000000000000000000000000000000000000000000000000000000000000000000010200000000000000000000000000000000000020000000000000000000000008000000000000000000000000000000000000000000000000000000000000000000000000000000001004000000000000000000010000000000000000000000000000000000000000002000000000000000000",
      "type": "0x2",
      "transactionHash": "0x7e45ac7b423090d94d007b31eb1200ca694123e4fb5ce4757cb3ec8a235c856e",
      "transactionIndex": "0x5a",
      "blockHash": "0x553df30f487ff48da5187e74f49abebc9cd26a274a485efc5b4600b1b4aee650",
      "blockNumber": "0x9bc8db",
      "gasUsed": "0xb524",
      "effectiveGasPrice": "0x39d6d160",
      "from": "0xac75578bbdd3c830b32f2de2b8e2a4fa36996082",
      "to": "0x5ae69a270f061d8435100938b2cef210d1f8348f",
      "contractAddress": null
    },
    {
      "status": "0x1",
      "cumulativeGasUsed": "0x984ce7",
      "logs": [
        {
          "address": "0x5ae69a270f061d8435100938b2cef210d1f8348f",
          "topics": [
            "0xddf252ad1be2c89b69c2b068fc378daa952ba7f163c4a11628f55a4df523b3ef",
            "0x000000000000000000000000ac75578bbdd3c830b32f2de2b8e2a4fa36996082",
            "0x000000000000000000000000de4a466b7441357e1137a1a1e311bd70c1439ecb"
          ],
          "data": "0x0000000000000000000000000000000000000000000000000000000097fde980",
          "blockHash": "0x4ab5aa9baa30aead90939bd806ce9496087f1fcc02163d0d8bb8d28a6367ea42",
          "blockNumber": "0x9bc8dc",
          "blockTimestamp": "0x698700e4",
          "transactionHash": "0x3ae4784f9ec61537cc5c112114deb8700fec4e47c7c552169557f17d7f24c52e",
          "transactionIndex": "0x59",
          "logIndex": "0x9a",
          "removed": false
        },
        {
          "address": "0xbc7ebadd93107d39a3379d9c600f428eb9765f0c",
          "topics": [
            "0xc3d58168c5ae7397731d063d5bbf3d657854427343f4c083240f7aacaa2d0f62",
            "0x0000000000000000000000008b86642180149a22c2e06647342f8e250be5f23b",
            "0x0000000000000000000000008b86642180149a22c2e06647342f8e250be5f23b",
            "0x000000000000000000000000ac75578bbdd3c830b32f2de2b8e2a4fa36996082"
          ],
          "data": "0x0000000000000000000000000000000000000000000000000000000000000003000000000000000000000000000000000000000000000000000000000000001e",
          "blockHash": "0x4ab5aa9baa30aead90939bd806ce9496087f1fcc02163d0d8bb8d28a6367ea42",
          "blockNumber": "0x9bc8dc",
          "blockTimestamp": "0x698700e4",
          "transactionHash": "0x3ae4784f9ec61537cc5c112114deb8700fec4e47c7c552169557f17d7f24c52e",
          "transactionIndex": "0x59",
          "logIndex": "0x9b",
          "removed": false
        },
        {
          "address": "0x8b86642180149a22c2e06647342f8e250be5f23b",
          "topics": [
            "0xb3556955a489fb1ff1cf2ce48ea54f262b9cb31e1e22a13f66142172e71cb52f",
            "0x0000000000000000000000000000000000000000000000000000000000000001",
            "0x000000000000000000000000ac75578bbdd3c830b32f2de2b8e2a4fa36996082",
            "0x000000000000000000000000de4a466b7441357e1137a1a1e311bd70c1439ecb"
          ],
          "data": "0x0000000000000000000000000000000000000000000000000000000000000003000000000000000000000000000000000000000000000000000000000000001e0000000000000000000000000000000000000000000000000000000097fde980",
          "blockHash": "0x4ab5aa9baa30aead90939bd806ce9496087f1fcc02163d0d8bb8d28a6367ea42",
          "blockNumber": "0x9bc8dc",
          "blockTimestamp": "0x698700e4",
          "transactionHash": "0x3ae4784f9ec61537cc5c112114deb8700fec4e47c7c552169557f17d7f24c52e",
          "transactionIndex": "0x59",
          "logIndex": "0x9c",
          "removed": false
        },
        {
          "address": "0x8b86642180149a22c2e06647342f8e250be5f23b",
          "topics": [
            "0x66bcde9f7aec9b81719a4fdec54cbafbf6c834d1f2f989d9cd2134dab8d0c0de",
            "0x0000000000000000000000000000000000000000000000000000000000000001"
          ],
          "data": "0x0000000000000000000000000000000000000000000000000000000000000014",
          "blockHash": "0x4ab5aa9baa30aead90939bd806ce9496087f1fcc02163d0d8bb8d28a6367ea42",
          "blockNumber": "0x9bc8dc",
          "blockTimestamp": "0x698700e4",
          "transactionHash": "0x3ae4784f9ec61537cc5c112114deb8700fec4e47c7c552169557f17d7f24c52e",
          "transactionIndex": "0x59",
          "logIndex": "0x9d",
          "removed": false
        }
      ],
      "logsBloom": "0x0000000000000000000000000000000001000000000010000000001000020000020000000000000000000000000000000001000100010000000000000004200000000000000000000000000c000000000000000000040000000000000000000000000000800000000000000000000000000000000000400004000010000000000000000000000000000000000010200000000000000000000000000000000000000000000000000000040000008000200000000000000000000400000000000000000002000000000000000000000000000000000009804000000000000240000000000000400000000000000000000000000000000002000000080000000000",
      "type": "0x2",
      "transactionHash": "0x3ae4784f9ec61537cc5c112114deb8700fec4e47c7c552169557f17d7f24c52e",
      "transactionIndex": "0x59",
      "blockHash": "0x4ab5aa9baa30aead90939bd806ce9496087f1fcc02163d0d8bb8d28a6367ea42",
      "blockNumber": "0x9bc8dc",
      "gasUsed": "0x19771",
      "effectiveGasPrice": "0x40fee7ca",
      "from": "0xac75578bbdd3c830b32f2de2b8e2a4fa36996082",
      "to": "0x8b86642180149a22c2e06647342f8e250be5f23b",
      "contractAddress": null
    }
  ],
  "libraries": [],
  "pending": [],
  "returns": {},
  "timestamp": 1770455338587,
  "chain": 11155111,
  "commit": "cbe1a58"
}